{
	"mathFunctions.sol": {
		"mathFunctions": {
			"abi": [
				{
					"inputs": [
						{
							"internalType": "int16",
							"name": "num",
							"type": "int16"
						}
					],
					"name": "checkSign",
					"outputs": [
						{
							"internalType": "string",
							"name": "",
							"type": "string"
						}
					],
					"stateMutability": "pure",
					"type": "function"
				},
				{
					"inputs": [
						{
							"internalType": "uint16",
							"name": "_number1",
							"type": "uint16"
						},
						{
							"internalType": "uint16",
							"name": "_number2",
							"type": "uint16"
						},
						{
							"internalType": "uint16",
							"name": "_number3",
							"type": "uint16"
						}
					],
					"name": "findLargest",
					"outputs": [
						{
							"internalType": "uint16",
							"name": "large",
							"type": "uint16"
						}
					],
					"stateMutability": "pure",
					"type": "function"
				},
				{
					"inputs": [],
					"name": "getDigit",
					"outputs": [
						{
							"internalType": "uint16",
							"name": "",
							"type": "uint16"
						},
						{
							"internalType": "uint16",
							"name": "",
							"type": "uint16"
						},
						{
							"internalType": "uint16",
							"name": "",
							"type": "uint16"
						}
					],
					"stateMutability": "view",
					"type": "function"
				},
				{
					"inputs": [
						{
							"internalType": "uint16",
							"name": "_number1",
							"type": "uint16"
						}
					],
					"name": "setWords",
					"outputs": [
						{
							"internalType": "string",
							"name": "",
							"type": "string"
						}
					],
					"stateMutability": "view",
					"type": "function"
				}
			],
			"devdoc": {
				"kind": "dev",
				"methods": {},
				"version": 1
			},
			"evm": {
				"assembly": "    /* \"mathFunctions.sol\":57:1163  contract mathFunctions {... */\n  mstore(0x40, 0x80)\n    /* \"mathFunctions.sol\":146:234  string[10] array=[\"zero\",\"one\",\"two\",\"three\",\"four\",\"five\",\"six\",\"seven\",\"eight\",\"nine\"] */\n  mload(0x40)\n  dup1\n  0x0140\n  add\n  0x40\n  mstore\n  dup1\n  mload(0x40)\n  dup1\n  0x40\n  add\n  0x40\n  mstore\n  dup1\n  0x04\n  dup2\n  mstore\n  0x20\n  add\n  0x7a65726f00000000000000000000000000000000000000000000000000000000\n  dup2\n  mstore\n  pop\n  dup2\n  mstore\n  0x20\n  add\n  mload(0x40)\n  dup1\n  0x40\n  add\n  0x40\n  mstore\n  dup1\n  0x03\n  dup2\n  mstore\n  0x20\n  add\n  0x6f6e650000000000000000000000000000000000000000000000000000000000\n  dup2\n  mstore\n  pop\n  dup2\n  mstore\n  0x20\n  add\n  mload(0x40)\n  dup1\n  0x40\n  add\n  0x40\n  mstore\n  dup1\n  0x03\n  dup2\n  mstore\n  0x20\n  add\n  0x74776f0000000000000000000000000000000000000000000000000000000000\n  dup2\n  mstore\n  pop\n  dup2\n  mstore\n  0x20\n  add\n  mload(0x40)\n  dup1\n  0x40\n  add\n  0x40\n  mstore\n  dup1\n  0x05\n  dup2\n  mstore\n  0x20\n  add\n  0x7468726565000000000000000000000000000000000000000000000000000000\n  dup2\n  mstore\n  pop\n  dup2\n  mstore\n  0x20\n  add\n  mload(0x40)\n  dup1\n  0x40\n  add\n  0x40\n  mstore\n  dup1\n  0x04\n  dup2\n  mstore\n  0x20\n  add\n  0x666f757200000000000000000000000000000000000000000000000000000000\n  dup2\n  mstore\n  pop\n  dup2\n  mstore\n  0x20\n  add\n  mload(0x40)\n  dup1\n  0x40\n  add\n  0x40\n  mstore\n  dup1\n  0x04\n  dup2\n  mstore\n  0x20\n  add\n  0x6669766500000000000000000000000000000000000000000000000000000000\n  dup2\n  mstore\n  pop\n  dup2\n  mstore\n  0x20\n  add\n  mload(0x40)\n  dup1\n  0x40\n  add\n  0x40\n  mstore\n  dup1\n  0x03\n  dup2\n  mstore\n  0x20\n  add\n  0x7369780000000000000000000000000000000000000000000000000000000000\n  dup2\n  mstore\n  pop\n  dup2\n  mstore\n  0x20\n  add\n  mload(0x40)\n  dup1\n  0x40\n  add\n  0x40\n  mstore\n  dup1\n  0x05\n  dup2\n  mstore\n  0x20\n  add\n  0x736576656e000000000000000000000000000000000000000000000000000000\n  dup2\n  mstore\n  pop\n  dup2\n  mstore\n  0x20\n  add\n  mload(0x40)\n  dup1\n  0x40\n  add\n  0x40\n  mstore\n  dup1\n  0x05\n  dup2\n  mstore\n  0x20\n  add\n  0x6569676874000000000000000000000000000000000000000000000000000000\n  dup2\n  mstore\n  pop\n  dup2\n  mstore\n  0x20\n  add\n  mload(0x40)\n  dup1\n  0x40\n  add\n  0x40\n  mstore\n  dup1\n  0x04\n  dup2\n  mstore\n  0x20\n  add\n  0x6e696e6500000000000000000000000000000000000000000000000000000000\n  dup2\n  mstore\n  pop\n  dup2\n  mstore\n  pop\n  0x01\n  swap1\n  0x0a\n  tag_1\n  swap3\n  swap2\n  swap1\n  tag_2\n  jump\t// in\ntag_1:\n  pop\n    /* \"mathFunctions.sol\":57:1163  contract mathFunctions {... */\n  callvalue\n  dup1\n  iszero\n  tag_3\n  jumpi\n  revert(0x00, 0x00)\ntag_3:\n  pop\n  jump(tag_4)\ntag_2:\n  dup3\n  0x0a\n  dup2\n  add\n  swap3\n  dup3\n  iszero\n  tag_5\n  jumpi\n  swap2\n  0x20\n  mul\n  dup3\n  add\ntag_6:\n  dup3\n  dup2\n  gt\n  iszero\n  tag_7\n  jumpi\n  dup3\n  mload\n  dup3\n  swap1\n  dup2\n  tag_8\n  swap2\n  swap1\n  tag_9\n  jump\t// in\ntag_8:\n  pop\n  swap2\n  0x20\n  add\n  swap2\n  swap1\n  0x01\n  add\n  swap1\n  jump(tag_6)\ntag_7:\ntag_5:\n  pop\n  swap1\n  pop\n  tag_10\n  swap2\n  swap1\n  tag_11\n  jump\t// in\ntag_10:\n  pop\n  swap1\n  jump\t// out\ntag_11:\ntag_12:\n  dup1\n  dup3\n  gt\n  iszero\n  tag_13\n  jumpi\n  0x00\n  dup2\n  dup2\n  tag_14\n  swap2\n  swap1\n  tag_15\n  jump\t// in\ntag_14:\n  pop\n  0x01\n  add\n  jump(tag_12)\ntag_13:\n  pop\n  swap1\n  jump\t// out\ntag_15:\n  pop\n  dup1\n  sload\n  tag_16\n  swap1\n  tag_17\n  jump\t// in\ntag_16:\n  0x00\n  dup3\n  sstore\n  dup1\n  0x1f\n  lt\n  tag_19\n  jumpi\n  pop\n  jump(tag_18)\ntag_19:\n  0x1f\n  add\n  0x20\n  swap1\n  div\n  swap1\n  0x00\n  mstore\n  keccak256(0x00, 0x20)\n  swap1\n  dup2\n  add\n  swap1\n  tag_20\n  swap2\n  swap1\n  tag_21\n  jump\t// in\ntag_20:\ntag_18:\n  pop\n  jump\t// out\ntag_21:\ntag_22:\n  dup1\n  dup3\n  gt\n  iszero\n  tag_23\n  jumpi\n  0x00\n  dup2\n  0x00\n  swap1\n  sstore\n  pop\n  0x01\n  add\n  jump(tag_22)\ntag_23:\n  pop\n  swap1\n  jump\t// out\n    /* \"#utility.yul\":7:106   */\ntag_24:\n    /* \"#utility.yul\":59:65   */\n  0x00\n    /* \"#utility.yul\":93:98   */\n  dup2\n    /* \"#utility.yul\":87:99   */\n  mload\n    /* \"#utility.yul\":77:99   */\n  swap1\n  pop\n    /* \"#utility.yul\":7:106   */\n  swap2\n  swap1\n  pop\n  jump\t// out\n    /* \"#utility.yul\":112:292   */\ntag_25:\n    /* \"#utility.yul\":160:237   */\n  0x4e487b7100000000000000000000000000000000000000000000000000000000\n    /* \"#utility.yul\":157:158   */\n  0x00\n    /* \"#utility.yul\":150:238   */\n  mstore\n    /* \"#utility.yul\":257:261   */\n  0x41\n    /* \"#utility.yul\":254:255   */\n  0x04\n    /* \"#utility.yul\":247:262   */\n  mstore\n    /* \"#utility.yul\":281:285   */\n  0x24\n    /* \"#utility.yul\":278:279   */\n  0x00\n    /* \"#utility.yul\":271:286   */\n  revert\n    /* \"#utility.yul\":298:478   */\ntag_26:\n    /* \"#utility.yul\":346:423   */\n  0x4e487b7100000000000000000000000000000000000000000000000000000000\n    /* \"#utility.yul\":343:344   */\n  0x00\n    /* \"#utility.yul\":336:424   */\n  mstore\n    /* \"#utility.yul\":443:447   */\n  0x22\n    /* \"#utility.yul\":440:441   */\n  0x04\n    /* \"#utility.yul\":433:448   */\n  mstore\n    /* \"#utility.yul\":467:471   */\n  0x24\n    /* \"#utility.yul\":464:465   */\n  0x00\n    /* \"#utility.yul\":457:472   */\n  revert\n    /* \"#utility.yul\":484:804   */\ntag_17:\n    /* \"#utility.yul\":528:534   */\n  0x00\n    /* \"#utility.yul\":565:566   */\n  0x02\n    /* \"#utility.yul\":559:563   */\n  dup3\n    /* \"#utility.yul\":555:567   */\n  div\n    /* \"#utility.yul\":545:567   */\n  swap1\n  pop\n    /* \"#utility.yul\":612:613   */\n  0x01\n    /* \"#utility.yul\":606:610   */\n  dup3\n    /* \"#utility.yul\":602:614   */\n  and\n    /* \"#utility.yul\":633:651   */\n  dup1\n    /* \"#utility.yul\":623:704   */\n  tag_48\n  jumpi\n    /* \"#utility.yul\":689:693   */\n  0x7f\n    /* \"#utility.yul\":681:687   */\n  dup3\n    /* \"#utility.yul\":677:694   */\n  and\n    /* \"#utility.yul\":667:694   */\n  swap2\n  pop\n    /* \"#utility.yul\":623:704   */\ntag_48:\n    /* \"#utility.yul\":751:753   */\n  0x20\n    /* \"#utility.yul\":743:749   */\n  dup3\n    /* \"#utility.yul\":740:754   */\n  lt\n    /* \"#utility.yul\":720:738   */\n  dup2\n    /* \"#utility.yul\":717:755   */\n  sub\n    /* \"#utility.yul\":714:798   */\n  tag_49\n  jumpi\n    /* \"#utility.yul\":770:788   */\n  tag_50\n  tag_26\n  jump\t// in\ntag_50:\n    /* \"#utility.yul\":714:798   */\ntag_49:\n    /* \"#utility.yul\":535:804   */\n  pop\n    /* \"#utility.yul\":484:804   */\n  swap2\n  swap1\n  pop\n  jump\t// out\n    /* \"#utility.yul\":810:951   */\ntag_27:\n    /* \"#utility.yul\":859:863   */\n  0x00\n    /* \"#utility.yul\":882:885   */\n  dup2\n    /* \"#utility.yul\":874:885   */\n  swap1\n  pop\n    /* \"#utility.yul\":905:908   */\n  dup2\n    /* \"#utility.yul\":902:903   */\n  0x00\n    /* \"#utility.yul\":895:909   */\n  mstore\n    /* \"#utility.yul\":939:943   */\n  0x20\n    /* \"#utility.yul\":936:937   */\n  0x00\n    /* \"#utility.yul\":926:944   */\n  keccak256\n    /* \"#utility.yul\":918:944   */\n  swap1\n  pop\n    /* \"#utility.yul\":810:951   */\n  swap2\n  swap1\n  pop\n  jump\t// out\n    /* \"#utility.yul\":957:1050   */\ntag_28:\n    /* \"#utility.yul\":994:1000   */\n  0x00\n    /* \"#utility.yul\":1041:1043   */\n  0x20\n    /* \"#utility.yul\":1036:1038   */\n  0x1f\n    /* \"#utility.yul\":1029:1034   */\n  dup4\n    /* \"#utility.yul\":1025:1039   */\n  add\n    /* \"#utility.yul\":1021:1044   */\n  div\n    /* \"#utility.yul\":1011:1044   */\n  swap1\n  pop\n    /* \"#utility.yul\":957:1050   */\n  swap2\n  swap1\n  pop\n  jump\t// out\n    /* \"#utility.yul\":1056:1163   */\ntag_29:\n    /* \"#utility.yul\":1100:1108   */\n  0x00\n    /* \"#utility.yul\":1150:1155   */\n  dup3\n    /* \"#utility.yul\":1144:1148   */\n  dup3\n    /* \"#utility.yul\":1140:1156   */\n  shl\n    /* \"#utility.yul\":1119:1156   */\n  swap1\n  pop\n    /* \"#utility.yul\":1056:1163   */\n  swap3\n  swap2\n  pop\n  pop\n  jump\t// out\n    /* \"#utility.yul\":1169:1562   */\ntag_30:\n    /* \"#utility.yul\":1238:1244   */\n  0x00\n    /* \"#utility.yul\":1288:1289   */\n  0x08\n    /* \"#utility.yul\":1276:1286   */\n  dup4\n    /* \"#utility.yul\":1272:1290   */\n  mul\n    /* \"#utility.yul\":1311:1408   */\n  tag_55\n    /* \"#utility.yul\":1341:1407   */\n  0xffffffffffffffffffffffffffffffffffffffffffffffffffffffffffffffff\n    /* \"#utility.yul\":1330:1339   */\n  dup3\n    /* \"#utility.yul\":1311:1408   */\n  tag_29\n  jump\t// in\ntag_55:\n    /* \"#utility.yul\":1429:1468   */\n  tag_56\n    /* \"#utility.yul\":1459:1467   */\n  dup7\n    /* \"#utility.yul\":1448:1457   */\n  dup4\n    /* \"#utility.yul\":1429:1468   */\n  tag_29\n  jump\t// in\ntag_56:\n    /* \"#utility.yul\":1417:1468   */\n  swap6\n  pop\n    /* \"#utility.yul\":1501:1505   */\n  dup1\n    /* \"#utility.yul\":1497:1506   */\n  not\n    /* \"#utility.yul\":1490:1495   */\n  dup5\n    /* \"#utility.yul\":1486:1507   */\n  and\n    /* \"#utility.yul\":1477:1507   */\n  swap4\n  pop\n    /* \"#utility.yul\":1550:1554   */\n  dup1\n    /* \"#utility.yul\":1540:1548   */\n  dup7\n    /* \"#utility.yul\":1536:1555   */\n  and\n    /* \"#utility.yul\":1529:1534   */\n  dup5\n    /* \"#utility.yul\":1526:1556   */\n  or\n    /* \"#utility.yul\":1516:1556   */\n  swap3\n  pop\n    /* \"#utility.yul\":1245:1562   */\n  pop\n  pop\n    /* \"#utility.yul\":1169:1562   */\n  swap4\n  swap3\n  pop\n  pop\n  pop\n  jump\t// out\n    /* \"#utility.yul\":1568:1645   */\ntag_31:\n    /* \"#utility.yul\":1605:1612   */\n  0x00\n    /* \"#utility.yul\":1634:1639   */\n  dup2\n    /* \"#utility.yul\":1623:1639   */\n  swap1\n  pop\n    /* \"#utility.yul\":1568:1645   */\n  swap2\n  swap1\n  pop\n  jump\t// out\n    /* \"#utility.yul\":1651:1711   */\ntag_32:\n    /* \"#utility.yul\":1679:1682   */\n  0x00\n    /* \"#utility.yul\":1700:1705   */\n  dup2\n    /* \"#utility.yul\":1693:1705   */\n  swap1\n  pop\n    /* \"#utility.yul\":1651:1711   */\n  swap2\n  swap1\n  pop\n  jump\t// out\n    /* \"#utility.yul\":1717:1859   */\ntag_33:\n    /* \"#utility.yul\":1767:1776   */\n  0x00\n    /* \"#utility.yul\":1800:1853   */\n  tag_60\n    /* \"#utility.yul\":1818:1852   */\n  tag_61\n    /* \"#utility.yul\":1827:1851   */\n  tag_62\n    /* \"#utility.yul\":1845:1850   */\n  dup5\n    /* \"#utility.yul\":1827:1851   */\n  tag_31\n  jump\t// in\ntag_62:\n    /* \"#utility.yul\":1818:1852   */\n  tag_32\n  jump\t// in\ntag_61:\n    /* \"#utility.yul\":1800:1853   */\n  tag_31\n  jump\t// in\ntag_60:\n    /* \"#utility.yul\":1787:1853   */\n  swap1\n  pop\n    /* \"#utility.yul\":1717:1859   */\n  swap2\n  swap1\n  pop\n  jump\t// out\n    /* \"#utility.yul\":1865:1940   */\ntag_34:\n    /* \"#utility.yul\":1908:1911   */\n  0x00\n    /* \"#utility.yul\":1929:1934   */\n  dup2\n    /* \"#utility.yul\":1922:1934   */\n  swap1\n  pop\n    /* \"#utility.yul\":1865:1940   */\n  swap2\n  swap1\n  pop\n  jump\t// out\n    /* \"#utility.yul\":1946:2215   */\ntag_35:\n    /* \"#utility.yul\":2056:2095   */\n  tag_65\n    /* \"#utility.yul\":2087:2094   */\n  dup4\n    /* \"#utility.yul\":2056:2095   */\n  tag_33\n  jump\t// in\ntag_65:\n    /* \"#utility.yul\":2117:2208   */\n  tag_66\n    /* \"#utility.yul\":2166:2207   */\n  tag_67\n    /* \"#utility.yul\":2190:2206   */\n  dup3\n    /* \"#utility.yul\":2166:2207   */\n  tag_34\n  jump\t// in\ntag_67:\n    /* \"#utility.yul\":2158:2164   */\n  dup5\n    /* \"#utility.yul\":2151:2155   */\n  dup5\n    /* \"#utility.yul\":2145:2156   */\n  sload\n    /* \"#utility.yul\":2117:2208   */\n  tag_30\n  jump\t// in\ntag_66:\n    /* \"#utility.yul\":2111:2115   */\n  dup3\n    /* \"#utility.yul\":2104:2209   */\n  sstore\n    /* \"#utility.yul\":2022:2215   */\n  pop\n    /* \"#utility.yul\":1946:2215   */\n  pop\n  pop\n  pop\n  jump\t// out\n    /* \"#utility.yul\":2221:2294   */\ntag_36:\n    /* \"#utility.yul\":2266:2269   */\n  0x00\n    /* \"#utility.yul\":2287:2288   */\n  0x00\n    /* \"#utility.yul\":2280:2288   */\n  swap1\n  pop\n    /* \"#utility.yul\":2221:2294   */\n  swap1\n  jump\t// out\n    /* \"#utility.yul\":2300:2489   */\ntag_37:\n    /* \"#utility.yul\":2377:2409   */\n  tag_70\n  tag_36\n  jump\t// in\ntag_70:\n    /* \"#utility.yul\":2418:2483   */\n  tag_71\n    /* \"#utility.yul\":2476:2482   */\n  dup2\n    /* \"#utility.yul\":2468:2474   */\n  dup5\n    /* \"#utility.yul\":2462:2466   */\n  dup5\n    /* \"#utility.yul\":2418:2483   */\n  tag_35\n  jump\t// in\ntag_71:\n    /* \"#utility.yul\":2353:2489   */\n  pop\n    /* \"#utility.yul\":2300:2489   */\n  pop\n  pop\n  jump\t// out\n    /* \"#utility.yul\":2495:2681   */\ntag_38:\n    /* \"#utility.yul\":2555:2675   */\ntag_73:\n    /* \"#utility.yul\":2572:2575   */\n  dup2\n    /* \"#utility.yul\":2565:2570   */\n  dup2\n    /* \"#utility.yul\":2562:2576   */\n  lt\n    /* \"#utility.yul\":2555:2675   */\n  iszero\n  tag_75\n  jumpi\n    /* \"#utility.yul\":2626:2665   */\n  tag_76\n    /* \"#utility.yul\":2663:2664   */\n  0x00\n    /* \"#utility.yul\":2656:2661   */\n  dup3\n    /* \"#utility.yul\":2626:2665   */\n  tag_37\n  jump\t// in\ntag_76:\n    /* \"#utility.yul\":2599:2600   */\n  0x01\n    /* \"#utility.yul\":2592:2597   */\n  dup2\n    /* \"#utility.yul\":2588:2601   */\n  add\n    /* \"#utility.yul\":2579:2601   */\n  swap1\n  pop\n    /* \"#utility.yul\":2555:2675   */\n  jump(tag_73)\ntag_75:\n    /* \"#utility.yul\":2495:2681   */\n  pop\n  pop\n  jump\t// out\n    /* \"#utility.yul\":2687:3230   */\ntag_39:\n    /* \"#utility.yul\":2788:2790   */\n  0x1f\n    /* \"#utility.yul\":2783:2786   */\n  dup3\n    /* \"#utility.yul\":2780:2791   */\n  gt\n    /* \"#utility.yul\":2777:3223   */\n  iszero\n  tag_78\n  jumpi\n    /* \"#utility.yul\":2822:2860   */\n  tag_79\n    /* \"#utility.yul\":2854:2859   */\n  dup2\n    /* \"#utility.yul\":2822:2860   */\n  tag_27\n  jump\t// in\ntag_79:\n    /* \"#utility.yul\":2906:2935   */\n  tag_80\n    /* \"#utility.yul\":2924:2934   */\n  dup5\n    /* \"#utility.yul\":2906:2935   */\n  tag_28\n  jump\t// in\ntag_80:\n    /* \"#utility.yul\":2896:2904   */\n  dup2\n    /* \"#utility.yul\":2892:2936   */\n  add\n    /* \"#utility.yul\":3089:3091   */\n  0x20\n    /* \"#utility.yul\":3077:3087   */\n  dup6\n    /* \"#utility.yul\":3074:3092   */\n  lt\n    /* \"#utility.yul\":3071:3120   */\n  iszero\n  tag_81\n  jumpi\n    /* \"#utility.yul\":3110:3118   */\n  dup2\n    /* \"#utility.yul\":3095:3118   */\n  swap1\n  pop\n    /* \"#utility.yul\":3071:3120   */\ntag_81:\n    /* \"#utility.yul\":3133:3213   */\n  tag_82\n    /* \"#utility.yul\":3189:3211   */\n  tag_83\n    /* \"#utility.yul\":3207:3210   */\n  dup6\n    /* \"#utility.yul\":3189:3211   */\n  tag_28\n  jump\t// in\ntag_83:\n    /* \"#utility.yul\":3179:3187   */\n  dup4\n    /* \"#utility.yul\":3175:3212   */\n  add\n    /* \"#utility.yul\":3162:3173   */\n  dup3\n    /* \"#utility.yul\":3133:3213   */\n  tag_38\n  jump\t// in\ntag_82:\n    /* \"#utility.yul\":2792:3223   */\n  pop\n  pop\n    /* \"#utility.yul\":2777:3223   */\ntag_78:\n    /* \"#utility.yul\":2687:3230   */\n  pop\n  pop\n  pop\n  jump\t// out\n    /* \"#utility.yul\":3236:3353   */\ntag_40:\n    /* \"#utility.yul\":3290:3298   */\n  0x00\n    /* \"#utility.yul\":3340:3345   */\n  dup3\n    /* \"#utility.yul\":3334:3338   */\n  dup3\n    /* \"#utility.yul\":3330:3346   */\n  shr\n    /* \"#utility.yul\":3309:3346   */\n  swap1\n  pop\n    /* \"#utility.yul\":3236:3353   */\n  swap3\n  swap2\n  pop\n  pop\n  jump\t// out\n    /* \"#utility.yul\":3359:3528   */\ntag_41:\n    /* \"#utility.yul\":3403:3409   */\n  0x00\n    /* \"#utility.yul\":3436:3487   */\n  tag_86\n    /* \"#utility.yul\":3484:3485   */\n  0x00\n    /* \"#utility.yul\":3480:3486   */\n  not\n    /* \"#utility.yul\":3472:3477   */\n  dup5\n    /* \"#utility.yul\":3469:3470   */\n  0x08\n    /* \"#utility.yul\":3465:3478   */\n  mul\n    /* \"#utility.yul\":3436:3487   */\n  tag_40\n  jump\t// in\ntag_86:\n    /* \"#utility.yul\":3432:3488   */\n  not\n    /* \"#utility.yul\":3517:3521   */\n  dup1\n    /* \"#utility.yul\":3511:3515   */\n  dup4\n    /* \"#utility.yul\":3507:3522   */\n  and\n    /* \"#utility.yul\":3497:3522   */\n  swap2\n  pop\n    /* \"#utility.yul\":3410:3528   */\n  pop\n    /* \"#utility.yul\":3359:3528   */\n  swap3\n  swap2\n  pop\n  pop\n  jump\t// out\n    /* \"#utility.yul\":3533:3828   */\ntag_42:\n    /* \"#utility.yul\":3609:3613   */\n  0x00\n    /* \"#utility.yul\":3755:3784   */\n  tag_88\n    /* \"#utility.yul\":3780:3783   */\n  dup4\n    /* \"#utility.yul\":3774:3778   */\n  dup4\n    /* \"#utility.yul\":3755:3784   */\n  tag_41\n  jump\t// in\ntag_88:\n    /* \"#utility.yul\":3747:3784   */\n  swap2\n  pop\n    /* \"#utility.yul\":3817:3820   */\n  dup3\n    /* \"#utility.yul\":3814:3815   */\n  0x02\n    /* \"#utility.yul\":3810:3821   */\n  mul\n    /* \"#utility.yul\":3804:3808   */\n  dup3\n    /* \"#utility.yul\":3801:3822   */\n  or\n    /* \"#utility.yul\":3793:3822   */\n  swap1\n  pop\n    /* \"#utility.yul\":3533:3828   */\n  swap3\n  swap2\n  pop\n  pop\n  jump\t// out\n    /* \"#utility.yul\":3833:5228   */\ntag_9:\n    /* \"#utility.yul\":3950:3987   */\n  tag_90\n    /* \"#utility.yul\":3983:3986   */\n  dup3\n    /* \"#utility.yul\":3950:3987   */\n  tag_24\n  jump\t// in\ntag_90:\n    /* \"#utility.yul\":4052:4070   */\n  0xffffffffffffffff\n    /* \"#utility.yul\":4044:4050   */\n  dup2\n    /* \"#utility.yul\":4041:4071   */\n  gt\n    /* \"#utility.yul\":4038:4094   */\n  iszero\n  tag_91\n  jumpi\n    /* \"#utility.yul\":4074:4092   */\n  tag_92\n  tag_25\n  jump\t// in\ntag_92:\n    /* \"#utility.yul\":4038:4094   */\ntag_91:\n    /* \"#utility.yul\":4118:4156   */\n  tag_93\n    /* \"#utility.yul\":4150:4154   */\n  dup3\n    /* \"#utility.yul\":4144:4155   */\n  sload\n    /* \"#utility.yul\":4118:4156   */\n  tag_17\n  jump\t// in\ntag_93:\n    /* \"#utility.yul\":4203:4270   */\n  tag_94\n    /* \"#utility.yul\":4263:4269   */\n  dup3\n    /* \"#utility.yul\":4255:4261   */\n  dup3\n    /* \"#utility.yul\":4249:4253   */\n  dup6\n    /* \"#utility.yul\":4203:4270   */\n  tag_39\n  jump\t// in\ntag_94:\n    /* \"#utility.yul\":4297:4298   */\n  0x00\n    /* \"#utility.yul\":4321:4325   */\n  0x20\n    /* \"#utility.yul\":4308:4325   */\n  swap1\n  pop\n    /* \"#utility.yul\":4353:4355   */\n  0x1f\n    /* \"#utility.yul\":4345:4351   */\n  dup4\n    /* \"#utility.yul\":4342:4356   */\n  gt\n    /* \"#utility.yul\":4370:4371   */\n  0x01\n    /* \"#utility.yul\":4365:4983   */\n  dup2\n  eq\n  tag_96\n  jumpi\n    /* \"#utility.yul\":5027:5028   */\n  0x00\n    /* \"#utility.yul\":5044:5050   */\n  dup5\n    /* \"#utility.yul\":5041:5118   */\n  iszero\n  tag_97\n  jumpi\n    /* \"#utility.yul\":5093:5102   */\n  dup3\n    /* \"#utility.yul\":5088:5091   */\n  dup8\n    /* \"#utility.yul\":5084:5103   */\n  add\n    /* \"#utility.yul\":5078:5104   */\n  mload\n    /* \"#utility.yul\":5069:5104   */\n  swap1\n  pop\n    /* \"#utility.yul\":5041:5118   */\ntag_97:\n    /* \"#utility.yul\":5144:5211   */\n  tag_98\n    /* \"#utility.yul\":5204:5210   */\n  dup6\n    /* \"#utility.yul\":5197:5202   */\n  dup3\n    /* \"#utility.yul\":5144:5211   */\n  tag_42\n  jump\t// in\ntag_98:\n    /* \"#utility.yul\":5138:5142   */\n  dup7\n    /* \"#utility.yul\":5131:5212   */\n  sstore\n    /* \"#utility.yul\":5000:5222   */\n  pop\n    /* \"#utility.yul\":4335:5222   */\n  jump(tag_95)\n    /* \"#utility.yul\":4365:4983   */\ntag_96:\n    /* \"#utility.yul\":4417:4421   */\n  0x1f\n    /* \"#utility.yul\":4413:4422   */\n  not\n    /* \"#utility.yul\":4405:4411   */\n  dup5\n    /* \"#utility.yul\":4401:4423   */\n  and\n    /* \"#utility.yul\":4451:4488   */\n  tag_99\n    /* \"#utility.yul\":4483:4487   */\n  dup7\n    /* \"#utility.yul\":4451:4488   */\n  tag_27\n  jump\t// in\ntag_99:\n    /* \"#utility.yul\":4510:4511   */\n  0x00\n    /* \"#utility.yul\":4524:4732   */\ntag_100:\n    /* \"#utility.yul\":4538:4545   */\n  dup3\n    /* \"#utility.yul\":4535:4536   */\n  dup2\n    /* \"#utility.yul\":4532:4546   */\n  lt\n    /* \"#utility.yul\":4524:4732   */\n  iszero\n  tag_102\n  jumpi\n    /* \"#utility.yul\":4617:4626   */\n  dup5\n    /* \"#utility.yul\":4612:4615   */\n  dup10\n    /* \"#utility.yul\":4608:4627   */\n  add\n    /* \"#utility.yul\":4602:4628   */\n  mload\n    /* \"#utility.yul\":4594:4600   */\n  dup3\n    /* \"#utility.yul\":4587:4629   */\n  sstore\n    /* \"#utility.yul\":4668:4669   */\n  0x01\n    /* \"#utility.yul\":4660:4666   */\n  dup3\n    /* \"#utility.yul\":4656:4670   */\n  add\n    /* \"#utility.yul\":4646:4670   */\n  swap2\n  pop\n    /* \"#utility.yul\":4715:4717   */\n  0x20\n    /* \"#utility.yul\":4704:4713   */\n  dup6\n    /* \"#utility.yul\":4700:4718   */\n  add\n    /* \"#utility.yul\":4687:4718   */\n  swap5\n  pop\n    /* \"#utility.yul\":4561:4565   */\n  0x20\n    /* \"#utility.yul\":4558:4559   */\n  dup2\n    /* \"#utility.yul\":4554:4566   */\n  add\n    /* \"#utility.yul\":4549:4566   */\n  swap1\n  pop\n    /* \"#utility.yul\":4524:4732   */\n  jump(tag_100)\ntag_102:\n    /* \"#utility.yul\":4760:4766   */\n  dup7\n    /* \"#utility.yul\":4751:4758   */\n  dup4\n    /* \"#utility.yul\":4748:4767   */\n  lt\n    /* \"#utility.yul\":4745:4924   */\n  iszero\n  tag_103\n  jumpi\n    /* \"#utility.yul\":4818:4827   */\n  dup5\n    /* \"#utility.yul\":4813:4816   */\n  dup10\n    /* \"#utility.yul\":4809:4828   */\n  add\n    /* \"#utility.yul\":4803:4829   */\n  mload\n    /* \"#utility.yul\":4861:4909   */\n  tag_104\n    /* \"#utility.yul\":4903:4907   */\n  0x1f\n    /* \"#utility.yul\":4895:4901   */\n  dup10\n    /* \"#utility.yul\":4891:4908   */\n  and\n    /* \"#utility.yul\":4880:4889   */\n  dup3\n    /* \"#utility.yul\":4861:4909   */\n  tag_41\n  jump\t// in\ntag_104:\n    /* \"#utility.yul\":4853:4859   */\n  dup4\n    /* \"#utility.yul\":4846:4910   */\n  sstore\n    /* \"#utility.yul\":4768:4924   */\n  pop\n    /* \"#utility.yul\":4745:4924   */\ntag_103:\n    /* \"#utility.yul\":4970:4971   */\n  0x01\n    /* \"#utility.yul\":4966:4967   */\n  0x02\n    /* \"#utility.yul\":4958:4964   */\n  dup9\n    /* \"#utility.yul\":4954:4968   */\n  mul\n    /* \"#utility.yul\":4950:4972   */\n  add\n    /* \"#utility.yul\":4944:4948   */\n  dup9\n    /* \"#utility.yul\":4937:4973   */\n  sstore\n    /* \"#utility.yul\":4372:4983   */\n  pop\n  pop\n  pop\n    /* \"#utility.yul\":4335:5222   */\ntag_95:\n  pop\n    /* \"#utility.yul\":3925:5228   */\n  pop\n  pop\n  pop\n    /* \"#utility.yul\":3833:5228   */\n  pop\n  pop\n  jump\t// out\n    /* \"mathFunctions.sol\":57:1163  contract mathFunctions {... */\ntag_4:\n  dataSize(sub_0)\n  dup1\n  dataOffset(sub_0)\n  0x00\n  codecopy\n  0x00\n  return\nstop\n\nsub_0: assembly {\n        /* \"mathFunctions.sol\":57:1163  contract mathFunctions {... */\n      mstore(0x40, 0x80)\n      callvalue\n      dup1\n      iszero\n      tag_1\n      jumpi\n      revert(0x00, 0x00)\n    tag_1:\n      pop\n      jumpi(tag_2, lt(calldatasize, 0x04))\n      shr(0xe0, calldataload(0x00))\n      dup1\n      0x6b590248\n      eq\n      tag_3\n      jumpi\n      dup1\n      0x918d44b9\n      eq\n      tag_4\n      jumpi\n      dup1\n      0xac7517df\n      eq\n      tag_5\n      jumpi\n      dup1\n      0xe49e2828\n      eq\n      tag_6\n      jumpi\n    tag_2:\n      revert(0x00, 0x00)\n        /* \"mathFunctions.sol\":242:353  function getDigit()public view returns (uint16,uint16,uint16) {... */\n    tag_3:\n      tag_7\n      tag_8\n      jump\t// in\n    tag_7:\n      mload(0x40)\n      tag_9\n      swap4\n      swap3\n      swap2\n      swap1\n      tag_10\n      jump\t// in\n    tag_9:\n      mload(0x40)\n      dup1\n      swap2\n      sub\n      swap1\n      return\n        /* \"mathFunctions.sol\":606:840  function checkSign(int16 num)public pure  returns (string memory ){... */\n    tag_4:\n      tag_11\n      0x04\n      dup1\n      calldatasize\n      sub\n      dup2\n      add\n      swap1\n      tag_12\n      swap2\n      swap1\n      tag_13\n      jump\t// in\n    tag_12:\n      tag_14\n      jump\t// in\n    tag_11:\n      mload(0x40)\n      tag_15\n      swap2\n      swap1\n      tag_16\n      jump\t// in\n    tag_15:\n      mload(0x40)\n      dup1\n      swap2\n      sub\n      swap1\n      return\n        /* \"mathFunctions.sol\":359:600  function setWords(uint16 _number1) public view  returns(string memory){... */\n    tag_5:\n      tag_17\n      0x04\n      dup1\n      calldatasize\n      sub\n      dup2\n      add\n      swap1\n      tag_18\n      swap2\n      swap1\n      tag_19\n      jump\t// in\n    tag_18:\n      tag_20\n      jump\t// in\n    tag_17:\n      mload(0x40)\n      tag_21\n      swap2\n      swap1\n      tag_16\n      jump\t// in\n    tag_21:\n      mload(0x40)\n      dup1\n      swap2\n      sub\n      swap1\n      return\n        /* \"mathFunctions.sol\":846:1160  function findLargest(uint16 _number1,uint16 _number2,uint16 _number3)public pure returns (uint16 large) {... */\n    tag_6:\n      tag_22\n      0x04\n      dup1\n      calldatasize\n      sub\n      dup2\n      add\n      swap1\n      tag_23\n      swap2\n      swap1\n      tag_24\n      jump\t// in\n    tag_23:\n      tag_25\n      jump\t// in\n    tag_22:\n      mload(0x40)\n      tag_26\n      swap2\n      swap1\n      tag_27\n      jump\t// in\n    tag_26:\n      mload(0x40)\n      dup1\n      swap2\n      sub\n      swap1\n      return\n        /* \"mathFunctions.sol\":242:353  function getDigit()public view returns (uint16,uint16,uint16) {... */\n    tag_8:\n        /* \"mathFunctions.sol\":282:288  uint16 */\n      0x00\n        /* \"mathFunctions.sol\":289:295  uint16 */\n      0x00\n        /* \"mathFunctions.sol\":296:302  uint16 */\n      0x00\n        /* \"mathFunctions.sol\":322:329  number1 */\n      0x00\n      0x00\n      swap1\n      sload\n      swap1\n      0x0100\n      exp\n      swap1\n      div\n      0xffff\n      and\n        /* \"mathFunctions.sol\":330:337  number2 */\n      0x00\n      0x02\n      swap1\n      sload\n      swap1\n      0x0100\n      exp\n      swap1\n      div\n      0xffff\n      and\n        /* \"mathFunctions.sol\":338:345  number3 */\n      0x00\n      0x04\n      swap1\n      sload\n      swap1\n      0x0100\n      exp\n      swap1\n      div\n      0xffff\n      and\n        /* \"mathFunctions.sol\":314:346  return (number1,number2,number3) */\n      swap3\n      pop\n      swap3\n      pop\n      swap3\n      pop\n        /* \"mathFunctions.sol\":242:353  function getDigit()public view returns (uint16,uint16,uint16) {... */\n      swap1\n      swap2\n      swap3\n      jump\t// out\n        /* \"mathFunctions.sol\":606:840  function checkSign(int16 num)public pure  returns (string memory ){... */\n    tag_14:\n        /* \"mathFunctions.sol\":657:670  string memory */\n      0x60\n        /* \"mathFunctions.sol\":689:690  0 */\n      0x00\n        /* \"mathFunctions.sol\":685:688  num */\n      dup3\n        /* \"mathFunctions.sol\":685:690  num<0 */\n      0x01\n      signextend\n      slt\n        /* \"mathFunctions.sol\":682:834  if(num<0){... */\n      iszero\n      tag_30\n      jumpi\n        /* \"mathFunctions.sol\":705:723  return  \"negative\" */\n      mload(0x40)\n      dup1\n      0x40\n      add\n      0x40\n      mstore\n      dup1\n      0x08\n      dup2\n      mstore\n      0x20\n      add\n      0x6e65676174697665000000000000000000000000000000000000000000000000\n      dup2\n      mstore\n      pop\n      swap1\n      pop\n      jump(tag_29)\n        /* \"mathFunctions.sol\":682:834  if(num<0){... */\n    tag_30:\n        /* \"mathFunctions.sol\":746:747  0 */\n      0x00\n        /* \"mathFunctions.sol\":742:745  num */\n      dup3\n        /* \"mathFunctions.sol\":742:747  num>0 */\n      0x01\n      signextend\n      sgt\n        /* \"mathFunctions.sol\":739:834  if(num>0){... */\n      iszero\n      tag_32\n      jumpi\n        /* \"mathFunctions.sol\":762:780  return  \"positive\" */\n      mload(0x40)\n      dup1\n      0x40\n      add\n      0x40\n      mstore\n      dup1\n      0x08\n      dup2\n      mstore\n      0x20\n      add\n      0x706f736974697665000000000000000000000000000000000000000000000000\n      dup2\n      mstore\n      pop\n      swap1\n      pop\n      jump(tag_29)\n        /* \"mathFunctions.sol\":739:834  if(num>0){... */\n    tag_32:\n        /* \"mathFunctions.sol\":809:823  return  \"zero\" */\n      mload(0x40)\n      dup1\n      0x40\n      add\n      0x40\n      mstore\n      dup1\n      0x04\n      dup2\n      mstore\n      0x20\n      add\n      0x7a65726f00000000000000000000000000000000000000000000000000000000\n      dup2\n      mstore\n      pop\n      swap1\n      pop\n        /* \"mathFunctions.sol\":606:840  function checkSign(int16 num)public pure  returns (string memory ){... */\n    tag_29:\n      swap2\n      swap1\n      pop\n      jump\t// out\n        /* \"mathFunctions.sol\":359:600  function setWords(uint16 _number1) public view  returns(string memory){... */\n    tag_20:\n        /* \"mathFunctions.sol\":415:428  string memory */\n      0x60\n        /* \"mathFunctions.sol\":452:453  9 */\n      0x09\n        /* \"mathFunctions.sol\":442:450  _number1 */\n      dup3\n        /* \"mathFunctions.sol\":442:453  _number1<=9 */\n      0xffff\n      and\n      gt\n        /* \"mathFunctions.sol\":439:593  if(_number1<=9 ){... */\n      tag_35\n      jumpi\n        /* \"mathFunctions.sol\":480:485  array */\n      0x01\n        /* \"mathFunctions.sol\":486:494  _number1 */\n      dup3\n        /* \"mathFunctions.sol\":480:495  array[_number1] */\n      0xffff\n      and\n      0x0a\n      dup2\n      lt\n      tag_36\n      jumpi\n      tag_37\n      tag_38\n      jump\t// in\n    tag_37:\n    tag_36:\n      add\n        /* \"mathFunctions.sol\":473:495  return array[_number1] */\n      dup1\n      sload\n      tag_40\n      swap1\n      tag_41\n      jump\t// in\n    tag_40:\n      dup1\n      0x1f\n      add\n      0x20\n      dup1\n      swap2\n      div\n      mul\n      0x20\n      add\n      mload(0x40)\n      swap1\n      dup2\n      add\n      0x40\n      mstore\n      dup1\n      swap3\n      swap2\n      swap1\n      dup2\n      dup2\n      mstore\n      0x20\n      add\n      dup3\n      dup1\n      sload\n      tag_42\n      swap1\n      tag_41\n      jump\t// in\n    tag_42:\n      dup1\n      iszero\n      tag_43\n      jumpi\n      dup1\n      0x1f\n      lt\n      tag_44\n      jumpi\n      0x0100\n      dup1\n      dup4\n      sload\n      div\n      mul\n      dup4\n      mstore\n      swap2\n      0x20\n      add\n      swap2\n      jump(tag_43)\n    tag_44:\n      dup3\n      add\n      swap2\n      swap1\n      0x00\n      mstore\n      keccak256(0x00, 0x20)\n      swap1\n    tag_45:\n      dup2\n      sload\n      dup2\n      mstore\n      swap1\n      0x01\n      add\n      swap1\n      0x20\n      add\n      dup1\n      dup4\n      gt\n      tag_45\n      jumpi\n      dup3\n      swap1\n      sub\n      0x1f\n      and\n      dup3\n      add\n      swap2\n    tag_43:\n      pop\n      pop\n      pop\n      pop\n      pop\n      swap1\n      pop\n      jump(tag_34)\n        /* \"mathFunctions.sol\":439:593  if(_number1<=9 ){... */\n    tag_35:\n        /* \"mathFunctions.sol\":538:582  revert(\"Inputs must be single-digit number\") */\n      mload(0x40)\n      0x08c379a000000000000000000000000000000000000000000000000000000000\n      dup2\n      mstore\n      0x04\n      add\n      tag_47\n      swap1\n      tag_48\n      jump\t// in\n    tag_47:\n      mload(0x40)\n      dup1\n      swap2\n      sub\n      swap1\n      revert\n        /* \"mathFunctions.sol\":359:600  function setWords(uint16 _number1) public view  returns(string memory){... */\n    tag_34:\n      swap2\n      swap1\n      pop\n      jump\t// out\n        /* \"mathFunctions.sol\":846:1160  function findLargest(uint16 _number1,uint16 _number2,uint16 _number3)public pure returns (uint16 large) {... */\n    tag_25:\n        /* \"mathFunctions.sol\":936:948  uint16 large */\n      0x00\n        /* \"mathFunctions.sol\":973:981  _number2 */\n      dup3\n        /* \"mathFunctions.sol\":964:981  _number1>_number2 */\n      0xffff\n      and\n        /* \"mathFunctions.sol\":964:972  _number1 */\n      dup5\n        /* \"mathFunctions.sol\":964:981  _number1>_number2 */\n      0xffff\n      and\n      gt\n        /* \"mathFunctions.sol\":964:1002  _number1>_number2 && _number1>_number3 */\n      dup1\n      iszero\n      tag_50\n      jumpi\n      pop\n        /* \"mathFunctions.sol\":994:1002  _number3 */\n      dup2\n        /* \"mathFunctions.sol\":985:1002  _number1>_number3 */\n      0xffff\n      and\n        /* \"mathFunctions.sol\":985:993  _number1 */\n      dup5\n        /* \"mathFunctions.sol\":985:1002  _number1>_number3 */\n      0xffff\n      and\n      gt\n        /* \"mathFunctions.sol\":964:1002  _number1>_number2 && _number1>_number3 */\n    tag_50:\n        /* \"mathFunctions.sol\":960:1154  if (_number1>_number2 && _number1>_number3){... */\n      iszero\n      tag_51\n      jumpi\n        /* \"mathFunctions.sol\":1023:1031  _number1 */\n      dup4\n        /* \"mathFunctions.sol\":1017:1031  large=_number1 */\n      swap1\n      pop\n        /* \"mathFunctions.sol\":960:1154  if (_number1>_number2 && _number1>_number3){... */\n      jump(tag_52)\n    tag_51:\n        /* \"mathFunctions.sol\":1059:1067  _number3 */\n      dup2\n        /* \"mathFunctions.sol\":1050:1067  _number2>_number3 */\n      0xffff\n      and\n        /* \"mathFunctions.sol\":1050:1058  _number2 */\n      dup4\n        /* \"mathFunctions.sol\":1050:1067  _number2>_number3 */\n      0xffff\n      and\n      gt\n        /* \"mathFunctions.sol\":1047:1154  if(_number2>_number3){... */\n      iszero\n      tag_53\n      jumpi\n        /* \"mathFunctions.sol\":1090:1098  _number2 */\n      dup3\n        /* \"mathFunctions.sol\":1082:1098  large = _number2 */\n      swap1\n      pop\n        /* \"mathFunctions.sol\":1047:1154  if(_number2>_number3){... */\n      jump(tag_54)\n    tag_53:\n        /* \"mathFunctions.sol\":1135:1143  _number3 */\n      dup2\n        /* \"mathFunctions.sol\":1128:1143  large =_number3 */\n      swap1\n      pop\n        /* \"mathFunctions.sol\":1047:1154  if(_number2>_number3){... */\n    tag_54:\n        /* \"mathFunctions.sol\":960:1154  if (_number1>_number2 && _number1>_number3){... */\n    tag_52:\n        /* \"mathFunctions.sol\":846:1160  function findLargest(uint16 _number1,uint16 _number2,uint16 _number3)public pure returns (uint16 large) {... */\n      swap4\n      swap3\n      pop\n      pop\n      pop\n      jump\t// out\n        /* \"#utility.yul\":7:96   */\n    tag_55:\n        /* \"#utility.yul\":43:50   */\n      0x00\n        /* \"#utility.yul\":83:89   */\n      0xffff\n        /* \"#utility.yul\":76:81   */\n      dup3\n        /* \"#utility.yul\":72:90   */\n      and\n        /* \"#utility.yul\":61:90   */\n      swap1\n      pop\n        /* \"#utility.yul\":7:96   */\n      swap2\n      swap1\n      pop\n      jump\t// out\n        /* \"#utility.yul\":102:217   */\n    tag_56:\n        /* \"#utility.yul\":187:210   */\n      tag_76\n        /* \"#utility.yul\":204:209   */\n      dup2\n        /* \"#utility.yul\":187:210   */\n      tag_55\n      jump\t// in\n    tag_76:\n        /* \"#utility.yul\":182:185   */\n      dup3\n        /* \"#utility.yul\":175:211   */\n      mstore\n        /* \"#utility.yul\":102:217   */\n      pop\n      pop\n      jump\t// out\n        /* \"#utility.yul\":223:653   */\n    tag_10:\n        /* \"#utility.yul\":366:370   */\n      0x00\n        /* \"#utility.yul\":404:406   */\n      0x60\n        /* \"#utility.yul\":393:402   */\n      dup3\n        /* \"#utility.yul\":389:407   */\n      add\n        /* \"#utility.yul\":381:407   */\n      swap1\n      pop\n        /* \"#utility.yul\":417:486   */\n      tag_78\n        /* \"#utility.yul\":483:484   */\n      0x00\n        /* \"#utility.yul\":472:481   */\n      dup4\n        /* \"#utility.yul\":468:485   */\n      add\n        /* \"#utility.yul\":459:465   */\n      dup7\n        /* \"#utility.yul\":417:486   */\n      tag_56\n      jump\t// in\n    tag_78:\n        /* \"#utility.yul\":496:566   */\n      tag_79\n        /* \"#utility.yul\":562:564   */\n      0x20\n        /* \"#utility.yul\":551:560   */\n      dup4\n        /* \"#utility.yul\":547:565   */\n      add\n        /* \"#utility.yul\":538:544   */\n      dup6\n        /* \"#utility.yul\":496:566   */\n      tag_56\n      jump\t// in\n    tag_79:\n        /* \"#utility.yul\":576:646   */\n      tag_80\n        /* \"#utility.yul\":642:644   */\n      0x40\n        /* \"#utility.yul\":631:640   */\n      dup4\n        /* \"#utility.yul\":627:645   */\n      add\n        /* \"#utility.yul\":618:624   */\n      dup5\n        /* \"#utility.yul\":576:646   */\n      tag_56\n      jump\t// in\n    tag_80:\n        /* \"#utility.yul\":223:653   */\n      swap5\n      swap4\n      pop\n      pop\n      pop\n      pop\n      jump\t// out\n        /* \"#utility.yul\":740:857   */\n    tag_58:\n        /* \"#utility.yul\":849:850   */\n      0x00\n        /* \"#utility.yul\":846:847   */\n      0x00\n        /* \"#utility.yul\":839:851   */\n      revert\n        /* \"#utility.yul\":986:1076   */\n    tag_60:\n        /* \"#utility.yul\":1021:1028   */\n      0x00\n        /* \"#utility.yul\":1064:1069   */\n      dup2\n        /* \"#utility.yul\":1061:1062   */\n      0x01\n        /* \"#utility.yul\":1050:1070   */\n      signextend\n        /* \"#utility.yul\":1039:1070   */\n      swap1\n      pop\n        /* \"#utility.yul\":986:1076   */\n      swap2\n      swap1\n      pop\n      jump\t// out\n        /* \"#utility.yul\":1082:1200   */\n    tag_61:\n        /* \"#utility.yul\":1153:1175   */\n      tag_86\n        /* \"#utility.yul\":1169:1174   */\n      dup2\n        /* \"#utility.yul\":1153:1175   */\n      tag_60\n      jump\t// in\n    tag_86:\n        /* \"#utility.yul\":1146:1151   */\n      dup2\n        /* \"#utility.yul\":1143:1176   */\n      eq\n        /* \"#utility.yul\":1133:1194   */\n      tag_87\n      jumpi\n        /* \"#utility.yul\":1190:1191   */\n      0x00\n        /* \"#utility.yul\":1187:1188   */\n      0x00\n        /* \"#utility.yul\":1180:1192   */\n      revert\n        /* \"#utility.yul\":1133:1194   */\n    tag_87:\n        /* \"#utility.yul\":1082:1200   */\n      pop\n      jump\t// out\n        /* \"#utility.yul\":1206:1341   */\n    tag_62:\n        /* \"#utility.yul\":1250:1255   */\n      0x00\n        /* \"#utility.yul\":1288:1294   */\n      dup2\n        /* \"#utility.yul\":1275:1295   */\n      calldataload\n        /* \"#utility.yul\":1266:1295   */\n      swap1\n      pop\n        /* \"#utility.yul\":1304:1335   */\n      tag_89\n        /* \"#utility.yul\":1329:1334   */\n      dup2\n        /* \"#utility.yul\":1304:1335   */\n      tag_61\n      jump\t// in\n    tag_89:\n        /* \"#utility.yul\":1206:1341   */\n      swap3\n      swap2\n      pop\n      pop\n      jump\t// out\n        /* \"#utility.yul\":1347:1672   */\n    tag_13:\n        /* \"#utility.yul\":1404:1410   */\n      0x00\n        /* \"#utility.yul\":1453:1455   */\n      0x20\n        /* \"#utility.yul\":1441:1450   */\n      dup3\n        /* \"#utility.yul\":1432:1439   */\n      dup5\n        /* \"#utility.yul\":1428:1451   */\n      sub\n        /* \"#utility.yul\":1424:1456   */\n      slt\n        /* \"#utility.yul\":1421:1540   */\n      iszero\n      tag_91\n      jumpi\n        /* \"#utility.yul\":1459:1538   */\n      tag_92\n      tag_58\n      jump\t// in\n    tag_92:\n        /* \"#utility.yul\":1421:1540   */\n    tag_91:\n        /* \"#utility.yul\":1579:1580   */\n      0x00\n        /* \"#utility.yul\":1604:1655   */\n      tag_93\n        /* \"#utility.yul\":1647:1654   */\n      dup5\n        /* \"#utility.yul\":1638:1644   */\n      dup3\n        /* \"#utility.yul\":1627:1636   */\n      dup6\n        /* \"#utility.yul\":1623:1645   */\n      add\n        /* \"#utility.yul\":1604:1655   */\n      tag_62\n      jump\t// in\n    tag_93:\n        /* \"#utility.yul\":1594:1655   */\n      swap2\n      pop\n        /* \"#utility.yul\":1550:1665   */\n      pop\n        /* \"#utility.yul\":1347:1672   */\n      swap3\n      swap2\n      pop\n      pop\n      jump\t// out\n        /* \"#utility.yul\":1678:1777   */\n    tag_63:\n        /* \"#utility.yul\":1730:1736   */\n      0x00\n        /* \"#utility.yul\":1764:1769   */\n      dup2\n        /* \"#utility.yul\":1758:1770   */\n      mload\n        /* \"#utility.yul\":1748:1770   */\n      swap1\n      pop\n        /* \"#utility.yul\":1678:1777   */\n      swap2\n      swap1\n      pop\n      jump\t// out\n        /* \"#utility.yul\":1783:1952   */\n    tag_64:\n        /* \"#utility.yul\":1867:1878   */\n      0x00\n        /* \"#utility.yul\":1901:1907   */\n      dup3\n        /* \"#utility.yul\":1896:1899   */\n      dup3\n        /* \"#utility.yul\":1889:1908   */\n      mstore\n        /* \"#utility.yul\":1941:1945   */\n      0x20\n        /* \"#utility.yul\":1936:1939   */\n      dup3\n        /* \"#utility.yul\":1932:1946   */\n      add\n        /* \"#utility.yul\":1917:1946   */\n      swap1\n      pop\n        /* \"#utility.yul\":1783:1952   */\n      swap3\n      swap2\n      pop\n      pop\n      jump\t// out\n        /* \"#utility.yul\":1958:2097   */\n    tag_65:\n        /* \"#utility.yul\":2047:2053   */\n      dup3\n        /* \"#utility.yul\":2042:2045   */\n      dup2\n        /* \"#utility.yul\":2037:2040   */\n      dup4\n        /* \"#utility.yul\":2031:2054   */\n      mcopy\n        /* \"#utility.yul\":2088:2089   */\n      0x00\n        /* \"#utility.yul\":2079:2085   */\n      dup4\n        /* \"#utility.yul\":2074:2077   */\n      dup4\n        /* \"#utility.yul\":2070:2086   */\n      add\n        /* \"#utility.yul\":2063:2090   */\n      mstore\n        /* \"#utility.yul\":1958:2097   */\n      pop\n      pop\n      pop\n      jump\t// out\n        /* \"#utility.yul\":2103:2205   */\n    tag_66:\n        /* \"#utility.yul\":2144:2150   */\n      0x00\n        /* \"#utility.yul\":2195:2197   */\n      0x1f\n        /* \"#utility.yul\":2191:2198   */\n      not\n        /* \"#utility.yul\":2186:2188   */\n      0x1f\n        /* \"#utility.yul\":2179:2184   */\n      dup4\n        /* \"#utility.yul\":2175:2189   */\n      add\n        /* \"#utility.yul\":2171:2199   */\n      and\n        /* \"#utility.yul\":2161:2199   */\n      swap1\n      pop\n        /* \"#utility.yul\":2103:2205   */\n      swap2\n      swap1\n      pop\n      jump\t// out\n        /* \"#utility.yul\":2211:2588   */\n    tag_67:\n        /* \"#utility.yul\":2299:2302   */\n      0x00\n        /* \"#utility.yul\":2327:2366   */\n      tag_99\n        /* \"#utility.yul\":2360:2365   */\n      dup3\n        /* \"#utility.yul\":2327:2366   */\n      tag_63\n      jump\t// in\n    tag_99:\n        /* \"#utility.yul\":2382:2453   */\n      tag_100\n        /* \"#utility.yul\":2446:2452   */\n      dup2\n        /* \"#utility.yul\":2441:2444   */\n      dup6\n        /* \"#utility.yul\":2382:2453   */\n      tag_64\n      jump\t// in\n    tag_100:\n        /* \"#utility.yul\":2375:2453   */\n      swap4\n      pop\n        /* \"#utility.yul\":2462:2527   */\n      tag_101\n        /* \"#utility.yul\":2520:2526   */\n      dup2\n        /* \"#utility.yul\":2515:2518   */\n      dup6\n        /* \"#utility.yul\":2508:2512   */\n      0x20\n        /* \"#utility.yul\":2501:2506   */\n      dup7\n        /* \"#utility.yul\":2497:2513   */\n      add\n        /* \"#utility.yul\":2462:2527   */\n      tag_65\n      jump\t// in\n    tag_101:\n        /* \"#utility.yul\":2552:2581   */\n      tag_102\n        /* \"#utility.yul\":2574:2580   */\n      dup2\n        /* \"#utility.yul\":2552:2581   */\n      tag_66\n      jump\t// in\n    tag_102:\n        /* \"#utility.yul\":2547:2550   */\n      dup5\n        /* \"#utility.yul\":2543:2582   */\n      add\n        /* \"#utility.yul\":2536:2582   */\n      swap2\n      pop\n        /* \"#utility.yul\":2303:2588   */\n      pop\n        /* \"#utility.yul\":2211:2588   */\n      swap3\n      swap2\n      pop\n      pop\n      jump\t// out\n        /* \"#utility.yul\":2594:2907   */\n    tag_16:\n        /* \"#utility.yul\":2707:2711   */\n      0x00\n        /* \"#utility.yul\":2745:2747   */\n      0x20\n        /* \"#utility.yul\":2734:2743   */\n      dup3\n        /* \"#utility.yul\":2730:2748   */\n      add\n        /* \"#utility.yul\":2722:2748   */\n      swap1\n      pop\n        /* \"#utility.yul\":2794:2803   */\n      dup2\n        /* \"#utility.yul\":2788:2792   */\n      dup2\n        /* \"#utility.yul\":2784:2804   */\n      sub\n        /* \"#utility.yul\":2780:2781   */\n      0x00\n        /* \"#utility.yul\":2769:2778   */\n      dup4\n        /* \"#utility.yul\":2765:2782   */\n      add\n        /* \"#utility.yul\":2758:2805   */\n      mstore\n        /* \"#utility.yul\":2822:2900   */\n      tag_104\n        /* \"#utility.yul\":2895:2899   */\n      dup2\n        /* \"#utility.yul\":2886:2892   */\n      dup5\n        /* \"#utility.yul\":2822:2900   */\n      tag_67\n      jump\t// in\n    tag_104:\n        /* \"#utility.yul\":2814:2900   */\n      swap1\n      pop\n        /* \"#utility.yul\":2594:2907   */\n      swap3\n      swap2\n      pop\n      pop\n      jump\t// out\n        /* \"#utility.yul\":2913:3033   */\n    tag_68:\n        /* \"#utility.yul\":2985:3008   */\n      tag_106\n        /* \"#utility.yul\":3002:3007   */\n      dup2\n        /* \"#utility.yul\":2985:3008   */\n      tag_55\n      jump\t// in\n    tag_106:\n        /* \"#utility.yul\":2978:2983   */\n      dup2\n        /* \"#utility.yul\":2975:3009   */\n      eq\n        /* \"#utility.yul\":2965:3027   */\n      tag_107\n      jumpi\n        /* \"#utility.yul\":3023:3024   */\n      0x00\n        /* \"#utility.yul\":3020:3021   */\n      0x00\n        /* \"#utility.yul\":3013:3025   */\n      revert\n        /* \"#utility.yul\":2965:3027   */\n    tag_107:\n        /* \"#utility.yul\":2913:3033   */\n      pop\n      jump\t// out\n        /* \"#utility.yul\":3039:3176   */\n    tag_69:\n        /* \"#utility.yul\":3084:3089   */\n      0x00\n        /* \"#utility.yul\":3122:3128   */\n      dup2\n        /* \"#utility.yul\":3109:3129   */\n      calldataload\n        /* \"#utility.yul\":3100:3129   */\n      swap1\n      pop\n        /* \"#utility.yul\":3138:3170   */\n      tag_109\n        /* \"#utility.yul\":3164:3169   */\n      dup2\n        /* \"#utility.yul\":3138:3170   */\n      tag_68\n      jump\t// in\n    tag_109:\n        /* \"#utility.yul\":3039:3176   */\n      swap3\n      swap2\n      pop\n      pop\n      jump\t// out\n        /* \"#utility.yul\":3182:3509   */\n    tag_19:\n        /* \"#utility.yul\":3240:3246   */\n      0x00\n        /* \"#utility.yul\":3289:3291   */\n      0x20\n        /* \"#utility.yul\":3277:3286   */\n      dup3\n        /* \"#utility.yul\":3268:3275   */\n      dup5\n        /* \"#utility.yul\":3264:3287   */\n      sub\n        /* \"#utility.yul\":3260:3292   */\n      slt\n        /* \"#utility.yul\":3257:3376   */\n      iszero\n      tag_111\n      jumpi\n        /* \"#utility.yul\":3295:3374   */\n      tag_112\n      tag_58\n      jump\t// in\n    tag_112:\n        /* \"#utility.yul\":3257:3376   */\n    tag_111:\n        /* \"#utility.yul\":3415:3416   */\n      0x00\n        /* \"#utility.yul\":3440:3492   */\n      tag_113\n        /* \"#utility.yul\":3484:3491   */\n      dup5\n        /* \"#utility.yul\":3475:3481   */\n      dup3\n        /* \"#utility.yul\":3464:3473   */\n      dup6\n        /* \"#utility.yul\":3460:3482   */\n      add\n        /* \"#utility.yul\":3440:3492   */\n      tag_69\n      jump\t// in\n    tag_113:\n        /* \"#utility.yul\":3430:3492   */\n      swap2\n      pop\n        /* \"#utility.yul\":3386:3502   */\n      pop\n        /* \"#utility.yul\":3182:3509   */\n      swap3\n      swap2\n      pop\n      pop\n      jump\t// out\n        /* \"#utility.yul\":3515:4128   */\n    tag_24:\n        /* \"#utility.yul\":3589:3595   */\n      0x00\n        /* \"#utility.yul\":3597:3603   */\n      0x00\n        /* \"#utility.yul\":3605:3611   */\n      0x00\n        /* \"#utility.yul\":3654:3656   */\n      0x60\n        /* \"#utility.yul\":3642:3651   */\n      dup5\n        /* \"#utility.yul\":3633:3640   */\n      dup7\n        /* \"#utility.yul\":3629:3652   */\n      sub\n        /* \"#utility.yul\":3625:3657   */\n      slt\n        /* \"#utility.yul\":3622:3741   */\n      iszero\n      tag_115\n      jumpi\n        /* \"#utility.yul\":3660:3739   */\n      tag_116\n      tag_58\n      jump\t// in\n    tag_116:\n        /* \"#utility.yul\":3622:3741   */\n    tag_115:\n        /* \"#utility.yul\":3780:3781   */\n      0x00\n        /* \"#utility.yul\":3805:3857   */\n      tag_117\n        /* \"#utility.yul\":3849:3856   */\n      dup7\n        /* \"#utility.yul\":3840:3846   */\n      dup3\n        /* \"#utility.yul\":3829:3838   */\n      dup8\n        /* \"#utility.yul\":3825:3847   */\n      add\n        /* \"#utility.yul\":3805:3857   */\n      tag_69\n      jump\t// in\n    tag_117:\n        /* \"#utility.yul\":3795:3857   */\n      swap4\n      pop\n        /* \"#utility.yul\":3751:3867   */\n      pop\n        /* \"#utility.yul\":3906:3908   */\n      0x20\n        /* \"#utility.yul\":3932:3984   */\n      tag_118\n        /* \"#utility.yul\":3976:3983   */\n      dup7\n        /* \"#utility.yul\":3967:3973   */\n      dup3\n        /* \"#utility.yul\":3956:3965   */\n      dup8\n        /* \"#utility.yul\":3952:3974   */\n      add\n        /* \"#utility.yul\":3932:3984   */\n      tag_69\n      jump\t// in\n    tag_118:\n        /* \"#utility.yul\":3922:3984   */\n      swap3\n      pop\n        /* \"#utility.yul\":3877:3994   */\n      pop\n        /* \"#utility.yul\":4033:4035   */\n      0x40\n        /* \"#utility.yul\":4059:4111   */\n      tag_119\n        /* \"#utility.yul\":4103:4110   */\n      dup7\n        /* \"#utility.yul\":4094:4100   */\n      dup3\n        /* \"#utility.yul\":4083:4092   */\n      dup8\n        /* \"#utility.yul\":4079:4101   */\n      add\n        /* \"#utility.yul\":4059:4111   */\n      tag_69\n      jump\t// in\n    tag_119:\n        /* \"#utility.yul\":4049:4111   */\n      swap2\n      pop\n        /* \"#utility.yul\":4004:4121   */\n      pop\n        /* \"#utility.yul\":3515:4128   */\n      swap3\n      pop\n      swap3\n      pop\n      swap3\n      jump\t// out\n        /* \"#utility.yul\":4134:4352   */\n    tag_27:\n        /* \"#utility.yul\":4225:4229   */\n      0x00\n        /* \"#utility.yul\":4263:4265   */\n      0x20\n        /* \"#utility.yul\":4252:4261   */\n      dup3\n        /* \"#utility.yul\":4248:4266   */\n      add\n        /* \"#utility.yul\":4240:4266   */\n      swap1\n      pop\n        /* \"#utility.yul\":4276:4345   */\n      tag_121\n        /* \"#utility.yul\":4342:4343   */\n      0x00\n        /* \"#utility.yul\":4331:4340   */\n      dup4\n        /* \"#utility.yul\":4327:4344   */\n      add\n        /* \"#utility.yul\":4318:4324   */\n      dup5\n        /* \"#utility.yul\":4276:4345   */\n      tag_56\n      jump\t// in\n    tag_121:\n        /* \"#utility.yul\":4134:4352   */\n      swap3\n      swap2\n      pop\n      pop\n      jump\t// out\n        /* \"#utility.yul\":4358:4538   */\n    tag_38:\n        /* \"#utility.yul\":4406:4483   */\n      0x4e487b7100000000000000000000000000000000000000000000000000000000\n        /* \"#utility.yul\":4403:4404   */\n      0x00\n        /* \"#utility.yul\":4396:4484   */\n      mstore\n        /* \"#utility.yul\":4503:4507   */\n      0x32\n        /* \"#utility.yul\":4500:4501   */\n      0x04\n        /* \"#utility.yul\":4493:4508   */\n      mstore\n        /* \"#utility.yul\":4527:4531   */\n      0x24\n        /* \"#utility.yul\":4524:4525   */\n      0x00\n        /* \"#utility.yul\":4517:4532   */\n      revert\n        /* \"#utility.yul\":4544:4724   */\n    tag_70:\n        /* \"#utility.yul\":4592:4669   */\n      0x4e487b7100000000000000000000000000000000000000000000000000000000\n        /* \"#utility.yul\":4589:4590   */\n      0x00\n        /* \"#utility.yul\":4582:4670   */\n      mstore\n        /* \"#utility.yul\":4689:4693   */\n      0x22\n        /* \"#utility.yul\":4686:4687   */\n      0x04\n        /* \"#utility.yul\":4679:4694   */\n      mstore\n        /* \"#utility.yul\":4713:4717   */\n      0x24\n        /* \"#utility.yul\":4710:4711   */\n      0x00\n        /* \"#utility.yul\":4703:4718   */\n      revert\n        /* \"#utility.yul\":4730:5050   */\n    tag_41:\n        /* \"#utility.yul\":4774:4780   */\n      0x00\n        /* \"#utility.yul\":4811:4812   */\n      0x02\n        /* \"#utility.yul\":4805:4809   */\n      dup3\n        /* \"#utility.yul\":4801:4813   */\n      div\n        /* \"#utility.yul\":4791:4813   */\n      swap1\n      pop\n        /* \"#utility.yul\":4858:4859   */\n      0x01\n        /* \"#utility.yul\":4852:4856   */\n      dup3\n        /* \"#utility.yul\":4848:4860   */\n      and\n        /* \"#utility.yul\":4879:4897   */\n      dup1\n        /* \"#utility.yul\":4869:4950   */\n      tag_125\n      jumpi\n        /* \"#utility.yul\":4935:4939   */\n      0x7f\n        /* \"#utility.yul\":4927:4933   */\n      dup3\n        /* \"#utility.yul\":4923:4940   */\n      and\n        /* \"#utility.yul\":4913:4940   */\n      swap2\n      pop\n        /* \"#utility.yul\":4869:4950   */\n    tag_125:\n        /* \"#utility.yul\":4997:4999   */\n      0x20\n        /* \"#utility.yul\":4989:4995   */\n      dup3\n        /* \"#utility.yul\":4986:5000   */\n      lt\n        /* \"#utility.yul\":4966:4984   */\n      dup2\n        /* \"#utility.yul\":4963:5001   */\n      sub\n        /* \"#utility.yul\":4960:5044   */\n      tag_126\n      jumpi\n        /* \"#utility.yul\":5016:5034   */\n      tag_127\n      tag_70\n      jump\t// in\n    tag_127:\n        /* \"#utility.yul\":4960:5044   */\n    tag_126:\n        /* \"#utility.yul\":4781:5050   */\n      pop\n        /* \"#utility.yul\":4730:5050   */\n      swap2\n      swap1\n      pop\n      jump\t// out\n        /* \"#utility.yul\":5056:5277   */\n    tag_71:\n        /* \"#utility.yul\":5196:5230   */\n      0x496e70757473206d7573742062652073696e676c652d6469676974206e756d62\n        /* \"#utility.yul\":5192:5193   */\n      0x00\n        /* \"#utility.yul\":5184:5190   */\n      dup3\n        /* \"#utility.yul\":5180:5194   */\n      add\n        /* \"#utility.yul\":5173:5231   */\n      mstore\n        /* \"#utility.yul\":5265:5269   */\n      0x6572000000000000000000000000000000000000000000000000000000000000\n        /* \"#utility.yul\":5260:5262   */\n      0x20\n        /* \"#utility.yul\":5252:5258   */\n      dup3\n        /* \"#utility.yul\":5248:5263   */\n      add\n        /* \"#utility.yul\":5241:5270   */\n      mstore\n        /* \"#utility.yul\":5056:5277   */\n      pop\n      jump\t// out\n        /* \"#utility.yul\":5283:5649   */\n    tag_72:\n        /* \"#utility.yul\":5425:5428   */\n      0x00\n        /* \"#utility.yul\":5446:5513   */\n      tag_130\n        /* \"#utility.yul\":5510:5512   */\n      0x22\n        /* \"#utility.yul\":5505:5508   */\n      dup4\n        /* \"#utility.yul\":5446:5513   */\n      tag_64\n      jump\t// in\n    tag_130:\n        /* \"#utility.yul\":5439:5513   */\n      swap2\n      pop\n        /* \"#utility.yul\":5522:5615   */\n      tag_131\n        /* \"#utility.yul\":5611:5614   */\n      dup3\n        /* \"#utility.yul\":5522:5615   */\n      tag_71\n      jump\t// in\n    tag_131:\n        /* \"#utility.yul\":5640:5642   */\n      0x40\n        /* \"#utility.yul\":5635:5638   */\n      dup3\n        /* \"#utility.yul\":5631:5643   */\n      add\n        /* \"#utility.yul\":5624:5643   */\n      swap1\n      pop\n        /* \"#utility.yul\":5283:5649   */\n      swap2\n      swap1\n      pop\n      jump\t// out\n        /* \"#utility.yul\":5655:6074   */\n    tag_48:\n        /* \"#utility.yul\":5821:5825   */\n      0x00\n        /* \"#utility.yul\":5859:5861   */\n      0x20\n        /* \"#utility.yul\":5848:5857   */\n      dup3\n        /* \"#utility.yul\":5844:5862   */\n      add\n        /* \"#utility.yul\":5836:5862   */\n      swap1\n      pop\n        /* \"#utility.yul\":5908:5917   */\n      dup2\n        /* \"#utility.yul\":5902:5906   */\n      dup2\n        /* \"#utility.yul\":5898:5918   */\n      sub\n        /* \"#utility.yul\":5894:5895   */\n      0x00\n        /* \"#utility.yul\":5883:5892   */\n      dup4\n        /* \"#utility.yul\":5879:5896   */\n      add\n        /* \"#utility.yul\":5872:5919   */\n      mstore\n        /* \"#utility.yul\":5936:6067   */\n      tag_133\n        /* \"#utility.yul\":6062:6066   */\n      dup2\n        /* \"#utility.yul\":5936:6067   */\n      tag_72\n      jump\t// in\n    tag_133:\n        /* \"#utility.yul\":5928:6067   */\n      swap1\n      pop\n        /* \"#utility.yul\":5655:6074   */\n      swap2\n      swap1\n      pop\n      jump\t// out\n\n    auxdata: 0xa264697066735822122056e8575c3033dde55481550edc6fa4c6ef0e6cf6e77eff079dae2062468c882064736f6c634300081c0033\n}\n",
				"bytecode": {
					"linkReferences": {},
					"object": "60806040526040518061014001604052806040518060400160405280600481526020017f7a65726f0000000000000000000000000000000000000000000000000000000081525081526020016040518060400160405280600381526020017f6f6e65000000000000000000000000000000000000000000000000000000000081525081526020016040518060400160405280600381526020017f74776f000000000000000000000000000000000000000000000000000000000081525081526020016040518060400160405280600581526020017f746872656500000000000000000000000000000000000000000000000000000081525081526020016040518060400160405280600481526020017f666f75720000000000000000000000000000000000000000000000000000000081525081526020016040518060400160405280600481526020017f666976650000000000000000000000000000000000000000000000000000000081525081526020016040518060400160405280600381526020017f736978000000000000000000000000000000000000000000000000000000000081525081526020016040518060400160405280600581526020017f736576656e00000000000000000000000000000000000000000000000000000081525081526020016040518060400160405280600581526020017f656967687400000000000000000000000000000000000000000000000000000081525081526020016040518060400160405280600481526020017f6e696e6500000000000000000000000000000000000000000000000000000000815250815250600190600a61026c92919061027e565b50348015610278575f5ffd5b50610651565b82600a81019282156102b9579160200282015b828111156102b85782518290816102a89190610582565b5091602001919060010190610291565b5b5090506102c691906102ca565b5090565b5b808211156102e9575f81816102e091906102ed565b506001016102cb565b5090565b5080546102f9906103a9565b5f825580601f1061030a5750610327565b601f0160209004905f5260205f2090810190610326919061032a565b5b50565b5b80821115610341575f815f90555060010161032b565b5090565b5f81519050919050565b7f4e487b71000000000000000000000000000000000000000000000000000000005f52604160045260245ffd5b7f4e487b71000000000000000000000000000000000000000000000000000000005f52602260045260245ffd5b5f60028204905060018216806103c057607f821691505b6020821081036103d3576103d261037c565b5b50919050565b5f819050815f5260205f209050919050565b5f6020601f8301049050919050565b5f82821b905092915050565b5f600883026104357fffffffffffffffffffffffffffffffffffffffffffffffffffffffffffffffff826103fa565b61043f86836103fa565b95508019841693508086168417925050509392505050565b5f819050919050565b5f819050919050565b5f61048361047e61047984610457565b610460565b610457565b9050919050565b5f819050919050565b61049c83610469565b6104b06104a88261048a565b848454610406565b825550505050565b5f5f905090565b6104c76104b8565b6104d2818484610493565b505050565b5b818110156104f5576104ea5f826104bf565b6001810190506104d8565b5050565b601f82111561053a5761050b816103d9565b610514846103eb565b81016020851015610523578190505b61053761052f856103eb565b8301826104d7565b50505b505050565b5f82821c905092915050565b5f61055a5f198460080261053f565b1980831691505092915050565b5f610572838361054b565b9150826002028217905092915050565b61058b82610345565b67ffffffffffffffff8111156105a4576105a361034f565b5b6105ae82546103a9565b6105b98282856104f9565b5f60209050601f8311600181146105ea575f84156105d8578287015190505b6105e28582610567565b865550610649565b601f1984166105f8866103d9565b5f5b8281101561061f578489015182556001820191506020850194506020810190506105fa565b8683101561063c5784890151610638601f89168261054b565b8355505b6001600288020188555050505b505050505050565b6106a28061065e5f395ff3fe608060405234801561000f575f5ffd5b506004361061004a575f3560e01c80636b5902481461004e578063918d44b91461006e578063ac7517df1461009e578063e49e2828146100ce575b5f5ffd5b6100566100fe565b6040516100659392919061036c565b60405180910390f35b610088600480360381019061008391906103db565b61013b565b6040516100959190610476565b60405180910390f35b6100b860048036038101906100b391906104c0565b61020b565b6040516100c59190610476565b60405180910390f35b6100e860048036038101906100e391906104eb565b610300565b6040516100f5919061053b565b60405180910390f35b5f5f5f5f5f9054906101000a900461ffff165f60029054906101000a900461ffff165f60049054906101000a900461ffff16925092509250909192565b60605f8260010b1215610185576040518060400160405280600881526020017f6e656761746976650000000000000000000000000000000000000000000000008152509050610206565b5f8260010b13156101cd576040518060400160405280600881526020017f706f7369746976650000000000000000000000000000000000000000000000008152509050610206565b6040518060400160405280600481526020017f7a65726f0000000000000000000000000000000000000000000000000000000081525090505b919050565b606060098261ffff16116102c05760018261ffff16600a811061023157610230610554565b5b01805461023d906105ae565b80601f0160208091040260200160405190810160405280929190818152602001828054610269906105ae565b80156102b45780601f1061028b576101008083540402835291602001916102b4565b820191905f5260205f20905b81548152906001019060200180831161029757829003601f168201915b505050505090506102fb565b6040517f08c379a00000000000000000000000000000000000000000000000000000000081526004016102f29061064e565b60405180910390fd5b919050565b5f8261ffff168461ffff1611801561031f57508161ffff168461ffff16115b1561032c57839050610349565b8161ffff168361ffff16111561034457829050610348565b8190505b5b9392505050565b5f61ffff82169050919050565b61036681610350565b82525050565b5f60608201905061037f5f83018661035d565b61038c602083018561035d565b610399604083018461035d565b949350505050565b5f5ffd5b5f8160010b9050919050565b6103ba816103a5565b81146103c4575f5ffd5b50565b5f813590506103d5816103b1565b92915050565b5f602082840312156103f0576103ef6103a1565b5b5f6103fd848285016103c7565b91505092915050565b5f81519050919050565b5f82825260208201905092915050565b8281835e5f83830152505050565b5f601f19601f8301169050919050565b5f61044882610406565b6104528185610410565b9350610462818560208601610420565b61046b8161042e565b840191505092915050565b5f6020820190508181035f83015261048e818461043e565b905092915050565b61049f81610350565b81146104a9575f5ffd5b50565b5f813590506104ba81610496565b92915050565b5f602082840312156104d5576104d46103a1565b5b5f6104e2848285016104ac565b91505092915050565b5f5f5f60608486031215610502576105016103a1565b5b5f61050f868287016104ac565b9350506020610520868287016104ac565b9250506040610531868287016104ac565b9150509250925092565b5f60208201905061054e5f83018461035d565b92915050565b7f4e487b71000000000000000000000000000000000000000000000000000000005f52603260045260245ffd5b7f4e487b71000000000000000000000000000000000000000000000000000000005f52602260045260245ffd5b5f60028204905060018216806105c557607f821691505b6020821081036105d8576105d7610581565b5b50919050565b7f496e70757473206d7573742062652073696e676c652d6469676974206e756d625f8201527f6572000000000000000000000000000000000000000000000000000000000000602082015250565b5f610638602283610410565b9150610643826105de565b604082019050919050565b5f6020820190508181035f8301526106658161062c565b905091905056fea264697066735822122056e8575c3033dde55481550edc6fa4c6ef0e6cf6e77eff079dae2062468c882064736f6c634300081c0033",
					"opcodes": "PUSH1 0x80 PUSH1 0x40 MSTORE PUSH1 0x40 MLOAD DUP1 PUSH2 0x140 ADD PUSH1 0x40 MSTORE DUP1 PUSH1 0x40 MLOAD DUP1 PUSH1 0x40 ADD PUSH1 0x40 MSTORE DUP1 PUSH1 0x4 DUP2 MSTORE PUSH1 0x20 ADD PUSH32 0x7A65726F00000000000000000000000000000000000000000000000000000000 DUP2 MSTORE POP DUP2 MSTORE PUSH1 0x20 ADD PUSH1 0x40 MLOAD DUP1 PUSH1 0x40 ADD PUSH1 0x40 MSTORE DUP1 PUSH1 0x3 DUP2 MSTORE PUSH1 0x20 ADD PUSH32 0x6F6E650000000000000000000000000000000000000000000000000000000000 DUP2 MSTORE POP DUP2 MSTORE PUSH1 0x20 ADD PUSH1 0x40 MLOAD DUP1 PUSH1 0x40 ADD PUSH1 0x40 MSTORE DUP1 PUSH1 0x3 DUP2 MSTORE PUSH1 0x20 ADD PUSH32 0x74776F0000000000000000000000000000000000000000000000000000000000 DUP2 MSTORE POP DUP2 MSTORE PUSH1 0x20 ADD PUSH1 0x40 MLOAD DUP1 PUSH1 0x40 ADD PUSH1 0x40 MSTORE DUP1 PUSH1 0x5 DUP2 MSTORE PUSH1 0x20 ADD PUSH32 0x7468726565000000000000000000000000000000000000000000000000000000 DUP2 MSTORE POP DUP2 MSTORE PUSH1 0x20 ADD PUSH1 0x40 MLOAD DUP1 PUSH1 0x40 ADD PUSH1 0x40 MSTORE DUP1 PUSH1 0x4 DUP2 MSTORE PUSH1 0x20 ADD PUSH32 0x666F757200000000000000000000000000000000000000000000000000000000 DUP2 MSTORE POP DUP2 MSTORE PUSH1 0x20 ADD PUSH1 0x40 MLOAD DUP1 PUSH1 0x40 ADD PUSH1 0x40 MSTORE DUP1 PUSH1 0x4 DUP2 MSTORE PUSH1 0x20 ADD PUSH32 0x6669766500000000000000000000000000000000000000000000000000000000 DUP2 MSTORE POP DUP2 MSTORE PUSH1 0x20 ADD PUSH1 0x40 MLOAD DUP1 PUSH1 0x40 ADD PUSH1 0x40 MSTORE DUP1 PUSH1 0x3 DUP2 MSTORE PUSH1 0x20 ADD PUSH32 0x7369780000000000000000000000000000000000000000000000000000000000 DUP2 MSTORE POP DUP2 MSTORE PUSH1 0x20 ADD PUSH1 0x40 MLOAD DUP1 PUSH1 0x40 ADD PUSH1 0x40 MSTORE DUP1 PUSH1 0x5 DUP2 MSTORE PUSH1 0x20 ADD PUSH32 0x736576656E000000000000000000000000000000000000000000000000000000 DUP2 MSTORE POP DUP2 MSTORE PUSH1 0x20 ADD PUSH1 0x40 MLOAD DUP1 PUSH1 0x40 ADD PUSH1 0x40 MSTORE DUP1 PUSH1 0x5 DUP2 MSTORE PUSH1 0x20 ADD PUSH32 0x6569676874000000000000000000000000000000000000000000000000000000 DUP2 MSTORE POP DUP2 MSTORE PUSH1 0x20 ADD PUSH1 0x40 MLOAD DUP1 PUSH1 0x40 ADD PUSH1 0x40 MSTORE DUP1 PUSH1 0x4 DUP2 MSTORE PUSH1 0x20 ADD PUSH32 0x6E696E6500000000000000000000000000000000000000000000000000000000 DUP2 MSTORE POP DUP2 MSTORE POP PUSH1 0x1 SWAP1 PUSH1 0xA PUSH2 0x26C SWAP3 SWAP2 SWAP1 PUSH2 0x27E JUMP JUMPDEST POP CALLVALUE DUP1 ISZERO PUSH2 0x278 JUMPI PUSH0 PUSH0 REVERT JUMPDEST POP PUSH2 0x651 JUMP JUMPDEST DUP3 PUSH1 0xA DUP2 ADD SWAP3 DUP3 ISZERO PUSH2 0x2B9 JUMPI SWAP2 PUSH1 0x20 MUL DUP3 ADD JUMPDEST DUP3 DUP2 GT ISZERO PUSH2 0x2B8 JUMPI DUP3 MLOAD DUP3 SWAP1 DUP2 PUSH2 0x2A8 SWAP2 SWAP1 PUSH2 0x582 JUMP JUMPDEST POP SWAP2 PUSH1 0x20 ADD SWAP2 SWAP1 PUSH1 0x1 ADD SWAP1 PUSH2 0x291 JUMP JUMPDEST JUMPDEST POP SWAP1 POP PUSH2 0x2C6 SWAP2 SWAP1 PUSH2 0x2CA JUMP JUMPDEST POP SWAP1 JUMP JUMPDEST JUMPDEST DUP1 DUP3 GT ISZERO PUSH2 0x2E9 JUMPI PUSH0 DUP2 DUP2 PUSH2 0x2E0 SWAP2 SWAP1 PUSH2 0x2ED JUMP JUMPDEST POP PUSH1 0x1 ADD PUSH2 0x2CB JUMP JUMPDEST POP SWAP1 JUMP JUMPDEST POP DUP1 SLOAD PUSH2 0x2F9 SWAP1 PUSH2 0x3A9 JUMP JUMPDEST PUSH0 DUP3 SSTORE DUP1 PUSH1 0x1F LT PUSH2 0x30A JUMPI POP PUSH2 0x327 JUMP JUMPDEST PUSH1 0x1F ADD PUSH1 0x20 SWAP1 DIV SWAP1 PUSH0 MSTORE PUSH1 0x20 PUSH0 KECCAK256 SWAP1 DUP2 ADD SWAP1 PUSH2 0x326 SWAP2 SWAP1 PUSH2 0x32A JUMP JUMPDEST JUMPDEST POP JUMP JUMPDEST JUMPDEST DUP1 DUP3 GT ISZERO PUSH2 0x341 JUMPI PUSH0 DUP2 PUSH0 SWAP1 SSTORE POP PUSH1 0x1 ADD PUSH2 0x32B JUMP JUMPDEST POP SWAP1 JUMP JUMPDEST PUSH0 DUP2 MLOAD SWAP1 POP SWAP2 SWAP1 POP JUMP JUMPDEST PUSH32 0x4E487B7100000000000000000000000000000000000000000000000000000000 PUSH0 MSTORE PUSH1 0x41 PUSH1 0x4 MSTORE PUSH1 0x24 PUSH0 REVERT JUMPDEST PUSH32 0x4E487B7100000000000000000000000000000000000000000000000000000000 PUSH0 MSTORE PUSH1 0x22 PUSH1 0x4 MSTORE PUSH1 0x24 PUSH0 REVERT JUMPDEST PUSH0 PUSH1 0x2 DUP3 DIV SWAP1 POP PUSH1 0x1 DUP3 AND DUP1 PUSH2 0x3C0 JUMPI PUSH1 0x7F DUP3 AND SWAP2 POP JUMPDEST PUSH1 0x20 DUP3 LT DUP2 SUB PUSH2 0x3D3 JUMPI PUSH2 0x3D2 PUSH2 0x37C JUMP JUMPDEST JUMPDEST POP SWAP2 SWAP1 POP JUMP JUMPDEST PUSH0 DUP2 SWAP1 POP DUP2 PUSH0 MSTORE PUSH1 0x20 PUSH0 KECCAK256 SWAP1 POP SWAP2 SWAP1 POP JUMP JUMPDEST PUSH0 PUSH1 0x20 PUSH1 0x1F DUP4 ADD DIV SWAP1 POP SWAP2 SWAP1 POP JUMP JUMPDEST PUSH0 DUP3 DUP3 SHL SWAP1 POP SWAP3 SWAP2 POP POP JUMP JUMPDEST PUSH0 PUSH1 0x8 DUP4 MUL PUSH2 0x435 PUSH32 0xFFFFFFFFFFFFFFFFFFFFFFFFFFFFFFFFFFFFFFFFFFFFFFFFFFFFFFFFFFFFFFFF DUP3 PUSH2 0x3FA JUMP JUMPDEST PUSH2 0x43F DUP7 DUP4 PUSH2 0x3FA JUMP JUMPDEST SWAP6 POP DUP1 NOT DUP5 AND SWAP4 POP DUP1 DUP7 AND DUP5 OR SWAP3 POP POP POP SWAP4 SWAP3 POP POP POP JUMP JUMPDEST PUSH0 DUP2 SWAP1 POP SWAP2 SWAP1 POP JUMP JUMPDEST PUSH0 DUP2 SWAP1 POP SWAP2 SWAP1 POP JUMP JUMPDEST PUSH0 PUSH2 0x483 PUSH2 0x47E PUSH2 0x479 DUP5 PUSH2 0x457 JUMP JUMPDEST PUSH2 0x460 JUMP JUMPDEST PUSH2 0x457 JUMP JUMPDEST SWAP1 POP SWAP2 SWAP1 POP JUMP JUMPDEST PUSH0 DUP2 SWAP1 POP SWAP2 SWAP1 POP JUMP JUMPDEST PUSH2 0x49C DUP4 PUSH2 0x469 JUMP JUMPDEST PUSH2 0x4B0 PUSH2 0x4A8 DUP3 PUSH2 0x48A JUMP JUMPDEST DUP5 DUP5 SLOAD PUSH2 0x406 JUMP JUMPDEST DUP3 SSTORE POP POP POP POP JUMP JUMPDEST PUSH0 PUSH0 SWAP1 POP SWAP1 JUMP JUMPDEST PUSH2 0x4C7 PUSH2 0x4B8 JUMP JUMPDEST PUSH2 0x4D2 DUP2 DUP5 DUP5 PUSH2 0x493 JUMP JUMPDEST POP POP POP JUMP JUMPDEST JUMPDEST DUP2 DUP2 LT ISZERO PUSH2 0x4F5 JUMPI PUSH2 0x4EA PUSH0 DUP3 PUSH2 0x4BF JUMP JUMPDEST PUSH1 0x1 DUP2 ADD SWAP1 POP PUSH2 0x4D8 JUMP JUMPDEST POP POP JUMP JUMPDEST PUSH1 0x1F DUP3 GT ISZERO PUSH2 0x53A JUMPI PUSH2 0x50B DUP2 PUSH2 0x3D9 JUMP JUMPDEST PUSH2 0x514 DUP5 PUSH2 0x3EB JUMP JUMPDEST DUP2 ADD PUSH1 0x20 DUP6 LT ISZERO PUSH2 0x523 JUMPI DUP2 SWAP1 POP JUMPDEST PUSH2 0x537 PUSH2 0x52F DUP6 PUSH2 0x3EB JUMP JUMPDEST DUP4 ADD DUP3 PUSH2 0x4D7 JUMP JUMPDEST POP POP JUMPDEST POP POP POP JUMP JUMPDEST PUSH0 DUP3 DUP3 SHR SWAP1 POP SWAP3 SWAP2 POP POP JUMP JUMPDEST PUSH0 PUSH2 0x55A PUSH0 NOT DUP5 PUSH1 0x8 MUL PUSH2 0x53F JUMP JUMPDEST NOT DUP1 DUP4 AND SWAP2 POP POP SWAP3 SWAP2 POP POP JUMP JUMPDEST PUSH0 PUSH2 0x572 DUP4 DUP4 PUSH2 0x54B JUMP JUMPDEST SWAP2 POP DUP3 PUSH1 0x2 MUL DUP3 OR SWAP1 POP SWAP3 SWAP2 POP POP JUMP JUMPDEST PUSH2 0x58B DUP3 PUSH2 0x345 JUMP JUMPDEST PUSH8 0xFFFFFFFFFFFFFFFF DUP2 GT ISZERO PUSH2 0x5A4 JUMPI PUSH2 0x5A3 PUSH2 0x34F JUMP JUMPDEST JUMPDEST PUSH2 0x5AE DUP3 SLOAD PUSH2 0x3A9 JUMP JUMPDEST PUSH2 0x5B9 DUP3 DUP3 DUP6 PUSH2 0x4F9 JUMP JUMPDEST PUSH0 PUSH1 0x20 SWAP1 POP PUSH1 0x1F DUP4 GT PUSH1 0x1 DUP2 EQ PUSH2 0x5EA JUMPI PUSH0 DUP5 ISZERO PUSH2 0x5D8 JUMPI DUP3 DUP8 ADD MLOAD SWAP1 POP JUMPDEST PUSH2 0x5E2 DUP6 DUP3 PUSH2 0x567 JUMP JUMPDEST DUP7 SSTORE POP PUSH2 0x649 JUMP JUMPDEST PUSH1 0x1F NOT DUP5 AND PUSH2 0x5F8 DUP7 PUSH2 0x3D9 JUMP JUMPDEST PUSH0 JUMPDEST DUP3 DUP2 LT ISZERO PUSH2 0x61F JUMPI DUP5 DUP10 ADD MLOAD DUP3 SSTORE PUSH1 0x1 DUP3 ADD SWAP2 POP PUSH1 0x20 DUP6 ADD SWAP5 POP PUSH1 0x20 DUP2 ADD SWAP1 POP PUSH2 0x5FA JUMP JUMPDEST DUP7 DUP4 LT ISZERO PUSH2 0x63C JUMPI DUP5 DUP10 ADD MLOAD PUSH2 0x638 PUSH1 0x1F DUP10 AND DUP3 PUSH2 0x54B JUMP JUMPDEST DUP4 SSTORE POP JUMPDEST PUSH1 0x1 PUSH1 0x2 DUP9 MUL ADD DUP9 SSTORE POP POP POP JUMPDEST POP POP POP POP POP POP JUMP JUMPDEST PUSH2 0x6A2 DUP1 PUSH2 0x65E PUSH0 CODECOPY PUSH0 RETURN INVALID PUSH1 0x80 PUSH1 0x40 MSTORE CALLVALUE DUP1 ISZERO PUSH2 0xF JUMPI PUSH0 PUSH0 REVERT JUMPDEST POP PUSH1 0x4 CALLDATASIZE LT PUSH2 0x4A JUMPI PUSH0 CALLDATALOAD PUSH1 0xE0 SHR DUP1 PUSH4 0x6B590248 EQ PUSH2 0x4E JUMPI DUP1 PUSH4 0x918D44B9 EQ PUSH2 0x6E JUMPI DUP1 PUSH4 0xAC7517DF EQ PUSH2 0x9E JUMPI DUP1 PUSH4 0xE49E2828 EQ PUSH2 0xCE JUMPI JUMPDEST PUSH0 PUSH0 REVERT JUMPDEST PUSH2 0x56 PUSH2 0xFE JUMP JUMPDEST PUSH1 0x40 MLOAD PUSH2 0x65 SWAP4 SWAP3 SWAP2 SWAP1 PUSH2 0x36C JUMP JUMPDEST PUSH1 0x40 MLOAD DUP1 SWAP2 SUB SWAP1 RETURN JUMPDEST PUSH2 0x88 PUSH1 0x4 DUP1 CALLDATASIZE SUB DUP2 ADD SWAP1 PUSH2 0x83 SWAP2 SWAP1 PUSH2 0x3DB JUMP JUMPDEST PUSH2 0x13B JUMP JUMPDEST PUSH1 0x40 MLOAD PUSH2 0x95 SWAP2 SWAP1 PUSH2 0x476 JUMP JUMPDEST PUSH1 0x40 MLOAD DUP1 SWAP2 SUB SWAP1 RETURN JUMPDEST PUSH2 0xB8 PUSH1 0x4 DUP1 CALLDATASIZE SUB DUP2 ADD SWAP1 PUSH2 0xB3 SWAP2 SWAP1 PUSH2 0x4C0 JUMP JUMPDEST PUSH2 0x20B JUMP JUMPDEST PUSH1 0x40 MLOAD PUSH2 0xC5 SWAP2 SWAP1 PUSH2 0x476 JUMP JUMPDEST PUSH1 0x40 MLOAD DUP1 SWAP2 SUB SWAP1 RETURN JUMPDEST PUSH2 0xE8 PUSH1 0x4 DUP1 CALLDATASIZE SUB DUP2 ADD SWAP1 PUSH2 0xE3 SWAP2 SWAP1 PUSH2 0x4EB JUMP JUMPDEST PUSH2 0x300 JUMP JUMPDEST PUSH1 0x40 MLOAD PUSH2 0xF5 SWAP2 SWAP1 PUSH2 0x53B JUMP JUMPDEST PUSH1 0x40 MLOAD DUP1 SWAP2 SUB SWAP1 RETURN JUMPDEST PUSH0 PUSH0 PUSH0 PUSH0 PUSH0 SWAP1 SLOAD SWAP1 PUSH2 0x100 EXP SWAP1 DIV PUSH2 0xFFFF AND PUSH0 PUSH1 0x2 SWAP1 SLOAD SWAP1 PUSH2 0x100 EXP SWAP1 DIV PUSH2 0xFFFF AND PUSH0 PUSH1 0x4 SWAP1 SLOAD SWAP1 PUSH2 0x100 EXP SWAP1 DIV PUSH2 0xFFFF AND SWAP3 POP SWAP3 POP SWAP3 POP SWAP1 SWAP2 SWAP3 JUMP JUMPDEST PUSH1 0x60 PUSH0 DUP3 PUSH1 0x1 SIGNEXTEND SLT ISZERO PUSH2 0x185 JUMPI PUSH1 0x40 MLOAD DUP1 PUSH1 0x40 ADD PUSH1 0x40 MSTORE DUP1 PUSH1 0x8 DUP2 MSTORE PUSH1 0x20 ADD PUSH32 0x6E65676174697665000000000000000000000000000000000000000000000000 DUP2 MSTORE POP SWAP1 POP PUSH2 0x206 JUMP JUMPDEST PUSH0 DUP3 PUSH1 0x1 SIGNEXTEND SGT ISZERO PUSH2 0x1CD JUMPI PUSH1 0x40 MLOAD DUP1 PUSH1 0x40 ADD PUSH1 0x40 MSTORE DUP1 PUSH1 0x8 DUP2 MSTORE PUSH1 0x20 ADD PUSH32 0x706F736974697665000000000000000000000000000000000000000000000000 DUP2 MSTORE POP SWAP1 POP PUSH2 0x206 JUMP JUMPDEST PUSH1 0x40 MLOAD DUP1 PUSH1 0x40 ADD PUSH1 0x40 MSTORE DUP1 PUSH1 0x4 DUP2 MSTORE PUSH1 0x20 ADD PUSH32 0x7A65726F00000000000000000000000000000000000000000000000000000000 DUP2 MSTORE POP SWAP1 POP JUMPDEST SWAP2 SWAP1 POP JUMP JUMPDEST PUSH1 0x60 PUSH1 0x9 DUP3 PUSH2 0xFFFF AND GT PUSH2 0x2C0 JUMPI PUSH1 0x1 DUP3 PUSH2 0xFFFF AND PUSH1 0xA DUP2 LT PUSH2 0x231 JUMPI PUSH2 0x230 PUSH2 0x554 JUMP JUMPDEST JUMPDEST ADD DUP1 SLOAD PUSH2 0x23D SWAP1 PUSH2 0x5AE JUMP JUMPDEST DUP1 PUSH1 0x1F ADD PUSH1 0x20 DUP1 SWAP2 DIV MUL PUSH1 0x20 ADD PUSH1 0x40 MLOAD SWAP1 DUP2 ADD PUSH1 0x40 MSTORE DUP1 SWAP3 SWAP2 SWAP1 DUP2 DUP2 MSTORE PUSH1 0x20 ADD DUP3 DUP1 SLOAD PUSH2 0x269 SWAP1 PUSH2 0x5AE JUMP JUMPDEST DUP1 ISZERO PUSH2 0x2B4 JUMPI DUP1 PUSH1 0x1F LT PUSH2 0x28B JUMPI PUSH2 0x100 DUP1 DUP4 SLOAD DIV MUL DUP4 MSTORE SWAP2 PUSH1 0x20 ADD SWAP2 PUSH2 0x2B4 JUMP JUMPDEST DUP3 ADD SWAP2 SWAP1 PUSH0 MSTORE PUSH1 0x20 PUSH0 KECCAK256 SWAP1 JUMPDEST DUP2 SLOAD DUP2 MSTORE SWAP1 PUSH1 0x1 ADD SWAP1 PUSH1 0x20 ADD DUP1 DUP4 GT PUSH2 0x297 JUMPI DUP3 SWAP1 SUB PUSH1 0x1F AND DUP3 ADD SWAP2 JUMPDEST POP POP POP POP POP SWAP1 POP PUSH2 0x2FB JUMP JUMPDEST PUSH1 0x40 MLOAD PUSH32 0x8C379A000000000000000000000000000000000000000000000000000000000 DUP2 MSTORE PUSH1 0x4 ADD PUSH2 0x2F2 SWAP1 PUSH2 0x64E JUMP JUMPDEST PUSH1 0x40 MLOAD DUP1 SWAP2 SUB SWAP1 REVERT JUMPDEST SWAP2 SWAP1 POP JUMP JUMPDEST PUSH0 DUP3 PUSH2 0xFFFF AND DUP5 PUSH2 0xFFFF AND GT DUP1 ISZERO PUSH2 0x31F JUMPI POP DUP2 PUSH2 0xFFFF AND DUP5 PUSH2 0xFFFF AND GT JUMPDEST ISZERO PUSH2 0x32C JUMPI DUP4 SWAP1 POP PUSH2 0x349 JUMP JUMPDEST DUP2 PUSH2 0xFFFF AND DUP4 PUSH2 0xFFFF AND GT ISZERO PUSH2 0x344 JUMPI DUP3 SWAP1 POP PUSH2 0x348 JUMP JUMPDEST DUP2 SWAP1 POP JUMPDEST JUMPDEST SWAP4 SWAP3 POP POP POP JUMP JUMPDEST PUSH0 PUSH2 0xFFFF DUP3 AND SWAP1 POP SWAP2 SWAP1 POP JUMP JUMPDEST PUSH2 0x366 DUP2 PUSH2 0x350 JUMP JUMPDEST DUP3 MSTORE POP POP JUMP JUMPDEST PUSH0 PUSH1 0x60 DUP3 ADD SWAP1 POP PUSH2 0x37F PUSH0 DUP4 ADD DUP7 PUSH2 0x35D JUMP JUMPDEST PUSH2 0x38C PUSH1 0x20 DUP4 ADD DUP6 PUSH2 0x35D JUMP JUMPDEST PUSH2 0x399 PUSH1 0x40 DUP4 ADD DUP5 PUSH2 0x35D JUMP JUMPDEST SWAP5 SWAP4 POP POP POP POP JUMP JUMPDEST PUSH0 PUSH0 REVERT JUMPDEST PUSH0 DUP2 PUSH1 0x1 SIGNEXTEND SWAP1 POP SWAP2 SWAP1 POP JUMP JUMPDEST PUSH2 0x3BA DUP2 PUSH2 0x3A5 JUMP JUMPDEST DUP2 EQ PUSH2 0x3C4 JUMPI PUSH0 PUSH0 REVERT JUMPDEST POP JUMP JUMPDEST PUSH0 DUP2 CALLDATALOAD SWAP1 POP PUSH2 0x3D5 DUP2 PUSH2 0x3B1 JUMP JUMPDEST SWAP3 SWAP2 POP POP JUMP JUMPDEST PUSH0 PUSH1 0x20 DUP3 DUP5 SUB SLT ISZERO PUSH2 0x3F0 JUMPI PUSH2 0x3EF PUSH2 0x3A1 JUMP JUMPDEST JUMPDEST PUSH0 PUSH2 0x3FD DUP5 DUP3 DUP6 ADD PUSH2 0x3C7 JUMP JUMPDEST SWAP2 POP POP SWAP3 SWAP2 POP POP JUMP JUMPDEST PUSH0 DUP2 MLOAD SWAP1 POP SWAP2 SWAP1 POP JUMP JUMPDEST PUSH0 DUP3 DUP3 MSTORE PUSH1 0x20 DUP3 ADD SWAP1 POP SWAP3 SWAP2 POP POP JUMP JUMPDEST DUP3 DUP2 DUP4 MCOPY PUSH0 DUP4 DUP4 ADD MSTORE POP POP POP JUMP JUMPDEST PUSH0 PUSH1 0x1F NOT PUSH1 0x1F DUP4 ADD AND SWAP1 POP SWAP2 SWAP1 POP JUMP JUMPDEST PUSH0 PUSH2 0x448 DUP3 PUSH2 0x406 JUMP JUMPDEST PUSH2 0x452 DUP2 DUP6 PUSH2 0x410 JUMP JUMPDEST SWAP4 POP PUSH2 0x462 DUP2 DUP6 PUSH1 0x20 DUP7 ADD PUSH2 0x420 JUMP JUMPDEST PUSH2 0x46B DUP2 PUSH2 0x42E JUMP JUMPDEST DUP5 ADD SWAP2 POP POP SWAP3 SWAP2 POP POP JUMP JUMPDEST PUSH0 PUSH1 0x20 DUP3 ADD SWAP1 POP DUP2 DUP2 SUB PUSH0 DUP4 ADD MSTORE PUSH2 0x48E DUP2 DUP5 PUSH2 0x43E JUMP JUMPDEST SWAP1 POP SWAP3 SWAP2 POP POP JUMP JUMPDEST PUSH2 0x49F DUP2 PUSH2 0x350 JUMP JUMPDEST DUP2 EQ PUSH2 0x4A9 JUMPI PUSH0 PUSH0 REVERT JUMPDEST POP JUMP JUMPDEST PUSH0 DUP2 CALLDATALOAD SWAP1 POP PUSH2 0x4BA DUP2 PUSH2 0x496 JUMP JUMPDEST SWAP3 SWAP2 POP POP JUMP JUMPDEST PUSH0 PUSH1 0x20 DUP3 DUP5 SUB SLT ISZERO PUSH2 0x4D5 JUMPI PUSH2 0x4D4 PUSH2 0x3A1 JUMP JUMPDEST JUMPDEST PUSH0 PUSH2 0x4E2 DUP5 DUP3 DUP6 ADD PUSH2 0x4AC JUMP JUMPDEST SWAP2 POP POP SWAP3 SWAP2 POP POP JUMP JUMPDEST PUSH0 PUSH0 PUSH0 PUSH1 0x60 DUP5 DUP7 SUB SLT ISZERO PUSH2 0x502 JUMPI PUSH2 0x501 PUSH2 0x3A1 JUMP JUMPDEST JUMPDEST PUSH0 PUSH2 0x50F DUP7 DUP3 DUP8 ADD PUSH2 0x4AC JUMP JUMPDEST SWAP4 POP POP PUSH1 0x20 PUSH2 0x520 DUP7 DUP3 DUP8 ADD PUSH2 0x4AC JUMP JUMPDEST SWAP3 POP POP PUSH1 0x40 PUSH2 0x531 DUP7 DUP3 DUP8 ADD PUSH2 0x4AC JUMP JUMPDEST SWAP2 POP POP SWAP3 POP SWAP3 POP SWAP3 JUMP JUMPDEST PUSH0 PUSH1 0x20 DUP3 ADD SWAP1 POP PUSH2 0x54E PUSH0 DUP4 ADD DUP5 PUSH2 0x35D JUMP JUMPDEST SWAP3 SWAP2 POP POP JUMP JUMPDEST PUSH32 0x4E487B7100000000000000000000000000000000000000000000000000000000 PUSH0 MSTORE PUSH1 0x32 PUSH1 0x4 MSTORE PUSH1 0x24 PUSH0 REVERT JUMPDEST PUSH32 0x4E487B7100000000000000000000000000000000000000000000000000000000 PUSH0 MSTORE PUSH1 0x22 PUSH1 0x4 MSTORE PUSH1 0x24 PUSH0 REVERT JUMPDEST PUSH0 PUSH1 0x2 DUP3 DIV SWAP1 POP PUSH1 0x1 DUP3 AND DUP1 PUSH2 0x5C5 JUMPI PUSH1 0x7F DUP3 AND SWAP2 POP JUMPDEST PUSH1 0x20 DUP3 LT DUP2 SUB PUSH2 0x5D8 JUMPI PUSH2 0x5D7 PUSH2 0x581 JUMP JUMPDEST JUMPDEST POP SWAP2 SWAP1 POP JUMP JUMPDEST PUSH32 0x496E70757473206D7573742062652073696E676C652D6469676974206E756D62 PUSH0 DUP3 ADD MSTORE PUSH32 0x6572000000000000000000000000000000000000000000000000000000000000 PUSH1 0x20 DUP3 ADD MSTORE POP JUMP JUMPDEST PUSH0 PUSH2 0x638 PUSH1 0x22 DUP4 PUSH2 0x410 JUMP JUMPDEST SWAP2 POP PUSH2 0x643 DUP3 PUSH2 0x5DE JUMP JUMPDEST PUSH1 0x40 DUP3 ADD SWAP1 POP SWAP2 SWAP1 POP JUMP JUMPDEST PUSH0 PUSH1 0x20 DUP3 ADD SWAP1 POP DUP2 DUP2 SUB PUSH0 DUP4 ADD MSTORE PUSH2 0x665 DUP2 PUSH2 0x62C JUMP JUMPDEST SWAP1 POP SWAP2 SWAP1 POP JUMP INVALID LOG2 PUSH5 0x6970667358 0x22 SLT KECCAK256 JUMP 0xE8 JUMPI TLOAD ADDRESS CALLER 0xDD 0xE5 SLOAD DUP2 SSTORE 0xE 0xDC PUSH16 0xA4C6EF0E6CF6E77EFF079DAE2062468C DUP9 KECCAK256 PUSH5 0x736F6C6343 STOP ADDMOD SHR STOP CALLER "
				},
				"gasEstimates": {
					"creation": {
						"codeDepositCost": "339600",
						"executionCost": "infinite",
						"totalCost": "infinite"
					},
					"external": {
						"checkSign(int16)": "infinite",
						"findLargest(uint16,uint16,uint16)": "infinite",
						"getDigit()": "infinite",
						"setWords(uint16)": "infinite"
					}
				},
				"methodIdentifiers": {
					"checkSign(int16)": "918d44b9",
					"findLargest(uint16,uint16,uint16)": "e49e2828",
					"getDigit()": "6b590248",
					"setWords(uint16)": "ac7517df"
				}
			},
			"storageLayout": {
				"storage": [
					{
						"astId": 3,
						"contract": "mathFunctions.sol:mathFunctions",
						"label": "number1",
						"offset": 0,
						"slot": "0",
						"type": "t_uint16"
					},
					{
						"astId": 5,
						"contract": "mathFunctions.sol:mathFunctions",
						"label": "number2",
						"offset": 2,
						"slot": "0",
						"type": "t_uint16"
					},
					{
						"astId": 7,
						"contract": "mathFunctions.sol:mathFunctions",
						"label": "number3",
						"offset": 4,
						"slot": "0",
						"type": "t_uint16"
					},
					{
						"astId": 22,
						"contract": "mathFunctions.sol:mathFunctions",
						"label": "array",
						"offset": 0,
						"slot": "1",
						"type": "t_array(t_string_storage)10_storage"
					}
				],
				"types": {
					"t_array(t_string_storage)10_storage": {
						"base": "t_string_storage",
						"encoding": "inplace",
						"label": "string[10]",
						"numberOfBytes": "320"
					},
					"t_string_storage": {
						"encoding": "bytes",
						"label": "string",
						"numberOfBytes": "32"
					},
					"t_uint16": {
						"encoding": "inplace",
						"label": "uint16",
						"numberOfBytes": "2"
					}
				}
			},
			"userdoc": {
				"kind": "user",
				"methods": {},
				"version": 1
			}
		}
	}
}