{
	"StudentMS.sol": {
		"SMS": {
			"abi": [
				{
					"inputs": [],
					"stateMutability": "nonpayable",
					"type": "constructor"
				},
				{
					"inputs": [
						{
							"internalType": "string",
							"name": "_name",
							"type": "string"
						},
						{
							"internalType": "uint8",
							"name": "_sem",
							"type": "uint8"
						},
						{
							"internalType": "enum SMS.Department",
							"name": "_dept",
							"type": "uint8"
						},
						{
							"internalType": "uint8",
							"name": "_CGPA",
							"type": "uint8"
						},
						{
							"internalType": "uint32",
							"name": "_rollno",
							"type": "uint32"
						}
					],
					"name": "addStudent",
					"outputs": [],
					"stateMutability": "nonpayable",
					"type": "function"
				},
				{
					"inputs": [
						{
							"internalType": "uint8",
							"name": "_sem",
							"type": "uint8"
						},
						{
							"internalType": "enum SMS.Department",
							"name": "_dept",
							"type": "uint8"
						},
						{
							"internalType": "uint8",
							"name": "_CGPA",
							"type": "uint8"
						},
						{
							"internalType": "uint32",
							"name": "_rollno",
							"type": "uint32"
						}
					],
					"name": "editData",
					"outputs": [],
					"stateMutability": "nonpayable",
					"type": "function"
				},
				{
					"inputs": [
						{
							"internalType": "string",
							"name": "_name",
							"type": "string"
						},
						{
							"internalType": "uint32",
							"name": "_rollno",
							"type": "uint32"
						}
					],
					"name": "editName",
					"outputs": [],
					"stateMutability": "nonpayable",
					"type": "function"
				},
				{
					"inputs": [
						{
							"internalType": "uint32",
							"name": "_rollno",
							"type": "uint32"
						}
					],
					"name": "getStudent",
					"outputs": [
						{
							"internalType": "string",
							"name": "name",
							"type": "string"
						},
						{
							"internalType": "uint8",
							"name": "sem",
							"type": "uint8"
						},
						{
							"internalType": "enum SMS.Department",
							"name": "dept",
							"type": "uint8"
						},
						{
							"internalType": "uint8",
							"name": "CGPA",
							"type": "uint8"
						},
						{
							"internalType": "uint32",
							"name": "rollno",
							"type": "uint32"
						}
					],
					"stateMutability": "view",
					"type": "function"
				},
				{
					"inputs": [],
					"name": "staffadvisor",
					"outputs": [
						{
							"internalType": "address",
							"name": "",
							"type": "address"
						}
					],
					"stateMutability": "view",
					"type": "function"
				}
			],
			"devdoc": {
				"kind": "dev",
				"methods": {},
				"version": 1
			},
			"evm": {
				"assembly": "    /* \"StudentMS.sol\":57:1797  contract SMS{... */\n  mstore(0x40, 0x80)\n    /* \"StudentMS.sol\":350:406  constructor() {... */\n  callvalue\n  dup1\n  iszero\n  tag_1\n  jumpi\n  0x00\n  dup1\n  revert\ntag_1:\n  pop\n    /* \"StudentMS.sol\":389:399  msg.sender */\n  caller\n    /* \"StudentMS.sol\":374:386  staffadvisor */\n  0x00\n  dup1\n    /* \"StudentMS.sol\":374:399  staffadvisor = msg.sender */\n  0x0100\n  exp\n  dup2\n  sload\n  dup2\n  0xffffffffffffffffffffffffffffffffffffffff\n  mul\n  not\n  and\n  swap1\n  dup4\n  0xffffffffffffffffffffffffffffffffffffffff\n  and\n  mul\n  or\n  swap1\n  sstore\n  pop\n    /* \"StudentMS.sol\":57:1797  contract SMS{... */\n  dataSize(sub_0)\n  dup1\n  dataOffset(sub_0)\n  0x00\n  codecopy\n  0x00\n  return\nstop\n\nsub_0: assembly {\n        /* \"StudentMS.sol\":57:1797  contract SMS{... */\n      mstore(0x40, 0x80)\n      callvalue\n      dup1\n      iszero\n      tag_1\n      jumpi\n      0x00\n      dup1\n      revert\n    tag_1:\n      pop\n      jumpi(tag_2, lt(calldatasize, 0x04))\n      shr(0xe0, calldataload(0x00))\n      dup1\n      0x2055f8d5\n      eq\n      tag_3\n      jumpi\n      dup1\n      0x88fe1e83\n      eq\n      tag_4\n      jumpi\n      dup1\n      0xbd34cdca\n      eq\n      tag_5\n      jumpi\n      dup1\n      0xea2f9f41\n      eq\n      tag_6\n      jumpi\n      dup1\n      0xfe6674bf\n      eq\n      tag_7\n      jumpi\n    tag_2:\n      0x00\n      dup1\n      revert\n        /* \"StudentMS.sol\":667:967  function addStudent(string memory _name,uint8 _sem,Department _dept,uint8 _CGPA,uint32 _rollno) public  admin {... */\n    tag_3:\n      tag_8\n      0x04\n      dup1\n      calldatasize\n      sub\n      dup2\n      add\n      swap1\n      tag_9\n      swap2\n      swap1\n      tag_10\n      jump\t// in\n    tag_9:\n      tag_11\n      jump\t// in\n    tag_8:\n      stop\n        /* \"StudentMS.sol\":1280:1576  function editData(uint8 _sem,Department _dept,uint8 _CGPA,uint32 _rollno) public admin verifyStudent(_rollno){... */\n    tag_4:\n      tag_12\n      0x04\n      dup1\n      calldatasize\n      sub\n      dup2\n      add\n      swap1\n      tag_13\n      swap2\n      swap1\n      tag_14\n      jump\t// in\n    tag_13:\n      tag_15\n      jump\t// in\n    tag_12:\n      stop\n        /* \"StudentMS.sol\":1582:1793  function editName(string memory _name,uint32 _rollno) public verifyStudent(_rollno){... */\n    tag_5:\n      tag_16\n      0x04\n      dup1\n      calldatasize\n      sub\n      dup2\n      add\n      swap1\n      tag_17\n      swap2\n      swap1\n      tag_18\n      jump\t// in\n    tag_17:\n      tag_19\n      jump\t// in\n    tag_16:\n      stop\n        /* \"StudentMS.sol\":974:1274  function getStudent(uint32 _rollno) public view admin returns (string memory name, uint8 sem, Department dept, uint8 CGPA, uint32 rollno) {... */\n    tag_6:\n      tag_20\n      0x04\n      dup1\n      calldatasize\n      sub\n      dup2\n      add\n      swap1\n      tag_21\n      swap2\n      swap1\n      tag_22\n      jump\t// in\n    tag_21:\n      tag_23\n      jump\t// in\n    tag_20:\n      mload(0x40)\n      tag_24\n      swap6\n      swap5\n      swap4\n      swap3\n      swap2\n      swap1\n      tag_25\n      jump\t// in\n    tag_24:\n      mload(0x40)\n      dup1\n      swap2\n      sub\n      swap1\n      return\n        /* \"StudentMS.sol\":111:138  address public staffadvisor */\n    tag_7:\n      tag_26\n      tag_27\n      jump\t// in\n    tag_26:\n      mload(0x40)\n      tag_28\n      swap2\n      swap1\n      tag_29\n      jump\t// in\n    tag_28:\n      mload(0x40)\n      dup1\n      swap2\n      sub\n      swap1\n      return\n        /* \"StudentMS.sol\":667:967  function addStudent(string memory _name,uint8 _sem,Department _dept,uint8 _CGPA,uint32 _rollno) public  admin {... */\n    tag_11:\n        /* \"StudentMS.sol\":460:472  staffadvisor */\n      0x00\n      dup1\n      sload\n      swap1\n      0x0100\n      exp\n      swap1\n      div\n      0xffffffffffffffffffffffffffffffffffffffff\n      and\n        /* \"StudentMS.sol\":446:472  msg.sender == staffadvisor */\n      0xffffffffffffffffffffffffffffffffffffffff\n      and\n        /* \"StudentMS.sol\":446:456  msg.sender */\n      caller\n        /* \"StudentMS.sol\":446:472  msg.sender == staffadvisor */\n      0xffffffffffffffffffffffffffffffffffffffff\n      and\n      eq\n        /* \"StudentMS.sol\":438:507  require(msg.sender == staffadvisor,\"You cannot access this Function\") */\n      tag_31\n      jumpi\n      mload(0x40)\n      0x08c379a000000000000000000000000000000000000000000000000000000000\n      dup2\n      mstore\n      0x04\n      add\n      tag_32\n      swap1\n      tag_33\n      jump\t// in\n    tag_32:\n      mload(0x40)\n      dup1\n      swap2\n      sub\n      swap1\n      revert\n    tag_31:\n        /* \"StudentMS.sol\":813:827  studentDetails */\n      0x01\n        /* \"StudentMS.sol\":813:836  studentDetails[_rollno] */\n      0x00\n        /* \"StudentMS.sol\":828:835  _rollno */\n      dup3\n        /* \"StudentMS.sol\":813:836  studentDetails[_rollno] */\n      0xffffffff\n      and\n      0xffffffff\n      and\n      dup2\n      mstore\n      0x20\n      add\n      swap1\n      dup2\n      mstore\n      0x20\n      add\n      0x00\n      keccak256\n        /* \"StudentMS.sol\":813:842  studentDetails[_rollno].exist */\n      0x01\n      add\n      0x07\n      swap1\n      sload\n      swap1\n      0x0100\n      exp\n      swap1\n      div\n      0xff\n      and\n        /* \"StudentMS.sol\":812:842  !studentDetails[_rollno].exist */\n      iszero\n        /* \"StudentMS.sol\":804:876  require(!studentDetails[_rollno].exist, \"Roll number is already exists\") */\n      tag_35\n      jumpi\n      mload(0x40)\n      0x08c379a000000000000000000000000000000000000000000000000000000000\n      dup2\n      mstore\n      0x04\n      add\n      tag_36\n      swap1\n      tag_37\n      jump\t// in\n    tag_36:\n      mload(0x40)\n      dup1\n      swap2\n      sub\n      swap1\n      revert\n    tag_35:\n        /* \"StudentMS.sol\":916:960  Student(_name,_sem,_dept,_CGPA,_rollno,true) */\n      mload(0x40)\n      dup1\n      0xc0\n      add\n      0x40\n      mstore\n      dup1\n        /* \"StudentMS.sol\":924:929  _name */\n      dup7\n        /* \"StudentMS.sol\":916:960  Student(_name,_sem,_dept,_CGPA,_rollno,true) */\n      dup2\n      mstore\n      0x20\n      add\n        /* \"StudentMS.sol\":930:934  _sem */\n      dup6\n        /* \"StudentMS.sol\":916:960  Student(_name,_sem,_dept,_CGPA,_rollno,true) */\n      0xff\n      and\n      dup2\n      mstore\n      0x20\n      add\n        /* \"StudentMS.sol\":935:940  _dept */\n      dup5\n        /* \"StudentMS.sol\":916:960  Student(_name,_sem,_dept,_CGPA,_rollno,true) */\n      0x02\n      dup2\n      gt\n      iszero\n      tag_38\n      jumpi\n      tag_39\n      tag_40\n      jump\t// in\n    tag_39:\n    tag_38:\n      dup2\n      mstore\n      0x20\n      add\n        /* \"StudentMS.sol\":941:946  _CGPA */\n      dup4\n        /* \"StudentMS.sol\":916:960  Student(_name,_sem,_dept,_CGPA,_rollno,true) */\n      0xff\n      and\n      dup2\n      mstore\n      0x20\n      add\n        /* \"StudentMS.sol\":947:954  _rollno */\n      dup3\n        /* \"StudentMS.sol\":916:960  Student(_name,_sem,_dept,_CGPA,_rollno,true) */\n      0xffffffff\n      and\n      dup2\n      mstore\n      0x20\n      add\n        /* \"StudentMS.sol\":955:959  true */\n      0x01\n        /* \"StudentMS.sol\":916:960  Student(_name,_sem,_dept,_CGPA,_rollno,true) */\n      iszero\n      iszero\n      dup2\n      mstore\n      pop\n        /* \"StudentMS.sol\":890:904  studentDetails */\n      0x01\n        /* \"StudentMS.sol\":890:913  studentDetails[_rollno] */\n      0x00\n        /* \"StudentMS.sol\":905:912  _rollno */\n      dup4\n        /* \"StudentMS.sol\":890:913  studentDetails[_rollno] */\n      0xffffffff\n      and\n      0xffffffff\n      and\n      dup2\n      mstore\n      0x20\n      add\n      swap1\n      dup2\n      mstore\n      0x20\n      add\n      0x00\n      keccak256\n        /* \"StudentMS.sol\":890:960  studentDetails[_rollno] = Student(_name,_sem,_dept,_CGPA,_rollno,true) */\n      0x00\n      dup3\n      add\n      mload\n      dup2\n      0x00\n      add\n      swap1\n      dup2\n      tag_41\n      swap2\n      swap1\n      tag_42\n      jump\t// in\n    tag_41:\n      pop\n      0x20\n      dup3\n      add\n      mload\n      dup2\n      0x01\n      add\n      exp(0x0100, 0x00)\n      dup2\n      sload\n      dup2\n      0xff\n      mul\n      not\n      and\n      swap1\n      dup4\n      0xff\n      and\n      mul\n      or\n      swap1\n      sstore\n      pop\n      0x40\n      dup3\n      add\n      mload\n      dup2\n      0x01\n      add\n      exp(0x0100, 0x01)\n      dup2\n      sload\n      dup2\n      0xff\n      mul\n      not\n      and\n      swap1\n      dup4\n      0x02\n      dup2\n      gt\n      iszero\n      tag_43\n      jumpi\n      tag_44\n      tag_40\n      jump\t// in\n    tag_44:\n    tag_43:\n      mul\n      or\n      swap1\n      sstore\n      pop\n      0x60\n      dup3\n      add\n      mload\n      dup2\n      0x01\n      add\n      exp(0x0100, 0x02)\n      dup2\n      sload\n      dup2\n      0xff\n      mul\n      not\n      and\n      swap1\n      dup4\n      0xff\n      and\n      mul\n      or\n      swap1\n      sstore\n      pop\n      0x80\n      dup3\n      add\n      mload\n      dup2\n      0x01\n      add\n      exp(0x0100, 0x03)\n      dup2\n      sload\n      dup2\n      0xffffffff\n      mul\n      not\n      and\n      swap1\n      dup4\n      0xffffffff\n      and\n      mul\n      or\n      swap1\n      sstore\n      pop\n      0xa0\n      dup3\n      add\n      mload\n      dup2\n      0x01\n      add\n      exp(0x0100, 0x07)\n      dup2\n      sload\n      dup2\n      0xff\n      mul\n      not\n      and\n      swap1\n      dup4\n      iszero\n      iszero\n      mul\n      or\n      swap1\n      sstore\n      pop\n      swap1\n      pop\n      pop\n        /* \"StudentMS.sol\":667:967  function addStudent(string memory _name,uint8 _sem,Department _dept,uint8 _CGPA,uint32 _rollno) public  admin {... */\n      pop\n      pop\n      pop\n      pop\n      pop\n      jump\t// out\n        /* \"StudentMS.sol\":1280:1576  function editData(uint8 _sem,Department _dept,uint8 _CGPA,uint32 _rollno) public admin verifyStudent(_rollno){... */\n    tag_15:\n        /* \"StudentMS.sol\":460:472  staffadvisor */\n      0x00\n      dup1\n      sload\n      swap1\n      0x0100\n      exp\n      swap1\n      div\n      0xffffffffffffffffffffffffffffffffffffffff\n      and\n        /* \"StudentMS.sol\":446:472  msg.sender == staffadvisor */\n      0xffffffffffffffffffffffffffffffffffffffff\n      and\n        /* \"StudentMS.sol\":446:456  msg.sender */\n      caller\n        /* \"StudentMS.sol\":446:472  msg.sender == staffadvisor */\n      0xffffffffffffffffffffffffffffffffffffffff\n      and\n      eq\n        /* \"StudentMS.sol\":438:507  require(msg.sender == staffadvisor,\"You cannot access this Function\") */\n      tag_46\n      jumpi\n      mload(0x40)\n      0x08c379a000000000000000000000000000000000000000000000000000000000\n      dup2\n      mstore\n      0x04\n      add\n      tag_47\n      swap1\n      tag_33\n      jump\t// in\n    tag_47:\n      mload(0x40)\n      dup1\n      swap2\n      sub\n      swap1\n      revert\n    tag_46:\n        /* \"StudentMS.sol\":1381:1388  _rollno */\n      dup1\n        /* \"StudentMS.sol\":585:599  studentDetails */\n      0x01\n        /* \"StudentMS.sol\":585:607  studentDetails[rollno] */\n      0x00\n        /* \"StudentMS.sol\":600:606  rollno */\n      dup3\n        /* \"StudentMS.sol\":585:607  studentDetails[rollno] */\n      0xffffffff\n      and\n      0xffffffff\n      and\n      dup2\n      mstore\n      0x20\n      add\n      swap1\n      dup2\n      mstore\n      0x20\n      add\n      0x00\n      keccak256\n        /* \"StudentMS.sol\":585:613  studentDetails[rollno].exist */\n      0x01\n      add\n      0x07\n      swap1\n      sload\n      swap1\n      0x0100\n      exp\n      swap1\n      div\n      0xff\n      and\n        /* \"StudentMS.sol\":577:643  require(studentDetails[rollno].exist,\"Roll Number does not exist\") */\n      tag_49\n      jumpi\n      mload(0x40)\n      0x08c379a000000000000000000000000000000000000000000000000000000000\n      dup2\n      mstore\n      0x04\n      add\n      tag_50\n      swap1\n      tag_51\n      jump\t// in\n    tag_50:\n      mload(0x40)\n      dup1\n      swap2\n      sub\n      swap1\n      revert\n    tag_49:\n        /* \"StudentMS.sol\":1408:1431  Student storage student */\n      0x00\n        /* \"StudentMS.sol\":1434:1448  studentDetails */\n      0x01\n        /* \"StudentMS.sol\":1434:1457  studentDetails[_rollno] */\n      0x00\n        /* \"StudentMS.sol\":1449:1456  _rollno */\n      dup5\n        /* \"StudentMS.sol\":1434:1457  studentDetails[_rollno] */\n      0xffffffff\n      and\n      0xffffffff\n      and\n      dup2\n      mstore\n      0x20\n      add\n      swap1\n      dup2\n      mstore\n      0x20\n      add\n      0x00\n      keccak256\n        /* \"StudentMS.sol\":1408:1457  Student storage student = studentDetails[_rollno] */\n      swap1\n      pop\n        /* \"StudentMS.sol\":1488:1492  _sem */\n      dup6\n        /* \"StudentMS.sol\":1475:1482  student */\n      dup2\n        /* \"StudentMS.sol\":1475:1486  student.sem */\n      0x01\n      add\n      0x00\n        /* \"StudentMS.sol\":1475:1492  student.sem= _sem */\n      0x0100\n      exp\n      dup2\n      sload\n      dup2\n      0xff\n      mul\n      not\n      and\n      swap1\n      dup4\n      0xff\n      and\n      mul\n      or\n      swap1\n      sstore\n      pop\n        /* \"StudentMS.sol\":1525:1530  _dept */\n      dup5\n        /* \"StudentMS.sol\":1510:1517  student */\n      dup2\n        /* \"StudentMS.sol\":1510:1522  student.dept */\n      0x01\n      add\n      0x01\n        /* \"StudentMS.sol\":1510:1530  student.dept = _dept */\n      0x0100\n      exp\n      dup2\n      sload\n      dup2\n      0xff\n      mul\n      not\n      and\n      swap1\n      dup4\n      0x02\n      dup2\n      gt\n      iszero\n      tag_53\n      jumpi\n      tag_54\n      tag_40\n      jump\t// in\n    tag_54:\n    tag_53:\n      mul\n      or\n      swap1\n      sstore\n      pop\n        /* \"StudentMS.sol\":1563:1568  _CGPA */\n      dup4\n        /* \"StudentMS.sol\":1548:1555  student */\n      dup2\n        /* \"StudentMS.sol\":1548:1560  student.CGPA */\n      0x01\n      add\n      0x02\n        /* \"StudentMS.sol\":1548:1568  student.CGPA = _CGPA */\n      0x0100\n      exp\n      dup2\n      sload\n      dup2\n      0xff\n      mul\n      not\n      and\n      swap1\n      dup4\n      0xff\n      and\n      mul\n      or\n      swap1\n      sstore\n      pop\n        /* \"StudentMS.sol\":1389:1576  {... */\n      pop\n        /* \"StudentMS.sol\":517:518  _ */\n      pop\n        /* \"StudentMS.sol\":1280:1576  function editData(uint8 _sem,Department _dept,uint8 _CGPA,uint32 _rollno) public admin verifyStudent(_rollno){... */\n      pop\n      pop\n      pop\n      pop\n      jump\t// out\n        /* \"StudentMS.sol\":1582:1793  function editName(string memory _name,uint32 _rollno) public verifyStudent(_rollno){... */\n    tag_19:\n        /* \"StudentMS.sol\":1657:1664  _rollno */\n      dup1\n        /* \"StudentMS.sol\":585:599  studentDetails */\n      0x01\n        /* \"StudentMS.sol\":585:607  studentDetails[rollno] */\n      0x00\n        /* \"StudentMS.sol\":600:606  rollno */\n      dup3\n        /* \"StudentMS.sol\":585:607  studentDetails[rollno] */\n      0xffffffff\n      and\n      0xffffffff\n      and\n      dup2\n      mstore\n      0x20\n      add\n      swap1\n      dup2\n      mstore\n      0x20\n      add\n      0x00\n      keccak256\n        /* \"StudentMS.sol\":585:613  studentDetails[rollno].exist */\n      0x01\n      add\n      0x07\n      swap1\n      sload\n      swap1\n      0x0100\n      exp\n      swap1\n      div\n      0xff\n      and\n        /* \"StudentMS.sol\":577:643  require(studentDetails[rollno].exist,\"Roll Number does not exist\") */\n      tag_56\n      jumpi\n      mload(0x40)\n      0x08c379a000000000000000000000000000000000000000000000000000000000\n      dup2\n      mstore\n      0x04\n      add\n      tag_57\n      swap1\n      tag_51\n      jump\t// in\n    tag_57:\n      mload(0x40)\n      dup1\n      swap2\n      sub\n      swap1\n      revert\n    tag_56:\n        /* \"StudentMS.sol\":1684:1707  Student storage student */\n      0x00\n        /* \"StudentMS.sol\":1710:1724  studentDetails */\n      0x01\n        /* \"StudentMS.sol\":1710:1733  studentDetails[_rollno] */\n      0x00\n        /* \"StudentMS.sol\":1725:1732  _rollno */\n      dup5\n        /* \"StudentMS.sol\":1710:1733  studentDetails[_rollno] */\n      0xffffffff\n      and\n      0xffffffff\n      and\n      dup2\n      mstore\n      0x20\n      add\n      swap1\n      dup2\n      mstore\n      0x20\n      add\n      0x00\n      keccak256\n        /* \"StudentMS.sol\":1684:1733  Student storage student = studentDetails[_rollno] */\n      swap1\n      pop\n        /* \"StudentMS.sol\":1765:1770  _name */\n      dup4\n        /* \"StudentMS.sol\":1751:1758  student */\n      dup2\n        /* \"StudentMS.sol\":1751:1763  student.name */\n      0x00\n      add\n        /* \"StudentMS.sol\":1751:1770  student.name= _name */\n      swap1\n      dup2\n      tag_59\n      swap2\n      swap1\n      tag_42\n      jump\t// in\n    tag_59:\n      pop\n        /* \"StudentMS.sol\":1665:1793  {... */\n      pop\n        /* \"StudentMS.sol\":1582:1793  function editName(string memory _name,uint32 _rollno) public verifyStudent(_rollno){... */\n      pop\n      pop\n      pop\n      jump\t// out\n        /* \"StudentMS.sol\":974:1274  function getStudent(uint32 _rollno) public view admin returns (string memory name, uint8 sem, Department dept, uint8 CGPA, uint32 rollno) {... */\n    tag_23:\n        /* \"StudentMS.sol\":1037:1055  string memory name */\n      0x60\n        /* \"StudentMS.sol\":1057:1066  uint8 sem */\n      0x00\n        /* \"StudentMS.sol\":1068:1083  Department dept */\n      dup1\n        /* \"StudentMS.sol\":1085:1095  uint8 CGPA */\n      0x00\n        /* \"StudentMS.sol\":1097:1110  uint32 rollno */\n      dup1\n        /* \"StudentMS.sol\":460:472  staffadvisor */\n      0x00\n      dup1\n      sload\n      swap1\n      0x0100\n      exp\n      swap1\n      div\n      0xffffffffffffffffffffffffffffffffffffffff\n      and\n        /* \"StudentMS.sol\":446:472  msg.sender == staffadvisor */\n      0xffffffffffffffffffffffffffffffffffffffff\n      and\n        /* \"StudentMS.sol\":446:456  msg.sender */\n      caller\n        /* \"StudentMS.sol\":446:472  msg.sender == staffadvisor */\n      0xffffffffffffffffffffffffffffffffffffffff\n      and\n      eq\n        /* \"StudentMS.sol\":438:507  require(msg.sender == staffadvisor,\"You cannot access this Function\") */\n      tag_61\n      jumpi\n      mload(0x40)\n      0x08c379a000000000000000000000000000000000000000000000000000000000\n      dup2\n      mstore\n      0x04\n      add\n      tag_62\n      swap1\n      tag_33\n      jump\t// in\n    tag_62:\n      mload(0x40)\n      dup1\n      swap2\n      sub\n      swap1\n      revert\n    tag_61:\n        /* \"StudentMS.sol\":1131:1153  Student memory student */\n      0x00\n        /* \"StudentMS.sol\":1156:1170  studentDetails */\n      0x01\n        /* \"StudentMS.sol\":1156:1179  studentDetails[_rollno] */\n      0x00\n        /* \"StudentMS.sol\":1171:1178  _rollno */\n      dup9\n        /* \"StudentMS.sol\":1156:1179  studentDetails[_rollno] */\n      0xffffffff\n      and\n      0xffffffff\n      and\n      dup2\n      mstore\n      0x20\n      add\n      swap1\n      dup2\n      mstore\n      0x20\n      add\n      0x00\n      keccak256\n        /* \"StudentMS.sol\":1131:1179  Student memory student = studentDetails[_rollno] */\n      mload(0x40)\n      dup1\n      0xc0\n      add\n      0x40\n      mstore\n      swap1\n      dup2\n      0x00\n      dup3\n      add\n      dup1\n      sload\n      tag_64\n      swap1\n      tag_65\n      jump\t// in\n    tag_64:\n      dup1\n      0x1f\n      add\n      0x20\n      dup1\n      swap2\n      div\n      mul\n      0x20\n      add\n      mload(0x40)\n      swap1\n      dup2\n      add\n      0x40\n      mstore\n      dup1\n      swap3\n      swap2\n      swap1\n      dup2\n      dup2\n      mstore\n      0x20\n      add\n      dup3\n      dup1\n      sload\n      tag_66\n      swap1\n      tag_65\n      jump\t// in\n    tag_66:\n      dup1\n      iszero\n      tag_67\n      jumpi\n      dup1\n      0x1f\n      lt\n      tag_68\n      jumpi\n      0x0100\n      dup1\n      dup4\n      sload\n      div\n      mul\n      dup4\n      mstore\n      swap2\n      0x20\n      add\n      swap2\n      jump(tag_67)\n    tag_68:\n      dup3\n      add\n      swap2\n      swap1\n      0x00\n      mstore\n      keccak256(0x00, 0x20)\n      swap1\n    tag_69:\n      dup2\n      sload\n      dup2\n      mstore\n      swap1\n      0x01\n      add\n      swap1\n      0x20\n      add\n      dup1\n      dup4\n      gt\n      tag_69\n      jumpi\n      dup3\n      swap1\n      sub\n      0x1f\n      and\n      dup3\n      add\n      swap2\n    tag_67:\n      pop\n      pop\n      pop\n      pop\n      pop\n      dup2\n      mstore\n      0x20\n      add\n      0x01\n      dup3\n      add\n      0x00\n      swap1\n      sload\n      swap1\n      0x0100\n      exp\n      swap1\n      div\n      0xff\n      and\n      0xff\n      and\n      0xff\n      and\n      dup2\n      mstore\n      0x20\n      add\n      0x01\n      dup3\n      add\n      0x01\n      swap1\n      sload\n      swap1\n      0x0100\n      exp\n      swap1\n      div\n      0xff\n      and\n      0x02\n      dup2\n      gt\n      iszero\n      tag_70\n      jumpi\n      tag_71\n      tag_40\n      jump\t// in\n    tag_71:\n    tag_70:\n      0x02\n      dup2\n      gt\n      iszero\n      tag_72\n      jumpi\n      tag_73\n      tag_40\n      jump\t// in\n    tag_73:\n    tag_72:\n      dup2\n      mstore\n      0x20\n      add\n      0x01\n      dup3\n      add\n      0x02\n      swap1\n      sload\n      swap1\n      0x0100\n      exp\n      swap1\n      div\n      0xff\n      and\n      0xff\n      and\n      0xff\n      and\n      dup2\n      mstore\n      0x20\n      add\n      0x01\n      dup3\n      add\n      0x03\n      swap1\n      sload\n      swap1\n      0x0100\n      exp\n      swap1\n      div\n      0xffffffff\n      and\n      0xffffffff\n      and\n      0xffffffff\n      and\n      dup2\n      mstore\n      0x20\n      add\n      0x01\n      dup3\n      add\n      0x07\n      swap1\n      sload\n      swap1\n      0x0100\n      exp\n      swap1\n      div\n      0xff\n      and\n      iszero\n      iszero\n      iszero\n      iszero\n      dup2\n      mstore\n      pop\n      pop\n      swap1\n      pop\n        /* \"StudentMS.sol\":1197:1204  student */\n      dup1\n        /* \"StudentMS.sol\":1197:1209  student.name */\n      0x00\n      add\n      mload\n        /* \"StudentMS.sol\":1211:1218  student */\n      dup2\n        /* \"StudentMS.sol\":1211:1222  student.sem */\n      0x20\n      add\n      mload\n        /* \"StudentMS.sol\":1224:1231  student */\n      dup3\n        /* \"StudentMS.sol\":1224:1236  student.dept */\n      0x40\n      add\n      mload\n        /* \"StudentMS.sol\":1238:1245  student */\n      dup4\n        /* \"StudentMS.sol\":1238:1250  student.CGPA */\n      0x60\n      add\n      mload\n        /* \"StudentMS.sol\":1252:1259  student */\n      dup5\n        /* \"StudentMS.sol\":1252:1266  student.rollno */\n      0x80\n      add\n      mload\n        /* \"StudentMS.sol\":1189:1267  return (student.name, student.sem, student.dept, student.CGPA, student.rollno) */\n      swap6\n      pop\n      swap6\n      pop\n      swap6\n      pop\n      swap6\n      pop\n      swap6\n      pop\n      pop\n        /* \"StudentMS.sol\":974:1274  function getStudent(uint32 _rollno) public view admin returns (string memory name, uint8 sem, Department dept, uint8 CGPA, uint32 rollno) {... */\n      swap2\n      swap4\n      swap6\n      swap1\n      swap3\n      swap5\n      pop\n      jump\t// out\n        /* \"StudentMS.sol\":111:138  address public staffadvisor */\n    tag_27:\n      0x00\n      dup1\n      sload\n      swap1\n      0x0100\n      exp\n      swap1\n      div\n      0xffffffffffffffffffffffffffffffffffffffff\n      and\n      dup2\n      jump\t// out\n        /* \"#utility.yul\":7:82   */\n    tag_74:\n        /* \"#utility.yul\":40:46   */\n      0x00\n        /* \"#utility.yul\":73:75   */\n      0x40\n        /* \"#utility.yul\":67:76   */\n      mload\n        /* \"#utility.yul\":57:76   */\n      swap1\n      pop\n        /* \"#utility.yul\":7:82   */\n      swap1\n      jump\t// out\n        /* \"#utility.yul\":88:205   */\n    tag_75:\n        /* \"#utility.yul\":197:198   */\n      0x00\n        /* \"#utility.yul\":194:195   */\n      dup1\n        /* \"#utility.yul\":187:199   */\n      revert\n        /* \"#utility.yul\":211:328   */\n    tag_76:\n        /* \"#utility.yul\":320:321   */\n      0x00\n        /* \"#utility.yul\":317:318   */\n      dup1\n        /* \"#utility.yul\":310:322   */\n      revert\n        /* \"#utility.yul\":334:451   */\n    tag_77:\n        /* \"#utility.yul\":443:444   */\n      0x00\n        /* \"#utility.yul\":440:441   */\n      dup1\n        /* \"#utility.yul\":433:445   */\n      revert\n        /* \"#utility.yul\":457:574   */\n    tag_78:\n        /* \"#utility.yul\":566:567   */\n      0x00\n        /* \"#utility.yul\":563:564   */\n      dup1\n        /* \"#utility.yul\":556:568   */\n      revert\n        /* \"#utility.yul\":580:682   */\n    tag_79:\n        /* \"#utility.yul\":621:627   */\n      0x00\n        /* \"#utility.yul\":672:674   */\n      0x1f\n        /* \"#utility.yul\":668:675   */\n      not\n        /* \"#utility.yul\":663:665   */\n      0x1f\n        /* \"#utility.yul\":656:661   */\n      dup4\n        /* \"#utility.yul\":652:666   */\n      add\n        /* \"#utility.yul\":648:676   */\n      and\n        /* \"#utility.yul\":638:676   */\n      swap1\n      pop\n        /* \"#utility.yul\":580:682   */\n      swap2\n      swap1\n      pop\n      jump\t// out\n        /* \"#utility.yul\":688:868   */\n    tag_80:\n        /* \"#utility.yul\":736:813   */\n      0x4e487b7100000000000000000000000000000000000000000000000000000000\n        /* \"#utility.yul\":733:734   */\n      0x00\n        /* \"#utility.yul\":726:814   */\n      mstore\n        /* \"#utility.yul\":833:837   */\n      0x41\n        /* \"#utility.yul\":830:831   */\n      0x04\n        /* \"#utility.yul\":823:838   */\n      mstore\n        /* \"#utility.yul\":857:861   */\n      0x24\n        /* \"#utility.yul\":854:855   */\n      0x00\n        /* \"#utility.yul\":847:862   */\n      revert\n        /* \"#utility.yul\":874:1155   */\n    tag_81:\n        /* \"#utility.yul\":957:984   */\n      tag_140\n        /* \"#utility.yul\":979:983   */\n      dup3\n        /* \"#utility.yul\":957:984   */\n      tag_79\n      jump\t// in\n    tag_140:\n        /* \"#utility.yul\":949:955   */\n      dup2\n        /* \"#utility.yul\":945:985   */\n      add\n        /* \"#utility.yul\":1087:1093   */\n      dup2\n        /* \"#utility.yul\":1075:1085   */\n      dup2\n        /* \"#utility.yul\":1072:1094   */\n      lt\n        /* \"#utility.yul\":1051:1069   */\n      0xffffffffffffffff\n        /* \"#utility.yul\":1039:1049   */\n      dup3\n        /* \"#utility.yul\":1036:1070   */\n      gt\n        /* \"#utility.yul\":1033:1095   */\n      or\n        /* \"#utility.yul\":1030:1118   */\n      iszero\n      tag_141\n      jumpi\n        /* \"#utility.yul\":1098:1116   */\n      tag_142\n      tag_80\n      jump\t// in\n    tag_142:\n        /* \"#utility.yul\":1030:1118   */\n    tag_141:\n        /* \"#utility.yul\":1138:1148   */\n      dup1\n        /* \"#utility.yul\":1134:1136   */\n      0x40\n        /* \"#utility.yul\":1127:1149   */\n      mstore\n        /* \"#utility.yul\":917:1155   */\n      pop\n        /* \"#utility.yul\":874:1155   */\n      pop\n      pop\n      jump\t// out\n        /* \"#utility.yul\":1161:1290   */\n    tag_82:\n        /* \"#utility.yul\":1195:1201   */\n      0x00\n        /* \"#utility.yul\":1222:1242   */\n      tag_144\n      tag_74\n      jump\t// in\n    tag_144:\n        /* \"#utility.yul\":1212:1242   */\n      swap1\n      pop\n        /* \"#utility.yul\":1251:1284   */\n      tag_145\n        /* \"#utility.yul\":1279:1283   */\n      dup3\n        /* \"#utility.yul\":1271:1277   */\n      dup3\n        /* \"#utility.yul\":1251:1284   */\n      tag_81\n      jump\t// in\n    tag_145:\n        /* \"#utility.yul\":1161:1290   */\n      swap2\n      swap1\n      pop\n      jump\t// out\n        /* \"#utility.yul\":1296:1604   */\n    tag_83:\n        /* \"#utility.yul\":1358:1362   */\n      0x00\n        /* \"#utility.yul\":1448:1466   */\n      0xffffffffffffffff\n        /* \"#utility.yul\":1440:1446   */\n      dup3\n        /* \"#utility.yul\":1437:1467   */\n      gt\n        /* \"#utility.yul\":1434:1490   */\n      iszero\n      tag_147\n      jumpi\n        /* \"#utility.yul\":1470:1488   */\n      tag_148\n      tag_80\n      jump\t// in\n    tag_148:\n        /* \"#utility.yul\":1434:1490   */\n    tag_147:\n        /* \"#utility.yul\":1508:1537   */\n      tag_149\n        /* \"#utility.yul\":1530:1536   */\n      dup3\n        /* \"#utility.yul\":1508:1537   */\n      tag_79\n      jump\t// in\n    tag_149:\n        /* \"#utility.yul\":1500:1537   */\n      swap1\n      pop\n        /* \"#utility.yul\":1592:1596   */\n      0x20\n        /* \"#utility.yul\":1586:1590   */\n      dup2\n        /* \"#utility.yul\":1582:1597   */\n      add\n        /* \"#utility.yul\":1574:1597   */\n      swap1\n      pop\n        /* \"#utility.yul\":1296:1604   */\n      swap2\n      swap1\n      pop\n      jump\t// out\n        /* \"#utility.yul\":1610:1758   */\n    tag_84:\n        /* \"#utility.yul\":1708:1714   */\n      dup3\n        /* \"#utility.yul\":1703:1706   */\n      dup2\n        /* \"#utility.yul\":1698:1701   */\n      dup4\n        /* \"#utility.yul\":1685:1715   */\n      calldatacopy\n        /* \"#utility.yul\":1749:1750   */\n      0x00\n        /* \"#utility.yul\":1740:1746   */\n      dup4\n        /* \"#utility.yul\":1735:1738   */\n      dup4\n        /* \"#utility.yul\":1731:1747   */\n      add\n        /* \"#utility.yul\":1724:1751   */\n      mstore\n        /* \"#utility.yul\":1610:1758   */\n      pop\n      pop\n      pop\n      jump\t// out\n        /* \"#utility.yul\":1764:2189   */\n    tag_85:\n        /* \"#utility.yul\":1842:1847   */\n      0x00\n        /* \"#utility.yul\":1867:1933   */\n      tag_152\n        /* \"#utility.yul\":1883:1932   */\n      tag_153\n        /* \"#utility.yul\":1925:1931   */\n      dup5\n        /* \"#utility.yul\":1883:1932   */\n      tag_83\n      jump\t// in\n    tag_153:\n        /* \"#utility.yul\":1867:1933   */\n      tag_82\n      jump\t// in\n    tag_152:\n        /* \"#utility.yul\":1858:1933   */\n      swap1\n      pop\n        /* \"#utility.yul\":1956:1962   */\n      dup3\n        /* \"#utility.yul\":1949:1954   */\n      dup2\n        /* \"#utility.yul\":1942:1963   */\n      mstore\n        /* \"#utility.yul\":1994:1998   */\n      0x20\n        /* \"#utility.yul\":1987:1992   */\n      dup2\n        /* \"#utility.yul\":1983:1999   */\n      add\n        /* \"#utility.yul\":2032:2035   */\n      dup5\n        /* \"#utility.yul\":2023:2029   */\n      dup5\n        /* \"#utility.yul\":2018:2021   */\n      dup5\n        /* \"#utility.yul\":2014:2030   */\n      add\n        /* \"#utility.yul\":2011:2036   */\n      gt\n        /* \"#utility.yul\":2008:2120   */\n      iszero\n      tag_154\n      jumpi\n        /* \"#utility.yul\":2039:2118   */\n      tag_155\n      tag_78\n      jump\t// in\n    tag_155:\n        /* \"#utility.yul\":2008:2120   */\n    tag_154:\n        /* \"#utility.yul\":2129:2183   */\n      tag_156\n        /* \"#utility.yul\":2176:2182   */\n      dup5\n        /* \"#utility.yul\":2171:2174   */\n      dup3\n        /* \"#utility.yul\":2166:2169   */\n      dup6\n        /* \"#utility.yul\":2129:2183   */\n      tag_84\n      jump\t// in\n    tag_156:\n        /* \"#utility.yul\":1848:2189   */\n      pop\n        /* \"#utility.yul\":1764:2189   */\n      swap4\n      swap3\n      pop\n      pop\n      pop\n      jump\t// out\n        /* \"#utility.yul\":2209:2549   */\n    tag_86:\n        /* \"#utility.yul\":2265:2270   */\n      0x00\n        /* \"#utility.yul\":2314:2317   */\n      dup3\n        /* \"#utility.yul\":2307:2311   */\n      0x1f\n        /* \"#utility.yul\":2299:2305   */\n      dup4\n        /* \"#utility.yul\":2295:2312   */\n      add\n        /* \"#utility.yul\":2291:2318   */\n      slt\n        /* \"#utility.yul\":2281:2403   */\n      tag_158\n      jumpi\n        /* \"#utility.yul\":2322:2401   */\n      tag_159\n      tag_77\n      jump\t// in\n    tag_159:\n        /* \"#utility.yul\":2281:2403   */\n    tag_158:\n        /* \"#utility.yul\":2439:2445   */\n      dup2\n        /* \"#utility.yul\":2426:2446   */\n      calldataload\n        /* \"#utility.yul\":2464:2543   */\n      tag_160\n        /* \"#utility.yul\":2539:2542   */\n      dup5\n        /* \"#utility.yul\":2531:2537   */\n      dup3\n        /* \"#utility.yul\":2524:2528   */\n      0x20\n        /* \"#utility.yul\":2516:2522   */\n      dup7\n        /* \"#utility.yul\":2512:2529   */\n      add\n        /* \"#utility.yul\":2464:2543   */\n      tag_85\n      jump\t// in\n    tag_160:\n        /* \"#utility.yul\":2455:2543   */\n      swap2\n      pop\n        /* \"#utility.yul\":2271:2549   */\n      pop\n        /* \"#utility.yul\":2209:2549   */\n      swap3\n      swap2\n      pop\n      pop\n      jump\t// out\n        /* \"#utility.yul\":2555:2641   */\n    tag_87:\n        /* \"#utility.yul\":2590:2597   */\n      0x00\n        /* \"#utility.yul\":2630:2634   */\n      0xff\n        /* \"#utility.yul\":2623:2628   */\n      dup3\n        /* \"#utility.yul\":2619:2635   */\n      and\n        /* \"#utility.yul\":2608:2635   */\n      swap1\n      pop\n        /* \"#utility.yul\":2555:2641   */\n      swap2\n      swap1\n      pop\n      jump\t// out\n        /* \"#utility.yul\":2647:2765   */\n    tag_88:\n        /* \"#utility.yul\":2718:2740   */\n      tag_163\n        /* \"#utility.yul\":2734:2739   */\n      dup2\n        /* \"#utility.yul\":2718:2740   */\n      tag_87\n      jump\t// in\n    tag_163:\n        /* \"#utility.yul\":2711:2716   */\n      dup2\n        /* \"#utility.yul\":2708:2741   */\n      eq\n        /* \"#utility.yul\":2698:2759   */\n      tag_164\n      jumpi\n        /* \"#utility.yul\":2755:2756   */\n      0x00\n        /* \"#utility.yul\":2752:2753   */\n      dup1\n        /* \"#utility.yul\":2745:2757   */\n      revert\n        /* \"#utility.yul\":2698:2759   */\n    tag_164:\n        /* \"#utility.yul\":2647:2765   */\n      pop\n      jump\t// out\n        /* \"#utility.yul\":2771:2906   */\n    tag_89:\n        /* \"#utility.yul\":2815:2820   */\n      0x00\n        /* \"#utility.yul\":2853:2859   */\n      dup2\n        /* \"#utility.yul\":2840:2860   */\n      calldataload\n        /* \"#utility.yul\":2831:2860   */\n      swap1\n      pop\n        /* \"#utility.yul\":2869:2900   */\n      tag_166\n        /* \"#utility.yul\":2894:2899   */\n      dup2\n        /* \"#utility.yul\":2869:2900   */\n      tag_88\n      jump\t// in\n    tag_166:\n        /* \"#utility.yul\":2771:2906   */\n      swap3\n      swap2\n      pop\n      pop\n      jump\t// out\n        /* \"#utility.yul\":2912:3023   */\n    tag_90:\n        /* \"#utility.yul\":2997:2998   */\n      0x03\n        /* \"#utility.yul\":2990:2995   */\n      dup2\n        /* \"#utility.yul\":2987:2999   */\n      lt\n        /* \"#utility.yul\":2977:3017   */\n      tag_168\n      jumpi\n        /* \"#utility.yul\":3013:3014   */\n      0x00\n        /* \"#utility.yul\":3010:3011   */\n      dup1\n        /* \"#utility.yul\":3003:3015   */\n      revert\n        /* \"#utility.yul\":2977:3017   */\n    tag_168:\n        /* \"#utility.yul\":2912:3023   */\n      pop\n      jump\t// out\n        /* \"#utility.yul\":3029:3192   */\n    tag_91:\n        /* \"#utility.yul\":3087:3092   */\n      0x00\n        /* \"#utility.yul\":3125:3131   */\n      dup2\n        /* \"#utility.yul\":3112:3132   */\n      calldataload\n        /* \"#utility.yul\":3103:3132   */\n      swap1\n      pop\n        /* \"#utility.yul\":3141:3186   */\n      tag_170\n        /* \"#utility.yul\":3180:3185   */\n      dup2\n        /* \"#utility.yul\":3141:3186   */\n      tag_90\n      jump\t// in\n    tag_170:\n        /* \"#utility.yul\":3029:3192   */\n      swap3\n      swap2\n      pop\n      pop\n      jump\t// out\n        /* \"#utility.yul\":3198:3291   */\n    tag_92:\n        /* \"#utility.yul\":3234:3241   */\n      0x00\n        /* \"#utility.yul\":3274:3284   */\n      0xffffffff\n        /* \"#utility.yul\":3267:3272   */\n      dup3\n        /* \"#utility.yul\":3263:3285   */\n      and\n        /* \"#utility.yul\":3252:3285   */\n      swap1\n      pop\n        /* \"#utility.yul\":3198:3291   */\n      swap2\n      swap1\n      pop\n      jump\t// out\n        /* \"#utility.yul\":3297:3417   */\n    tag_93:\n        /* \"#utility.yul\":3369:3392   */\n      tag_173\n        /* \"#utility.yul\":3386:3391   */\n      dup2\n        /* \"#utility.yul\":3369:3392   */\n      tag_92\n      jump\t// in\n    tag_173:\n        /* \"#utility.yul\":3362:3367   */\n      dup2\n        /* \"#utility.yul\":3359:3393   */\n      eq\n        /* \"#utility.yul\":3349:3411   */\n      tag_174\n      jumpi\n        /* \"#utility.yul\":3407:3408   */\n      0x00\n        /* \"#utility.yul\":3404:3405   */\n      dup1\n        /* \"#utility.yul\":3397:3409   */\n      revert\n        /* \"#utility.yul\":3349:3411   */\n    tag_174:\n        /* \"#utility.yul\":3297:3417   */\n      pop\n      jump\t// out\n        /* \"#utility.yul\":3423:3560   */\n    tag_94:\n        /* \"#utility.yul\":3468:3473   */\n      0x00\n        /* \"#utility.yul\":3506:3512   */\n      dup2\n        /* \"#utility.yul\":3493:3513   */\n      calldataload\n        /* \"#utility.yul\":3484:3513   */\n      swap1\n      pop\n        /* \"#utility.yul\":3522:3554   */\n      tag_176\n        /* \"#utility.yul\":3548:3553   */\n      dup2\n        /* \"#utility.yul\":3522:3554   */\n      tag_93\n      jump\t// in\n    tag_176:\n        /* \"#utility.yul\":3423:3560   */\n      swap3\n      swap2\n      pop\n      pop\n      jump\t// out\n        /* \"#utility.yul\":3566:4671   */\n    tag_10:\n        /* \"#utility.yul\":3678:3684   */\n      0x00\n        /* \"#utility.yul\":3686:3692   */\n      dup1\n        /* \"#utility.yul\":3694:3700   */\n      0x00\n        /* \"#utility.yul\":3702:3708   */\n      dup1\n        /* \"#utility.yul\":3710:3716   */\n      0x00\n        /* \"#utility.yul\":3759:3762   */\n      0xa0\n        /* \"#utility.yul\":3747:3756   */\n      dup7\n        /* \"#utility.yul\":3738:3745   */\n      dup9\n        /* \"#utility.yul\":3734:3757   */\n      sub\n        /* \"#utility.yul\":3730:3763   */\n      slt\n        /* \"#utility.yul\":3727:3847   */\n      iszero\n      tag_178\n      jumpi\n        /* \"#utility.yul\":3766:3845   */\n      tag_179\n      tag_75\n      jump\t// in\n    tag_179:\n        /* \"#utility.yul\":3727:3847   */\n    tag_178:\n        /* \"#utility.yul\":3914:3915   */\n      0x00\n        /* \"#utility.yul\":3903:3912   */\n      dup7\n        /* \"#utility.yul\":3899:3916   */\n      add\n        /* \"#utility.yul\":3886:3917   */\n      calldataload\n        /* \"#utility.yul\":3944:3962   */\n      0xffffffffffffffff\n        /* \"#utility.yul\":3936:3942   */\n      dup2\n        /* \"#utility.yul\":3933:3963   */\n      gt\n        /* \"#utility.yul\":3930:4047   */\n      iszero\n      tag_180\n      jumpi\n        /* \"#utility.yul\":3966:4045   */\n      tag_181\n      tag_76\n      jump\t// in\n    tag_181:\n        /* \"#utility.yul\":3930:4047   */\n    tag_180:\n        /* \"#utility.yul\":4071:4134   */\n      tag_182\n        /* \"#utility.yul\":4126:4133   */\n      dup9\n        /* \"#utility.yul\":4117:4123   */\n      dup3\n        /* \"#utility.yul\":4106:4115   */\n      dup10\n        /* \"#utility.yul\":4102:4124   */\n      add\n        /* \"#utility.yul\":4071:4134   */\n      tag_86\n      jump\t// in\n    tag_182:\n        /* \"#utility.yul\":4061:4134   */\n      swap6\n      pop\n        /* \"#utility.yul\":3857:4144   */\n      pop\n        /* \"#utility.yul\":4183:4185   */\n      0x20\n        /* \"#utility.yul\":4209:4260   */\n      tag_183\n        /* \"#utility.yul\":4252:4259   */\n      dup9\n        /* \"#utility.yul\":4243:4249   */\n      dup3\n        /* \"#utility.yul\":4232:4241   */\n      dup10\n        /* \"#utility.yul\":4228:4250   */\n      add\n        /* \"#utility.yul\":4209:4260   */\n      tag_89\n      jump\t// in\n    tag_183:\n        /* \"#utility.yul\":4199:4260   */\n      swap5\n      pop\n        /* \"#utility.yul\":4154:4270   */\n      pop\n        /* \"#utility.yul\":4309:4311   */\n      0x40\n        /* \"#utility.yul\":4335:4400   */\n      tag_184\n        /* \"#utility.yul\":4392:4399   */\n      dup9\n        /* \"#utility.yul\":4383:4389   */\n      dup3\n        /* \"#utility.yul\":4372:4381   */\n      dup10\n        /* \"#utility.yul\":4368:4390   */\n      add\n        /* \"#utility.yul\":4335:4400   */\n      tag_91\n      jump\t// in\n    tag_184:\n        /* \"#utility.yul\":4325:4400   */\n      swap4\n      pop\n        /* \"#utility.yul\":4280:4410   */\n      pop\n        /* \"#utility.yul\":4449:4451   */\n      0x60\n        /* \"#utility.yul\":4475:4526   */\n      tag_185\n        /* \"#utility.yul\":4518:4525   */\n      dup9\n        /* \"#utility.yul\":4509:4515   */\n      dup3\n        /* \"#utility.yul\":4498:4507   */\n      dup10\n        /* \"#utility.yul\":4494:4516   */\n      add\n        /* \"#utility.yul\":4475:4526   */\n      tag_89\n      jump\t// in\n    tag_185:\n        /* \"#utility.yul\":4465:4526   */\n      swap3\n      pop\n        /* \"#utility.yul\":4420:4536   */\n      pop\n        /* \"#utility.yul\":4575:4578   */\n      0x80\n        /* \"#utility.yul\":4602:4654   */\n      tag_186\n        /* \"#utility.yul\":4646:4653   */\n      dup9\n        /* \"#utility.yul\":4637:4643   */\n      dup3\n        /* \"#utility.yul\":4626:4635   */\n      dup10\n        /* \"#utility.yul\":4622:4644   */\n      add\n        /* \"#utility.yul\":4602:4654   */\n      tag_94\n      jump\t// in\n    tag_186:\n        /* \"#utility.yul\":4592:4654   */\n      swap2\n      pop\n        /* \"#utility.yul\":4546:4664   */\n      pop\n        /* \"#utility.yul\":3566:4671   */\n      swap3\n      swap6\n      pop\n      swap3\n      swap6\n      swap1\n      swap4\n      pop\n      jump\t// out\n        /* \"#utility.yul\":4677:5456   */\n    tag_14:\n        /* \"#utility.yul\":4770:4776   */\n      0x00\n        /* \"#utility.yul\":4778:4784   */\n      dup1\n        /* \"#utility.yul\":4786:4792   */\n      0x00\n        /* \"#utility.yul\":4794:4800   */\n      dup1\n        /* \"#utility.yul\":4843:4846   */\n      0x80\n        /* \"#utility.yul\":4831:4840   */\n      dup6\n        /* \"#utility.yul\":4822:4829   */\n      dup8\n        /* \"#utility.yul\":4818:4841   */\n      sub\n        /* \"#utility.yul\":4814:4847   */\n      slt\n        /* \"#utility.yul\":4811:4931   */\n      iszero\n      tag_188\n      jumpi\n        /* \"#utility.yul\":4850:4929   */\n      tag_189\n      tag_75\n      jump\t// in\n    tag_189:\n        /* \"#utility.yul\":4811:4931   */\n    tag_188:\n        /* \"#utility.yul\":4970:4971   */\n      0x00\n        /* \"#utility.yul\":4995:5046   */\n      tag_190\n        /* \"#utility.yul\":5038:5045   */\n      dup8\n        /* \"#utility.yul\":5029:5035   */\n      dup3\n        /* \"#utility.yul\":5018:5027   */\n      dup9\n        /* \"#utility.yul\":5014:5036   */\n      add\n        /* \"#utility.yul\":4995:5046   */\n      tag_89\n      jump\t// in\n    tag_190:\n        /* \"#utility.yul\":4985:5046   */\n      swap5\n      pop\n        /* \"#utility.yul\":4941:5056   */\n      pop\n        /* \"#utility.yul\":5095:5097   */\n      0x20\n        /* \"#utility.yul\":5121:5186   */\n      tag_191\n        /* \"#utility.yul\":5178:5185   */\n      dup8\n        /* \"#utility.yul\":5169:5175   */\n      dup3\n        /* \"#utility.yul\":5158:5167   */\n      dup9\n        /* \"#utility.yul\":5154:5176   */\n      add\n        /* \"#utility.yul\":5121:5186   */\n      tag_91\n      jump\t// in\n    tag_191:\n        /* \"#utility.yul\":5111:5186   */\n      swap4\n      pop\n        /* \"#utility.yul\":5066:5196   */\n      pop\n        /* \"#utility.yul\":5235:5237   */\n      0x40\n        /* \"#utility.yul\":5261:5312   */\n      tag_192\n        /* \"#utility.yul\":5304:5311   */\n      dup8\n        /* \"#utility.yul\":5295:5301   */\n      dup3\n        /* \"#utility.yul\":5284:5293   */\n      dup9\n        /* \"#utility.yul\":5280:5302   */\n      add\n        /* \"#utility.yul\":5261:5312   */\n      tag_89\n      jump\t// in\n    tag_192:\n        /* \"#utility.yul\":5251:5312   */\n      swap3\n      pop\n        /* \"#utility.yul\":5206:5322   */\n      pop\n        /* \"#utility.yul\":5361:5363   */\n      0x60\n        /* \"#utility.yul\":5387:5439   */\n      tag_193\n        /* \"#utility.yul\":5431:5438   */\n      dup8\n        /* \"#utility.yul\":5422:5428   */\n      dup3\n        /* \"#utility.yul\":5411:5420   */\n      dup9\n        /* \"#utility.yul\":5407:5429   */\n      add\n        /* \"#utility.yul\":5387:5439   */\n      tag_94\n      jump\t// in\n    tag_193:\n        /* \"#utility.yul\":5377:5439   */\n      swap2\n      pop\n        /* \"#utility.yul\":5332:5449   */\n      pop\n        /* \"#utility.yul\":4677:5456   */\n      swap3\n      swap6\n      swap2\n      swap5\n      pop\n      swap3\n      pop\n      jump\t// out\n        /* \"#utility.yul\":5462:6114   */\n    tag_18:\n        /* \"#utility.yul\":5539:5545   */\n      0x00\n        /* \"#utility.yul\":5547:5553   */\n      dup1\n        /* \"#utility.yul\":5596:5598   */\n      0x40\n        /* \"#utility.yul\":5584:5593   */\n      dup4\n        /* \"#utility.yul\":5575:5582   */\n      dup6\n        /* \"#utility.yul\":5571:5594   */\n      sub\n        /* \"#utility.yul\":5567:5599   */\n      slt\n        /* \"#utility.yul\":5564:5683   */\n      iszero\n      tag_195\n      jumpi\n        /* \"#utility.yul\":5602:5681   */\n      tag_196\n      tag_75\n      jump\t// in\n    tag_196:\n        /* \"#utility.yul\":5564:5683   */\n    tag_195:\n        /* \"#utility.yul\":5750:5751   */\n      0x00\n        /* \"#utility.yul\":5739:5748   */\n      dup4\n        /* \"#utility.yul\":5735:5752   */\n      add\n        /* \"#utility.yul\":5722:5753   */\n      calldataload\n        /* \"#utility.yul\":5780:5798   */\n      0xffffffffffffffff\n        /* \"#utility.yul\":5772:5778   */\n      dup2\n        /* \"#utility.yul\":5769:5799   */\n      gt\n        /* \"#utility.yul\":5766:5883   */\n      iszero\n      tag_197\n      jumpi\n        /* \"#utility.yul\":5802:5881   */\n      tag_198\n      tag_76\n      jump\t// in\n    tag_198:\n        /* \"#utility.yul\":5766:5883   */\n    tag_197:\n        /* \"#utility.yul\":5907:5970   */\n      tag_199\n        /* \"#utility.yul\":5962:5969   */\n      dup6\n        /* \"#utility.yul\":5953:5959   */\n      dup3\n        /* \"#utility.yul\":5942:5951   */\n      dup7\n        /* \"#utility.yul\":5938:5960   */\n      add\n        /* \"#utility.yul\":5907:5970   */\n      tag_86\n      jump\t// in\n    tag_199:\n        /* \"#utility.yul\":5897:5970   */\n      swap3\n      pop\n        /* \"#utility.yul\":5693:5980   */\n      pop\n        /* \"#utility.yul\":6019:6021   */\n      0x20\n        /* \"#utility.yul\":6045:6097   */\n      tag_200\n        /* \"#utility.yul\":6089:6096   */\n      dup6\n        /* \"#utility.yul\":6080:6086   */\n      dup3\n        /* \"#utility.yul\":6069:6078   */\n      dup7\n        /* \"#utility.yul\":6065:6087   */\n      add\n        /* \"#utility.yul\":6045:6097   */\n      tag_94\n      jump\t// in\n    tag_200:\n        /* \"#utility.yul\":6035:6097   */\n      swap2\n      pop\n        /* \"#utility.yul\":5990:6107   */\n      pop\n        /* \"#utility.yul\":5462:6114   */\n      swap3\n      pop\n      swap3\n      swap1\n      pop\n      jump\t// out\n        /* \"#utility.yul\":6120:6447   */\n    tag_22:\n        /* \"#utility.yul\":6178:6184   */\n      0x00\n        /* \"#utility.yul\":6227:6229   */\n      0x20\n        /* \"#utility.yul\":6215:6224   */\n      dup3\n        /* \"#utility.yul\":6206:6213   */\n      dup5\n        /* \"#utility.yul\":6202:6225   */\n      sub\n        /* \"#utility.yul\":6198:6230   */\n      slt\n        /* \"#utility.yul\":6195:6314   */\n      iszero\n      tag_202\n      jumpi\n        /* \"#utility.yul\":6233:6312   */\n      tag_203\n      tag_75\n      jump\t// in\n    tag_203:\n        /* \"#utility.yul\":6195:6314   */\n    tag_202:\n        /* \"#utility.yul\":6353:6354   */\n      0x00\n        /* \"#utility.yul\":6378:6430   */\n      tag_204\n        /* \"#utility.yul\":6422:6429   */\n      dup5\n        /* \"#utility.yul\":6413:6419   */\n      dup3\n        /* \"#utility.yul\":6402:6411   */\n      dup6\n        /* \"#utility.yul\":6398:6420   */\n      add\n        /* \"#utility.yul\":6378:6430   */\n      tag_94\n      jump\t// in\n    tag_204:\n        /* \"#utility.yul\":6368:6430   */\n      swap2\n      pop\n        /* \"#utility.yul\":6324:6440   */\n      pop\n        /* \"#utility.yul\":6120:6447   */\n      swap3\n      swap2\n      pop\n      pop\n      jump\t// out\n        /* \"#utility.yul\":6453:6552   */\n    tag_95:\n        /* \"#utility.yul\":6505:6511   */\n      0x00\n        /* \"#utility.yul\":6539:6544   */\n      dup2\n        /* \"#utility.yul\":6533:6545   */\n      mload\n        /* \"#utility.yul\":6523:6545   */\n      swap1\n      pop\n        /* \"#utility.yul\":6453:6552   */\n      swap2\n      swap1\n      pop\n      jump\t// out\n        /* \"#utility.yul\":6558:6727   */\n    tag_96:\n        /* \"#utility.yul\":6642:6653   */\n      0x00\n        /* \"#utility.yul\":6676:6682   */\n      dup3\n        /* \"#utility.yul\":6671:6674   */\n      dup3\n        /* \"#utility.yul\":6664:6683   */\n      mstore\n        /* \"#utility.yul\":6716:6720   */\n      0x20\n        /* \"#utility.yul\":6711:6714   */\n      dup3\n        /* \"#utility.yul\":6707:6721   */\n      add\n        /* \"#utility.yul\":6692:6721   */\n      swap1\n      pop\n        /* \"#utility.yul\":6558:6727   */\n      swap3\n      swap2\n      pop\n      pop\n      jump\t// out\n        /* \"#utility.yul\":6733:6872   */\n    tag_97:\n        /* \"#utility.yul\":6822:6828   */\n      dup3\n        /* \"#utility.yul\":6817:6820   */\n      dup2\n        /* \"#utility.yul\":6812:6815   */\n      dup4\n        /* \"#utility.yul\":6806:6829   */\n      mcopy\n        /* \"#utility.yul\":6863:6864   */\n      0x00\n        /* \"#utility.yul\":6854:6860   */\n      dup4\n        /* \"#utility.yul\":6849:6852   */\n      dup4\n        /* \"#utility.yul\":6845:6861   */\n      add\n        /* \"#utility.yul\":6838:6865   */\n      mstore\n        /* \"#utility.yul\":6733:6872   */\n      pop\n      pop\n      pop\n      jump\t// out\n        /* \"#utility.yul\":6878:7255   */\n    tag_98:\n        /* \"#utility.yul\":6966:6969   */\n      0x00\n        /* \"#utility.yul\":6994:7033   */\n      tag_209\n        /* \"#utility.yul\":7027:7032   */\n      dup3\n        /* \"#utility.yul\":6994:7033   */\n      tag_95\n      jump\t// in\n    tag_209:\n        /* \"#utility.yul\":7049:7120   */\n      tag_210\n        /* \"#utility.yul\":7113:7119   */\n      dup2\n        /* \"#utility.yul\":7108:7111   */\n      dup6\n        /* \"#utility.yul\":7049:7120   */\n      tag_96\n      jump\t// in\n    tag_210:\n        /* \"#utility.yul\":7042:7120   */\n      swap4\n      pop\n        /* \"#utility.yul\":7129:7194   */\n      tag_211\n        /* \"#utility.yul\":7187:7193   */\n      dup2\n        /* \"#utility.yul\":7182:7185   */\n      dup6\n        /* \"#utility.yul\":7175:7179   */\n      0x20\n        /* \"#utility.yul\":7168:7173   */\n      dup7\n        /* \"#utility.yul\":7164:7180   */\n      add\n        /* \"#utility.yul\":7129:7194   */\n      tag_97\n      jump\t// in\n    tag_211:\n        /* \"#utility.yul\":7219:7248   */\n      tag_212\n        /* \"#utility.yul\":7241:7247   */\n      dup2\n        /* \"#utility.yul\":7219:7248   */\n      tag_79\n      jump\t// in\n    tag_212:\n        /* \"#utility.yul\":7214:7217   */\n      dup5\n        /* \"#utility.yul\":7210:7249   */\n      add\n        /* \"#utility.yul\":7203:7249   */\n      swap2\n      pop\n        /* \"#utility.yul\":6970:7255   */\n      pop\n        /* \"#utility.yul\":6878:7255   */\n      swap3\n      swap2\n      pop\n      pop\n      jump\t// out\n        /* \"#utility.yul\":7261:7373   */\n    tag_99:\n        /* \"#utility.yul\":7344:7366   */\n      tag_214\n        /* \"#utility.yul\":7360:7365   */\n      dup2\n        /* \"#utility.yul\":7344:7366   */\n      tag_87\n      jump\t// in\n    tag_214:\n        /* \"#utility.yul\":7339:7342   */\n      dup3\n        /* \"#utility.yul\":7332:7367   */\n      mstore\n        /* \"#utility.yul\":7261:7373   */\n      pop\n      pop\n      jump\t// out\n        /* \"#utility.yul\":7379:7559   */\n    tag_40:\n        /* \"#utility.yul\":7427:7504   */\n      0x4e487b7100000000000000000000000000000000000000000000000000000000\n        /* \"#utility.yul\":7424:7425   */\n      0x00\n        /* \"#utility.yul\":7417:7505   */\n      mstore\n        /* \"#utility.yul\":7524:7528   */\n      0x21\n        /* \"#utility.yul\":7521:7522   */\n      0x04\n        /* \"#utility.yul\":7514:7529   */\n      mstore\n        /* \"#utility.yul\":7548:7552   */\n      0x24\n        /* \"#utility.yul\":7545:7546   */\n      0x00\n        /* \"#utility.yul\":7538:7553   */\n      revert\n        /* \"#utility.yul\":7565:7682   */\n    tag_100:\n        /* \"#utility.yul\":7650:7651   */\n      0x03\n        /* \"#utility.yul\":7643:7648   */\n      dup2\n        /* \"#utility.yul\":7640:7652   */\n      lt\n        /* \"#utility.yul\":7630:7676   */\n      tag_217\n      jumpi\n        /* \"#utility.yul\":7656:7674   */\n      tag_218\n      tag_40\n      jump\t// in\n    tag_218:\n        /* \"#utility.yul\":7630:7676   */\n    tag_217:\n        /* \"#utility.yul\":7565:7682   */\n      pop\n      jump\t// out\n        /* \"#utility.yul\":7688:7823   */\n    tag_101:\n        /* \"#utility.yul\":7737:7744   */\n      0x00\n        /* \"#utility.yul\":7766:7771   */\n      dup2\n        /* \"#utility.yul\":7755:7771   */\n      swap1\n      pop\n        /* \"#utility.yul\":7772:7817   */\n      tag_220\n        /* \"#utility.yul\":7811:7816   */\n      dup3\n        /* \"#utility.yul\":7772:7817   */\n      tag_100\n      jump\t// in\n    tag_220:\n        /* \"#utility.yul\":7688:7823   */\n      swap2\n      swap1\n      pop\n      jump\t// out\n        /* \"#utility.yul\":7829:7964   */\n    tag_102:\n        /* \"#utility.yul\":7889:7898   */\n      0x00\n        /* \"#utility.yul\":7922:7958   */\n      tag_222\n        /* \"#utility.yul\":7952:7957   */\n      dup3\n        /* \"#utility.yul\":7922:7958   */\n      tag_101\n      jump\t// in\n    tag_222:\n        /* \"#utility.yul\":7909:7958   */\n      swap1\n      pop\n        /* \"#utility.yul\":7829:7964   */\n      swap2\n      swap1\n      pop\n      jump\t// out\n        /* \"#utility.yul\":7970:8121   */\n    tag_103:\n        /* \"#utility.yul\":8067:8114   */\n      tag_224\n        /* \"#utility.yul\":8108:8113   */\n      dup2\n        /* \"#utility.yul\":8067:8114   */\n      tag_102\n      jump\t// in\n    tag_224:\n        /* \"#utility.yul\":8062:8065   */\n      dup3\n        /* \"#utility.yul\":8055:8115   */\n      mstore\n        /* \"#utility.yul\":7970:8121   */\n      pop\n      pop\n      jump\t// out\n        /* \"#utility.yul\":8127:8242   */\n    tag_104:\n        /* \"#utility.yul\":8212:8235   */\n      tag_226\n        /* \"#utility.yul\":8229:8234   */\n      dup2\n        /* \"#utility.yul\":8212:8235   */\n      tag_92\n      jump\t// in\n    tag_226:\n        /* \"#utility.yul\":8207:8210   */\n      dup3\n        /* \"#utility.yul\":8200:8236   */\n      mstore\n        /* \"#utility.yul\":8127:8242   */\n      pop\n      pop\n      jump\t// out\n        /* \"#utility.yul\":8248:9003   */\n    tag_25:\n        /* \"#utility.yul\":8473:8477   */\n      0x00\n        /* \"#utility.yul\":8511:8514   */\n      0xa0\n        /* \"#utility.yul\":8500:8509   */\n      dup3\n        /* \"#utility.yul\":8496:8515   */\n      add\n        /* \"#utility.yul\":8488:8515   */\n      swap1\n      pop\n        /* \"#utility.yul\":8561:8570   */\n      dup2\n        /* \"#utility.yul\":8555:8559   */\n      dup2\n        /* \"#utility.yul\":8551:8571   */\n      sub\n        /* \"#utility.yul\":8547:8548   */\n      0x00\n        /* \"#utility.yul\":8536:8545   */\n      dup4\n        /* \"#utility.yul\":8532:8549   */\n      add\n        /* \"#utility.yul\":8525:8572   */\n      mstore\n        /* \"#utility.yul\":8589:8667   */\n      tag_228\n        /* \"#utility.yul\":8662:8666   */\n      dup2\n        /* \"#utility.yul\":8653:8659   */\n      dup9\n        /* \"#utility.yul\":8589:8667   */\n      tag_98\n      jump\t// in\n    tag_228:\n        /* \"#utility.yul\":8581:8667   */\n      swap1\n      pop\n        /* \"#utility.yul\":8677:8745   */\n      tag_229\n        /* \"#utility.yul\":8741:8743   */\n      0x20\n        /* \"#utility.yul\":8730:8739   */\n      dup4\n        /* \"#utility.yul\":8726:8744   */\n      add\n        /* \"#utility.yul\":8717:8723   */\n      dup8\n        /* \"#utility.yul\":8677:8745   */\n      tag_99\n      jump\t// in\n    tag_229:\n        /* \"#utility.yul\":8755:8837   */\n      tag_230\n        /* \"#utility.yul\":8833:8835   */\n      0x40\n        /* \"#utility.yul\":8822:8831   */\n      dup4\n        /* \"#utility.yul\":8818:8836   */\n      add\n        /* \"#utility.yul\":8809:8815   */\n      dup7\n        /* \"#utility.yul\":8755:8837   */\n      tag_103\n      jump\t// in\n    tag_230:\n        /* \"#utility.yul\":8847:8915   */\n      tag_231\n        /* \"#utility.yul\":8911:8913   */\n      0x60\n        /* \"#utility.yul\":8900:8909   */\n      dup4\n        /* \"#utility.yul\":8896:8914   */\n      add\n        /* \"#utility.yul\":8887:8893   */\n      dup6\n        /* \"#utility.yul\":8847:8915   */\n      tag_99\n      jump\t// in\n    tag_231:\n        /* \"#utility.yul\":8925:8996   */\n      tag_232\n        /* \"#utility.yul\":8991:8994   */\n      0x80\n        /* \"#utility.yul\":8980:8989   */\n      dup4\n        /* \"#utility.yul\":8976:8995   */\n      add\n        /* \"#utility.yul\":8967:8973   */\n      dup5\n        /* \"#utility.yul\":8925:8996   */\n      tag_104\n      jump\t// in\n    tag_232:\n        /* \"#utility.yul\":8248:9003   */\n      swap7\n      swap6\n      pop\n      pop\n      pop\n      pop\n      pop\n      pop\n      jump\t// out\n        /* \"#utility.yul\":9009:9135   */\n    tag_105:\n        /* \"#utility.yul\":9046:9053   */\n      0x00\n        /* \"#utility.yul\":9086:9128   */\n      0xffffffffffffffffffffffffffffffffffffffff\n        /* \"#utility.yul\":9079:9084   */\n      dup3\n        /* \"#utility.yul\":9075:9129   */\n      and\n        /* \"#utility.yul\":9064:9129   */\n      swap1\n      pop\n        /* \"#utility.yul\":9009:9135   */\n      swap2\n      swap1\n      pop\n      jump\t// out\n        /* \"#utility.yul\":9141:9237   */\n    tag_106:\n        /* \"#utility.yul\":9178:9185   */\n      0x00\n        /* \"#utility.yul\":9207:9231   */\n      tag_235\n        /* \"#utility.yul\":9225:9230   */\n      dup3\n        /* \"#utility.yul\":9207:9231   */\n      tag_105\n      jump\t// in\n    tag_235:\n        /* \"#utility.yul\":9196:9231   */\n      swap1\n      pop\n        /* \"#utility.yul\":9141:9237   */\n      swap2\n      swap1\n      pop\n      jump\t// out\n        /* \"#utility.yul\":9243:9361   */\n    tag_107:\n        /* \"#utility.yul\":9330:9354   */\n      tag_237\n        /* \"#utility.yul\":9348:9353   */\n      dup2\n        /* \"#utility.yul\":9330:9354   */\n      tag_106\n      jump\t// in\n    tag_237:\n        /* \"#utility.yul\":9325:9328   */\n      dup3\n        /* \"#utility.yul\":9318:9355   */\n      mstore\n        /* \"#utility.yul\":9243:9361   */\n      pop\n      pop\n      jump\t// out\n        /* \"#utility.yul\":9367:9589   */\n    tag_29:\n        /* \"#utility.yul\":9460:9464   */\n      0x00\n        /* \"#utility.yul\":9498:9500   */\n      0x20\n        /* \"#utility.yul\":9487:9496   */\n      dup3\n        /* \"#utility.yul\":9483:9501   */\n      add\n        /* \"#utility.yul\":9475:9501   */\n      swap1\n      pop\n        /* \"#utility.yul\":9511:9582   */\n      tag_239\n        /* \"#utility.yul\":9579:9580   */\n      0x00\n        /* \"#utility.yul\":9568:9577   */\n      dup4\n        /* \"#utility.yul\":9564:9581   */\n      add\n        /* \"#utility.yul\":9555:9561   */\n      dup5\n        /* \"#utility.yul\":9511:9582   */\n      tag_107\n      jump\t// in\n    tag_239:\n        /* \"#utility.yul\":9367:9589   */\n      swap3\n      swap2\n      pop\n      pop\n      jump\t// out\n        /* \"#utility.yul\":9595:9776   */\n    tag_108:\n        /* \"#utility.yul\":9735:9768   */\n      0x596f752063616e6e6f742061636365737320746869732046756e6374696f6e00\n        /* \"#utility.yul\":9731:9732   */\n      0x00\n        /* \"#utility.yul\":9723:9729   */\n      dup3\n        /* \"#utility.yul\":9719:9733   */\n      add\n        /* \"#utility.yul\":9712:9769   */\n      mstore\n        /* \"#utility.yul\":9595:9776   */\n      pop\n      jump\t// out\n        /* \"#utility.yul\":9782:10148   */\n    tag_109:\n        /* \"#utility.yul\":9924:9927   */\n      0x00\n        /* \"#utility.yul\":9945:10012   */\n      tag_242\n        /* \"#utility.yul\":10009:10011   */\n      0x1f\n        /* \"#utility.yul\":10004:10007   */\n      dup4\n        /* \"#utility.yul\":9945:10012   */\n      tag_96\n      jump\t// in\n    tag_242:\n        /* \"#utility.yul\":9938:10012   */\n      swap2\n      pop\n        /* \"#utility.yul\":10021:10114   */\n      tag_243\n        /* \"#utility.yul\":10110:10113   */\n      dup3\n        /* \"#utility.yul\":10021:10114   */\n      tag_108\n      jump\t// in\n    tag_243:\n        /* \"#utility.yul\":10139:10141   */\n      0x20\n        /* \"#utility.yul\":10134:10137   */\n      dup3\n        /* \"#utility.yul\":10130:10142   */\n      add\n        /* \"#utility.yul\":10123:10142   */\n      swap1\n      pop\n        /* \"#utility.yul\":9782:10148   */\n      swap2\n      swap1\n      pop\n      jump\t// out\n        /* \"#utility.yul\":10154:10573   */\n    tag_33:\n        /* \"#utility.yul\":10320:10324   */\n      0x00\n        /* \"#utility.yul\":10358:10360   */\n      0x20\n        /* \"#utility.yul\":10347:10356   */\n      dup3\n        /* \"#utility.yul\":10343:10361   */\n      add\n        /* \"#utility.yul\":10335:10361   */\n      swap1\n      pop\n        /* \"#utility.yul\":10407:10416   */\n      dup2\n        /* \"#utility.yul\":10401:10405   */\n      dup2\n        /* \"#utility.yul\":10397:10417   */\n      sub\n        /* \"#utility.yul\":10393:10394   */\n      0x00\n        /* \"#utility.yul\":10382:10391   */\n      dup4\n        /* \"#utility.yul\":10378:10395   */\n      add\n        /* \"#utility.yul\":10371:10418   */\n      mstore\n        /* \"#utility.yul\":10435:10566   */\n      tag_245\n        /* \"#utility.yul\":10561:10565   */\n      dup2\n        /* \"#utility.yul\":10435:10566   */\n      tag_109\n      jump\t// in\n    tag_245:\n        /* \"#utility.yul\":10427:10566   */\n      swap1\n      pop\n        /* \"#utility.yul\":10154:10573   */\n      swap2\n      swap1\n      pop\n      jump\t// out\n        /* \"#utility.yul\":10579:10758   */\n    tag_110:\n        /* \"#utility.yul\":10719:10750   */\n      0x526f6c6c206e756d62657220697320616c726561647920657869737473000000\n        /* \"#utility.yul\":10715:10716   */\n      0x00\n        /* \"#utility.yul\":10707:10713   */\n      dup3\n        /* \"#utility.yul\":10703:10717   */\n      add\n        /* \"#utility.yul\":10696:10751   */\n      mstore\n        /* \"#utility.yul\":10579:10758   */\n      pop\n      jump\t// out\n        /* \"#utility.yul\":10764:11130   */\n    tag_111:\n        /* \"#utility.yul\":10906:10909   */\n      0x00\n        /* \"#utility.yul\":10927:10994   */\n      tag_248\n        /* \"#utility.yul\":10991:10993   */\n      0x1d\n        /* \"#utility.yul\":10986:10989   */\n      dup4\n        /* \"#utility.yul\":10927:10994   */\n      tag_96\n      jump\t// in\n    tag_248:\n        /* \"#utility.yul\":10920:10994   */\n      swap2\n      pop\n        /* \"#utility.yul\":11003:11096   */\n      tag_249\n        /* \"#utility.yul\":11092:11095   */\n      dup3\n        /* \"#utility.yul\":11003:11096   */\n      tag_110\n      jump\t// in\n    tag_249:\n        /* \"#utility.yul\":11121:11123   */\n      0x20\n        /* \"#utility.yul\":11116:11119   */\n      dup3\n        /* \"#utility.yul\":11112:11124   */\n      add\n        /* \"#utility.yul\":11105:11124   */\n      swap1\n      pop\n        /* \"#utility.yul\":10764:11130   */\n      swap2\n      swap1\n      pop\n      jump\t// out\n        /* \"#utility.yul\":11136:11555   */\n    tag_37:\n        /* \"#utility.yul\":11302:11306   */\n      0x00\n        /* \"#utility.yul\":11340:11342   */\n      0x20\n        /* \"#utility.yul\":11329:11338   */\n      dup3\n        /* \"#utility.yul\":11325:11343   */\n      add\n        /* \"#utility.yul\":11317:11343   */\n      swap1\n      pop\n        /* \"#utility.yul\":11389:11398   */\n      dup2\n        /* \"#utility.yul\":11383:11387   */\n      dup2\n        /* \"#utility.yul\":11379:11399   */\n      sub\n        /* \"#utility.yul\":11375:11376   */\n      0x00\n        /* \"#utility.yul\":11364:11373   */\n      dup4\n        /* \"#utility.yul\":11360:11377   */\n      add\n        /* \"#utility.yul\":11353:11400   */\n      mstore\n        /* \"#utility.yul\":11417:11548   */\n      tag_251\n        /* \"#utility.yul\":11543:11547   */\n      dup2\n        /* \"#utility.yul\":11417:11548   */\n      tag_111\n      jump\t// in\n    tag_251:\n        /* \"#utility.yul\":11409:11548   */\n      swap1\n      pop\n        /* \"#utility.yul\":11136:11555   */\n      swap2\n      swap1\n      pop\n      jump\t// out\n        /* \"#utility.yul\":11561:11741   */\n    tag_112:\n        /* \"#utility.yul\":11609:11686   */\n      0x4e487b7100000000000000000000000000000000000000000000000000000000\n        /* \"#utility.yul\":11606:11607   */\n      0x00\n        /* \"#utility.yul\":11599:11687   */\n      mstore\n        /* \"#utility.yul\":11706:11710   */\n      0x22\n        /* \"#utility.yul\":11703:11704   */\n      0x04\n        /* \"#utility.yul\":11696:11711   */\n      mstore\n        /* \"#utility.yul\":11730:11734   */\n      0x24\n        /* \"#utility.yul\":11727:11728   */\n      0x00\n        /* \"#utility.yul\":11720:11735   */\n      revert\n        /* \"#utility.yul\":11747:12067   */\n    tag_65:\n        /* \"#utility.yul\":11791:11797   */\n      0x00\n        /* \"#utility.yul\":11828:11829   */\n      0x02\n        /* \"#utility.yul\":11822:11826   */\n      dup3\n        /* \"#utility.yul\":11818:11830   */\n      div\n        /* \"#utility.yul\":11808:11830   */\n      swap1\n      pop\n        /* \"#utility.yul\":11875:11876   */\n      0x01\n        /* \"#utility.yul\":11869:11873   */\n      dup3\n        /* \"#utility.yul\":11865:11877   */\n      and\n        /* \"#utility.yul\":11896:11914   */\n      dup1\n        /* \"#utility.yul\":11886:11967   */\n      tag_254\n      jumpi\n        /* \"#utility.yul\":11952:11956   */\n      0x7f\n        /* \"#utility.yul\":11944:11950   */\n      dup3\n        /* \"#utility.yul\":11940:11957   */\n      and\n        /* \"#utility.yul\":11930:11957   */\n      swap2\n      pop\n        /* \"#utility.yul\":11886:11967   */\n    tag_254:\n        /* \"#utility.yul\":12014:12016   */\n      0x20\n        /* \"#utility.yul\":12006:12012   */\n      dup3\n        /* \"#utility.yul\":12003:12017   */\n      lt\n        /* \"#utility.yul\":11983:12001   */\n      dup2\n        /* \"#utility.yul\":11980:12018   */\n      sub\n        /* \"#utility.yul\":11977:12061   */\n      tag_255\n      jumpi\n        /* \"#utility.yul\":12033:12051   */\n      tag_256\n      tag_112\n      jump\t// in\n    tag_256:\n        /* \"#utility.yul\":11977:12061   */\n    tag_255:\n        /* \"#utility.yul\":11798:12067   */\n      pop\n        /* \"#utility.yul\":11747:12067   */\n      swap2\n      swap1\n      pop\n      jump\t// out\n        /* \"#utility.yul\":12073:12214   */\n    tag_113:\n        /* \"#utility.yul\":12122:12126   */\n      0x00\n        /* \"#utility.yul\":12145:12148   */\n      dup2\n        /* \"#utility.yul\":12137:12148   */\n      swap1\n      pop\n        /* \"#utility.yul\":12168:12171   */\n      dup2\n        /* \"#utility.yul\":12165:12166   */\n      0x00\n        /* \"#utility.yul\":12158:12172   */\n      mstore\n        /* \"#utility.yul\":12202:12206   */\n      0x20\n        /* \"#utility.yul\":12199:12200   */\n      0x00\n        /* \"#utility.yul\":12189:12207   */\n      keccak256\n        /* \"#utility.yul\":12181:12207   */\n      swap1\n      pop\n        /* \"#utility.yul\":12073:12214   */\n      swap2\n      swap1\n      pop\n      jump\t// out\n        /* \"#utility.yul\":12220:12313   */\n    tag_114:\n        /* \"#utility.yul\":12257:12263   */\n      0x00\n        /* \"#utility.yul\":12304:12306   */\n      0x20\n        /* \"#utility.yul\":12299:12301   */\n      0x1f\n        /* \"#utility.yul\":12292:12297   */\n      dup4\n        /* \"#utility.yul\":12288:12302   */\n      add\n        /* \"#utility.yul\":12284:12307   */\n      div\n        /* \"#utility.yul\":12274:12307   */\n      swap1\n      pop\n        /* \"#utility.yul\":12220:12313   */\n      swap2\n      swap1\n      pop\n      jump\t// out\n        /* \"#utility.yul\":12319:12426   */\n    tag_115:\n        /* \"#utility.yul\":12363:12371   */\n      0x00\n        /* \"#utility.yul\":12413:12418   */\n      dup3\n        /* \"#utility.yul\":12407:12411   */\n      dup3\n        /* \"#utility.yul\":12403:12419   */\n      shl\n        /* \"#utility.yul\":12382:12419   */\n      swap1\n      pop\n        /* \"#utility.yul\":12319:12426   */\n      swap3\n      swap2\n      pop\n      pop\n      jump\t// out\n        /* \"#utility.yul\":12432:12825   */\n    tag_116:\n        /* \"#utility.yul\":12501:12507   */\n      0x00\n        /* \"#utility.yul\":12551:12552   */\n      0x08\n        /* \"#utility.yul\":12539:12549   */\n      dup4\n        /* \"#utility.yul\":12535:12553   */\n      mul\n        /* \"#utility.yul\":12574:12671   */\n      tag_261\n        /* \"#utility.yul\":12604:12670   */\n      0xffffffffffffffffffffffffffffffffffffffffffffffffffffffffffffffff\n        /* \"#utility.yul\":12593:12602   */\n      dup3\n        /* \"#utility.yul\":12574:12671   */\n      tag_115\n      jump\t// in\n    tag_261:\n        /* \"#utility.yul\":12692:12731   */\n      tag_262\n        /* \"#utility.yul\":12722:12730   */\n      dup7\n        /* \"#utility.yul\":12711:12720   */\n      dup4\n        /* \"#utility.yul\":12692:12731   */\n      tag_115\n      jump\t// in\n    tag_262:\n        /* \"#utility.yul\":12680:12731   */\n      swap6\n      pop\n        /* \"#utility.yul\":12764:12768   */\n      dup1\n        /* \"#utility.yul\":12760:12769   */\n      not\n        /* \"#utility.yul\":12753:12758   */\n      dup5\n        /* \"#utility.yul\":12749:12770   */\n      and\n        /* \"#utility.yul\":12740:12770   */\n      swap4\n      pop\n        /* \"#utility.yul\":12813:12817   */\n      dup1\n        /* \"#utility.yul\":12803:12811   */\n      dup7\n        /* \"#utility.yul\":12799:12818   */\n      and\n        /* \"#utility.yul\":12792:12797   */\n      dup5\n        /* \"#utility.yul\":12789:12819   */\n      or\n        /* \"#utility.yul\":12779:12819   */\n      swap3\n      pop\n        /* \"#utility.yul\":12508:12825   */\n      pop\n      pop\n        /* \"#utility.yul\":12432:12825   */\n      swap4\n      swap3\n      pop\n      pop\n      pop\n      jump\t// out\n        /* \"#utility.yul\":12831:12908   */\n    tag_117:\n        /* \"#utility.yul\":12868:12875   */\n      0x00\n        /* \"#utility.yul\":12897:12902   */\n      dup2\n        /* \"#utility.yul\":12886:12902   */\n      swap1\n      pop\n        /* \"#utility.yul\":12831:12908   */\n      swap2\n      swap1\n      pop\n      jump\t// out\n        /* \"#utility.yul\":12914:12974   */\n    tag_118:\n        /* \"#utility.yul\":12942:12945   */\n      0x00\n        /* \"#utility.yul\":12963:12968   */\n      dup2\n        /* \"#utility.yul\":12956:12968   */\n      swap1\n      pop\n        /* \"#utility.yul\":12914:12974   */\n      swap2\n      swap1\n      pop\n      jump\t// out\n        /* \"#utility.yul\":12980:13122   */\n    tag_119:\n        /* \"#utility.yul\":13030:13039   */\n      0x00\n        /* \"#utility.yul\":13063:13116   */\n      tag_266\n        /* \"#utility.yul\":13081:13115   */\n      tag_267\n        /* \"#utility.yul\":13090:13114   */\n      tag_268\n        /* \"#utility.yul\":13108:13113   */\n      dup5\n        /* \"#utility.yul\":13090:13114   */\n      tag_117\n      jump\t// in\n    tag_268:\n        /* \"#utility.yul\":13081:13115   */\n      tag_118\n      jump\t// in\n    tag_267:\n        /* \"#utility.yul\":13063:13116   */\n      tag_117\n      jump\t// in\n    tag_266:\n        /* \"#utility.yul\":13050:13116   */\n      swap1\n      pop\n        /* \"#utility.yul\":12980:13122   */\n      swap2\n      swap1\n      pop\n      jump\t// out\n        /* \"#utility.yul\":13128:13203   */\n    tag_120:\n        /* \"#utility.yul\":13171:13174   */\n      0x00\n        /* \"#utility.yul\":13192:13197   */\n      dup2\n        /* \"#utility.yul\":13185:13197   */\n      swap1\n      pop\n        /* \"#utility.yul\":13128:13203   */\n      swap2\n      swap1\n      pop\n      jump\t// out\n        /* \"#utility.yul\":13209:13478   */\n    tag_121:\n        /* \"#utility.yul\":13319:13358   */\n      tag_271\n        /* \"#utility.yul\":13350:13357   */\n      dup4\n        /* \"#utility.yul\":13319:13358   */\n      tag_119\n      jump\t// in\n    tag_271:\n        /* \"#utility.yul\":13380:13471   */\n      tag_272\n        /* \"#utility.yul\":13429:13470   */\n      tag_273\n        /* \"#utility.yul\":13453:13469   */\n      dup3\n        /* \"#utility.yul\":13429:13470   */\n      tag_120\n      jump\t// in\n    tag_273:\n        /* \"#utility.yul\":13421:13427   */\n      dup5\n        /* \"#utility.yul\":13414:13418   */\n      dup5\n        /* \"#utility.yul\":13408:13419   */\n      sload\n        /* \"#utility.yul\":13380:13471   */\n      tag_116\n      jump\t// in\n    tag_272:\n        /* \"#utility.yul\":13374:13378   */\n      dup3\n        /* \"#utility.yul\":13367:13472   */\n      sstore\n        /* \"#utility.yul\":13285:13478   */\n      pop\n        /* \"#utility.yul\":13209:13478   */\n      pop\n      pop\n      pop\n      jump\t// out\n        /* \"#utility.yul\":13484:13557   */\n    tag_122:\n        /* \"#utility.yul\":13529:13532   */\n      0x00\n        /* \"#utility.yul\":13484:13557   */\n      swap1\n      jump\t// out\n        /* \"#utility.yul\":13563:13752   */\n    tag_123:\n        /* \"#utility.yul\":13640:13672   */\n      tag_276\n      tag_122\n      jump\t// in\n    tag_276:\n        /* \"#utility.yul\":13681:13746   */\n      tag_277\n        /* \"#utility.yul\":13739:13745   */\n      dup2\n        /* \"#utility.yul\":13731:13737   */\n      dup5\n        /* \"#utility.yul\":13725:13729   */\n      dup5\n        /* \"#utility.yul\":13681:13746   */\n      tag_121\n      jump\t// in\n    tag_277:\n        /* \"#utility.yul\":13616:13752   */\n      pop\n        /* \"#utility.yul\":13563:13752   */\n      pop\n      pop\n      jump\t// out\n        /* \"#utility.yul\":13758:13944   */\n    tag_124:\n        /* \"#utility.yul\":13818:13938   */\n    tag_279:\n        /* \"#utility.yul\":13835:13838   */\n      dup2\n        /* \"#utility.yul\":13828:13833   */\n      dup2\n        /* \"#utility.yul\":13825:13839   */\n      lt\n        /* \"#utility.yul\":13818:13938   */\n      iszero\n      tag_281\n      jumpi\n        /* \"#utility.yul\":13889:13928   */\n      tag_282\n        /* \"#utility.yul\":13926:13927   */\n      0x00\n        /* \"#utility.yul\":13919:13924   */\n      dup3\n        /* \"#utility.yul\":13889:13928   */\n      tag_123\n      jump\t// in\n    tag_282:\n        /* \"#utility.yul\":13862:13863   */\n      0x01\n        /* \"#utility.yul\":13855:13860   */\n      dup2\n        /* \"#utility.yul\":13851:13864   */\n      add\n        /* \"#utility.yul\":13842:13864   */\n      swap1\n      pop\n        /* \"#utility.yul\":13818:13938   */\n      jump(tag_279)\n    tag_281:\n        /* \"#utility.yul\":13758:13944   */\n      pop\n      pop\n      jump\t// out\n        /* \"#utility.yul\":13950:14493   */\n    tag_125:\n        /* \"#utility.yul\":14051:14053   */\n      0x1f\n        /* \"#utility.yul\":14046:14049   */\n      dup3\n        /* \"#utility.yul\":14043:14054   */\n      gt\n        /* \"#utility.yul\":14040:14486   */\n      iszero\n      tag_284\n      jumpi\n        /* \"#utility.yul\":14085:14123   */\n      tag_285\n        /* \"#utility.yul\":14117:14122   */\n      dup2\n        /* \"#utility.yul\":14085:14123   */\n      tag_113\n      jump\t// in\n    tag_285:\n        /* \"#utility.yul\":14169:14198   */\n      tag_286\n        /* \"#utility.yul\":14187:14197   */\n      dup5\n        /* \"#utility.yul\":14169:14198   */\n      tag_114\n      jump\t// in\n    tag_286:\n        /* \"#utility.yul\":14159:14167   */\n      dup2\n        /* \"#utility.yul\":14155:14199   */\n      add\n        /* \"#utility.yul\":14352:14354   */\n      0x20\n        /* \"#utility.yul\":14340:14350   */\n      dup6\n        /* \"#utility.yul\":14337:14355   */\n      lt\n        /* \"#utility.yul\":14334:14383   */\n      iszero\n      tag_287\n      jumpi\n        /* \"#utility.yul\":14373:14381   */\n      dup2\n        /* \"#utility.yul\":14358:14381   */\n      swap1\n      pop\n        /* \"#utility.yul\":14334:14383   */\n    tag_287:\n        /* \"#utility.yul\":14396:14476   */\n      tag_288\n        /* \"#utility.yul\":14452:14474   */\n      tag_289\n        /* \"#utility.yul\":14470:14473   */\n      dup6\n        /* \"#utility.yul\":14452:14474   */\n      tag_114\n      jump\t// in\n    tag_289:\n        /* \"#utility.yul\":14442:14450   */\n      dup4\n        /* \"#utility.yul\":14438:14475   */\n      add\n        /* \"#utility.yul\":14425:14436   */\n      dup3\n        /* \"#utility.yul\":14396:14476   */\n      tag_124\n      jump\t// in\n    tag_288:\n        /* \"#utility.yul\":14055:14486   */\n      pop\n      pop\n        /* \"#utility.yul\":14040:14486   */\n    tag_284:\n        /* \"#utility.yul\":13950:14493   */\n      pop\n      pop\n      pop\n      jump\t// out\n        /* \"#utility.yul\":14499:14616   */\n    tag_126:\n        /* \"#utility.yul\":14553:14561   */\n      0x00\n        /* \"#utility.yul\":14603:14608   */\n      dup3\n        /* \"#utility.yul\":14597:14601   */\n      dup3\n        /* \"#utility.yul\":14593:14609   */\n      shr\n        /* \"#utility.yul\":14572:14609   */\n      swap1\n      pop\n        /* \"#utility.yul\":14499:14616   */\n      swap3\n      swap2\n      pop\n      pop\n      jump\t// out\n        /* \"#utility.yul\":14622:14791   */\n    tag_127:\n        /* \"#utility.yul\":14666:14672   */\n      0x00\n        /* \"#utility.yul\":14699:14750   */\n      tag_292\n        /* \"#utility.yul\":14747:14748   */\n      0x00\n        /* \"#utility.yul\":14743:14749   */\n      not\n        /* \"#utility.yul\":14735:14740   */\n      dup5\n        /* \"#utility.yul\":14732:14733   */\n      0x08\n        /* \"#utility.yul\":14728:14741   */\n      mul\n        /* \"#utility.yul\":14699:14750   */\n      tag_126\n      jump\t// in\n    tag_292:\n        /* \"#utility.yul\":14695:14751   */\n      not\n        /* \"#utility.yul\":14780:14784   */\n      dup1\n        /* \"#utility.yul\":14774:14778   */\n      dup4\n        /* \"#utility.yul\":14770:14785   */\n      and\n        /* \"#utility.yul\":14760:14785   */\n      swap2\n      pop\n        /* \"#utility.yul\":14673:14791   */\n      pop\n        /* \"#utility.yul\":14622:14791   */\n      swap3\n      swap2\n      pop\n      pop\n      jump\t// out\n        /* \"#utility.yul\":14796:15091   */\n    tag_128:\n        /* \"#utility.yul\":14872:14876   */\n      0x00\n        /* \"#utility.yul\":15018:15047   */\n      tag_294\n        /* \"#utility.yul\":15043:15046   */\n      dup4\n        /* \"#utility.yul\":15037:15041   */\n      dup4\n        /* \"#utility.yul\":15018:15047   */\n      tag_127\n      jump\t// in\n    tag_294:\n        /* \"#utility.yul\":15010:15047   */\n      swap2\n      pop\n        /* \"#utility.yul\":15080:15083   */\n      dup3\n        /* \"#utility.yul\":15077:15078   */\n      0x02\n        /* \"#utility.yul\":15073:15084   */\n      mul\n        /* \"#utility.yul\":15067:15071   */\n      dup3\n        /* \"#utility.yul\":15064:15085   */\n      or\n        /* \"#utility.yul\":15056:15085   */\n      swap1\n      pop\n        /* \"#utility.yul\":14796:15091   */\n      swap3\n      swap2\n      pop\n      pop\n      jump\t// out\n        /* \"#utility.yul\":15096:16491   */\n    tag_42:\n        /* \"#utility.yul\":15213:15250   */\n      tag_296\n        /* \"#utility.yul\":15246:15249   */\n      dup3\n        /* \"#utility.yul\":15213:15250   */\n      tag_95\n      jump\t// in\n    tag_296:\n        /* \"#utility.yul\":15315:15333   */\n      0xffffffffffffffff\n        /* \"#utility.yul\":15307:15313   */\n      dup2\n        /* \"#utility.yul\":15304:15334   */\n      gt\n        /* \"#utility.yul\":15301:15357   */\n      iszero\n      tag_297\n      jumpi\n        /* \"#utility.yul\":15337:15355   */\n      tag_298\n      tag_80\n      jump\t// in\n    tag_298:\n        /* \"#utility.yul\":15301:15357   */\n    tag_297:\n        /* \"#utility.yul\":15381:15419   */\n      tag_299\n        /* \"#utility.yul\":15413:15417   */\n      dup3\n        /* \"#utility.yul\":15407:15418   */\n      sload\n        /* \"#utility.yul\":15381:15419   */\n      tag_65\n      jump\t// in\n    tag_299:\n        /* \"#utility.yul\":15466:15533   */\n      tag_300\n        /* \"#utility.yul\":15526:15532   */\n      dup3\n        /* \"#utility.yul\":15518:15524   */\n      dup3\n        /* \"#utility.yul\":15512:15516   */\n      dup6\n        /* \"#utility.yul\":15466:15533   */\n      tag_125\n      jump\t// in\n    tag_300:\n        /* \"#utility.yul\":15560:15561   */\n      0x00\n        /* \"#utility.yul\":15584:15588   */\n      0x20\n        /* \"#utility.yul\":15571:15588   */\n      swap1\n      pop\n        /* \"#utility.yul\":15616:15618   */\n      0x1f\n        /* \"#utility.yul\":15608:15614   */\n      dup4\n        /* \"#utility.yul\":15605:15619   */\n      gt\n        /* \"#utility.yul\":15633:15634   */\n      0x01\n        /* \"#utility.yul\":15628:16246   */\n      dup2\n      eq\n      tag_302\n      jumpi\n        /* \"#utility.yul\":16290:16291   */\n      0x00\n        /* \"#utility.yul\":16307:16313   */\n      dup5\n        /* \"#utility.yul\":16304:16381   */\n      iszero\n      tag_303\n      jumpi\n        /* \"#utility.yul\":16356:16365   */\n      dup3\n        /* \"#utility.yul\":16351:16354   */\n      dup8\n        /* \"#utility.yul\":16347:16366   */\n      add\n        /* \"#utility.yul\":16341:16367   */\n      mload\n        /* \"#utility.yul\":16332:16367   */\n      swap1\n      pop\n        /* \"#utility.yul\":16304:16381   */\n    tag_303:\n        /* \"#utility.yul\":16407:16474   */\n      tag_304\n        /* \"#utility.yul\":16467:16473   */\n      dup6\n        /* \"#utility.yul\":16460:16465   */\n      dup3\n        /* \"#utility.yul\":16407:16474   */\n      tag_128\n      jump\t// in\n    tag_304:\n        /* \"#utility.yul\":16401:16405   */\n      dup7\n        /* \"#utility.yul\":16394:16475   */\n      sstore\n        /* \"#utility.yul\":16263:16485   */\n      pop\n        /* \"#utility.yul\":15598:16485   */\n      jump(tag_301)\n        /* \"#utility.yul\":15628:16246   */\n    tag_302:\n        /* \"#utility.yul\":15680:15684   */\n      0x1f\n        /* \"#utility.yul\":15676:15685   */\n      not\n        /* \"#utility.yul\":15668:15674   */\n      dup5\n        /* \"#utility.yul\":15664:15686   */\n      and\n        /* \"#utility.yul\":15714:15751   */\n      tag_305\n        /* \"#utility.yul\":15746:15750   */\n      dup7\n        /* \"#utility.yul\":15714:15751   */\n      tag_113\n      jump\t// in\n    tag_305:\n        /* \"#utility.yul\":15773:15774   */\n      0x00\n        /* \"#utility.yul\":15787:15995   */\n    tag_306:\n        /* \"#utility.yul\":15801:15808   */\n      dup3\n        /* \"#utility.yul\":15798:15799   */\n      dup2\n        /* \"#utility.yul\":15795:15809   */\n      lt\n        /* \"#utility.yul\":15787:15995   */\n      iszero\n      tag_308\n      jumpi\n        /* \"#utility.yul\":15880:15889   */\n      dup5\n        /* \"#utility.yul\":15875:15878   */\n      dup10\n        /* \"#utility.yul\":15871:15890   */\n      add\n        /* \"#utility.yul\":15865:15891   */\n      mload\n        /* \"#utility.yul\":15857:15863   */\n      dup3\n        /* \"#utility.yul\":15850:15892   */\n      sstore\n        /* \"#utility.yul\":15931:15932   */\n      0x01\n        /* \"#utility.yul\":15923:15929   */\n      dup3\n        /* \"#utility.yul\":15919:15933   */\n      add\n        /* \"#utility.yul\":15909:15933   */\n      swap2\n      pop\n        /* \"#utility.yul\":15978:15980   */\n      0x20\n        /* \"#utility.yul\":15967:15976   */\n      dup6\n        /* \"#utility.yul\":15963:15981   */\n      add\n        /* \"#utility.yul\":15950:15981   */\n      swap5\n      pop\n        /* \"#utility.yul\":15824:15828   */\n      0x20\n        /* \"#utility.yul\":15821:15822   */\n      dup2\n        /* \"#utility.yul\":15817:15829   */\n      add\n        /* \"#utility.yul\":15812:15829   */\n      swap1\n      pop\n        /* \"#utility.yul\":15787:15995   */\n      jump(tag_306)\n    tag_308:\n        /* \"#utility.yul\":16023:16029   */\n      dup7\n        /* \"#utility.yul\":16014:16021   */\n      dup4\n        /* \"#utility.yul\":16011:16030   */\n      lt\n        /* \"#utility.yul\":16008:16187   */\n      iszero\n      tag_309\n      jumpi\n        /* \"#utility.yul\":16081:16090   */\n      dup5\n        /* \"#utility.yul\":16076:16079   */\n      dup10\n        /* \"#utility.yul\":16072:16091   */\n      add\n        /* \"#utility.yul\":16066:16092   */\n      mload\n        /* \"#utility.yul\":16124:16172   */\n      tag_310\n        /* \"#utility.yul\":16166:16170   */\n      0x1f\n        /* \"#utility.yul\":16158:16164   */\n      dup10\n        /* \"#utility.yul\":16154:16171   */\n      and\n        /* \"#utility.yul\":16143:16152   */\n      dup3\n        /* \"#utility.yul\":16124:16172   */\n      tag_127\n      jump\t// in\n    tag_310:\n        /* \"#utility.yul\":16116:16122   */\n      dup4\n        /* \"#utility.yul\":16109:16173   */\n      sstore\n        /* \"#utility.yul\":16031:16187   */\n      pop\n        /* \"#utility.yul\":16008:16187   */\n    tag_309:\n        /* \"#utility.yul\":16233:16234   */\n      0x01\n        /* \"#utility.yul\":16229:16230   */\n      0x02\n        /* \"#utility.yul\":16221:16227   */\n      dup9\n        /* \"#utility.yul\":16217:16231   */\n      mul\n        /* \"#utility.yul\":16213:16235   */\n      add\n        /* \"#utility.yul\":16207:16211   */\n      dup9\n        /* \"#utility.yul\":16200:16236   */\n      sstore\n        /* \"#utility.yul\":15635:16246   */\n      pop\n      pop\n      pop\n        /* \"#utility.yul\":15598:16485   */\n    tag_301:\n      pop\n        /* \"#utility.yul\":15188:16491   */\n      pop\n      pop\n      pop\n        /* \"#utility.yul\":15096:16491   */\n      pop\n      pop\n      jump\t// out\n        /* \"#utility.yul\":16497:16673   */\n    tag_129:\n        /* \"#utility.yul\":16637:16665   */\n      0x526f6c6c204e756d62657220646f6573206e6f74206578697374000000000000\n        /* \"#utility.yul\":16633:16634   */\n      0x00\n        /* \"#utility.yul\":16625:16631   */\n      dup3\n        /* \"#utility.yul\":16621:16635   */\n      add\n        /* \"#utility.yul\":16614:16666   */\n      mstore\n        /* \"#utility.yul\":16497:16673   */\n      pop\n      jump\t// out\n        /* \"#utility.yul\":16679:17045   */\n    tag_130:\n        /* \"#utility.yul\":16821:16824   */\n      0x00\n        /* \"#utility.yul\":16842:16909   */\n      tag_313\n        /* \"#utility.yul\":16906:16908   */\n      0x1a\n        /* \"#utility.yul\":16901:16904   */\n      dup4\n        /* \"#utility.yul\":16842:16909   */\n      tag_96\n      jump\t// in\n    tag_313:\n        /* \"#utility.yul\":16835:16909   */\n      swap2\n      pop\n        /* \"#utility.yul\":16918:17011   */\n      tag_314\n        /* \"#utility.yul\":17007:17010   */\n      dup3\n        /* \"#utility.yul\":16918:17011   */\n      tag_129\n      jump\t// in\n    tag_314:\n        /* \"#utility.yul\":17036:17038   */\n      0x20\n        /* \"#utility.yul\":17031:17034   */\n      dup3\n        /* \"#utility.yul\":17027:17039   */\n      add\n        /* \"#utility.yul\":17020:17039   */\n      swap1\n      pop\n        /* \"#utility.yul\":16679:17045   */\n      swap2\n      swap1\n      pop\n      jump\t// out\n        /* \"#utility.yul\":17051:17470   */\n    tag_51:\n        /* \"#utility.yul\":17217:17221   */\n      0x00\n        /* \"#utility.yul\":17255:17257   */\n      0x20\n        /* \"#utility.yul\":17244:17253   */\n      dup3\n        /* \"#utility.yul\":17240:17258   */\n      add\n        /* \"#utility.yul\":17232:17258   */\n      swap1\n      pop\n        /* \"#utility.yul\":17304:17313   */\n      dup2\n        /* \"#utility.yul\":17298:17302   */\n      dup2\n        /* \"#utility.yul\":17294:17314   */\n      sub\n        /* \"#utility.yul\":17290:17291   */\n      0x00\n        /* \"#utility.yul\":17279:17288   */\n      dup4\n        /* \"#utility.yul\":17275:17292   */\n      add\n        /* \"#utility.yul\":17268:17315   */\n      mstore\n        /* \"#utility.yul\":17332:17463   */\n      tag_316\n        /* \"#utility.yul\":17458:17462   */\n      dup2\n        /* \"#utility.yul\":17332:17463   */\n      tag_130\n      jump\t// in\n    tag_316:\n        /* \"#utility.yul\":17324:17463   */\n      swap1\n      pop\n        /* \"#utility.yul\":17051:17470   */\n      swap2\n      swap1\n      pop\n      jump\t// out\n\n    auxdata: 0xa264697066735822122048ebfb0f7b05b666173d1d15edda73e611d001fb57c62ba3eebc81a6a39b9a3664736f6c634300081a0033\n}\n",
				"bytecode": {
					"linkReferences": {},
					"object": "6080604052348015600e575f80fd5b50335f806101000a81548173ffffffffffffffffffffffffffffffffffffffff021916908373ffffffffffffffffffffffffffffffffffffffff1602179055506110f58061005b5f395ff3fe608060405234801561000f575f80fd5b5060043610610055575f3560e01c80632055f8d51461005957806388fe1e8314610075578063bd34cdca14610091578063ea2f9f41146100ad578063fe6674bf146100e1575b5f80fd5b610073600480360381019061006e9190610998565b6100ff565b005b61008f600480360381019061008a9190610a2b565b61033b565b005b6100ab60048036038101906100a69190610a8f565b6104c3565b005b6100c760048036038101906100c29190610ae9565b610568565b6040516100d8959493929190610c05565b60405180910390f35b6100e9610796565b6040516100f69190610c9c565b60405180910390f35b5f8054906101000a900473ffffffffffffffffffffffffffffffffffffffff1673ffffffffffffffffffffffffffffffffffffffff163373ffffffffffffffffffffffffffffffffffffffff161461018c576040517f08c379a000000000000000000000000000000000000000000000000000000000815260040161018390610cff565b60405180910390fd5b60015f8263ffffffff1663ffffffff1681526020019081526020015f2060010160079054906101000a900460ff16156101fa576040517f08c379a00000000000000000000000000000000000000000000000000000000081526004016101f190610d67565b60405180910390fd5b6040518060c001604052808681526020018560ff16815260200184600281111561022757610226610b83565b5b81526020018360ff1681526020018263ffffffff1681526020016001151581525060015f8363ffffffff1663ffffffff1681526020019081526020015f205f820151815f0190816102789190610f88565b506020820151816001015f6101000a81548160ff021916908360ff16021790555060408201518160010160016101000a81548160ff021916908360028111156102c4576102c3610b83565b5b021790555060608201518160010160026101000a81548160ff021916908360ff16021790555060808201518160010160036101000a81548163ffffffff021916908363ffffffff16021790555060a08201518160010160076101000a81548160ff0219169083151502179055509050505050505050565b5f8054906101000a900473ffffffffffffffffffffffffffffffffffffffff1673ffffffffffffffffffffffffffffffffffffffff163373ffffffffffffffffffffffffffffffffffffffff16146103c8576040517f08c379a00000000000000000000000000000000000000000000000000000000081526004016103bf90610cff565b60405180910390fd5b8060015f8263ffffffff1663ffffffff1681526020019081526020015f2060010160079054906101000a900460ff16610436576040517f08c379a000000000000000000000000000000000000000000000000000000000815260040161042d906110a1565b60405180910390fd5b5f60015f8463ffffffff1663ffffffff1681526020019081526020015f20905085816001015f6101000a81548160ff021916908360ff160217905550848160010160016101000a81548160ff0219169083600281111561049957610498610b83565b5b0217905550838160010160026101000a81548160ff021916908360ff160217905550505050505050565b8060015f8263ffffffff1663ffffffff1681526020019081526020015f2060010160079054906101000a900460ff16610531576040517f08c379a0000000000000000000000000000000000000000000000000000000008152600401610528906110a1565b60405180910390fd5b5f60015f8463ffffffff1663ffffffff1681526020019081526020015f20905083815f0190816105619190610f88565b5050505050565b60605f805f805f8054906101000a900473ffffffffffffffffffffffffffffffffffffffff1673ffffffffffffffffffffffffffffffffffffffff163373ffffffffffffffffffffffffffffffffffffffff16146105fb576040517f08c379a00000000000000000000000000000000000000000000000000000000081526004016105f290610cff565b60405180910390fd5b5f60015f8863ffffffff1663ffffffff1681526020019081526020015f206040518060c00160405290815f8201805461063390610db2565b80601f016020809104026020016040519081016040528092919081815260200182805461065f90610db2565b80156106aa5780601f10610681576101008083540402835291602001916106aa565b820191905f5260205f20905b81548152906001019060200180831161068d57829003601f168201915b50505050508152602001600182015f9054906101000a900460ff1660ff1660ff1681526020016001820160019054906101000a900460ff1660028111156106f4576106f3610b83565b5b600281111561070657610705610b83565b5b81526020016001820160029054906101000a900460ff1660ff1660ff1681526020016001820160039054906101000a900463ffffffff1663ffffffff1663ffffffff1681526020016001820160079054906101000a900460ff1615151515815250509050805f01518160200151826040015183606001518460800151955095509550955095505091939590929450565b5f8054906101000a900473ffffffffffffffffffffffffffffffffffffffff1681565b5f604051905090565b5f80fd5b5f80fd5b5f80fd5b5f80fd5b5f601f19601f8301169050919050565b7f4e487b71000000000000000000000000000000000000000000000000000000005f52604160045260245ffd5b610818826107d2565b810181811067ffffffffffffffff82111715610837576108366107e2565b5b80604052505050565b5f6108496107b9565b9050610855828261080f565b919050565b5f67ffffffffffffffff821115610874576108736107e2565b5b61087d826107d2565b9050602081019050919050565b828183375f83830152505050565b5f6108aa6108a58461085a565b610840565b9050828152602081018484840111156108c6576108c56107ce565b5b6108d184828561088a565b509392505050565b5f82601f8301126108ed576108ec6107ca565b5b81356108fd848260208601610898565b91505092915050565b5f60ff82169050919050565b61091b81610906565b8114610925575f80fd5b50565b5f8135905061093681610912565b92915050565b60038110610948575f80fd5b50565b5f813590506109598161093c565b92915050565b5f63ffffffff82169050919050565b6109778161095f565b8114610981575f80fd5b50565b5f813590506109928161096e565b92915050565b5f805f805f60a086880312156109b1576109b06107c2565b5b5f86013567ffffffffffffffff8111156109ce576109cd6107c6565b5b6109da888289016108d9565b95505060206109eb88828901610928565b94505060406109fc8882890161094b565b9350506060610a0d88828901610928565b9250506080610a1e88828901610984565b9150509295509295909350565b5f805f8060808587031215610a4357610a426107c2565b5b5f610a5087828801610928565b9450506020610a618782880161094b565b9350506040610a7287828801610928565b9250506060610a8387828801610984565b91505092959194509250565b5f8060408385031215610aa557610aa46107c2565b5b5f83013567ffffffffffffffff811115610ac257610ac16107c6565b5b610ace858286016108d9565b9250506020610adf85828601610984565b9150509250929050565b5f60208284031215610afe57610afd6107c2565b5b5f610b0b84828501610984565b91505092915050565b5f81519050919050565b5f82825260208201905092915050565b8281835e5f83830152505050565b5f610b4682610b14565b610b508185610b1e565b9350610b60818560208601610b2e565b610b69816107d2565b840191505092915050565b610b7d81610906565b82525050565b7f4e487b71000000000000000000000000000000000000000000000000000000005f52602160045260245ffd5b60038110610bc157610bc0610b83565b5b50565b5f819050610bd182610bb0565b919050565b5f610be082610bc4565b9050919050565b610bf081610bd6565b82525050565b610bff8161095f565b82525050565b5f60a0820190508181035f830152610c1d8188610b3c565b9050610c2c6020830187610b74565b610c396040830186610be7565b610c466060830185610b74565b610c536080830184610bf6565b9695505050505050565b5f73ffffffffffffffffffffffffffffffffffffffff82169050919050565b5f610c8682610c5d565b9050919050565b610c9681610c7c565b82525050565b5f602082019050610caf5f830184610c8d565b92915050565b7f596f752063616e6e6f742061636365737320746869732046756e6374696f6e005f82015250565b5f610ce9601f83610b1e565b9150610cf482610cb5565b602082019050919050565b5f6020820190508181035f830152610d1681610cdd565b9050919050565b7f526f6c6c206e756d62657220697320616c7265616479206578697374730000005f82015250565b5f610d51601d83610b1e565b9150610d5c82610d1d565b602082019050919050565b5f6020820190508181035f830152610d7e81610d45565b9050919050565b7f4e487b71000000000000000000000000000000000000000000000000000000005f52602260045260245ffd5b5f6002820490506001821680610dc957607f821691505b602082108103610ddc57610ddb610d85565b5b50919050565b5f819050815f5260205f209050919050565b5f6020601f8301049050919050565b5f82821b905092915050565b5f60088302610e3e7fffffffffffffffffffffffffffffffffffffffffffffffffffffffffffffffff82610e03565b610e488683610e03565b95508019841693508086168417925050509392505050565b5f819050919050565b5f819050919050565b5f610e8c610e87610e8284610e60565b610e69565b610e60565b9050919050565b5f819050919050565b610ea583610e72565b610eb9610eb182610e93565b848454610e0f565b825550505050565b5f90565b610ecd610ec1565b610ed8818484610e9c565b505050565b5b81811015610efb57610ef05f82610ec5565b600181019050610ede565b5050565b601f821115610f4057610f1181610de2565b610f1a84610df4565b81016020851015610f29578190505b610f3d610f3585610df4565b830182610edd565b50505b505050565b5f82821c905092915050565b5f610f605f1984600802610f45565b1980831691505092915050565b5f610f788383610f51565b9150826002028217905092915050565b610f9182610b14565b67ffffffffffffffff811115610faa57610fa96107e2565b5b610fb48254610db2565b610fbf828285610eff565b5f60209050601f831160018114610ff0575f8415610fde578287015190505b610fe88582610f6d565b86555061104f565b601f198416610ffe86610de2565b5f5b8281101561102557848901518255600182019150602085019450602081019050611000565b86831015611042578489015161103e601f891682610f51565b8355505b6001600288020188555050505b505050505050565b7f526f6c6c204e756d62657220646f6573206e6f742065786973740000000000005f82015250565b5f61108b601a83610b1e565b915061109682611057565b602082019050919050565b5f6020820190508181035f8301526110b88161107f565b905091905056fea264697066735822122048ebfb0f7b05b666173d1d15edda73e611d001fb57c62ba3eebc81a6a39b9a3664736f6c634300081a0033",
					"opcodes": "PUSH1 0x80 PUSH1 0x40 MSTORE CALLVALUE DUP1 ISZERO PUSH1 0xE JUMPI PUSH0 DUP1 REVERT JUMPDEST POP CALLER PUSH0 DUP1 PUSH2 0x100 EXP DUP2 SLOAD DUP2 PUSH20 0xFFFFFFFFFFFFFFFFFFFFFFFFFFFFFFFFFFFFFFFF MUL NOT AND SWAP1 DUP4 PUSH20 0xFFFFFFFFFFFFFFFFFFFFFFFFFFFFFFFFFFFFFFFF AND MUL OR SWAP1 SSTORE POP PUSH2 0x10F5 DUP1 PUSH2 0x5B PUSH0 CODECOPY PUSH0 RETURN INVALID PUSH1 0x80 PUSH1 0x40 MSTORE CALLVALUE DUP1 ISZERO PUSH2 0xF JUMPI PUSH0 DUP1 REVERT JUMPDEST POP PUSH1 0x4 CALLDATASIZE LT PUSH2 0x55 JUMPI PUSH0 CALLDATALOAD PUSH1 0xE0 SHR DUP1 PUSH4 0x2055F8D5 EQ PUSH2 0x59 JUMPI DUP1 PUSH4 0x88FE1E83 EQ PUSH2 0x75 JUMPI DUP1 PUSH4 0xBD34CDCA EQ PUSH2 0x91 JUMPI DUP1 PUSH4 0xEA2F9F41 EQ PUSH2 0xAD JUMPI DUP1 PUSH4 0xFE6674BF EQ PUSH2 0xE1 JUMPI JUMPDEST PUSH0 DUP1 REVERT JUMPDEST PUSH2 0x73 PUSH1 0x4 DUP1 CALLDATASIZE SUB DUP2 ADD SWAP1 PUSH2 0x6E SWAP2 SWAP1 PUSH2 0x998 JUMP JUMPDEST PUSH2 0xFF JUMP JUMPDEST STOP JUMPDEST PUSH2 0x8F PUSH1 0x4 DUP1 CALLDATASIZE SUB DUP2 ADD SWAP1 PUSH2 0x8A SWAP2 SWAP1 PUSH2 0xA2B JUMP JUMPDEST PUSH2 0x33B JUMP JUMPDEST STOP JUMPDEST PUSH2 0xAB PUSH1 0x4 DUP1 CALLDATASIZE SUB DUP2 ADD SWAP1 PUSH2 0xA6 SWAP2 SWAP1 PUSH2 0xA8F JUMP JUMPDEST PUSH2 0x4C3 JUMP JUMPDEST STOP JUMPDEST PUSH2 0xC7 PUSH1 0x4 DUP1 CALLDATASIZE SUB DUP2 ADD SWAP1 PUSH2 0xC2 SWAP2 SWAP1 PUSH2 0xAE9 JUMP JUMPDEST PUSH2 0x568 JUMP JUMPDEST PUSH1 0x40 MLOAD PUSH2 0xD8 SWAP6 SWAP5 SWAP4 SWAP3 SWAP2 SWAP1 PUSH2 0xC05 JUMP JUMPDEST PUSH1 0x40 MLOAD DUP1 SWAP2 SUB SWAP1 RETURN JUMPDEST PUSH2 0xE9 PUSH2 0x796 JUMP JUMPDEST PUSH1 0x40 MLOAD PUSH2 0xF6 SWAP2 SWAP1 PUSH2 0xC9C JUMP JUMPDEST PUSH1 0x40 MLOAD DUP1 SWAP2 SUB SWAP1 RETURN JUMPDEST PUSH0 DUP1 SLOAD SWAP1 PUSH2 0x100 EXP SWAP1 DIV PUSH20 0xFFFFFFFFFFFFFFFFFFFFFFFFFFFFFFFFFFFFFFFF AND PUSH20 0xFFFFFFFFFFFFFFFFFFFFFFFFFFFFFFFFFFFFFFFF AND CALLER PUSH20 0xFFFFFFFFFFFFFFFFFFFFFFFFFFFFFFFFFFFFFFFF AND EQ PUSH2 0x18C JUMPI PUSH1 0x40 MLOAD PUSH32 0x8C379A000000000000000000000000000000000000000000000000000000000 DUP2 MSTORE PUSH1 0x4 ADD PUSH2 0x183 SWAP1 PUSH2 0xCFF JUMP JUMPDEST PUSH1 0x40 MLOAD DUP1 SWAP2 SUB SWAP1 REVERT JUMPDEST PUSH1 0x1 PUSH0 DUP3 PUSH4 0xFFFFFFFF AND PUSH4 0xFFFFFFFF AND DUP2 MSTORE PUSH1 0x20 ADD SWAP1 DUP2 MSTORE PUSH1 0x20 ADD PUSH0 KECCAK256 PUSH1 0x1 ADD PUSH1 0x7 SWAP1 SLOAD SWAP1 PUSH2 0x100 EXP SWAP1 DIV PUSH1 0xFF AND ISZERO PUSH2 0x1FA JUMPI PUSH1 0x40 MLOAD PUSH32 0x8C379A000000000000000000000000000000000000000000000000000000000 DUP2 MSTORE PUSH1 0x4 ADD PUSH2 0x1F1 SWAP1 PUSH2 0xD67 JUMP JUMPDEST PUSH1 0x40 MLOAD DUP1 SWAP2 SUB SWAP1 REVERT JUMPDEST PUSH1 0x40 MLOAD DUP1 PUSH1 0xC0 ADD PUSH1 0x40 MSTORE DUP1 DUP7 DUP2 MSTORE PUSH1 0x20 ADD DUP6 PUSH1 0xFF AND DUP2 MSTORE PUSH1 0x20 ADD DUP5 PUSH1 0x2 DUP2 GT ISZERO PUSH2 0x227 JUMPI PUSH2 0x226 PUSH2 0xB83 JUMP JUMPDEST JUMPDEST DUP2 MSTORE PUSH1 0x20 ADD DUP4 PUSH1 0xFF AND DUP2 MSTORE PUSH1 0x20 ADD DUP3 PUSH4 0xFFFFFFFF AND DUP2 MSTORE PUSH1 0x20 ADD PUSH1 0x1 ISZERO ISZERO DUP2 MSTORE POP PUSH1 0x1 PUSH0 DUP4 PUSH4 0xFFFFFFFF AND PUSH4 0xFFFFFFFF AND DUP2 MSTORE PUSH1 0x20 ADD SWAP1 DUP2 MSTORE PUSH1 0x20 ADD PUSH0 KECCAK256 PUSH0 DUP3 ADD MLOAD DUP2 PUSH0 ADD SWAP1 DUP2 PUSH2 0x278 SWAP2 SWAP1 PUSH2 0xF88 JUMP JUMPDEST POP PUSH1 0x20 DUP3 ADD MLOAD DUP2 PUSH1 0x1 ADD PUSH0 PUSH2 0x100 EXP DUP2 SLOAD DUP2 PUSH1 0xFF MUL NOT AND SWAP1 DUP4 PUSH1 0xFF AND MUL OR SWAP1 SSTORE POP PUSH1 0x40 DUP3 ADD MLOAD DUP2 PUSH1 0x1 ADD PUSH1 0x1 PUSH2 0x100 EXP DUP2 SLOAD DUP2 PUSH1 0xFF MUL NOT AND SWAP1 DUP4 PUSH1 0x2 DUP2 GT ISZERO PUSH2 0x2C4 JUMPI PUSH2 0x2C3 PUSH2 0xB83 JUMP JUMPDEST JUMPDEST MUL OR SWAP1 SSTORE POP PUSH1 0x60 DUP3 ADD MLOAD DUP2 PUSH1 0x1 ADD PUSH1 0x2 PUSH2 0x100 EXP DUP2 SLOAD DUP2 PUSH1 0xFF MUL NOT AND SWAP1 DUP4 PUSH1 0xFF AND MUL OR SWAP1 SSTORE POP PUSH1 0x80 DUP3 ADD MLOAD DUP2 PUSH1 0x1 ADD PUSH1 0x3 PUSH2 0x100 EXP DUP2 SLOAD DUP2 PUSH4 0xFFFFFFFF MUL NOT AND SWAP1 DUP4 PUSH4 0xFFFFFFFF AND MUL OR SWAP1 SSTORE POP PUSH1 0xA0 DUP3 ADD MLOAD DUP2 PUSH1 0x1 ADD PUSH1 0x7 PUSH2 0x100 EXP DUP2 SLOAD DUP2 PUSH1 0xFF MUL NOT AND SWAP1 DUP4 ISZERO ISZERO MUL OR SWAP1 SSTORE POP SWAP1 POP POP POP POP POP POP POP JUMP JUMPDEST PUSH0 DUP1 SLOAD SWAP1 PUSH2 0x100 EXP SWAP1 DIV PUSH20 0xFFFFFFFFFFFFFFFFFFFFFFFFFFFFFFFFFFFFFFFF AND PUSH20 0xFFFFFFFFFFFFFFFFFFFFFFFFFFFFFFFFFFFFFFFF AND CALLER PUSH20 0xFFFFFFFFFFFFFFFFFFFFFFFFFFFFFFFFFFFFFFFF AND EQ PUSH2 0x3C8 JUMPI PUSH1 0x40 MLOAD PUSH32 0x8C379A000000000000000000000000000000000000000000000000000000000 DUP2 MSTORE PUSH1 0x4 ADD PUSH2 0x3BF SWAP1 PUSH2 0xCFF JUMP JUMPDEST PUSH1 0x40 MLOAD DUP1 SWAP2 SUB SWAP1 REVERT JUMPDEST DUP1 PUSH1 0x1 PUSH0 DUP3 PUSH4 0xFFFFFFFF AND PUSH4 0xFFFFFFFF AND DUP2 MSTORE PUSH1 0x20 ADD SWAP1 DUP2 MSTORE PUSH1 0x20 ADD PUSH0 KECCAK256 PUSH1 0x1 ADD PUSH1 0x7 SWAP1 SLOAD SWAP1 PUSH2 0x100 EXP SWAP1 DIV PUSH1 0xFF AND PUSH2 0x436 JUMPI PUSH1 0x40 MLOAD PUSH32 0x8C379A000000000000000000000000000000000000000000000000000000000 DUP2 MSTORE PUSH1 0x4 ADD PUSH2 0x42D SWAP1 PUSH2 0x10A1 JUMP JUMPDEST PUSH1 0x40 MLOAD DUP1 SWAP2 SUB SWAP1 REVERT JUMPDEST PUSH0 PUSH1 0x1 PUSH0 DUP5 PUSH4 0xFFFFFFFF AND PUSH4 0xFFFFFFFF AND DUP2 MSTORE PUSH1 0x20 ADD SWAP1 DUP2 MSTORE PUSH1 0x20 ADD PUSH0 KECCAK256 SWAP1 POP DUP6 DUP2 PUSH1 0x1 ADD PUSH0 PUSH2 0x100 EXP DUP2 SLOAD DUP2 PUSH1 0xFF MUL NOT AND SWAP1 DUP4 PUSH1 0xFF AND MUL OR SWAP1 SSTORE POP DUP5 DUP2 PUSH1 0x1 ADD PUSH1 0x1 PUSH2 0x100 EXP DUP2 SLOAD DUP2 PUSH1 0xFF MUL NOT AND SWAP1 DUP4 PUSH1 0x2 DUP2 GT ISZERO PUSH2 0x499 JUMPI PUSH2 0x498 PUSH2 0xB83 JUMP JUMPDEST JUMPDEST MUL OR SWAP1 SSTORE POP DUP4 DUP2 PUSH1 0x1 ADD PUSH1 0x2 PUSH2 0x100 EXP DUP2 SLOAD DUP2 PUSH1 0xFF MUL NOT AND SWAP1 DUP4 PUSH1 0xFF AND MUL OR SWAP1 SSTORE POP POP POP POP POP POP POP JUMP JUMPDEST DUP1 PUSH1 0x1 PUSH0 DUP3 PUSH4 0xFFFFFFFF AND PUSH4 0xFFFFFFFF AND DUP2 MSTORE PUSH1 0x20 ADD SWAP1 DUP2 MSTORE PUSH1 0x20 ADD PUSH0 KECCAK256 PUSH1 0x1 ADD PUSH1 0x7 SWAP1 SLOAD SWAP1 PUSH2 0x100 EXP SWAP1 DIV PUSH1 0xFF AND PUSH2 0x531 JUMPI PUSH1 0x40 MLOAD PUSH32 0x8C379A000000000000000000000000000000000000000000000000000000000 DUP2 MSTORE PUSH1 0x4 ADD PUSH2 0x528 SWAP1 PUSH2 0x10A1 JUMP JUMPDEST PUSH1 0x40 MLOAD DUP1 SWAP2 SUB SWAP1 REVERT JUMPDEST PUSH0 PUSH1 0x1 PUSH0 DUP5 PUSH4 0xFFFFFFFF AND PUSH4 0xFFFFFFFF AND DUP2 MSTORE PUSH1 0x20 ADD SWAP1 DUP2 MSTORE PUSH1 0x20 ADD PUSH0 KECCAK256 SWAP1 POP DUP4 DUP2 PUSH0 ADD SWAP1 DUP2 PUSH2 0x561 SWAP2 SWAP1 PUSH2 0xF88 JUMP JUMPDEST POP POP POP POP POP JUMP JUMPDEST PUSH1 0x60 PUSH0 DUP1 PUSH0 DUP1 PUSH0 DUP1 SLOAD SWAP1 PUSH2 0x100 EXP SWAP1 DIV PUSH20 0xFFFFFFFFFFFFFFFFFFFFFFFFFFFFFFFFFFFFFFFF AND PUSH20 0xFFFFFFFFFFFFFFFFFFFFFFFFFFFFFFFFFFFFFFFF AND CALLER PUSH20 0xFFFFFFFFFFFFFFFFFFFFFFFFFFFFFFFFFFFFFFFF AND EQ PUSH2 0x5FB JUMPI PUSH1 0x40 MLOAD PUSH32 0x8C379A000000000000000000000000000000000000000000000000000000000 DUP2 MSTORE PUSH1 0x4 ADD PUSH2 0x5F2 SWAP1 PUSH2 0xCFF JUMP JUMPDEST PUSH1 0x40 MLOAD DUP1 SWAP2 SUB SWAP1 REVERT JUMPDEST PUSH0 PUSH1 0x1 PUSH0 DUP9 PUSH4 0xFFFFFFFF AND PUSH4 0xFFFFFFFF AND DUP2 MSTORE PUSH1 0x20 ADD SWAP1 DUP2 MSTORE PUSH1 0x20 ADD PUSH0 KECCAK256 PUSH1 0x40 MLOAD DUP1 PUSH1 0xC0 ADD PUSH1 0x40 MSTORE SWAP1 DUP2 PUSH0 DUP3 ADD DUP1 SLOAD PUSH2 0x633 SWAP1 PUSH2 0xDB2 JUMP JUMPDEST DUP1 PUSH1 0x1F ADD PUSH1 0x20 DUP1 SWAP2 DIV MUL PUSH1 0x20 ADD PUSH1 0x40 MLOAD SWAP1 DUP2 ADD PUSH1 0x40 MSTORE DUP1 SWAP3 SWAP2 SWAP1 DUP2 DUP2 MSTORE PUSH1 0x20 ADD DUP3 DUP1 SLOAD PUSH2 0x65F SWAP1 PUSH2 0xDB2 JUMP JUMPDEST DUP1 ISZERO PUSH2 0x6AA JUMPI DUP1 PUSH1 0x1F LT PUSH2 0x681 JUMPI PUSH2 0x100 DUP1 DUP4 SLOAD DIV MUL DUP4 MSTORE SWAP2 PUSH1 0x20 ADD SWAP2 PUSH2 0x6AA JUMP JUMPDEST DUP3 ADD SWAP2 SWAP1 PUSH0 MSTORE PUSH1 0x20 PUSH0 KECCAK256 SWAP1 JUMPDEST DUP2 SLOAD DUP2 MSTORE SWAP1 PUSH1 0x1 ADD SWAP1 PUSH1 0x20 ADD DUP1 DUP4 GT PUSH2 0x68D JUMPI DUP3 SWAP1 SUB PUSH1 0x1F AND DUP3 ADD SWAP2 JUMPDEST POP POP POP POP POP DUP2 MSTORE PUSH1 0x20 ADD PUSH1 0x1 DUP3 ADD PUSH0 SWAP1 SLOAD SWAP1 PUSH2 0x100 EXP SWAP1 DIV PUSH1 0xFF AND PUSH1 0xFF AND PUSH1 0xFF AND DUP2 MSTORE PUSH1 0x20 ADD PUSH1 0x1 DUP3 ADD PUSH1 0x1 SWAP1 SLOAD SWAP1 PUSH2 0x100 EXP SWAP1 DIV PUSH1 0xFF AND PUSH1 0x2 DUP2 GT ISZERO PUSH2 0x6F4 JUMPI PUSH2 0x6F3 PUSH2 0xB83 JUMP JUMPDEST JUMPDEST PUSH1 0x2 DUP2 GT ISZERO PUSH2 0x706 JUMPI PUSH2 0x705 PUSH2 0xB83 JUMP JUMPDEST JUMPDEST DUP2 MSTORE PUSH1 0x20 ADD PUSH1 0x1 DUP3 ADD PUSH1 0x2 SWAP1 SLOAD SWAP1 PUSH2 0x100 EXP SWAP1 DIV PUSH1 0xFF AND PUSH1 0xFF AND PUSH1 0xFF AND DUP2 MSTORE PUSH1 0x20 ADD PUSH1 0x1 DUP3 ADD PUSH1 0x3 SWAP1 SLOAD SWAP1 PUSH2 0x100 EXP SWAP1 DIV PUSH4 0xFFFFFFFF AND PUSH4 0xFFFFFFFF AND PUSH4 0xFFFFFFFF AND DUP2 MSTORE PUSH1 0x20 ADD PUSH1 0x1 DUP3 ADD PUSH1 0x7 SWAP1 SLOAD SWAP1 PUSH2 0x100 EXP SWAP1 DIV PUSH1 0xFF AND ISZERO ISZERO ISZERO ISZERO DUP2 MSTORE POP POP SWAP1 POP DUP1 PUSH0 ADD MLOAD DUP2 PUSH1 0x20 ADD MLOAD DUP3 PUSH1 0x40 ADD MLOAD DUP4 PUSH1 0x60 ADD MLOAD DUP5 PUSH1 0x80 ADD MLOAD SWAP6 POP SWAP6 POP SWAP6 POP SWAP6 POP SWAP6 POP POP SWAP2 SWAP4 SWAP6 SWAP1 SWAP3 SWAP5 POP JUMP JUMPDEST PUSH0 DUP1 SLOAD SWAP1 PUSH2 0x100 EXP SWAP1 DIV PUSH20 0xFFFFFFFFFFFFFFFFFFFFFFFFFFFFFFFFFFFFFFFF AND DUP2 JUMP JUMPDEST PUSH0 PUSH1 0x40 MLOAD SWAP1 POP SWAP1 JUMP JUMPDEST PUSH0 DUP1 REVERT JUMPDEST PUSH0 DUP1 REVERT JUMPDEST PUSH0 DUP1 REVERT JUMPDEST PUSH0 DUP1 REVERT JUMPDEST PUSH0 PUSH1 0x1F NOT PUSH1 0x1F DUP4 ADD AND SWAP1 POP SWAP2 SWAP1 POP JUMP JUMPDEST PUSH32 0x4E487B7100000000000000000000000000000000000000000000000000000000 PUSH0 MSTORE PUSH1 0x41 PUSH1 0x4 MSTORE PUSH1 0x24 PUSH0 REVERT JUMPDEST PUSH2 0x818 DUP3 PUSH2 0x7D2 JUMP JUMPDEST DUP2 ADD DUP2 DUP2 LT PUSH8 0xFFFFFFFFFFFFFFFF DUP3 GT OR ISZERO PUSH2 0x837 JUMPI PUSH2 0x836 PUSH2 0x7E2 JUMP JUMPDEST JUMPDEST DUP1 PUSH1 0x40 MSTORE POP POP POP JUMP JUMPDEST PUSH0 PUSH2 0x849 PUSH2 0x7B9 JUMP JUMPDEST SWAP1 POP PUSH2 0x855 DUP3 DUP3 PUSH2 0x80F JUMP JUMPDEST SWAP2 SWAP1 POP JUMP JUMPDEST PUSH0 PUSH8 0xFFFFFFFFFFFFFFFF DUP3 GT ISZERO PUSH2 0x874 JUMPI PUSH2 0x873 PUSH2 0x7E2 JUMP JUMPDEST JUMPDEST PUSH2 0x87D DUP3 PUSH2 0x7D2 JUMP JUMPDEST SWAP1 POP PUSH1 0x20 DUP2 ADD SWAP1 POP SWAP2 SWAP1 POP JUMP JUMPDEST DUP3 DUP2 DUP4 CALLDATACOPY PUSH0 DUP4 DUP4 ADD MSTORE POP POP POP JUMP JUMPDEST PUSH0 PUSH2 0x8AA PUSH2 0x8A5 DUP5 PUSH2 0x85A JUMP JUMPDEST PUSH2 0x840 JUMP JUMPDEST SWAP1 POP DUP3 DUP2 MSTORE PUSH1 0x20 DUP2 ADD DUP5 DUP5 DUP5 ADD GT ISZERO PUSH2 0x8C6 JUMPI PUSH2 0x8C5 PUSH2 0x7CE JUMP JUMPDEST JUMPDEST PUSH2 0x8D1 DUP5 DUP3 DUP6 PUSH2 0x88A JUMP JUMPDEST POP SWAP4 SWAP3 POP POP POP JUMP JUMPDEST PUSH0 DUP3 PUSH1 0x1F DUP4 ADD SLT PUSH2 0x8ED JUMPI PUSH2 0x8EC PUSH2 0x7CA JUMP JUMPDEST JUMPDEST DUP2 CALLDATALOAD PUSH2 0x8FD DUP5 DUP3 PUSH1 0x20 DUP7 ADD PUSH2 0x898 JUMP JUMPDEST SWAP2 POP POP SWAP3 SWAP2 POP POP JUMP JUMPDEST PUSH0 PUSH1 0xFF DUP3 AND SWAP1 POP SWAP2 SWAP1 POP JUMP JUMPDEST PUSH2 0x91B DUP2 PUSH2 0x906 JUMP JUMPDEST DUP2 EQ PUSH2 0x925 JUMPI PUSH0 DUP1 REVERT JUMPDEST POP JUMP JUMPDEST PUSH0 DUP2 CALLDATALOAD SWAP1 POP PUSH2 0x936 DUP2 PUSH2 0x912 JUMP JUMPDEST SWAP3 SWAP2 POP POP JUMP JUMPDEST PUSH1 0x3 DUP2 LT PUSH2 0x948 JUMPI PUSH0 DUP1 REVERT JUMPDEST POP JUMP JUMPDEST PUSH0 DUP2 CALLDATALOAD SWAP1 POP PUSH2 0x959 DUP2 PUSH2 0x93C JUMP JUMPDEST SWAP3 SWAP2 POP POP JUMP JUMPDEST PUSH0 PUSH4 0xFFFFFFFF DUP3 AND SWAP1 POP SWAP2 SWAP1 POP JUMP JUMPDEST PUSH2 0x977 DUP2 PUSH2 0x95F JUMP JUMPDEST DUP2 EQ PUSH2 0x981 JUMPI PUSH0 DUP1 REVERT JUMPDEST POP JUMP JUMPDEST PUSH0 DUP2 CALLDATALOAD SWAP1 POP PUSH2 0x992 DUP2 PUSH2 0x96E JUMP JUMPDEST SWAP3 SWAP2 POP POP JUMP JUMPDEST PUSH0 DUP1 PUSH0 DUP1 PUSH0 PUSH1 0xA0 DUP7 DUP9 SUB SLT ISZERO PUSH2 0x9B1 JUMPI PUSH2 0x9B0 PUSH2 0x7C2 JUMP JUMPDEST JUMPDEST PUSH0 DUP7 ADD CALLDATALOAD PUSH8 0xFFFFFFFFFFFFFFFF DUP2 GT ISZERO PUSH2 0x9CE JUMPI PUSH2 0x9CD PUSH2 0x7C6 JUMP JUMPDEST JUMPDEST PUSH2 0x9DA DUP9 DUP3 DUP10 ADD PUSH2 0x8D9 JUMP JUMPDEST SWAP6 POP POP PUSH1 0x20 PUSH2 0x9EB DUP9 DUP3 DUP10 ADD PUSH2 0x928 JUMP JUMPDEST SWAP5 POP POP PUSH1 0x40 PUSH2 0x9FC DUP9 DUP3 DUP10 ADD PUSH2 0x94B JUMP JUMPDEST SWAP4 POP POP PUSH1 0x60 PUSH2 0xA0D DUP9 DUP3 DUP10 ADD PUSH2 0x928 JUMP JUMPDEST SWAP3 POP POP PUSH1 0x80 PUSH2 0xA1E DUP9 DUP3 DUP10 ADD PUSH2 0x984 JUMP JUMPDEST SWAP2 POP POP SWAP3 SWAP6 POP SWAP3 SWAP6 SWAP1 SWAP4 POP JUMP JUMPDEST PUSH0 DUP1 PUSH0 DUP1 PUSH1 0x80 DUP6 DUP8 SUB SLT ISZERO PUSH2 0xA43 JUMPI PUSH2 0xA42 PUSH2 0x7C2 JUMP JUMPDEST JUMPDEST PUSH0 PUSH2 0xA50 DUP8 DUP3 DUP9 ADD PUSH2 0x928 JUMP JUMPDEST SWAP5 POP POP PUSH1 0x20 PUSH2 0xA61 DUP8 DUP3 DUP9 ADD PUSH2 0x94B JUMP JUMPDEST SWAP4 POP POP PUSH1 0x40 PUSH2 0xA72 DUP8 DUP3 DUP9 ADD PUSH2 0x928 JUMP JUMPDEST SWAP3 POP POP PUSH1 0x60 PUSH2 0xA83 DUP8 DUP3 DUP9 ADD PUSH2 0x984 JUMP JUMPDEST SWAP2 POP POP SWAP3 SWAP6 SWAP2 SWAP5 POP SWAP3 POP JUMP JUMPDEST PUSH0 DUP1 PUSH1 0x40 DUP4 DUP6 SUB SLT ISZERO PUSH2 0xAA5 JUMPI PUSH2 0xAA4 PUSH2 0x7C2 JUMP JUMPDEST JUMPDEST PUSH0 DUP4 ADD CALLDATALOAD PUSH8 0xFFFFFFFFFFFFFFFF DUP2 GT ISZERO PUSH2 0xAC2 JUMPI PUSH2 0xAC1 PUSH2 0x7C6 JUMP JUMPDEST JUMPDEST PUSH2 0xACE DUP6 DUP3 DUP7 ADD PUSH2 0x8D9 JUMP JUMPDEST SWAP3 POP POP PUSH1 0x20 PUSH2 0xADF DUP6 DUP3 DUP7 ADD PUSH2 0x984 JUMP JUMPDEST SWAP2 POP POP SWAP3 POP SWAP3 SWAP1 POP JUMP JUMPDEST PUSH0 PUSH1 0x20 DUP3 DUP5 SUB SLT ISZERO PUSH2 0xAFE JUMPI PUSH2 0xAFD PUSH2 0x7C2 JUMP JUMPDEST JUMPDEST PUSH0 PUSH2 0xB0B DUP5 DUP3 DUP6 ADD PUSH2 0x984 JUMP JUMPDEST SWAP2 POP POP SWAP3 SWAP2 POP POP JUMP JUMPDEST PUSH0 DUP2 MLOAD SWAP1 POP SWAP2 SWAP1 POP JUMP JUMPDEST PUSH0 DUP3 DUP3 MSTORE PUSH1 0x20 DUP3 ADD SWAP1 POP SWAP3 SWAP2 POP POP JUMP JUMPDEST DUP3 DUP2 DUP4 MCOPY PUSH0 DUP4 DUP4 ADD MSTORE POP POP POP JUMP JUMPDEST PUSH0 PUSH2 0xB46 DUP3 PUSH2 0xB14 JUMP JUMPDEST PUSH2 0xB50 DUP2 DUP6 PUSH2 0xB1E JUMP JUMPDEST SWAP4 POP PUSH2 0xB60 DUP2 DUP6 PUSH1 0x20 DUP7 ADD PUSH2 0xB2E JUMP JUMPDEST PUSH2 0xB69 DUP2 PUSH2 0x7D2 JUMP JUMPDEST DUP5 ADD SWAP2 POP POP SWAP3 SWAP2 POP POP JUMP JUMPDEST PUSH2 0xB7D DUP2 PUSH2 0x906 JUMP JUMPDEST DUP3 MSTORE POP POP JUMP JUMPDEST PUSH32 0x4E487B7100000000000000000000000000000000000000000000000000000000 PUSH0 MSTORE PUSH1 0x21 PUSH1 0x4 MSTORE PUSH1 0x24 PUSH0 REVERT JUMPDEST PUSH1 0x3 DUP2 LT PUSH2 0xBC1 JUMPI PUSH2 0xBC0 PUSH2 0xB83 JUMP JUMPDEST JUMPDEST POP JUMP JUMPDEST PUSH0 DUP2 SWAP1 POP PUSH2 0xBD1 DUP3 PUSH2 0xBB0 JUMP JUMPDEST SWAP2 SWAP1 POP JUMP JUMPDEST PUSH0 PUSH2 0xBE0 DUP3 PUSH2 0xBC4 JUMP JUMPDEST SWAP1 POP SWAP2 SWAP1 POP JUMP JUMPDEST PUSH2 0xBF0 DUP2 PUSH2 0xBD6 JUMP JUMPDEST DUP3 MSTORE POP POP JUMP JUMPDEST PUSH2 0xBFF DUP2 PUSH2 0x95F JUMP JUMPDEST DUP3 MSTORE POP POP JUMP JUMPDEST PUSH0 PUSH1 0xA0 DUP3 ADD SWAP1 POP DUP2 DUP2 SUB PUSH0 DUP4 ADD MSTORE PUSH2 0xC1D DUP2 DUP9 PUSH2 0xB3C JUMP JUMPDEST SWAP1 POP PUSH2 0xC2C PUSH1 0x20 DUP4 ADD DUP8 PUSH2 0xB74 JUMP JUMPDEST PUSH2 0xC39 PUSH1 0x40 DUP4 ADD DUP7 PUSH2 0xBE7 JUMP JUMPDEST PUSH2 0xC46 PUSH1 0x60 DUP4 ADD DUP6 PUSH2 0xB74 JUMP JUMPDEST PUSH2 0xC53 PUSH1 0x80 DUP4 ADD DUP5 PUSH2 0xBF6 JUMP JUMPDEST SWAP7 SWAP6 POP POP POP POP POP POP JUMP JUMPDEST PUSH0 PUSH20 0xFFFFFFFFFFFFFFFFFFFFFFFFFFFFFFFFFFFFFFFF DUP3 AND SWAP1 POP SWAP2 SWAP1 POP JUMP JUMPDEST PUSH0 PUSH2 0xC86 DUP3 PUSH2 0xC5D JUMP JUMPDEST SWAP1 POP SWAP2 SWAP1 POP JUMP JUMPDEST PUSH2 0xC96 DUP2 PUSH2 0xC7C JUMP JUMPDEST DUP3 MSTORE POP POP JUMP JUMPDEST PUSH0 PUSH1 0x20 DUP3 ADD SWAP1 POP PUSH2 0xCAF PUSH0 DUP4 ADD DUP5 PUSH2 0xC8D JUMP JUMPDEST SWAP3 SWAP2 POP POP JUMP JUMPDEST PUSH32 0x596F752063616E6E6F742061636365737320746869732046756E6374696F6E00 PUSH0 DUP3 ADD MSTORE POP JUMP JUMPDEST PUSH0 PUSH2 0xCE9 PUSH1 0x1F DUP4 PUSH2 0xB1E JUMP JUMPDEST SWAP2 POP PUSH2 0xCF4 DUP3 PUSH2 0xCB5 JUMP JUMPDEST PUSH1 0x20 DUP3 ADD SWAP1 POP SWAP2 SWAP1 POP JUMP JUMPDEST PUSH0 PUSH1 0x20 DUP3 ADD SWAP1 POP DUP2 DUP2 SUB PUSH0 DUP4 ADD MSTORE PUSH2 0xD16 DUP2 PUSH2 0xCDD JUMP JUMPDEST SWAP1 POP SWAP2 SWAP1 POP JUMP JUMPDEST PUSH32 0x526F6C6C206E756D62657220697320616C726561647920657869737473000000 PUSH0 DUP3 ADD MSTORE POP JUMP JUMPDEST PUSH0 PUSH2 0xD51 PUSH1 0x1D DUP4 PUSH2 0xB1E JUMP JUMPDEST SWAP2 POP PUSH2 0xD5C DUP3 PUSH2 0xD1D JUMP JUMPDEST PUSH1 0x20 DUP3 ADD SWAP1 POP SWAP2 SWAP1 POP JUMP JUMPDEST PUSH0 PUSH1 0x20 DUP3 ADD SWAP1 POP DUP2 DUP2 SUB PUSH0 DUP4 ADD MSTORE PUSH2 0xD7E DUP2 PUSH2 0xD45 JUMP JUMPDEST SWAP1 POP SWAP2 SWAP1 POP JUMP JUMPDEST PUSH32 0x4E487B7100000000000000000000000000000000000000000000000000000000 PUSH0 MSTORE PUSH1 0x22 PUSH1 0x4 MSTORE PUSH1 0x24 PUSH0 REVERT JUMPDEST PUSH0 PUSH1 0x2 DUP3 DIV SWAP1 POP PUSH1 0x1 DUP3 AND DUP1 PUSH2 0xDC9 JUMPI PUSH1 0x7F DUP3 AND SWAP2 POP JUMPDEST PUSH1 0x20 DUP3 LT DUP2 SUB PUSH2 0xDDC JUMPI PUSH2 0xDDB PUSH2 0xD85 JUMP JUMPDEST JUMPDEST POP SWAP2 SWAP1 POP JUMP JUMPDEST PUSH0 DUP2 SWAP1 POP DUP2 PUSH0 MSTORE PUSH1 0x20 PUSH0 KECCAK256 SWAP1 POP SWAP2 SWAP1 POP JUMP JUMPDEST PUSH0 PUSH1 0x20 PUSH1 0x1F DUP4 ADD DIV SWAP1 POP SWAP2 SWAP1 POP JUMP JUMPDEST PUSH0 DUP3 DUP3 SHL SWAP1 POP SWAP3 SWAP2 POP POP JUMP JUMPDEST PUSH0 PUSH1 0x8 DUP4 MUL PUSH2 0xE3E PUSH32 0xFFFFFFFFFFFFFFFFFFFFFFFFFFFFFFFFFFFFFFFFFFFFFFFFFFFFFFFFFFFFFFFF DUP3 PUSH2 0xE03 JUMP JUMPDEST PUSH2 0xE48 DUP7 DUP4 PUSH2 0xE03 JUMP JUMPDEST SWAP6 POP DUP1 NOT DUP5 AND SWAP4 POP DUP1 DUP7 AND DUP5 OR SWAP3 POP POP POP SWAP4 SWAP3 POP POP POP JUMP JUMPDEST PUSH0 DUP2 SWAP1 POP SWAP2 SWAP1 POP JUMP JUMPDEST PUSH0 DUP2 SWAP1 POP SWAP2 SWAP1 POP JUMP JUMPDEST PUSH0 PUSH2 0xE8C PUSH2 0xE87 PUSH2 0xE82 DUP5 PUSH2 0xE60 JUMP JUMPDEST PUSH2 0xE69 JUMP JUMPDEST PUSH2 0xE60 JUMP JUMPDEST SWAP1 POP SWAP2 SWAP1 POP JUMP JUMPDEST PUSH0 DUP2 SWAP1 POP SWAP2 SWAP1 POP JUMP JUMPDEST PUSH2 0xEA5 DUP4 PUSH2 0xE72 JUMP JUMPDEST PUSH2 0xEB9 PUSH2 0xEB1 DUP3 PUSH2 0xE93 JUMP JUMPDEST DUP5 DUP5 SLOAD PUSH2 0xE0F JUMP JUMPDEST DUP3 SSTORE POP POP POP POP JUMP JUMPDEST PUSH0 SWAP1 JUMP JUMPDEST PUSH2 0xECD PUSH2 0xEC1 JUMP JUMPDEST PUSH2 0xED8 DUP2 DUP5 DUP5 PUSH2 0xE9C JUMP JUMPDEST POP POP POP JUMP JUMPDEST JUMPDEST DUP2 DUP2 LT ISZERO PUSH2 0xEFB JUMPI PUSH2 0xEF0 PUSH0 DUP3 PUSH2 0xEC5 JUMP JUMPDEST PUSH1 0x1 DUP2 ADD SWAP1 POP PUSH2 0xEDE JUMP JUMPDEST POP POP JUMP JUMPDEST PUSH1 0x1F DUP3 GT ISZERO PUSH2 0xF40 JUMPI PUSH2 0xF11 DUP2 PUSH2 0xDE2 JUMP JUMPDEST PUSH2 0xF1A DUP5 PUSH2 0xDF4 JUMP JUMPDEST DUP2 ADD PUSH1 0x20 DUP6 LT ISZERO PUSH2 0xF29 JUMPI DUP2 SWAP1 POP JUMPDEST PUSH2 0xF3D PUSH2 0xF35 DUP6 PUSH2 0xDF4 JUMP JUMPDEST DUP4 ADD DUP3 PUSH2 0xEDD JUMP JUMPDEST POP POP JUMPDEST POP POP POP JUMP JUMPDEST PUSH0 DUP3 DUP3 SHR SWAP1 POP SWAP3 SWAP2 POP POP JUMP JUMPDEST PUSH0 PUSH2 0xF60 PUSH0 NOT DUP5 PUSH1 0x8 MUL PUSH2 0xF45 JUMP JUMPDEST NOT DUP1 DUP4 AND SWAP2 POP POP SWAP3 SWAP2 POP POP JUMP JUMPDEST PUSH0 PUSH2 0xF78 DUP4 DUP4 PUSH2 0xF51 JUMP JUMPDEST SWAP2 POP DUP3 PUSH1 0x2 MUL DUP3 OR SWAP1 POP SWAP3 SWAP2 POP POP JUMP JUMPDEST PUSH2 0xF91 DUP3 PUSH2 0xB14 JUMP JUMPDEST PUSH8 0xFFFFFFFFFFFFFFFF DUP2 GT ISZERO PUSH2 0xFAA JUMPI PUSH2 0xFA9 PUSH2 0x7E2 JUMP JUMPDEST JUMPDEST PUSH2 0xFB4 DUP3 SLOAD PUSH2 0xDB2 JUMP JUMPDEST PUSH2 0xFBF DUP3 DUP3 DUP6 PUSH2 0xEFF JUMP JUMPDEST PUSH0 PUSH1 0x20 SWAP1 POP PUSH1 0x1F DUP4 GT PUSH1 0x1 DUP2 EQ PUSH2 0xFF0 JUMPI PUSH0 DUP5 ISZERO PUSH2 0xFDE JUMPI DUP3 DUP8 ADD MLOAD SWAP1 POP JUMPDEST PUSH2 0xFE8 DUP6 DUP3 PUSH2 0xF6D JUMP JUMPDEST DUP7 SSTORE POP PUSH2 0x104F JUMP JUMPDEST PUSH1 0x1F NOT DUP5 AND PUSH2 0xFFE DUP7 PUSH2 0xDE2 JUMP JUMPDEST PUSH0 JUMPDEST DUP3 DUP2 LT ISZERO PUSH2 0x1025 JUMPI DUP5 DUP10 ADD MLOAD DUP3 SSTORE PUSH1 0x1 DUP3 ADD SWAP2 POP PUSH1 0x20 DUP6 ADD SWAP5 POP PUSH1 0x20 DUP2 ADD SWAP1 POP PUSH2 0x1000 JUMP JUMPDEST DUP7 DUP4 LT ISZERO PUSH2 0x1042 JUMPI DUP5 DUP10 ADD MLOAD PUSH2 0x103E PUSH1 0x1F DUP10 AND DUP3 PUSH2 0xF51 JUMP JUMPDEST DUP4 SSTORE POP JUMPDEST PUSH1 0x1 PUSH1 0x2 DUP9 MUL ADD DUP9 SSTORE POP POP POP JUMPDEST POP POP POP POP POP POP JUMP JUMPDEST PUSH32 0x526F6C6C204E756D62657220646F6573206E6F74206578697374000000000000 PUSH0 DUP3 ADD MSTORE POP JUMP JUMPDEST PUSH0 PUSH2 0x108B PUSH1 0x1A DUP4 PUSH2 0xB1E JUMP JUMPDEST SWAP2 POP PUSH2 0x1096 DUP3 PUSH2 0x1057 JUMP JUMPDEST PUSH1 0x20 DUP3 ADD SWAP1 POP SWAP2 SWAP1 POP JUMP JUMPDEST PUSH0 PUSH1 0x20 DUP3 ADD SWAP1 POP DUP2 DUP2 SUB PUSH0 DUP4 ADD MSTORE PUSH2 0x10B8 DUP2 PUSH2 0x107F JUMP JUMPDEST SWAP1 POP SWAP2 SWAP1 POP JUMP INVALID LOG2 PUSH5 0x6970667358 0x22 SLT KECCAK256 BASEFEE 0xEB 0xFB 0xF PUSH28 0x5B666173D1D15EDDA73E611D001FB57C62BA3EEBC81A6A39B9A3664 PUSH20 0x6F6C634300081A00330000000000000000000000 "
				},
				"gasEstimates": {
					"creation": {
						"codeDepositCost": "868200",
						"executionCost": "25166",
						"totalCost": "893366"
					},
					"external": {
						"addStudent(string,uint8,uint8,uint8,uint32)": "infinite",
						"editData(uint8,uint8,uint8,uint32)": "infinite",
						"editName(string,uint32)": "infinite",
						"getStudent(uint32)": "infinite",
						"staffadvisor()": "2571"
					}
				},
				"methodIdentifiers": {
					"addStudent(string,uint8,uint8,uint8,uint32)": "2055f8d5",
					"editData(uint8,uint8,uint8,uint32)": "88fe1e83",
					"editName(string,uint32)": "bd34cdca",
					"getStudent(uint32)": "ea2f9f41",
					"staffadvisor()": "fe6674bf"
				}
			},
			"storageLayout": {
				"storage": [
					{
						"astId": 7,
						"contract": "StudentMS.sol:SMS",
						"label": "staffadvisor",
						"offset": 0,
						"slot": "0",
						"type": "t_address"
					},
					{
						"astId": 26,
						"contract": "StudentMS.sol:SMS",
						"label": "studentDetails",
						"offset": 0,
						"slot": "1",
						"type": "t_mapping(t_uint32,t_struct(Student)21_storage)"
					}
				],
				"types": {
					"t_address": {
						"encoding": "inplace",
						"label": "address",
						"numberOfBytes": "20"
					},
					"t_bool": {
						"encoding": "inplace",
						"label": "bool",
						"numberOfBytes": "1"
					},
					"t_enum(Department)5": {
						"encoding": "inplace",
						"label": "enum SMS.Department",
						"numberOfBytes": "1"
					},
					"t_mapping(t_uint32,t_struct(Student)21_storage)": {
						"encoding": "mapping",
						"key": "t_uint32",
						"label": "mapping(uint32 => struct SMS.Student)",
						"numberOfBytes": "32",
						"value": "t_struct(Student)21_storage"
					},
					"t_string_storage": {
						"encoding": "bytes",
						"label": "string",
						"numberOfBytes": "32"
					},
					"t_struct(Student)21_storage": {
						"encoding": "inplace",
						"label": "struct SMS.Student",
						"members": [
							{
								"astId": 9,
								"contract": "StudentMS.sol:SMS",
								"label": "name",
								"offset": 0,
								"slot": "0",
								"type": "t_string_storage"
							},
							{
								"astId": 11,
								"contract": "StudentMS.sol:SMS",
								"label": "sem",
								"offset": 0,
								"slot": "1",
								"type": "t_uint8"
							},
							{
								"astId": 14,
								"contract": "StudentMS.sol:SMS",
								"label": "dept",
								"offset": 1,
								"slot": "1",
								"type": "t_enum(Department)5"
							},
							{
								"astId": 16,
								"contract": "StudentMS.sol:SMS",
								"label": "CGPA",
								"offset": 2,
								"slot": "1",
								"type": "t_uint8"
							},
							{
								"astId": 18,
								"contract": "StudentMS.sol:SMS",
								"label": "rollno",
								"offset": 3,
								"slot": "1",
								"type": "t_uint32"
							},
							{
								"astId": 20,
								"contract": "StudentMS.sol:SMS",
								"label": "exist",
								"offset": 7,
								"slot": "1",
								"type": "t_bool"
							}
						],
						"numberOfBytes": "64"
					},
					"t_uint32": {
						"encoding": "inplace",
						"label": "uint32",
						"numberOfBytes": "4"
					},
					"t_uint8": {
						"encoding": "inplace",
						"label": "uint8",
						"numberOfBytes": "1"
					}
				}
			},
			"userdoc": {
				"kind": "user",
				"methods": {},
				"version": 1
			}
		}
	}
}