{
	"Cirti.sol": {
		"Cirti": {
			"abi": [
				{
					"inputs": [],
					"stateMutability": "nonpayable",
					"type": "constructor"
				},
				{
					"inputs": [
						{
							"internalType": "uint256",
							"name": "",
							"type": "uint256"
						}
					],
					"name": "cirty",
					"outputs": [
						{
							"internalType": "string",
							"name": "name",
							"type": "string"
						},
						{
							"internalType": "string",
							"name": "course",
							"type": "string"
						},
						{
							"internalType": "string",
							"name": "grade",
							"type": "string"
						},
						{
							"internalType": "string",
							"name": "date",
							"type": "string"
						}
					],
					"stateMutability": "view",
					"type": "function"
				},
				{
					"inputs": [
						{
							"internalType": "uint256",
							"name": "_id",
							"type": "uint256"
						},
						{
							"internalType": "string",
							"name": "_name",
							"type": "string"
						},
						{
							"internalType": "string",
							"name": "_course",
							"type": "string"
						},
						{
							"internalType": "string",
							"name": "_grade",
							"type": "string"
						},
						{
							"internalType": "string",
							"name": "_date",
							"type": "string"
						}
					],
					"name": "issue",
					"outputs": [],
					"stateMutability": "nonpayable",
					"type": "function"
				}
			],
			"devdoc": {
				"kind": "dev",
				"methods": {},
				"version": 1
			},
			"evm": {
				"assembly": "    /* \"Cirti.sol\":57:719  contract Cirti {... */\n  mstore(0x40, 0x80)\n    /* \"Cirti.sol\":233:281  constructor(){... */\n  callvalue\n  dup1\n  iszero\n  tag_1\n  jumpi\n  0x00\n  dup1\n  revert\ntag_1:\n  pop\n    /* \"Cirti.sol\":264:274  msg.sender */\n  caller\n    /* \"Cirti.sol\":256:261  admin */\n  0x00\n  dup1\n    /* \"Cirti.sol\":256:274  admin = msg.sender */\n  0x0100\n  exp\n  dup2\n  sload\n  dup2\n  0xffffffffffffffffffffffffffffffffffffffff\n  mul\n  not\n  and\n  swap1\n  dup4\n  0xffffffffffffffffffffffffffffffffffffffff\n  and\n  mul\n  or\n  swap1\n  sstore\n  pop\n    /* \"Cirti.sol\":57:719  contract Cirti {... */\n  dataSize(sub_0)\n  dup1\n  dataOffset(sub_0)\n  0x00\n  codecopy\n  0x00\n  return\nstop\n\nsub_0: assembly {\n        /* \"Cirti.sol\":57:719  contract Cirti {... */\n      mstore(0x40, 0x80)\n      callvalue\n      dup1\n      iszero\n      tag_1\n      jumpi\n      0x00\n      dup1\n      revert\n    tag_1:\n      pop\n      jumpi(tag_2, lt(calldatasize, 0x04))\n      shr(0xe0, calldataload(0x00))\n      dup1\n      0xc6895e20\n      eq\n      tag_3\n      jumpi\n      dup1\n      0xd1e7be26\n      eq\n      tag_4\n      jumpi\n    tag_2:\n      0x00\n      dup1\n      revert\n        /* \"Cirti.sol\":287:331  mapping (uint256 => cirtificate)public cirty */\n    tag_3:\n      tag_5\n      0x04\n      dup1\n      calldatasize\n      sub\n      dup2\n      add\n      swap1\n      tag_6\n      swap2\n      swap1\n      tag_7\n      jump\t// in\n    tag_6:\n      tag_8\n      jump\t// in\n    tag_5:\n      mload(0x40)\n      tag_9\n      swap5\n      swap4\n      swap3\n      swap2\n      swap1\n      tag_10\n      jump\t// in\n    tag_9:\n      mload(0x40)\n      dup1\n      swap2\n      sub\n      swap1\n      return\n        /* \"Cirti.sol\":441:716  function issue(uint256 _id,string memory _name,string memory _course,string memory _grade,string memory _date)public onlyadmin{... */\n    tag_4:\n      tag_11\n      0x04\n      dup1\n      calldatasize\n      sub\n      dup2\n      add\n      swap1\n      tag_12\n      swap2\n      swap1\n      tag_13\n      jump\t// in\n    tag_12:\n      tag_14\n      jump\t// in\n    tag_11:\n      stop\n        /* \"Cirti.sol\":287:331  mapping (uint256 => cirtificate)public cirty */\n    tag_8:\n      mstore(0x20, 0x01)\n      dup1\n      0x00\n      mstore\n      keccak256(0x00, 0x40)\n      0x00\n      swap2\n      pop\n      swap1\n      pop\n      dup1\n      0x00\n      add\n      dup1\n      sload\n      tag_15\n      swap1\n      tag_16\n      jump\t// in\n    tag_15:\n      dup1\n      0x1f\n      add\n      0x20\n      dup1\n      swap2\n      div\n      mul\n      0x20\n      add\n      mload(0x40)\n      swap1\n      dup2\n      add\n      0x40\n      mstore\n      dup1\n      swap3\n      swap2\n      swap1\n      dup2\n      dup2\n      mstore\n      0x20\n      add\n      dup3\n      dup1\n      sload\n      tag_17\n      swap1\n      tag_16\n      jump\t// in\n    tag_17:\n      dup1\n      iszero\n      tag_18\n      jumpi\n      dup1\n      0x1f\n      lt\n      tag_19\n      jumpi\n      0x0100\n      dup1\n      dup4\n      sload\n      div\n      mul\n      dup4\n      mstore\n      swap2\n      0x20\n      add\n      swap2\n      jump(tag_18)\n    tag_19:\n      dup3\n      add\n      swap2\n      swap1\n      0x00\n      mstore\n      keccak256(0x00, 0x20)\n      swap1\n    tag_20:\n      dup2\n      sload\n      dup2\n      mstore\n      swap1\n      0x01\n      add\n      swap1\n      0x20\n      add\n      dup1\n      dup4\n      gt\n      tag_20\n      jumpi\n      dup3\n      swap1\n      sub\n      0x1f\n      and\n      dup3\n      add\n      swap2\n    tag_18:\n      pop\n      pop\n      pop\n      pop\n      pop\n      swap1\n      dup1\n      0x01\n      add\n      dup1\n      sload\n      tag_21\n      swap1\n      tag_16\n      jump\t// in\n    tag_21:\n      dup1\n      0x1f\n      add\n      0x20\n      dup1\n      swap2\n      div\n      mul\n      0x20\n      add\n      mload(0x40)\n      swap1\n      dup2\n      add\n      0x40\n      mstore\n      dup1\n      swap3\n      swap2\n      swap1\n      dup2\n      dup2\n      mstore\n      0x20\n      add\n      dup3\n      dup1\n      sload\n      tag_22\n      swap1\n      tag_16\n      jump\t// in\n    tag_22:\n      dup1\n      iszero\n      tag_23\n      jumpi\n      dup1\n      0x1f\n      lt\n      tag_24\n      jumpi\n      0x0100\n      dup1\n      dup4\n      sload\n      div\n      mul\n      dup4\n      mstore\n      swap2\n      0x20\n      add\n      swap2\n      jump(tag_23)\n    tag_24:\n      dup3\n      add\n      swap2\n      swap1\n      0x00\n      mstore\n      keccak256(0x00, 0x20)\n      swap1\n    tag_25:\n      dup2\n      sload\n      dup2\n      mstore\n      swap1\n      0x01\n      add\n      swap1\n      0x20\n      add\n      dup1\n      dup4\n      gt\n      tag_25\n      jumpi\n      dup3\n      swap1\n      sub\n      0x1f\n      and\n      dup3\n      add\n      swap2\n    tag_23:\n      pop\n      pop\n      pop\n      pop\n      pop\n      swap1\n      dup1\n      0x02\n      add\n      dup1\n      sload\n      tag_26\n      swap1\n      tag_16\n      jump\t// in\n    tag_26:\n      dup1\n      0x1f\n      add\n      0x20\n      dup1\n      swap2\n      div\n      mul\n      0x20\n      add\n      mload(0x40)\n      swap1\n      dup2\n      add\n      0x40\n      mstore\n      dup1\n      swap3\n      swap2\n      swap1\n      dup2\n      dup2\n      mstore\n      0x20\n      add\n      dup3\n      dup1\n      sload\n      tag_27\n      swap1\n      tag_16\n      jump\t// in\n    tag_27:\n      dup1\n      iszero\n      tag_28\n      jumpi\n      dup1\n      0x1f\n      lt\n      tag_29\n      jumpi\n      0x0100\n      dup1\n      dup4\n      sload\n      div\n      mul\n      dup4\n      mstore\n      swap2\n      0x20\n      add\n      swap2\n      jump(tag_28)\n    tag_29:\n      dup3\n      add\n      swap2\n      swap1\n      0x00\n      mstore\n      keccak256(0x00, 0x20)\n      swap1\n    tag_30:\n      dup2\n      sload\n      dup2\n      mstore\n      swap1\n      0x01\n      add\n      swap1\n      0x20\n      add\n      dup1\n      dup4\n      gt\n      tag_30\n      jumpi\n      dup3\n      swap1\n      sub\n      0x1f\n      and\n      dup3\n      add\n      swap2\n    tag_28:\n      pop\n      pop\n      pop\n      pop\n      pop\n      swap1\n      dup1\n      0x03\n      add\n      dup1\n      sload\n      tag_31\n      swap1\n      tag_16\n      jump\t// in\n    tag_31:\n      dup1\n      0x1f\n      add\n      0x20\n      dup1\n      swap2\n      div\n      mul\n      0x20\n      add\n      mload(0x40)\n      swap1\n      dup2\n      add\n      0x40\n      mstore\n      dup1\n      swap3\n      swap2\n      swap1\n      dup2\n      dup2\n      mstore\n      0x20\n      add\n      dup3\n      dup1\n      sload\n      tag_32\n      swap1\n      tag_16\n      jump\t// in\n    tag_32:\n      dup1\n      iszero\n      tag_33\n      jumpi\n      dup1\n      0x1f\n      lt\n      tag_34\n      jumpi\n      0x0100\n      dup1\n      dup4\n      sload\n      div\n      mul\n      dup4\n      mstore\n      swap2\n      0x20\n      add\n      swap2\n      jump(tag_33)\n    tag_34:\n      dup3\n      add\n      swap2\n      swap1\n      0x00\n      mstore\n      keccak256(0x00, 0x20)\n      swap1\n    tag_35:\n      dup2\n      sload\n      dup2\n      mstore\n      swap1\n      0x01\n      add\n      swap1\n      0x20\n      add\n      dup1\n      dup4\n      gt\n      tag_35\n      jumpi\n      dup3\n      swap1\n      sub\n      0x1f\n      and\n      dup3\n      add\n      swap2\n    tag_33:\n      pop\n      pop\n      pop\n      pop\n      pop\n      swap1\n      pop\n      dup5\n      jump\t// out\n        /* \"Cirti.sol\":441:716  function issue(uint256 _id,string memory _name,string memory _course,string memory _grade,string memory _date)public onlyadmin{... */\n    tag_14:\n        /* \"Cirti.sol\":389:394  admin */\n      0x00\n      dup1\n      sload\n      swap1\n      0x0100\n      exp\n      swap1\n      div\n      0xffffffffffffffffffffffffffffffffffffffff\n      and\n        /* \"Cirti.sol\":376:394  msg.sender== admin */\n      0xffffffffffffffffffffffffffffffffffffffff\n      and\n        /* \"Cirti.sol\":376:386  msg.sender */\n      caller\n        /* \"Cirti.sol\":376:394  msg.sender== admin */\n      0xffffffffffffffffffffffffffffffffffffffff\n      and\n      eq\n        /* \"Cirti.sol\":368:417  require(msg.sender== admin,\"Unautherized access\") */\n      tag_37\n      jumpi\n      mload(0x40)\n      0x08c379a000000000000000000000000000000000000000000000000000000000\n      dup2\n      mstore\n      0x04\n      add\n      tag_38\n      swap1\n      tag_39\n      jump\t// in\n    tag_38:\n      mload(0x40)\n      dup1\n      swap2\n      sub\n      swap1\n      revert\n    tag_37:\n        /* \"Cirti.sol\":618:619  0 */\n      0x00\n        /* \"Cirti.sol\":591:596  cirty */\n      0x01\n        /* \"Cirti.sol\":591:601  cirty[_id] */\n      0x00\n        /* \"Cirti.sol\":597:600  _id */\n      dup8\n        /* \"Cirti.sol\":591:601  cirty[_id] */\n      dup2\n      mstore\n      0x20\n      add\n      swap1\n      dup2\n      mstore\n      0x20\n      add\n      0x00\n      keccak256\n        /* \"Cirti.sol\":591:606  cirty[_id].name */\n      0x00\n      add\n        /* \"Cirti.sol\":585:614  bytes(cirty[_id].name).length */\n      dup1\n      sload\n      tag_41\n      swap1\n      tag_16\n      jump\t// in\n    tag_41:\n      swap1\n      pop\n        /* \"Cirti.sol\":585:619  bytes(cirty[_id].name).length == 0 */\n      eq\n        /* \"Cirti.sol\":577:648  require(bytes(cirty[_id].name).length == 0,\"cirtificate already exist\") */\n      tag_42\n      jumpi\n      mload(0x40)\n      0x08c379a000000000000000000000000000000000000000000000000000000000\n      dup2\n      mstore\n      0x04\n      add\n      tag_43\n      swap1\n      tag_44\n      jump\t// in\n    tag_43:\n      mload(0x40)\n      dup1\n      swap2\n      sub\n      swap1\n      revert\n    tag_42:\n        /* \"Cirti.sol\":670:709  cirtificate(_name,_course,_grade,_date) */\n      mload(0x40)\n      dup1\n      0x80\n      add\n      0x40\n      mstore\n      dup1\n        /* \"Cirti.sol\":682:687  _name */\n      dup6\n        /* \"Cirti.sol\":670:709  cirtificate(_name,_course,_grade,_date) */\n      dup2\n      mstore\n      0x20\n      add\n        /* \"Cirti.sol\":688:695  _course */\n      dup5\n        /* \"Cirti.sol\":670:709  cirtificate(_name,_course,_grade,_date) */\n      dup2\n      mstore\n      0x20\n      add\n        /* \"Cirti.sol\":696:702  _grade */\n      dup4\n        /* \"Cirti.sol\":670:709  cirtificate(_name,_course,_grade,_date) */\n      dup2\n      mstore\n      0x20\n      add\n        /* \"Cirti.sol\":703:708  _date */\n      dup3\n        /* \"Cirti.sol\":670:709  cirtificate(_name,_course,_grade,_date) */\n      dup2\n      mstore\n      pop\n        /* \"Cirti.sol\":658:663  cirty */\n      0x01\n        /* \"Cirti.sol\":658:669  cirty [_id] */\n      0x00\n        /* \"Cirti.sol\":665:668  _id */\n      dup8\n        /* \"Cirti.sol\":658:669  cirty [_id] */\n      dup2\n      mstore\n      0x20\n      add\n      swap1\n      dup2\n      mstore\n      0x20\n      add\n      0x00\n      keccak256\n        /* \"Cirti.sol\":658:709  cirty [_id]=cirtificate(_name,_course,_grade,_date) */\n      0x00\n      dup3\n      add\n      mload\n      dup2\n      0x00\n      add\n      swap1\n      dup2\n      tag_45\n      swap2\n      swap1\n      tag_46\n      jump\t// in\n    tag_45:\n      pop\n      0x20\n      dup3\n      add\n      mload\n      dup2\n      0x01\n      add\n      swap1\n      dup2\n      tag_47\n      swap2\n      swap1\n      tag_46\n      jump\t// in\n    tag_47:\n      pop\n      0x40\n      dup3\n      add\n      mload\n      dup2\n      0x02\n      add\n      swap1\n      dup2\n      tag_48\n      swap2\n      swap1\n      tag_46\n      jump\t// in\n    tag_48:\n      pop\n      0x60\n      dup3\n      add\n      mload\n      dup2\n      0x03\n      add\n      swap1\n      dup2\n      tag_49\n      swap2\n      swap1\n      tag_46\n      jump\t// in\n    tag_49:\n      pop\n      swap1\n      pop\n      pop\n        /* \"Cirti.sol\":441:716  function issue(uint256 _id,string memory _name,string memory _course,string memory _grade,string memory _date)public onlyadmin{... */\n      pop\n      pop\n      pop\n      pop\n      pop\n      jump\t// out\n        /* \"#utility.yul\":7:82   */\n    tag_50:\n        /* \"#utility.yul\":40:46   */\n      0x00\n        /* \"#utility.yul\":73:75   */\n      0x40\n        /* \"#utility.yul\":67:76   */\n      mload\n        /* \"#utility.yul\":57:76   */\n      swap1\n      pop\n        /* \"#utility.yul\":7:82   */\n      swap1\n      jump\t// out\n        /* \"#utility.yul\":88:205   */\n    tag_51:\n        /* \"#utility.yul\":197:198   */\n      0x00\n        /* \"#utility.yul\":194:195   */\n      dup1\n        /* \"#utility.yul\":187:199   */\n      revert\n        /* \"#utility.yul\":211:328   */\n    tag_52:\n        /* \"#utility.yul\":320:321   */\n      0x00\n        /* \"#utility.yul\":317:318   */\n      dup1\n        /* \"#utility.yul\":310:322   */\n      revert\n        /* \"#utility.yul\":334:411   */\n    tag_53:\n        /* \"#utility.yul\":371:378   */\n      0x00\n        /* \"#utility.yul\":400:405   */\n      dup2\n        /* \"#utility.yul\":389:405   */\n      swap1\n      pop\n        /* \"#utility.yul\":334:411   */\n      swap2\n      swap1\n      pop\n      jump\t// out\n        /* \"#utility.yul\":417:539   */\n    tag_54:\n        /* \"#utility.yul\":490:514   */\n      tag_96\n        /* \"#utility.yul\":508:513   */\n      dup2\n        /* \"#utility.yul\":490:514   */\n      tag_53\n      jump\t// in\n    tag_96:\n        /* \"#utility.yul\":483:488   */\n      dup2\n        /* \"#utility.yul\":480:515   */\n      eq\n        /* \"#utility.yul\":470:533   */\n      tag_97\n      jumpi\n        /* \"#utility.yul\":529:530   */\n      0x00\n        /* \"#utility.yul\":526:527   */\n      dup1\n        /* \"#utility.yul\":519:531   */\n      revert\n        /* \"#utility.yul\":470:533   */\n    tag_97:\n        /* \"#utility.yul\":417:539   */\n      pop\n      jump\t// out\n        /* \"#utility.yul\":545:684   */\n    tag_55:\n        /* \"#utility.yul\":591:596   */\n      0x00\n        /* \"#utility.yul\":629:635   */\n      dup2\n        /* \"#utility.yul\":616:636   */\n      calldataload\n        /* \"#utility.yul\":607:636   */\n      swap1\n      pop\n        /* \"#utility.yul\":645:678   */\n      tag_99\n        /* \"#utility.yul\":672:677   */\n      dup2\n        /* \"#utility.yul\":645:678   */\n      tag_54\n      jump\t// in\n    tag_99:\n        /* \"#utility.yul\":545:684   */\n      swap3\n      swap2\n      pop\n      pop\n      jump\t// out\n        /* \"#utility.yul\":690:1019   */\n    tag_7:\n        /* \"#utility.yul\":749:755   */\n      0x00\n        /* \"#utility.yul\":798:800   */\n      0x20\n        /* \"#utility.yul\":786:795   */\n      dup3\n        /* \"#utility.yul\":777:784   */\n      dup5\n        /* \"#utility.yul\":773:796   */\n      sub\n        /* \"#utility.yul\":769:801   */\n      slt\n        /* \"#utility.yul\":766:885   */\n      iszero\n      tag_101\n      jumpi\n        /* \"#utility.yul\":804:883   */\n      tag_102\n      tag_51\n      jump\t// in\n    tag_102:\n        /* \"#utility.yul\":766:885   */\n    tag_101:\n        /* \"#utility.yul\":924:925   */\n      0x00\n        /* \"#utility.yul\":949:1002   */\n      tag_103\n        /* \"#utility.yul\":994:1001   */\n      dup5\n        /* \"#utility.yul\":985:991   */\n      dup3\n        /* \"#utility.yul\":974:983   */\n      dup6\n        /* \"#utility.yul\":970:992   */\n      add\n        /* \"#utility.yul\":949:1002   */\n      tag_55\n      jump\t// in\n    tag_103:\n        /* \"#utility.yul\":939:1002   */\n      swap2\n      pop\n        /* \"#utility.yul\":895:1012   */\n      pop\n        /* \"#utility.yul\":690:1019   */\n      swap3\n      swap2\n      pop\n      pop\n      jump\t// out\n        /* \"#utility.yul\":1025:1124   */\n    tag_56:\n        /* \"#utility.yul\":1077:1083   */\n      0x00\n        /* \"#utility.yul\":1111:1116   */\n      dup2\n        /* \"#utility.yul\":1105:1117   */\n      mload\n        /* \"#utility.yul\":1095:1117   */\n      swap1\n      pop\n        /* \"#utility.yul\":1025:1124   */\n      swap2\n      swap1\n      pop\n      jump\t// out\n        /* \"#utility.yul\":1130:1299   */\n    tag_57:\n        /* \"#utility.yul\":1214:1225   */\n      0x00\n        /* \"#utility.yul\":1248:1254   */\n      dup3\n        /* \"#utility.yul\":1243:1246   */\n      dup3\n        /* \"#utility.yul\":1236:1255   */\n      mstore\n        /* \"#utility.yul\":1288:1292   */\n      0x20\n        /* \"#utility.yul\":1283:1286   */\n      dup3\n        /* \"#utility.yul\":1279:1293   */\n      add\n        /* \"#utility.yul\":1264:1293   */\n      swap1\n      pop\n        /* \"#utility.yul\":1130:1299   */\n      swap3\n      swap2\n      pop\n      pop\n      jump\t// out\n        /* \"#utility.yul\":1305:1444   */\n    tag_58:\n        /* \"#utility.yul\":1394:1400   */\n      dup3\n        /* \"#utility.yul\":1389:1392   */\n      dup2\n        /* \"#utility.yul\":1384:1387   */\n      dup4\n        /* \"#utility.yul\":1378:1401   */\n      mcopy\n        /* \"#utility.yul\":1435:1436   */\n      0x00\n        /* \"#utility.yul\":1426:1432   */\n      dup4\n        /* \"#utility.yul\":1421:1424   */\n      dup4\n        /* \"#utility.yul\":1417:1433   */\n      add\n        /* \"#utility.yul\":1410:1437   */\n      mstore\n        /* \"#utility.yul\":1305:1444   */\n      pop\n      pop\n      pop\n      jump\t// out\n        /* \"#utility.yul\":1450:1552   */\n    tag_59:\n        /* \"#utility.yul\":1491:1497   */\n      0x00\n        /* \"#utility.yul\":1542:1544   */\n      0x1f\n        /* \"#utility.yul\":1538:1545   */\n      not\n        /* \"#utility.yul\":1533:1535   */\n      0x1f\n        /* \"#utility.yul\":1526:1531   */\n      dup4\n        /* \"#utility.yul\":1522:1536   */\n      add\n        /* \"#utility.yul\":1518:1546   */\n      and\n        /* \"#utility.yul\":1508:1546   */\n      swap1\n      pop\n        /* \"#utility.yul\":1450:1552   */\n      swap2\n      swap1\n      pop\n      jump\t// out\n        /* \"#utility.yul\":1558:1935   */\n    tag_60:\n        /* \"#utility.yul\":1646:1649   */\n      0x00\n        /* \"#utility.yul\":1674:1713   */\n      tag_109\n        /* \"#utility.yul\":1707:1712   */\n      dup3\n        /* \"#utility.yul\":1674:1713   */\n      tag_56\n      jump\t// in\n    tag_109:\n        /* \"#utility.yul\":1729:1800   */\n      tag_110\n        /* \"#utility.yul\":1793:1799   */\n      dup2\n        /* \"#utility.yul\":1788:1791   */\n      dup6\n        /* \"#utility.yul\":1729:1800   */\n      tag_57\n      jump\t// in\n    tag_110:\n        /* \"#utility.yul\":1722:1800   */\n      swap4\n      pop\n        /* \"#utility.yul\":1809:1874   */\n      tag_111\n        /* \"#utility.yul\":1867:1873   */\n      dup2\n        /* \"#utility.yul\":1862:1865   */\n      dup6\n        /* \"#utility.yul\":1855:1859   */\n      0x20\n        /* \"#utility.yul\":1848:1853   */\n      dup7\n        /* \"#utility.yul\":1844:1860   */\n      add\n        /* \"#utility.yul\":1809:1874   */\n      tag_58\n      jump\t// in\n    tag_111:\n        /* \"#utility.yul\":1899:1928   */\n      tag_112\n        /* \"#utility.yul\":1921:1927   */\n      dup2\n        /* \"#utility.yul\":1899:1928   */\n      tag_59\n      jump\t// in\n    tag_112:\n        /* \"#utility.yul\":1894:1897   */\n      dup5\n        /* \"#utility.yul\":1890:1929   */\n      add\n        /* \"#utility.yul\":1883:1929   */\n      swap2\n      pop\n        /* \"#utility.yul\":1650:1935   */\n      pop\n        /* \"#utility.yul\":1558:1935   */\n      swap3\n      swap2\n      pop\n      pop\n      jump\t// out\n        /* \"#utility.yul\":1941:2858   */\n    tag_10:\n        /* \"#utility.yul\":2198:2202   */\n      0x00\n        /* \"#utility.yul\":2236:2239   */\n      0x80\n        /* \"#utility.yul\":2225:2234   */\n      dup3\n        /* \"#utility.yul\":2221:2240   */\n      add\n        /* \"#utility.yul\":2213:2240   */\n      swap1\n      pop\n        /* \"#utility.yul\":2286:2295   */\n      dup2\n        /* \"#utility.yul\":2280:2284   */\n      dup2\n        /* \"#utility.yul\":2276:2296   */\n      sub\n        /* \"#utility.yul\":2272:2273   */\n      0x00\n        /* \"#utility.yul\":2261:2270   */\n      dup4\n        /* \"#utility.yul\":2257:2274   */\n      add\n        /* \"#utility.yul\":2250:2297   */\n      mstore\n        /* \"#utility.yul\":2314:2392   */\n      tag_114\n        /* \"#utility.yul\":2387:2391   */\n      dup2\n        /* \"#utility.yul\":2378:2384   */\n      dup8\n        /* \"#utility.yul\":2314:2392   */\n      tag_60\n      jump\t// in\n    tag_114:\n        /* \"#utility.yul\":2306:2392   */\n      swap1\n      pop\n        /* \"#utility.yul\":2439:2448   */\n      dup2\n        /* \"#utility.yul\":2433:2437   */\n      dup2\n        /* \"#utility.yul\":2429:2449   */\n      sub\n        /* \"#utility.yul\":2424:2426   */\n      0x20\n        /* \"#utility.yul\":2413:2422   */\n      dup4\n        /* \"#utility.yul\":2409:2427   */\n      add\n        /* \"#utility.yul\":2402:2450   */\n      mstore\n        /* \"#utility.yul\":2467:2545   */\n      tag_115\n        /* \"#utility.yul\":2540:2544   */\n      dup2\n        /* \"#utility.yul\":2531:2537   */\n      dup7\n        /* \"#utility.yul\":2467:2545   */\n      tag_60\n      jump\t// in\n    tag_115:\n        /* \"#utility.yul\":2459:2545   */\n      swap1\n      pop\n        /* \"#utility.yul\":2592:2601   */\n      dup2\n        /* \"#utility.yul\":2586:2590   */\n      dup2\n        /* \"#utility.yul\":2582:2602   */\n      sub\n        /* \"#utility.yul\":2577:2579   */\n      0x40\n        /* \"#utility.yul\":2566:2575   */\n      dup4\n        /* \"#utility.yul\":2562:2580   */\n      add\n        /* \"#utility.yul\":2555:2603   */\n      mstore\n        /* \"#utility.yul\":2620:2698   */\n      tag_116\n        /* \"#utility.yul\":2693:2697   */\n      dup2\n        /* \"#utility.yul\":2684:2690   */\n      dup6\n        /* \"#utility.yul\":2620:2698   */\n      tag_60\n      jump\t// in\n    tag_116:\n        /* \"#utility.yul\":2612:2698   */\n      swap1\n      pop\n        /* \"#utility.yul\":2745:2754   */\n      dup2\n        /* \"#utility.yul\":2739:2743   */\n      dup2\n        /* \"#utility.yul\":2735:2755   */\n      sub\n        /* \"#utility.yul\":2730:2732   */\n      0x60\n        /* \"#utility.yul\":2719:2728   */\n      dup4\n        /* \"#utility.yul\":2715:2733   */\n      add\n        /* \"#utility.yul\":2708:2756   */\n      mstore\n        /* \"#utility.yul\":2773:2851   */\n      tag_117\n        /* \"#utility.yul\":2846:2850   */\n      dup2\n        /* \"#utility.yul\":2837:2843   */\n      dup5\n        /* \"#utility.yul\":2773:2851   */\n      tag_60\n      jump\t// in\n    tag_117:\n        /* \"#utility.yul\":2765:2851   */\n      swap1\n      pop\n        /* \"#utility.yul\":1941:2858   */\n      swap6\n      swap5\n      pop\n      pop\n      pop\n      pop\n      pop\n      jump\t// out\n        /* \"#utility.yul\":2864:2981   */\n    tag_61:\n        /* \"#utility.yul\":2973:2974   */\n      0x00\n        /* \"#utility.yul\":2970:2971   */\n      dup1\n        /* \"#utility.yul\":2963:2975   */\n      revert\n        /* \"#utility.yul\":2987:3104   */\n    tag_62:\n        /* \"#utility.yul\":3096:3097   */\n      0x00\n        /* \"#utility.yul\":3093:3094   */\n      dup1\n        /* \"#utility.yul\":3086:3098   */\n      revert\n        /* \"#utility.yul\":3110:3290   */\n    tag_63:\n        /* \"#utility.yul\":3158:3235   */\n      0x4e487b7100000000000000000000000000000000000000000000000000000000\n        /* \"#utility.yul\":3155:3156   */\n      0x00\n        /* \"#utility.yul\":3148:3236   */\n      mstore\n        /* \"#utility.yul\":3255:3259   */\n      0x41\n        /* \"#utility.yul\":3252:3253   */\n      0x04\n        /* \"#utility.yul\":3245:3260   */\n      mstore\n        /* \"#utility.yul\":3279:3283   */\n      0x24\n        /* \"#utility.yul\":3276:3277   */\n      0x00\n        /* \"#utility.yul\":3269:3284   */\n      revert\n        /* \"#utility.yul\":3296:3577   */\n    tag_64:\n        /* \"#utility.yul\":3379:3406   */\n      tag_122\n        /* \"#utility.yul\":3401:3405   */\n      dup3\n        /* \"#utility.yul\":3379:3406   */\n      tag_59\n      jump\t// in\n    tag_122:\n        /* \"#utility.yul\":3371:3377   */\n      dup2\n        /* \"#utility.yul\":3367:3407   */\n      add\n        /* \"#utility.yul\":3509:3515   */\n      dup2\n        /* \"#utility.yul\":3497:3507   */\n      dup2\n        /* \"#utility.yul\":3494:3516   */\n      lt\n        /* \"#utility.yul\":3473:3491   */\n      0xffffffffffffffff\n        /* \"#utility.yul\":3461:3471   */\n      dup3\n        /* \"#utility.yul\":3458:3492   */\n      gt\n        /* \"#utility.yul\":3455:3517   */\n      or\n        /* \"#utility.yul\":3452:3540   */\n      iszero\n      tag_123\n      jumpi\n        /* \"#utility.yul\":3520:3538   */\n      tag_124\n      tag_63\n      jump\t// in\n    tag_124:\n        /* \"#utility.yul\":3452:3540   */\n    tag_123:\n        /* \"#utility.yul\":3560:3570   */\n      dup1\n        /* \"#utility.yul\":3556:3558   */\n      0x40\n        /* \"#utility.yul\":3549:3571   */\n      mstore\n        /* \"#utility.yul\":3339:3577   */\n      pop\n        /* \"#utility.yul\":3296:3577   */\n      pop\n      pop\n      jump\t// out\n        /* \"#utility.yul\":3583:3712   */\n    tag_65:\n        /* \"#utility.yul\":3617:3623   */\n      0x00\n        /* \"#utility.yul\":3644:3664   */\n      tag_126\n      tag_50\n      jump\t// in\n    tag_126:\n        /* \"#utility.yul\":3634:3664   */\n      swap1\n      pop\n        /* \"#utility.yul\":3673:3706   */\n      tag_127\n        /* \"#utility.yul\":3701:3705   */\n      dup3\n        /* \"#utility.yul\":3693:3699   */\n      dup3\n        /* \"#utility.yul\":3673:3706   */\n      tag_64\n      jump\t// in\n    tag_127:\n        /* \"#utility.yul\":3583:3712   */\n      swap2\n      swap1\n      pop\n      jump\t// out\n        /* \"#utility.yul\":3718:4026   */\n    tag_66:\n        /* \"#utility.yul\":3780:3784   */\n      0x00\n        /* \"#utility.yul\":3870:3888   */\n      0xffffffffffffffff\n        /* \"#utility.yul\":3862:3868   */\n      dup3\n        /* \"#utility.yul\":3859:3889   */\n      gt\n        /* \"#utility.yul\":3856:3912   */\n      iszero\n      tag_129\n      jumpi\n        /* \"#utility.yul\":3892:3910   */\n      tag_130\n      tag_63\n      jump\t// in\n    tag_130:\n        /* \"#utility.yul\":3856:3912   */\n    tag_129:\n        /* \"#utility.yul\":3930:3959   */\n      tag_131\n        /* \"#utility.yul\":3952:3958   */\n      dup3\n        /* \"#utility.yul\":3930:3959   */\n      tag_59\n      jump\t// in\n    tag_131:\n        /* \"#utility.yul\":3922:3959   */\n      swap1\n      pop\n        /* \"#utility.yul\":4014:4018   */\n      0x20\n        /* \"#utility.yul\":4008:4012   */\n      dup2\n        /* \"#utility.yul\":4004:4019   */\n      add\n        /* \"#utility.yul\":3996:4019   */\n      swap1\n      pop\n        /* \"#utility.yul\":3718:4026   */\n      swap2\n      swap1\n      pop\n      jump\t// out\n        /* \"#utility.yul\":4032:4180   */\n    tag_67:\n        /* \"#utility.yul\":4130:4136   */\n      dup3\n        /* \"#utility.yul\":4125:4128   */\n      dup2\n        /* \"#utility.yul\":4120:4123   */\n      dup4\n        /* \"#utility.yul\":4107:4137   */\n      calldatacopy\n        /* \"#utility.yul\":4171:4172   */\n      0x00\n        /* \"#utility.yul\":4162:4168   */\n      dup4\n        /* \"#utility.yul\":4157:4160   */\n      dup4\n        /* \"#utility.yul\":4153:4169   */\n      add\n        /* \"#utility.yul\":4146:4173   */\n      mstore\n        /* \"#utility.yul\":4032:4180   */\n      pop\n      pop\n      pop\n      jump\t// out\n        /* \"#utility.yul\":4186:4611   */\n    tag_68:\n        /* \"#utility.yul\":4264:4269   */\n      0x00\n        /* \"#utility.yul\":4289:4355   */\n      tag_134\n        /* \"#utility.yul\":4305:4354   */\n      tag_135\n        /* \"#utility.yul\":4347:4353   */\n      dup5\n        /* \"#utility.yul\":4305:4354   */\n      tag_66\n      jump\t// in\n    tag_135:\n        /* \"#utility.yul\":4289:4355   */\n      tag_65\n      jump\t// in\n    tag_134:\n        /* \"#utility.yul\":4280:4355   */\n      swap1\n      pop\n        /* \"#utility.yul\":4378:4384   */\n      dup3\n        /* \"#utility.yul\":4371:4376   */\n      dup2\n        /* \"#utility.yul\":4364:4385   */\n      mstore\n        /* \"#utility.yul\":4416:4420   */\n      0x20\n        /* \"#utility.yul\":4409:4414   */\n      dup2\n        /* \"#utility.yul\":4405:4421   */\n      add\n        /* \"#utility.yul\":4454:4457   */\n      dup5\n        /* \"#utility.yul\":4445:4451   */\n      dup5\n        /* \"#utility.yul\":4440:4443   */\n      dup5\n        /* \"#utility.yul\":4436:4452   */\n      add\n        /* \"#utility.yul\":4433:4458   */\n      gt\n        /* \"#utility.yul\":4430:4542   */\n      iszero\n      tag_136\n      jumpi\n        /* \"#utility.yul\":4461:4540   */\n      tag_137\n      tag_62\n      jump\t// in\n    tag_137:\n        /* \"#utility.yul\":4430:4542   */\n    tag_136:\n        /* \"#utility.yul\":4551:4605   */\n      tag_138\n        /* \"#utility.yul\":4598:4604   */\n      dup5\n        /* \"#utility.yul\":4593:4596   */\n      dup3\n        /* \"#utility.yul\":4588:4591   */\n      dup6\n        /* \"#utility.yul\":4551:4605   */\n      tag_67\n      jump\t// in\n    tag_138:\n        /* \"#utility.yul\":4270:4611   */\n      pop\n        /* \"#utility.yul\":4186:4611   */\n      swap4\n      swap3\n      pop\n      pop\n      pop\n      jump\t// out\n        /* \"#utility.yul\":4631:4971   */\n    tag_69:\n        /* \"#utility.yul\":4687:4692   */\n      0x00\n        /* \"#utility.yul\":4736:4739   */\n      dup3\n        /* \"#utility.yul\":4729:4733   */\n      0x1f\n        /* \"#utility.yul\":4721:4727   */\n      dup4\n        /* \"#utility.yul\":4717:4734   */\n      add\n        /* \"#utility.yul\":4713:4740   */\n      slt\n        /* \"#utility.yul\":4703:4825   */\n      tag_140\n      jumpi\n        /* \"#utility.yul\":4744:4823   */\n      tag_141\n      tag_61\n      jump\t// in\n    tag_141:\n        /* \"#utility.yul\":4703:4825   */\n    tag_140:\n        /* \"#utility.yul\":4861:4867   */\n      dup2\n        /* \"#utility.yul\":4848:4868   */\n      calldataload\n        /* \"#utility.yul\":4886:4965   */\n      tag_142\n        /* \"#utility.yul\":4961:4964   */\n      dup5\n        /* \"#utility.yul\":4953:4959   */\n      dup3\n        /* \"#utility.yul\":4946:4950   */\n      0x20\n        /* \"#utility.yul\":4938:4944   */\n      dup7\n        /* \"#utility.yul\":4934:4951   */\n      add\n        /* \"#utility.yul\":4886:4965   */\n      tag_68\n      jump\t// in\n    tag_142:\n        /* \"#utility.yul\":4877:4965   */\n      swap2\n      pop\n        /* \"#utility.yul\":4693:4971   */\n      pop\n        /* \"#utility.yul\":4631:4971   */\n      swap3\n      swap2\n      pop\n      pop\n      jump\t// out\n        /* \"#utility.yul\":4977:6608   */\n    tag_13:\n        /* \"#utility.yul\":5112:5118   */\n      0x00\n        /* \"#utility.yul\":5120:5126   */\n      dup1\n        /* \"#utility.yul\":5128:5134   */\n      0x00\n        /* \"#utility.yul\":5136:5142   */\n      dup1\n        /* \"#utility.yul\":5144:5150   */\n      0x00\n        /* \"#utility.yul\":5193:5196   */\n      0xa0\n        /* \"#utility.yul\":5181:5190   */\n      dup7\n        /* \"#utility.yul\":5172:5179   */\n      dup9\n        /* \"#utility.yul\":5168:5191   */\n      sub\n        /* \"#utility.yul\":5164:5197   */\n      slt\n        /* \"#utility.yul\":5161:5281   */\n      iszero\n      tag_144\n      jumpi\n        /* \"#utility.yul\":5200:5279   */\n      tag_145\n      tag_51\n      jump\t// in\n    tag_145:\n        /* \"#utility.yul\":5161:5281   */\n    tag_144:\n        /* \"#utility.yul\":5320:5321   */\n      0x00\n        /* \"#utility.yul\":5345:5398   */\n      tag_146\n        /* \"#utility.yul\":5390:5397   */\n      dup9\n        /* \"#utility.yul\":5381:5387   */\n      dup3\n        /* \"#utility.yul\":5370:5379   */\n      dup10\n        /* \"#utility.yul\":5366:5388   */\n      add\n        /* \"#utility.yul\":5345:5398   */\n      tag_55\n      jump\t// in\n    tag_146:\n        /* \"#utility.yul\":5335:5398   */\n      swap6\n      pop\n        /* \"#utility.yul\":5291:5408   */\n      pop\n        /* \"#utility.yul\":5475:5477   */\n      0x20\n        /* \"#utility.yul\":5464:5473   */\n      dup7\n        /* \"#utility.yul\":5460:5478   */\n      add\n        /* \"#utility.yul\":5447:5479   */\n      calldataload\n        /* \"#utility.yul\":5506:5524   */\n      0xffffffffffffffff\n        /* \"#utility.yul\":5498:5504   */\n      dup2\n        /* \"#utility.yul\":5495:5525   */\n      gt\n        /* \"#utility.yul\":5492:5609   */\n      iszero\n      tag_147\n      jumpi\n        /* \"#utility.yul\":5528:5607   */\n      tag_148\n      tag_52\n      jump\t// in\n    tag_148:\n        /* \"#utility.yul\":5492:5609   */\n    tag_147:\n        /* \"#utility.yul\":5633:5696   */\n      tag_149\n        /* \"#utility.yul\":5688:5695   */\n      dup9\n        /* \"#utility.yul\":5679:5685   */\n      dup3\n        /* \"#utility.yul\":5668:5677   */\n      dup10\n        /* \"#utility.yul\":5664:5686   */\n      add\n        /* \"#utility.yul\":5633:5696   */\n      tag_69\n      jump\t// in\n    tag_149:\n        /* \"#utility.yul\":5623:5696   */\n      swap5\n      pop\n        /* \"#utility.yul\":5418:5706   */\n      pop\n        /* \"#utility.yul\":5773:5775   */\n      0x40\n        /* \"#utility.yul\":5762:5771   */\n      dup7\n        /* \"#utility.yul\":5758:5776   */\n      add\n        /* \"#utility.yul\":5745:5777   */\n      calldataload\n        /* \"#utility.yul\":5804:5822   */\n      0xffffffffffffffff\n        /* \"#utility.yul\":5796:5802   */\n      dup2\n        /* \"#utility.yul\":5793:5823   */\n      gt\n        /* \"#utility.yul\":5790:5907   */\n      iszero\n      tag_150\n      jumpi\n        /* \"#utility.yul\":5826:5905   */\n      tag_151\n      tag_52\n      jump\t// in\n    tag_151:\n        /* \"#utility.yul\":5790:5907   */\n    tag_150:\n        /* \"#utility.yul\":5931:5994   */\n      tag_152\n        /* \"#utility.yul\":5986:5993   */\n      dup9\n        /* \"#utility.yul\":5977:5983   */\n      dup3\n        /* \"#utility.yul\":5966:5975   */\n      dup10\n        /* \"#utility.yul\":5962:5984   */\n      add\n        /* \"#utility.yul\":5931:5994   */\n      tag_69\n      jump\t// in\n    tag_152:\n        /* \"#utility.yul\":5921:5994   */\n      swap4\n      pop\n        /* \"#utility.yul\":5716:6004   */\n      pop\n        /* \"#utility.yul\":6071:6073   */\n      0x60\n        /* \"#utility.yul\":6060:6069   */\n      dup7\n        /* \"#utility.yul\":6056:6074   */\n      add\n        /* \"#utility.yul\":6043:6075   */\n      calldataload\n        /* \"#utility.yul\":6102:6120   */\n      0xffffffffffffffff\n        /* \"#utility.yul\":6094:6100   */\n      dup2\n        /* \"#utility.yul\":6091:6121   */\n      gt\n        /* \"#utility.yul\":6088:6205   */\n      iszero\n      tag_153\n      jumpi\n        /* \"#utility.yul\":6124:6203   */\n      tag_154\n      tag_52\n      jump\t// in\n    tag_154:\n        /* \"#utility.yul\":6088:6205   */\n    tag_153:\n        /* \"#utility.yul\":6229:6292   */\n      tag_155\n        /* \"#utility.yul\":6284:6291   */\n      dup9\n        /* \"#utility.yul\":6275:6281   */\n      dup3\n        /* \"#utility.yul\":6264:6273   */\n      dup10\n        /* \"#utility.yul\":6260:6282   */\n      add\n        /* \"#utility.yul\":6229:6292   */\n      tag_69\n      jump\t// in\n    tag_155:\n        /* \"#utility.yul\":6219:6292   */\n      swap3\n      pop\n        /* \"#utility.yul\":6014:6302   */\n      pop\n        /* \"#utility.yul\":6369:6372   */\n      0x80\n        /* \"#utility.yul\":6358:6367   */\n      dup7\n        /* \"#utility.yul\":6354:6373   */\n      add\n        /* \"#utility.yul\":6341:6374   */\n      calldataload\n        /* \"#utility.yul\":6401:6419   */\n      0xffffffffffffffff\n        /* \"#utility.yul\":6393:6399   */\n      dup2\n        /* \"#utility.yul\":6390:6420   */\n      gt\n        /* \"#utility.yul\":6387:6504   */\n      iszero\n      tag_156\n      jumpi\n        /* \"#utility.yul\":6423:6502   */\n      tag_157\n      tag_52\n      jump\t// in\n    tag_157:\n        /* \"#utility.yul\":6387:6504   */\n    tag_156:\n        /* \"#utility.yul\":6528:6591   */\n      tag_158\n        /* \"#utility.yul\":6583:6590   */\n      dup9\n        /* \"#utility.yul\":6574:6580   */\n      dup3\n        /* \"#utility.yul\":6563:6572   */\n      dup10\n        /* \"#utility.yul\":6559:6581   */\n      add\n        /* \"#utility.yul\":6528:6591   */\n      tag_69\n      jump\t// in\n    tag_158:\n        /* \"#utility.yul\":6518:6591   */\n      swap2\n      pop\n        /* \"#utility.yul\":6312:6601   */\n      pop\n        /* \"#utility.yul\":4977:6608   */\n      swap3\n      swap6\n      pop\n      swap3\n      swap6\n      swap1\n      swap4\n      pop\n      jump\t// out\n        /* \"#utility.yul\":6614:6794   */\n    tag_70:\n        /* \"#utility.yul\":6662:6739   */\n      0x4e487b7100000000000000000000000000000000000000000000000000000000\n        /* \"#utility.yul\":6659:6660   */\n      0x00\n        /* \"#utility.yul\":6652:6740   */\n      mstore\n        /* \"#utility.yul\":6759:6763   */\n      0x22\n        /* \"#utility.yul\":6756:6757   */\n      0x04\n        /* \"#utility.yul\":6749:6764   */\n      mstore\n        /* \"#utility.yul\":6783:6787   */\n      0x24\n        /* \"#utility.yul\":6780:6781   */\n      0x00\n        /* \"#utility.yul\":6773:6788   */\n      revert\n        /* \"#utility.yul\":6800:7120   */\n    tag_16:\n        /* \"#utility.yul\":6844:6850   */\n      0x00\n        /* \"#utility.yul\":6881:6882   */\n      0x02\n        /* \"#utility.yul\":6875:6879   */\n      dup3\n        /* \"#utility.yul\":6871:6883   */\n      div\n        /* \"#utility.yul\":6861:6883   */\n      swap1\n      pop\n        /* \"#utility.yul\":6928:6929   */\n      0x01\n        /* \"#utility.yul\":6922:6926   */\n      dup3\n        /* \"#utility.yul\":6918:6930   */\n      and\n        /* \"#utility.yul\":6949:6967   */\n      dup1\n        /* \"#utility.yul\":6939:7020   */\n      tag_161\n      jumpi\n        /* \"#utility.yul\":7005:7009   */\n      0x7f\n        /* \"#utility.yul\":6997:7003   */\n      dup3\n        /* \"#utility.yul\":6993:7010   */\n      and\n        /* \"#utility.yul\":6983:7010   */\n      swap2\n      pop\n        /* \"#utility.yul\":6939:7020   */\n    tag_161:\n        /* \"#utility.yul\":7067:7069   */\n      0x20\n        /* \"#utility.yul\":7059:7065   */\n      dup3\n        /* \"#utility.yul\":7056:7070   */\n      lt\n        /* \"#utility.yul\":7036:7054   */\n      dup2\n        /* \"#utility.yul\":7033:7071   */\n      sub\n        /* \"#utility.yul\":7030:7114   */\n      tag_162\n      jumpi\n        /* \"#utility.yul\":7086:7104   */\n      tag_163\n      tag_70\n      jump\t// in\n    tag_163:\n        /* \"#utility.yul\":7030:7114   */\n    tag_162:\n        /* \"#utility.yul\":6851:7120   */\n      pop\n        /* \"#utility.yul\":6800:7120   */\n      swap2\n      swap1\n      pop\n      jump\t// out\n        /* \"#utility.yul\":7126:7295   */\n    tag_71:\n        /* \"#utility.yul\":7266:7287   */\n      0x556e617574686572697a65642061636365737300000000000000000000000000\n        /* \"#utility.yul\":7262:7263   */\n      0x00\n        /* \"#utility.yul\":7254:7260   */\n      dup3\n        /* \"#utility.yul\":7250:7264   */\n      add\n        /* \"#utility.yul\":7243:7288   */\n      mstore\n        /* \"#utility.yul\":7126:7295   */\n      pop\n      jump\t// out\n        /* \"#utility.yul\":7301:7667   */\n    tag_72:\n        /* \"#utility.yul\":7443:7446   */\n      0x00\n        /* \"#utility.yul\":7464:7531   */\n      tag_166\n        /* \"#utility.yul\":7528:7530   */\n      0x13\n        /* \"#utility.yul\":7523:7526   */\n      dup4\n        /* \"#utility.yul\":7464:7531   */\n      tag_57\n      jump\t// in\n    tag_166:\n        /* \"#utility.yul\":7457:7531   */\n      swap2\n      pop\n        /* \"#utility.yul\":7540:7633   */\n      tag_167\n        /* \"#utility.yul\":7629:7632   */\n      dup3\n        /* \"#utility.yul\":7540:7633   */\n      tag_71\n      jump\t// in\n    tag_167:\n        /* \"#utility.yul\":7658:7660   */\n      0x20\n        /* \"#utility.yul\":7653:7656   */\n      dup3\n        /* \"#utility.yul\":7649:7661   */\n      add\n        /* \"#utility.yul\":7642:7661   */\n      swap1\n      pop\n        /* \"#utility.yul\":7301:7667   */\n      swap2\n      swap1\n      pop\n      jump\t// out\n        /* \"#utility.yul\":7673:8092   */\n    tag_39:\n        /* \"#utility.yul\":7839:7843   */\n      0x00\n        /* \"#utility.yul\":7877:7879   */\n      0x20\n        /* \"#utility.yul\":7866:7875   */\n      dup3\n        /* \"#utility.yul\":7862:7880   */\n      add\n        /* \"#utility.yul\":7854:7880   */\n      swap1\n      pop\n        /* \"#utility.yul\":7926:7935   */\n      dup2\n        /* \"#utility.yul\":7920:7924   */\n      dup2\n        /* \"#utility.yul\":7916:7936   */\n      sub\n        /* \"#utility.yul\":7912:7913   */\n      0x00\n        /* \"#utility.yul\":7901:7910   */\n      dup4\n        /* \"#utility.yul\":7897:7914   */\n      add\n        /* \"#utility.yul\":7890:7937   */\n      mstore\n        /* \"#utility.yul\":7954:8085   */\n      tag_169\n        /* \"#utility.yul\":8080:8084   */\n      dup2\n        /* \"#utility.yul\":7954:8085   */\n      tag_72\n      jump\t// in\n    tag_169:\n        /* \"#utility.yul\":7946:8085   */\n      swap1\n      pop\n        /* \"#utility.yul\":7673:8092   */\n      swap2\n      swap1\n      pop\n      jump\t// out\n        /* \"#utility.yul\":8098:8273   */\n    tag_73:\n        /* \"#utility.yul\":8238:8265   */\n      0x636972746966696361746520616c726561647920657869737400000000000000\n        /* \"#utility.yul\":8234:8235   */\n      0x00\n        /* \"#utility.yul\":8226:8232   */\n      dup3\n        /* \"#utility.yul\":8222:8236   */\n      add\n        /* \"#utility.yul\":8215:8266   */\n      mstore\n        /* \"#utility.yul\":8098:8273   */\n      pop\n      jump\t// out\n        /* \"#utility.yul\":8279:8645   */\n    tag_74:\n        /* \"#utility.yul\":8421:8424   */\n      0x00\n        /* \"#utility.yul\":8442:8509   */\n      tag_172\n        /* \"#utility.yul\":8506:8508   */\n      0x19\n        /* \"#utility.yul\":8501:8504   */\n      dup4\n        /* \"#utility.yul\":8442:8509   */\n      tag_57\n      jump\t// in\n    tag_172:\n        /* \"#utility.yul\":8435:8509   */\n      swap2\n      pop\n        /* \"#utility.yul\":8518:8611   */\n      tag_173\n        /* \"#utility.yul\":8607:8610   */\n      dup3\n        /* \"#utility.yul\":8518:8611   */\n      tag_73\n      jump\t// in\n    tag_173:\n        /* \"#utility.yul\":8636:8638   */\n      0x20\n        /* \"#utility.yul\":8631:8634   */\n      dup3\n        /* \"#utility.yul\":8627:8639   */\n      add\n        /* \"#utility.yul\":8620:8639   */\n      swap1\n      pop\n        /* \"#utility.yul\":8279:8645   */\n      swap2\n      swap1\n      pop\n      jump\t// out\n        /* \"#utility.yul\":8651:9070   */\n    tag_44:\n        /* \"#utility.yul\":8817:8821   */\n      0x00\n        /* \"#utility.yul\":8855:8857   */\n      0x20\n        /* \"#utility.yul\":8844:8853   */\n      dup3\n        /* \"#utility.yul\":8840:8858   */\n      add\n        /* \"#utility.yul\":8832:8858   */\n      swap1\n      pop\n        /* \"#utility.yul\":8904:8913   */\n      dup2\n        /* \"#utility.yul\":8898:8902   */\n      dup2\n        /* \"#utility.yul\":8894:8914   */\n      sub\n        /* \"#utility.yul\":8890:8891   */\n      0x00\n        /* \"#utility.yul\":8879:8888   */\n      dup4\n        /* \"#utility.yul\":8875:8892   */\n      add\n        /* \"#utility.yul\":8868:8915   */\n      mstore\n        /* \"#utility.yul\":8932:9063   */\n      tag_175\n        /* \"#utility.yul\":9058:9062   */\n      dup2\n        /* \"#utility.yul\":8932:9063   */\n      tag_74\n      jump\t// in\n    tag_175:\n        /* \"#utility.yul\":8924:9063   */\n      swap1\n      pop\n        /* \"#utility.yul\":8651:9070   */\n      swap2\n      swap1\n      pop\n      jump\t// out\n        /* \"#utility.yul\":9076:9217   */\n    tag_75:\n        /* \"#utility.yul\":9125:9129   */\n      0x00\n        /* \"#utility.yul\":9148:9151   */\n      dup2\n        /* \"#utility.yul\":9140:9151   */\n      swap1\n      pop\n        /* \"#utility.yul\":9171:9174   */\n      dup2\n        /* \"#utility.yul\":9168:9169   */\n      0x00\n        /* \"#utility.yul\":9161:9175   */\n      mstore\n        /* \"#utility.yul\":9205:9209   */\n      0x20\n        /* \"#utility.yul\":9202:9203   */\n      0x00\n        /* \"#utility.yul\":9192:9210   */\n      keccak256\n        /* \"#utility.yul\":9184:9210   */\n      swap1\n      pop\n        /* \"#utility.yul\":9076:9217   */\n      swap2\n      swap1\n      pop\n      jump\t// out\n        /* \"#utility.yul\":9223:9316   */\n    tag_76:\n        /* \"#utility.yul\":9260:9266   */\n      0x00\n        /* \"#utility.yul\":9307:9309   */\n      0x20\n        /* \"#utility.yul\":9302:9304   */\n      0x1f\n        /* \"#utility.yul\":9295:9300   */\n      dup4\n        /* \"#utility.yul\":9291:9305   */\n      add\n        /* \"#utility.yul\":9287:9310   */\n      div\n        /* \"#utility.yul\":9277:9310   */\n      swap1\n      pop\n        /* \"#utility.yul\":9223:9316   */\n      swap2\n      swap1\n      pop\n      jump\t// out\n        /* \"#utility.yul\":9322:9429   */\n    tag_77:\n        /* \"#utility.yul\":9366:9374   */\n      0x00\n        /* \"#utility.yul\":9416:9421   */\n      dup3\n        /* \"#utility.yul\":9410:9414   */\n      dup3\n        /* \"#utility.yul\":9406:9422   */\n      shl\n        /* \"#utility.yul\":9385:9422   */\n      swap1\n      pop\n        /* \"#utility.yul\":9322:9429   */\n      swap3\n      swap2\n      pop\n      pop\n      jump\t// out\n        /* \"#utility.yul\":9435:9828   */\n    tag_78:\n        /* \"#utility.yul\":9504:9510   */\n      0x00\n        /* \"#utility.yul\":9554:9555   */\n      0x08\n        /* \"#utility.yul\":9542:9552   */\n      dup4\n        /* \"#utility.yul\":9538:9556   */\n      mul\n        /* \"#utility.yul\":9577:9674   */\n      tag_180\n        /* \"#utility.yul\":9607:9673   */\n      0xffffffffffffffffffffffffffffffffffffffffffffffffffffffffffffffff\n        /* \"#utility.yul\":9596:9605   */\n      dup3\n        /* \"#utility.yul\":9577:9674   */\n      tag_77\n      jump\t// in\n    tag_180:\n        /* \"#utility.yul\":9695:9734   */\n      tag_181\n        /* \"#utility.yul\":9725:9733   */\n      dup7\n        /* \"#utility.yul\":9714:9723   */\n      dup4\n        /* \"#utility.yul\":9695:9734   */\n      tag_77\n      jump\t// in\n    tag_181:\n        /* \"#utility.yul\":9683:9734   */\n      swap6\n      pop\n        /* \"#utility.yul\":9767:9771   */\n      dup1\n        /* \"#utility.yul\":9763:9772   */\n      not\n        /* \"#utility.yul\":9756:9761   */\n      dup5\n        /* \"#utility.yul\":9752:9773   */\n      and\n        /* \"#utility.yul\":9743:9773   */\n      swap4\n      pop\n        /* \"#utility.yul\":9816:9820   */\n      dup1\n        /* \"#utility.yul\":9806:9814   */\n      dup7\n        /* \"#utility.yul\":9802:9821   */\n      and\n        /* \"#utility.yul\":9795:9800   */\n      dup5\n        /* \"#utility.yul\":9792:9822   */\n      or\n        /* \"#utility.yul\":9782:9822   */\n      swap3\n      pop\n        /* \"#utility.yul\":9511:9828   */\n      pop\n      pop\n        /* \"#utility.yul\":9435:9828   */\n      swap4\n      swap3\n      pop\n      pop\n      pop\n      jump\t// out\n        /* \"#utility.yul\":9834:9894   */\n    tag_79:\n        /* \"#utility.yul\":9862:9865   */\n      0x00\n        /* \"#utility.yul\":9883:9888   */\n      dup2\n        /* \"#utility.yul\":9876:9888   */\n      swap1\n      pop\n        /* \"#utility.yul\":9834:9894   */\n      swap2\n      swap1\n      pop\n      jump\t// out\n        /* \"#utility.yul\":9900:10042   */\n    tag_80:\n        /* \"#utility.yul\":9950:9959   */\n      0x00\n        /* \"#utility.yul\":9983:10036   */\n      tag_184\n        /* \"#utility.yul\":10001:10035   */\n      tag_185\n        /* \"#utility.yul\":10010:10034   */\n      tag_186\n        /* \"#utility.yul\":10028:10033   */\n      dup5\n        /* \"#utility.yul\":10010:10034   */\n      tag_53\n      jump\t// in\n    tag_186:\n        /* \"#utility.yul\":10001:10035   */\n      tag_79\n      jump\t// in\n    tag_185:\n        /* \"#utility.yul\":9983:10036   */\n      tag_53\n      jump\t// in\n    tag_184:\n        /* \"#utility.yul\":9970:10036   */\n      swap1\n      pop\n        /* \"#utility.yul\":9900:10042   */\n      swap2\n      swap1\n      pop\n      jump\t// out\n        /* \"#utility.yul\":10048:10123   */\n    tag_81:\n        /* \"#utility.yul\":10091:10094   */\n      0x00\n        /* \"#utility.yul\":10112:10117   */\n      dup2\n        /* \"#utility.yul\":10105:10117   */\n      swap1\n      pop\n        /* \"#utility.yul\":10048:10123   */\n      swap2\n      swap1\n      pop\n      jump\t// out\n        /* \"#utility.yul\":10129:10398   */\n    tag_82:\n        /* \"#utility.yul\":10239:10278   */\n      tag_189\n        /* \"#utility.yul\":10270:10277   */\n      dup4\n        /* \"#utility.yul\":10239:10278   */\n      tag_80\n      jump\t// in\n    tag_189:\n        /* \"#utility.yul\":10300:10391   */\n      tag_190\n        /* \"#utility.yul\":10349:10390   */\n      tag_191\n        /* \"#utility.yul\":10373:10389   */\n      dup3\n        /* \"#utility.yul\":10349:10390   */\n      tag_81\n      jump\t// in\n    tag_191:\n        /* \"#utility.yul\":10341:10347   */\n      dup5\n        /* \"#utility.yul\":10334:10338   */\n      dup5\n        /* \"#utility.yul\":10328:10339   */\n      sload\n        /* \"#utility.yul\":10300:10391   */\n      tag_78\n      jump\t// in\n    tag_190:\n        /* \"#utility.yul\":10294:10298   */\n      dup3\n        /* \"#utility.yul\":10287:10392   */\n      sstore\n        /* \"#utility.yul\":10205:10398   */\n      pop\n        /* \"#utility.yul\":10129:10398   */\n      pop\n      pop\n      pop\n      jump\t// out\n        /* \"#utility.yul\":10404:10477   */\n    tag_83:\n        /* \"#utility.yul\":10449:10452   */\n      0x00\n        /* \"#utility.yul\":10404:10477   */\n      swap1\n      jump\t// out\n        /* \"#utility.yul\":10483:10672   */\n    tag_84:\n        /* \"#utility.yul\":10560:10592   */\n      tag_194\n      tag_83\n      jump\t// in\n    tag_194:\n        /* \"#utility.yul\":10601:10666   */\n      tag_195\n        /* \"#utility.yul\":10659:10665   */\n      dup2\n        /* \"#utility.yul\":10651:10657   */\n      dup5\n        /* \"#utility.yul\":10645:10649   */\n      dup5\n        /* \"#utility.yul\":10601:10666   */\n      tag_82\n      jump\t// in\n    tag_195:\n        /* \"#utility.yul\":10536:10672   */\n      pop\n        /* \"#utility.yul\":10483:10672   */\n      pop\n      pop\n      jump\t// out\n        /* \"#utility.yul\":10678:10864   */\n    tag_85:\n        /* \"#utility.yul\":10738:10858   */\n    tag_197:\n        /* \"#utility.yul\":10755:10758   */\n      dup2\n        /* \"#utility.yul\":10748:10753   */\n      dup2\n        /* \"#utility.yul\":10745:10759   */\n      lt\n        /* \"#utility.yul\":10738:10858   */\n      iszero\n      tag_199\n      jumpi\n        /* \"#utility.yul\":10809:10848   */\n      tag_200\n        /* \"#utility.yul\":10846:10847   */\n      0x00\n        /* \"#utility.yul\":10839:10844   */\n      dup3\n        /* \"#utility.yul\":10809:10848   */\n      tag_84\n      jump\t// in\n    tag_200:\n        /* \"#utility.yul\":10782:10783   */\n      0x01\n        /* \"#utility.yul\":10775:10780   */\n      dup2\n        /* \"#utility.yul\":10771:10784   */\n      add\n        /* \"#utility.yul\":10762:10784   */\n      swap1\n      pop\n        /* \"#utility.yul\":10738:10858   */\n      jump(tag_197)\n    tag_199:\n        /* \"#utility.yul\":10678:10864   */\n      pop\n      pop\n      jump\t// out\n        /* \"#utility.yul\":10870:11413   */\n    tag_86:\n        /* \"#utility.yul\":10971:10973   */\n      0x1f\n        /* \"#utility.yul\":10966:10969   */\n      dup3\n        /* \"#utility.yul\":10963:10974   */\n      gt\n        /* \"#utility.yul\":10960:11406   */\n      iszero\n      tag_202\n      jumpi\n        /* \"#utility.yul\":11005:11043   */\n      tag_203\n        /* \"#utility.yul\":11037:11042   */\n      dup2\n        /* \"#utility.yul\":11005:11043   */\n      tag_75\n      jump\t// in\n    tag_203:\n        /* \"#utility.yul\":11089:11118   */\n      tag_204\n        /* \"#utility.yul\":11107:11117   */\n      dup5\n        /* \"#utility.yul\":11089:11118   */\n      tag_76\n      jump\t// in\n    tag_204:\n        /* \"#utility.yul\":11079:11087   */\n      dup2\n        /* \"#utility.yul\":11075:11119   */\n      add\n        /* \"#utility.yul\":11272:11274   */\n      0x20\n        /* \"#utility.yul\":11260:11270   */\n      dup6\n        /* \"#utility.yul\":11257:11275   */\n      lt\n        /* \"#utility.yul\":11254:11303   */\n      iszero\n      tag_205\n      jumpi\n        /* \"#utility.yul\":11293:11301   */\n      dup2\n        /* \"#utility.yul\":11278:11301   */\n      swap1\n      pop\n        /* \"#utility.yul\":11254:11303   */\n    tag_205:\n        /* \"#utility.yul\":11316:11396   */\n      tag_206\n        /* \"#utility.yul\":11372:11394   */\n      tag_207\n        /* \"#utility.yul\":11390:11393   */\n      dup6\n        /* \"#utility.yul\":11372:11394   */\n      tag_76\n      jump\t// in\n    tag_207:\n        /* \"#utility.yul\":11362:11370   */\n      dup4\n        /* \"#utility.yul\":11358:11395   */\n      add\n        /* \"#utility.yul\":11345:11356   */\n      dup3\n        /* \"#utility.yul\":11316:11396   */\n      tag_85\n      jump\t// in\n    tag_206:\n        /* \"#utility.yul\":10975:11406   */\n      pop\n      pop\n        /* \"#utility.yul\":10960:11406   */\n    tag_202:\n        /* \"#utility.yul\":10870:11413   */\n      pop\n      pop\n      pop\n      jump\t// out\n        /* \"#utility.yul\":11419:11536   */\n    tag_87:\n        /* \"#utility.yul\":11473:11481   */\n      0x00\n        /* \"#utility.yul\":11523:11528   */\n      dup3\n        /* \"#utility.yul\":11517:11521   */\n      dup3\n        /* \"#utility.yul\":11513:11529   */\n      shr\n        /* \"#utility.yul\":11492:11529   */\n      swap1\n      pop\n        /* \"#utility.yul\":11419:11536   */\n      swap3\n      swap2\n      pop\n      pop\n      jump\t// out\n        /* \"#utility.yul\":11542:11711   */\n    tag_88:\n        /* \"#utility.yul\":11586:11592   */\n      0x00\n        /* \"#utility.yul\":11619:11670   */\n      tag_210\n        /* \"#utility.yul\":11667:11668   */\n      0x00\n        /* \"#utility.yul\":11663:11669   */\n      not\n        /* \"#utility.yul\":11655:11660   */\n      dup5\n        /* \"#utility.yul\":11652:11653   */\n      0x08\n        /* \"#utility.yul\":11648:11661   */\n      mul\n        /* \"#utility.yul\":11619:11670   */\n      tag_87\n      jump\t// in\n    tag_210:\n        /* \"#utility.yul\":11615:11671   */\n      not\n        /* \"#utility.yul\":11700:11704   */\n      dup1\n        /* \"#utility.yul\":11694:11698   */\n      dup4\n        /* \"#utility.yul\":11690:11705   */\n      and\n        /* \"#utility.yul\":11680:11705   */\n      swap2\n      pop\n        /* \"#utility.yul\":11593:11711   */\n      pop\n        /* \"#utility.yul\":11542:11711   */\n      swap3\n      swap2\n      pop\n      pop\n      jump\t// out\n        /* \"#utility.yul\":11716:12011   */\n    tag_89:\n        /* \"#utility.yul\":11792:11796   */\n      0x00\n        /* \"#utility.yul\":11938:11967   */\n      tag_212\n        /* \"#utility.yul\":11963:11966   */\n      dup4\n        /* \"#utility.yul\":11957:11961   */\n      dup4\n        /* \"#utility.yul\":11938:11967   */\n      tag_88\n      jump\t// in\n    tag_212:\n        /* \"#utility.yul\":11930:11967   */\n      swap2\n      pop\n        /* \"#utility.yul\":12000:12003   */\n      dup3\n        /* \"#utility.yul\":11997:11998   */\n      0x02\n        /* \"#utility.yul\":11993:12004   */\n      mul\n        /* \"#utility.yul\":11987:11991   */\n      dup3\n        /* \"#utility.yul\":11984:12005   */\n      or\n        /* \"#utility.yul\":11976:12005   */\n      swap1\n      pop\n        /* \"#utility.yul\":11716:12011   */\n      swap3\n      swap2\n      pop\n      pop\n      jump\t// out\n        /* \"#utility.yul\":12016:13411   */\n    tag_46:\n        /* \"#utility.yul\":12133:12170   */\n      tag_214\n        /* \"#utility.yul\":12166:12169   */\n      dup3\n        /* \"#utility.yul\":12133:12170   */\n      tag_56\n      jump\t// in\n    tag_214:\n        /* \"#utility.yul\":12235:12253   */\n      0xffffffffffffffff\n        /* \"#utility.yul\":12227:12233   */\n      dup2\n        /* \"#utility.yul\":12224:12254   */\n      gt\n        /* \"#utility.yul\":12221:12277   */\n      iszero\n      tag_215\n      jumpi\n        /* \"#utility.yul\":12257:12275   */\n      tag_216\n      tag_63\n      jump\t// in\n    tag_216:\n        /* \"#utility.yul\":12221:12277   */\n    tag_215:\n        /* \"#utility.yul\":12301:12339   */\n      tag_217\n        /* \"#utility.yul\":12333:12337   */\n      dup3\n        /* \"#utility.yul\":12327:12338   */\n      sload\n        /* \"#utility.yul\":12301:12339   */\n      tag_16\n      jump\t// in\n    tag_217:\n        /* \"#utility.yul\":12386:12453   */\n      tag_218\n        /* \"#utility.yul\":12446:12452   */\n      dup3\n        /* \"#utility.yul\":12438:12444   */\n      dup3\n        /* \"#utility.yul\":12432:12436   */\n      dup6\n        /* \"#utility.yul\":12386:12453   */\n      tag_86\n      jump\t// in\n    tag_218:\n        /* \"#utility.yul\":12480:12481   */\n      0x00\n        /* \"#utility.yul\":12504:12508   */\n      0x20\n        /* \"#utility.yul\":12491:12508   */\n      swap1\n      pop\n        /* \"#utility.yul\":12536:12538   */\n      0x1f\n        /* \"#utility.yul\":12528:12534   */\n      dup4\n        /* \"#utility.yul\":12525:12539   */\n      gt\n        /* \"#utility.yul\":12553:12554   */\n      0x01\n        /* \"#utility.yul\":12548:13166   */\n      dup2\n      eq\n      tag_220\n      jumpi\n        /* \"#utility.yul\":13210:13211   */\n      0x00\n        /* \"#utility.yul\":13227:13233   */\n      dup5\n        /* \"#utility.yul\":13224:13301   */\n      iszero\n      tag_221\n      jumpi\n        /* \"#utility.yul\":13276:13285   */\n      dup3\n        /* \"#utility.yul\":13271:13274   */\n      dup8\n        /* \"#utility.yul\":13267:13286   */\n      add\n        /* \"#utility.yul\":13261:13287   */\n      mload\n        /* \"#utility.yul\":13252:13287   */\n      swap1\n      pop\n        /* \"#utility.yul\":13224:13301   */\n    tag_221:\n        /* \"#utility.yul\":13327:13394   */\n      tag_222\n        /* \"#utility.yul\":13387:13393   */\n      dup6\n        /* \"#utility.yul\":13380:13385   */\n      dup3\n        /* \"#utility.yul\":13327:13394   */\n      tag_89\n      jump\t// in\n    tag_222:\n        /* \"#utility.yul\":13321:13325   */\n      dup7\n        /* \"#utility.yul\":13314:13395   */\n      sstore\n        /* \"#utility.yul\":13183:13405   */\n      pop\n        /* \"#utility.yul\":12518:13405   */\n      jump(tag_219)\n        /* \"#utility.yul\":12548:13166   */\n    tag_220:\n        /* \"#utility.yul\":12600:12604   */\n      0x1f\n        /* \"#utility.yul\":12596:12605   */\n      not\n        /* \"#utility.yul\":12588:12594   */\n      dup5\n        /* \"#utility.yul\":12584:12606   */\n      and\n        /* \"#utility.yul\":12634:12671   */\n      tag_223\n        /* \"#utility.yul\":12666:12670   */\n      dup7\n        /* \"#utility.yul\":12634:12671   */\n      tag_75\n      jump\t// in\n    tag_223:\n        /* \"#utility.yul\":12693:12694   */\n      0x00\n        /* \"#utility.yul\":12707:12915   */\n    tag_224:\n        /* \"#utility.yul\":12721:12728   */\n      dup3\n        /* \"#utility.yul\":12718:12719   */\n      dup2\n        /* \"#utility.yul\":12715:12729   */\n      lt\n        /* \"#utility.yul\":12707:12915   */\n      iszero\n      tag_226\n      jumpi\n        /* \"#utility.yul\":12800:12809   */\n      dup5\n        /* \"#utility.yul\":12795:12798   */\n      dup10\n        /* \"#utility.yul\":12791:12810   */\n      add\n        /* \"#utility.yul\":12785:12811   */\n      mload\n        /* \"#utility.yul\":12777:12783   */\n      dup3\n        /* \"#utility.yul\":12770:12812   */\n      sstore\n        /* \"#utility.yul\":12851:12852   */\n      0x01\n        /* \"#utility.yul\":12843:12849   */\n      dup3\n        /* \"#utility.yul\":12839:12853   */\n      add\n        /* \"#utility.yul\":12829:12853   */\n      swap2\n      pop\n        /* \"#utility.yul\":12898:12900   */\n      0x20\n        /* \"#utility.yul\":12887:12896   */\n      dup6\n        /* \"#utility.yul\":12883:12901   */\n      add\n        /* \"#utility.yul\":12870:12901   */\n      swap5\n      pop\n        /* \"#utility.yul\":12744:12748   */\n      0x20\n        /* \"#utility.yul\":12741:12742   */\n      dup2\n        /* \"#utility.yul\":12737:12749   */\n      add\n        /* \"#utility.yul\":12732:12749   */\n      swap1\n      pop\n        /* \"#utility.yul\":12707:12915   */\n      jump(tag_224)\n    tag_226:\n        /* \"#utility.yul\":12943:12949   */\n      dup7\n        /* \"#utility.yul\":12934:12941   */\n      dup4\n        /* \"#utility.yul\":12931:12950   */\n      lt\n        /* \"#utility.yul\":12928:13107   */\n      iszero\n      tag_227\n      jumpi\n        /* \"#utility.yul\":13001:13010   */\n      dup5\n        /* \"#utility.yul\":12996:12999   */\n      dup10\n        /* \"#utility.yul\":12992:13011   */\n      add\n        /* \"#utility.yul\":12986:13012   */\n      mload\n        /* \"#utility.yul\":13044:13092   */\n      tag_228\n        /* \"#utility.yul\":13086:13090   */\n      0x1f\n        /* \"#utility.yul\":13078:13084   */\n      dup10\n        /* \"#utility.yul\":13074:13091   */\n      and\n        /* \"#utility.yul\":13063:13072   */\n      dup3\n        /* \"#utility.yul\":13044:13092   */\n      tag_88\n      jump\t// in\n    tag_228:\n        /* \"#utility.yul\":13036:13042   */\n      dup4\n        /* \"#utility.yul\":13029:13093   */\n      sstore\n        /* \"#utility.yul\":12951:13107   */\n      pop\n        /* \"#utility.yul\":12928:13107   */\n    tag_227:\n        /* \"#utility.yul\":13153:13154   */\n      0x01\n        /* \"#utility.yul\":13149:13150   */\n      0x02\n        /* \"#utility.yul\":13141:13147   */\n      dup9\n        /* \"#utility.yul\":13137:13151   */\n      mul\n        /* \"#utility.yul\":13133:13155   */\n      add\n        /* \"#utility.yul\":13127:13131   */\n      dup9\n        /* \"#utility.yul\":13120:13156   */\n      sstore\n        /* \"#utility.yul\":12555:13166   */\n      pop\n      pop\n      pop\n        /* \"#utility.yul\":12518:13405   */\n    tag_219:\n      pop\n        /* \"#utility.yul\":12108:13411   */\n      pop\n      pop\n      pop\n        /* \"#utility.yul\":12016:13411   */\n      pop\n      pop\n      jump\t// out\n\n    auxdata: 0xa26469706673582212208b172a7cbde0cd222877406caee2c19b07ae03cd48851b359d18880247b10cbe64736f6c634300081a0033\n}\n",
				"bytecode": {
					"linkReferences": {},
					"object": "6080604052348015600e575f80fd5b50335f806101000a81548173ffffffffffffffffffffffffffffffffffffffff021916908373ffffffffffffffffffffffffffffffffffffffff160217905550610b6b8061005b5f395ff3fe608060405234801561000f575f80fd5b5060043610610034575f3560e01c8063c6895e2014610038578063d1e7be261461006b575b5f80fd5b610052600480360381019061004d919061048f565b610087565b604051610062949392919061052a565b60405180910390f35b610085600480360381019061008091906106b5565b6102cb565b005b6001602052805f5260405f205f91509050805f0180546100a6906107c9565b80601f01602080910402602001604051908101604052809291908181526020018280546100d2906107c9565b801561011d5780601f106100f45761010080835404028352916020019161011d565b820191905f5260205f20905b81548152906001019060200180831161010057829003601f168201915b505050505090806001018054610132906107c9565b80601f016020809104026020016040519081016040528092919081815260200182805461015e906107c9565b80156101a95780601f10610180576101008083540402835291602001916101a9565b820191905f5260205f20905b81548152906001019060200180831161018c57829003601f168201915b5050505050908060020180546101be906107c9565b80601f01602080910402602001604051908101604052809291908181526020018280546101ea906107c9565b80156102355780601f1061020c57610100808354040283529160200191610235565b820191905f5260205f20905b81548152906001019060200180831161021857829003601f168201915b50505050509080600301805461024a906107c9565b80601f0160208091040260200160405190810160405280929190818152602001828054610276906107c9565b80156102c15780601f10610298576101008083540402835291602001916102c1565b820191905f5260205f20905b8154815290600101906020018083116102a457829003601f168201915b5050505050905084565b5f8054906101000a900473ffffffffffffffffffffffffffffffffffffffff1673ffffffffffffffffffffffffffffffffffffffff163373ffffffffffffffffffffffffffffffffffffffff1614610358576040517f08c379a000000000000000000000000000000000000000000000000000000000815260040161034f90610843565b60405180910390fd5b5f60015f8781526020019081526020015f205f018054610377906107c9565b9050146103b9576040517f08c379a00000000000000000000000000000000000000000000000000000000081526004016103b0906108ab565b60405180910390fd5b60405180608001604052808581526020018481526020018381526020018281525060015f8781526020019081526020015f205f820151815f0190816103fe9190610a66565b5060208201518160010190816104149190610a66565b50604082015181600201908161042a9190610a66565b5060608201518160030190816104409190610a66565b509050505050505050565b5f604051905090565b5f80fd5b5f80fd5b5f819050919050565b61046e8161045c565b8114610478575f80fd5b50565b5f8135905061048981610465565b92915050565b5f602082840312156104a4576104a3610454565b5b5f6104b18482850161047b565b91505092915050565b5f81519050919050565b5f82825260208201905092915050565b8281835e5f83830152505050565b5f601f19601f8301169050919050565b5f6104fc826104ba565b61050681856104c4565b93506105168185602086016104d4565b61051f816104e2565b840191505092915050565b5f6080820190508181035f83015261054281876104f2565b9050818103602083015261055681866104f2565b9050818103604083015261056a81856104f2565b9050818103606083015261057e81846104f2565b905095945050505050565b5f80fd5b5f80fd5b7f4e487b71000000000000000000000000000000000000000000000000000000005f52604160045260245ffd5b6105c7826104e2565b810181811067ffffffffffffffff821117156105e6576105e5610591565b5b80604052505050565b5f6105f861044b565b905061060482826105be565b919050565b5f67ffffffffffffffff82111561062357610622610591565b5b61062c826104e2565b9050602081019050919050565b828183375f83830152505050565b5f61065961065484610609565b6105ef565b9050828152602081018484840111156106755761067461058d565b5b610680848285610639565b509392505050565b5f82601f83011261069c5761069b610589565b5b81356106ac848260208601610647565b91505092915050565b5f805f805f60a086880312156106ce576106cd610454565b5b5f6106db8882890161047b565b955050602086013567ffffffffffffffff8111156106fc576106fb610458565b5b61070888828901610688565b945050604086013567ffffffffffffffff81111561072957610728610458565b5b61073588828901610688565b935050606086013567ffffffffffffffff81111561075657610755610458565b5b61076288828901610688565b925050608086013567ffffffffffffffff81111561078357610782610458565b5b61078f88828901610688565b9150509295509295909350565b7f4e487b71000000000000000000000000000000000000000000000000000000005f52602260045260245ffd5b5f60028204905060018216806107e057607f821691505b6020821081036107f3576107f261079c565b5b50919050565b7f556e617574686572697a656420616363657373000000000000000000000000005f82015250565b5f61082d6013836104c4565b9150610838826107f9565b602082019050919050565b5f6020820190508181035f83015261085a81610821565b9050919050565b7f636972746966696361746520616c7265616479206578697374000000000000005f82015250565b5f6108956019836104c4565b91506108a082610861565b602082019050919050565b5f6020820190508181035f8301526108c281610889565b9050919050565b5f819050815f5260205f209050919050565b5f6020601f8301049050919050565b5f82821b905092915050565b5f600883026109257fffffffffffffffffffffffffffffffffffffffffffffffffffffffffffffffff826108ea565b61092f86836108ea565b95508019841693508086168417925050509392505050565b5f819050919050565b5f61096a6109656109608461045c565b610947565b61045c565b9050919050565b5f819050919050565b61098383610950565b61099761098f82610971565b8484546108f6565b825550505050565b5f90565b6109ab61099f565b6109b681848461097a565b505050565b5b818110156109d9576109ce5f826109a3565b6001810190506109bc565b5050565b601f821115610a1e576109ef816108c9565b6109f8846108db565b81016020851015610a07578190505b610a1b610a13856108db565b8301826109bb565b50505b505050565b5f82821c905092915050565b5f610a3e5f1984600802610a23565b1980831691505092915050565b5f610a568383610a2f565b9150826002028217905092915050565b610a6f826104ba565b67ffffffffffffffff811115610a8857610a87610591565b5b610a9282546107c9565b610a9d8282856109dd565b5f60209050601f831160018114610ace575f8415610abc578287015190505b610ac68582610a4b565b865550610b2d565b601f198416610adc866108c9565b5f5b82811015610b0357848901518255600182019150602085019450602081019050610ade565b86831015610b205784890151610b1c601f891682610a2f565b8355505b6001600288020188555050505b50505050505056fea26469706673582212208b172a7cbde0cd222877406caee2c19b07ae03cd48851b359d18880247b10cbe64736f6c634300081a0033",
					"opcodes": "PUSH1 0x80 PUSH1 0x40 MSTORE CALLVALUE DUP1 ISZERO PUSH1 0xE JUMPI PUSH0 DUP1 REVERT JUMPDEST POP CALLER PUSH0 DUP1 PUSH2 0x100 EXP DUP2 SLOAD DUP2 PUSH20 0xFFFFFFFFFFFFFFFFFFFFFFFFFFFFFFFFFFFFFFFF MUL NOT AND SWAP1 DUP4 PUSH20 0xFFFFFFFFFFFFFFFFFFFFFFFFFFFFFFFFFFFFFFFF AND MUL OR SWAP1 SSTORE POP PUSH2 0xB6B DUP1 PUSH2 0x5B PUSH0 CODECOPY PUSH0 RETURN INVALID PUSH1 0x80 PUSH1 0x40 MSTORE CALLVALUE DUP1 ISZERO PUSH2 0xF JUMPI PUSH0 DUP1 REVERT JUMPDEST POP PUSH1 0x4 CALLDATASIZE LT PUSH2 0x34 JUMPI PUSH0 CALLDATALOAD PUSH1 0xE0 SHR DUP1 PUSH4 0xC6895E20 EQ PUSH2 0x38 JUMPI DUP1 PUSH4 0xD1E7BE26 EQ PUSH2 0x6B JUMPI JUMPDEST PUSH0 DUP1 REVERT JUMPDEST PUSH2 0x52 PUSH1 0x4 DUP1 CALLDATASIZE SUB DUP2 ADD SWAP1 PUSH2 0x4D SWAP2 SWAP1 PUSH2 0x48F JUMP JUMPDEST PUSH2 0x87 JUMP JUMPDEST PUSH1 0x40 MLOAD PUSH2 0x62 SWAP5 SWAP4 SWAP3 SWAP2 SWAP1 PUSH2 0x52A JUMP JUMPDEST PUSH1 0x40 MLOAD DUP1 SWAP2 SUB SWAP1 RETURN JUMPDEST PUSH2 0x85 PUSH1 0x4 DUP1 CALLDATASIZE SUB DUP2 ADD SWAP1 PUSH2 0x80 SWAP2 SWAP1 PUSH2 0x6B5 JUMP JUMPDEST PUSH2 0x2CB JUMP JUMPDEST STOP JUMPDEST PUSH1 0x1 PUSH1 0x20 MSTORE DUP1 PUSH0 MSTORE PUSH1 0x40 PUSH0 KECCAK256 PUSH0 SWAP2 POP SWAP1 POP DUP1 PUSH0 ADD DUP1 SLOAD PUSH2 0xA6 SWAP1 PUSH2 0x7C9 JUMP JUMPDEST DUP1 PUSH1 0x1F ADD PUSH1 0x20 DUP1 SWAP2 DIV MUL PUSH1 0x20 ADD PUSH1 0x40 MLOAD SWAP1 DUP2 ADD PUSH1 0x40 MSTORE DUP1 SWAP3 SWAP2 SWAP1 DUP2 DUP2 MSTORE PUSH1 0x20 ADD DUP3 DUP1 SLOAD PUSH2 0xD2 SWAP1 PUSH2 0x7C9 JUMP JUMPDEST DUP1 ISZERO PUSH2 0x11D JUMPI DUP1 PUSH1 0x1F LT PUSH2 0xF4 JUMPI PUSH2 0x100 DUP1 DUP4 SLOAD DIV MUL DUP4 MSTORE SWAP2 PUSH1 0x20 ADD SWAP2 PUSH2 0x11D JUMP JUMPDEST DUP3 ADD SWAP2 SWAP1 PUSH0 MSTORE PUSH1 0x20 PUSH0 KECCAK256 SWAP1 JUMPDEST DUP2 SLOAD DUP2 MSTORE SWAP1 PUSH1 0x1 ADD SWAP1 PUSH1 0x20 ADD DUP1 DUP4 GT PUSH2 0x100 JUMPI DUP3 SWAP1 SUB PUSH1 0x1F AND DUP3 ADD SWAP2 JUMPDEST POP POP POP POP POP SWAP1 DUP1 PUSH1 0x1 ADD DUP1 SLOAD PUSH2 0x132 SWAP1 PUSH2 0x7C9 JUMP JUMPDEST DUP1 PUSH1 0x1F ADD PUSH1 0x20 DUP1 SWAP2 DIV MUL PUSH1 0x20 ADD PUSH1 0x40 MLOAD SWAP1 DUP2 ADD PUSH1 0x40 MSTORE DUP1 SWAP3 SWAP2 SWAP1 DUP2 DUP2 MSTORE PUSH1 0x20 ADD DUP3 DUP1 SLOAD PUSH2 0x15E SWAP1 PUSH2 0x7C9 JUMP JUMPDEST DUP1 ISZERO PUSH2 0x1A9 JUMPI DUP1 PUSH1 0x1F LT PUSH2 0x180 JUMPI PUSH2 0x100 DUP1 DUP4 SLOAD DIV MUL DUP4 MSTORE SWAP2 PUSH1 0x20 ADD SWAP2 PUSH2 0x1A9 JUMP JUMPDEST DUP3 ADD SWAP2 SWAP1 PUSH0 MSTORE PUSH1 0x20 PUSH0 KECCAK256 SWAP1 JUMPDEST DUP2 SLOAD DUP2 MSTORE SWAP1 PUSH1 0x1 ADD SWAP1 PUSH1 0x20 ADD DUP1 DUP4 GT PUSH2 0x18C JUMPI DUP3 SWAP1 SUB PUSH1 0x1F AND DUP3 ADD SWAP2 JUMPDEST POP POP POP POP POP SWAP1 DUP1 PUSH1 0x2 ADD DUP1 SLOAD PUSH2 0x1BE SWAP1 PUSH2 0x7C9 JUMP JUMPDEST DUP1 PUSH1 0x1F ADD PUSH1 0x20 DUP1 SWAP2 DIV MUL PUSH1 0x20 ADD PUSH1 0x40 MLOAD SWAP1 DUP2 ADD PUSH1 0x40 MSTORE DUP1 SWAP3 SWAP2 SWAP1 DUP2 DUP2 MSTORE PUSH1 0x20 ADD DUP3 DUP1 SLOAD PUSH2 0x1EA SWAP1 PUSH2 0x7C9 JUMP JUMPDEST DUP1 ISZERO PUSH2 0x235 JUMPI DUP1 PUSH1 0x1F LT PUSH2 0x20C JUMPI PUSH2 0x100 DUP1 DUP4 SLOAD DIV MUL DUP4 MSTORE SWAP2 PUSH1 0x20 ADD SWAP2 PUSH2 0x235 JUMP JUMPDEST DUP3 ADD SWAP2 SWAP1 PUSH0 MSTORE PUSH1 0x20 PUSH0 KECCAK256 SWAP1 JUMPDEST DUP2 SLOAD DUP2 MSTORE SWAP1 PUSH1 0x1 ADD SWAP1 PUSH1 0x20 ADD DUP1 DUP4 GT PUSH2 0x218 JUMPI DUP3 SWAP1 SUB PUSH1 0x1F AND DUP3 ADD SWAP2 JUMPDEST POP POP POP POP POP SWAP1 DUP1 PUSH1 0x3 ADD DUP1 SLOAD PUSH2 0x24A SWAP1 PUSH2 0x7C9 JUMP JUMPDEST DUP1 PUSH1 0x1F ADD PUSH1 0x20 DUP1 SWAP2 DIV MUL PUSH1 0x20 ADD PUSH1 0x40 MLOAD SWAP1 DUP2 ADD PUSH1 0x40 MSTORE DUP1 SWAP3 SWAP2 SWAP1 DUP2 DUP2 MSTORE PUSH1 0x20 ADD DUP3 DUP1 SLOAD PUSH2 0x276 SWAP1 PUSH2 0x7C9 JUMP JUMPDEST DUP1 ISZERO PUSH2 0x2C1 JUMPI DUP1 PUSH1 0x1F LT PUSH2 0x298 JUMPI PUSH2 0x100 DUP1 DUP4 SLOAD DIV MUL DUP4 MSTORE SWAP2 PUSH1 0x20 ADD SWAP2 PUSH2 0x2C1 JUMP JUMPDEST DUP3 ADD SWAP2 SWAP1 PUSH0 MSTORE PUSH1 0x20 PUSH0 KECCAK256 SWAP1 JUMPDEST DUP2 SLOAD DUP2 MSTORE SWAP1 PUSH1 0x1 ADD SWAP1 PUSH1 0x20 ADD DUP1 DUP4 GT PUSH2 0x2A4 JUMPI DUP3 SWAP1 SUB PUSH1 0x1F AND DUP3 ADD SWAP2 JUMPDEST POP POP POP POP POP SWAP1 POP DUP5 JUMP JUMPDEST PUSH0 DUP1 SLOAD SWAP1 PUSH2 0x100 EXP SWAP1 DIV PUSH20 0xFFFFFFFFFFFFFFFFFFFFFFFFFFFFFFFFFFFFFFFF AND PUSH20 0xFFFFFFFFFFFFFFFFFFFFFFFFFFFFFFFFFFFFFFFF AND CALLER PUSH20 0xFFFFFFFFFFFFFFFFFFFFFFFFFFFFFFFFFFFFFFFF AND EQ PUSH2 0x358 JUMPI PUSH1 0x40 MLOAD PUSH32 0x8C379A000000000000000000000000000000000000000000000000000000000 DUP2 MSTORE PUSH1 0x4 ADD PUSH2 0x34F SWAP1 PUSH2 0x843 JUMP JUMPDEST PUSH1 0x40 MLOAD DUP1 SWAP2 SUB SWAP1 REVERT JUMPDEST PUSH0 PUSH1 0x1 PUSH0 DUP8 DUP2 MSTORE PUSH1 0x20 ADD SWAP1 DUP2 MSTORE PUSH1 0x20 ADD PUSH0 KECCAK256 PUSH0 ADD DUP1 SLOAD PUSH2 0x377 SWAP1 PUSH2 0x7C9 JUMP JUMPDEST SWAP1 POP EQ PUSH2 0x3B9 JUMPI PUSH1 0x40 MLOAD PUSH32 0x8C379A000000000000000000000000000000000000000000000000000000000 DUP2 MSTORE PUSH1 0x4 ADD PUSH2 0x3B0 SWAP1 PUSH2 0x8AB JUMP JUMPDEST PUSH1 0x40 MLOAD DUP1 SWAP2 SUB SWAP1 REVERT JUMPDEST PUSH1 0x40 MLOAD DUP1 PUSH1 0x80 ADD PUSH1 0x40 MSTORE DUP1 DUP6 DUP2 MSTORE PUSH1 0x20 ADD DUP5 DUP2 MSTORE PUSH1 0x20 ADD DUP4 DUP2 MSTORE PUSH1 0x20 ADD DUP3 DUP2 MSTORE POP PUSH1 0x1 PUSH0 DUP8 DUP2 MSTORE PUSH1 0x20 ADD SWAP1 DUP2 MSTORE PUSH1 0x20 ADD PUSH0 KECCAK256 PUSH0 DUP3 ADD MLOAD DUP2 PUSH0 ADD SWAP1 DUP2 PUSH2 0x3FE SWAP2 SWAP1 PUSH2 0xA66 JUMP JUMPDEST POP PUSH1 0x20 DUP3 ADD MLOAD DUP2 PUSH1 0x1 ADD SWAP1 DUP2 PUSH2 0x414 SWAP2 SWAP1 PUSH2 0xA66 JUMP JUMPDEST POP PUSH1 0x40 DUP3 ADD MLOAD DUP2 PUSH1 0x2 ADD SWAP1 DUP2 PUSH2 0x42A SWAP2 SWAP1 PUSH2 0xA66 JUMP JUMPDEST POP PUSH1 0x60 DUP3 ADD MLOAD DUP2 PUSH1 0x3 ADD SWAP1 DUP2 PUSH2 0x440 SWAP2 SWAP1 PUSH2 0xA66 JUMP JUMPDEST POP SWAP1 POP POP POP POP POP POP POP JUMP JUMPDEST PUSH0 PUSH1 0x40 MLOAD SWAP1 POP SWAP1 JUMP JUMPDEST PUSH0 DUP1 REVERT JUMPDEST PUSH0 DUP1 REVERT JUMPDEST PUSH0 DUP2 SWAP1 POP SWAP2 SWAP1 POP JUMP JUMPDEST PUSH2 0x46E DUP2 PUSH2 0x45C JUMP JUMPDEST DUP2 EQ PUSH2 0x478 JUMPI PUSH0 DUP1 REVERT JUMPDEST POP JUMP JUMPDEST PUSH0 DUP2 CALLDATALOAD SWAP1 POP PUSH2 0x489 DUP2 PUSH2 0x465 JUMP JUMPDEST SWAP3 SWAP2 POP POP JUMP JUMPDEST PUSH0 PUSH1 0x20 DUP3 DUP5 SUB SLT ISZERO PUSH2 0x4A4 JUMPI PUSH2 0x4A3 PUSH2 0x454 JUMP JUMPDEST JUMPDEST PUSH0 PUSH2 0x4B1 DUP5 DUP3 DUP6 ADD PUSH2 0x47B JUMP JUMPDEST SWAP2 POP POP SWAP3 SWAP2 POP POP JUMP JUMPDEST PUSH0 DUP2 MLOAD SWAP1 POP SWAP2 SWAP1 POP JUMP JUMPDEST PUSH0 DUP3 DUP3 MSTORE PUSH1 0x20 DUP3 ADD SWAP1 POP SWAP3 SWAP2 POP POP JUMP JUMPDEST DUP3 DUP2 DUP4 MCOPY PUSH0 DUP4 DUP4 ADD MSTORE POP POP POP JUMP JUMPDEST PUSH0 PUSH1 0x1F NOT PUSH1 0x1F DUP4 ADD AND SWAP1 POP SWAP2 SWAP1 POP JUMP JUMPDEST PUSH0 PUSH2 0x4FC DUP3 PUSH2 0x4BA JUMP JUMPDEST PUSH2 0x506 DUP2 DUP6 PUSH2 0x4C4 JUMP JUMPDEST SWAP4 POP PUSH2 0x516 DUP2 DUP6 PUSH1 0x20 DUP7 ADD PUSH2 0x4D4 JUMP JUMPDEST PUSH2 0x51F DUP2 PUSH2 0x4E2 JUMP JUMPDEST DUP5 ADD SWAP2 POP POP SWAP3 SWAP2 POP POP JUMP JUMPDEST PUSH0 PUSH1 0x80 DUP3 ADD SWAP1 POP DUP2 DUP2 SUB PUSH0 DUP4 ADD MSTORE PUSH2 0x542 DUP2 DUP8 PUSH2 0x4F2 JUMP JUMPDEST SWAP1 POP DUP2 DUP2 SUB PUSH1 0x20 DUP4 ADD MSTORE PUSH2 0x556 DUP2 DUP7 PUSH2 0x4F2 JUMP JUMPDEST SWAP1 POP DUP2 DUP2 SUB PUSH1 0x40 DUP4 ADD MSTORE PUSH2 0x56A DUP2 DUP6 PUSH2 0x4F2 JUMP JUMPDEST SWAP1 POP DUP2 DUP2 SUB PUSH1 0x60 DUP4 ADD MSTORE PUSH2 0x57E DUP2 DUP5 PUSH2 0x4F2 JUMP JUMPDEST SWAP1 POP SWAP6 SWAP5 POP POP POP POP POP JUMP JUMPDEST PUSH0 DUP1 REVERT JUMPDEST PUSH0 DUP1 REVERT JUMPDEST PUSH32 0x4E487B7100000000000000000000000000000000000000000000000000000000 PUSH0 MSTORE PUSH1 0x41 PUSH1 0x4 MSTORE PUSH1 0x24 PUSH0 REVERT JUMPDEST PUSH2 0x5C7 DUP3 PUSH2 0x4E2 JUMP JUMPDEST DUP2 ADD DUP2 DUP2 LT PUSH8 0xFFFFFFFFFFFFFFFF DUP3 GT OR ISZERO PUSH2 0x5E6 JUMPI PUSH2 0x5E5 PUSH2 0x591 JUMP JUMPDEST JUMPDEST DUP1 PUSH1 0x40 MSTORE POP POP POP JUMP JUMPDEST PUSH0 PUSH2 0x5F8 PUSH2 0x44B JUMP JUMPDEST SWAP1 POP PUSH2 0x604 DUP3 DUP3 PUSH2 0x5BE JUMP JUMPDEST SWAP2 SWAP1 POP JUMP JUMPDEST PUSH0 PUSH8 0xFFFFFFFFFFFFFFFF DUP3 GT ISZERO PUSH2 0x623 JUMPI PUSH2 0x622 PUSH2 0x591 JUMP JUMPDEST JUMPDEST PUSH2 0x62C DUP3 PUSH2 0x4E2 JUMP JUMPDEST SWAP1 POP PUSH1 0x20 DUP2 ADD SWAP1 POP SWAP2 SWAP1 POP JUMP JUMPDEST DUP3 DUP2 DUP4 CALLDATACOPY PUSH0 DUP4 DUP4 ADD MSTORE POP POP POP JUMP JUMPDEST PUSH0 PUSH2 0x659 PUSH2 0x654 DUP5 PUSH2 0x609 JUMP JUMPDEST PUSH2 0x5EF JUMP JUMPDEST SWAP1 POP DUP3 DUP2 MSTORE PUSH1 0x20 DUP2 ADD DUP5 DUP5 DUP5 ADD GT ISZERO PUSH2 0x675 JUMPI PUSH2 0x674 PUSH2 0x58D JUMP JUMPDEST JUMPDEST PUSH2 0x680 DUP5 DUP3 DUP6 PUSH2 0x639 JUMP JUMPDEST POP SWAP4 SWAP3 POP POP POP JUMP JUMPDEST PUSH0 DUP3 PUSH1 0x1F DUP4 ADD SLT PUSH2 0x69C JUMPI PUSH2 0x69B PUSH2 0x589 JUMP JUMPDEST JUMPDEST DUP2 CALLDATALOAD PUSH2 0x6AC DUP5 DUP3 PUSH1 0x20 DUP7 ADD PUSH2 0x647 JUMP JUMPDEST SWAP2 POP POP SWAP3 SWAP2 POP POP JUMP JUMPDEST PUSH0 DUP1 PUSH0 DUP1 PUSH0 PUSH1 0xA0 DUP7 DUP9 SUB SLT ISZERO PUSH2 0x6CE JUMPI PUSH2 0x6CD PUSH2 0x454 JUMP JUMPDEST JUMPDEST PUSH0 PUSH2 0x6DB DUP9 DUP3 DUP10 ADD PUSH2 0x47B JUMP JUMPDEST SWAP6 POP POP PUSH1 0x20 DUP7 ADD CALLDATALOAD PUSH8 0xFFFFFFFFFFFFFFFF DUP2 GT ISZERO PUSH2 0x6FC JUMPI PUSH2 0x6FB PUSH2 0x458 JUMP JUMPDEST JUMPDEST PUSH2 0x708 DUP9 DUP3 DUP10 ADD PUSH2 0x688 JUMP JUMPDEST SWAP5 POP POP PUSH1 0x40 DUP7 ADD CALLDATALOAD PUSH8 0xFFFFFFFFFFFFFFFF DUP2 GT ISZERO PUSH2 0x729 JUMPI PUSH2 0x728 PUSH2 0x458 JUMP JUMPDEST JUMPDEST PUSH2 0x735 DUP9 DUP3 DUP10 ADD PUSH2 0x688 JUMP JUMPDEST SWAP4 POP POP PUSH1 0x60 DUP7 ADD CALLDATALOAD PUSH8 0xFFFFFFFFFFFFFFFF DUP2 GT ISZERO PUSH2 0x756 JUMPI PUSH2 0x755 PUSH2 0x458 JUMP JUMPDEST JUMPDEST PUSH2 0x762 DUP9 DUP3 DUP10 ADD PUSH2 0x688 JUMP JUMPDEST SWAP3 POP POP PUSH1 0x80 DUP7 ADD CALLDATALOAD PUSH8 0xFFFFFFFFFFFFFFFF DUP2 GT ISZERO PUSH2 0x783 JUMPI PUSH2 0x782 PUSH2 0x458 JUMP JUMPDEST JUMPDEST PUSH2 0x78F DUP9 DUP3 DUP10 ADD PUSH2 0x688 JUMP JUMPDEST SWAP2 POP POP SWAP3 SWAP6 POP SWAP3 SWAP6 SWAP1 SWAP4 POP JUMP JUMPDEST PUSH32 0x4E487B7100000000000000000000000000000000000000000000000000000000 PUSH0 MSTORE PUSH1 0x22 PUSH1 0x4 MSTORE PUSH1 0x24 PUSH0 REVERT JUMPDEST PUSH0 PUSH1 0x2 DUP3 DIV SWAP1 POP PUSH1 0x1 DUP3 AND DUP1 PUSH2 0x7E0 JUMPI PUSH1 0x7F DUP3 AND SWAP2 POP JUMPDEST PUSH1 0x20 DUP3 LT DUP2 SUB PUSH2 0x7F3 JUMPI PUSH2 0x7F2 PUSH2 0x79C JUMP JUMPDEST JUMPDEST POP SWAP2 SWAP1 POP JUMP JUMPDEST PUSH32 0x556E617574686572697A65642061636365737300000000000000000000000000 PUSH0 DUP3 ADD MSTORE POP JUMP JUMPDEST PUSH0 PUSH2 0x82D PUSH1 0x13 DUP4 PUSH2 0x4C4 JUMP JUMPDEST SWAP2 POP PUSH2 0x838 DUP3 PUSH2 0x7F9 JUMP JUMPDEST PUSH1 0x20 DUP3 ADD SWAP1 POP SWAP2 SWAP1 POP JUMP JUMPDEST PUSH0 PUSH1 0x20 DUP3 ADD SWAP1 POP DUP2 DUP2 SUB PUSH0 DUP4 ADD MSTORE PUSH2 0x85A DUP2 PUSH2 0x821 JUMP JUMPDEST SWAP1 POP SWAP2 SWAP1 POP JUMP JUMPDEST PUSH32 0x636972746966696361746520616C726561647920657869737400000000000000 PUSH0 DUP3 ADD MSTORE POP JUMP JUMPDEST PUSH0 PUSH2 0x895 PUSH1 0x19 DUP4 PUSH2 0x4C4 JUMP JUMPDEST SWAP2 POP PUSH2 0x8A0 DUP3 PUSH2 0x861 JUMP JUMPDEST PUSH1 0x20 DUP3 ADD SWAP1 POP SWAP2 SWAP1 POP JUMP JUMPDEST PUSH0 PUSH1 0x20 DUP3 ADD SWAP1 POP DUP2 DUP2 SUB PUSH0 DUP4 ADD MSTORE PUSH2 0x8C2 DUP2 PUSH2 0x889 JUMP JUMPDEST SWAP1 POP SWAP2 SWAP1 POP JUMP JUMPDEST PUSH0 DUP2 SWAP1 POP DUP2 PUSH0 MSTORE PUSH1 0x20 PUSH0 KECCAK256 SWAP1 POP SWAP2 SWAP1 POP JUMP JUMPDEST PUSH0 PUSH1 0x20 PUSH1 0x1F DUP4 ADD DIV SWAP1 POP SWAP2 SWAP1 POP JUMP JUMPDEST PUSH0 DUP3 DUP3 SHL SWAP1 POP SWAP3 SWAP2 POP POP JUMP JUMPDEST PUSH0 PUSH1 0x8 DUP4 MUL PUSH2 0x925 PUSH32 0xFFFFFFFFFFFFFFFFFFFFFFFFFFFFFFFFFFFFFFFFFFFFFFFFFFFFFFFFFFFFFFFF DUP3 PUSH2 0x8EA JUMP JUMPDEST PUSH2 0x92F DUP7 DUP4 PUSH2 0x8EA JUMP JUMPDEST SWAP6 POP DUP1 NOT DUP5 AND SWAP4 POP DUP1 DUP7 AND DUP5 OR SWAP3 POP POP POP SWAP4 SWAP3 POP POP POP JUMP JUMPDEST PUSH0 DUP2 SWAP1 POP SWAP2 SWAP1 POP JUMP JUMPDEST PUSH0 PUSH2 0x96A PUSH2 0x965 PUSH2 0x960 DUP5 PUSH2 0x45C JUMP JUMPDEST PUSH2 0x947 JUMP JUMPDEST PUSH2 0x45C JUMP JUMPDEST SWAP1 POP SWAP2 SWAP1 POP JUMP JUMPDEST PUSH0 DUP2 SWAP1 POP SWAP2 SWAP1 POP JUMP JUMPDEST PUSH2 0x983 DUP4 PUSH2 0x950 JUMP JUMPDEST PUSH2 0x997 PUSH2 0x98F DUP3 PUSH2 0x971 JUMP JUMPDEST DUP5 DUP5 SLOAD PUSH2 0x8F6 JUMP JUMPDEST DUP3 SSTORE POP POP POP POP JUMP JUMPDEST PUSH0 SWAP1 JUMP JUMPDEST PUSH2 0x9AB PUSH2 0x99F JUMP JUMPDEST PUSH2 0x9B6 DUP2 DUP5 DUP5 PUSH2 0x97A JUMP JUMPDEST POP POP POP JUMP JUMPDEST JUMPDEST DUP2 DUP2 LT ISZERO PUSH2 0x9D9 JUMPI PUSH2 0x9CE PUSH0 DUP3 PUSH2 0x9A3 JUMP JUMPDEST PUSH1 0x1 DUP2 ADD SWAP1 POP PUSH2 0x9BC JUMP JUMPDEST POP POP JUMP JUMPDEST PUSH1 0x1F DUP3 GT ISZERO PUSH2 0xA1E JUMPI PUSH2 0x9EF DUP2 PUSH2 0x8C9 JUMP JUMPDEST PUSH2 0x9F8 DUP5 PUSH2 0x8DB JUMP JUMPDEST DUP2 ADD PUSH1 0x20 DUP6 LT ISZERO PUSH2 0xA07 JUMPI DUP2 SWAP1 POP JUMPDEST PUSH2 0xA1B PUSH2 0xA13 DUP6 PUSH2 0x8DB JUMP JUMPDEST DUP4 ADD DUP3 PUSH2 0x9BB JUMP JUMPDEST POP POP JUMPDEST POP POP POP JUMP JUMPDEST PUSH0 DUP3 DUP3 SHR SWAP1 POP SWAP3 SWAP2 POP POP JUMP JUMPDEST PUSH0 PUSH2 0xA3E PUSH0 NOT DUP5 PUSH1 0x8 MUL PUSH2 0xA23 JUMP JUMPDEST NOT DUP1 DUP4 AND SWAP2 POP POP SWAP3 SWAP2 POP POP JUMP JUMPDEST PUSH0 PUSH2 0xA56 DUP4 DUP4 PUSH2 0xA2F JUMP JUMPDEST SWAP2 POP DUP3 PUSH1 0x2 MUL DUP3 OR SWAP1 POP SWAP3 SWAP2 POP POP JUMP JUMPDEST PUSH2 0xA6F DUP3 PUSH2 0x4BA JUMP JUMPDEST PUSH8 0xFFFFFFFFFFFFFFFF DUP2 GT ISZERO PUSH2 0xA88 JUMPI PUSH2 0xA87 PUSH2 0x591 JUMP JUMPDEST JUMPDEST PUSH2 0xA92 DUP3 SLOAD PUSH2 0x7C9 JUMP JUMPDEST PUSH2 0xA9D DUP3 DUP3 DUP6 PUSH2 0x9DD JUMP JUMPDEST PUSH0 PUSH1 0x20 SWAP1 POP PUSH1 0x1F DUP4 GT PUSH1 0x1 DUP2 EQ PUSH2 0xACE JUMPI PUSH0 DUP5 ISZERO PUSH2 0xABC JUMPI DUP3 DUP8 ADD MLOAD SWAP1 POP JUMPDEST PUSH2 0xAC6 DUP6 DUP3 PUSH2 0xA4B JUMP JUMPDEST DUP7 SSTORE POP PUSH2 0xB2D JUMP JUMPDEST PUSH1 0x1F NOT DUP5 AND PUSH2 0xADC DUP7 PUSH2 0x8C9 JUMP JUMPDEST PUSH0 JUMPDEST DUP3 DUP2 LT ISZERO PUSH2 0xB03 JUMPI DUP5 DUP10 ADD MLOAD DUP3 SSTORE PUSH1 0x1 DUP3 ADD SWAP2 POP PUSH1 0x20 DUP6 ADD SWAP5 POP PUSH1 0x20 DUP2 ADD SWAP1 POP PUSH2 0xADE JUMP JUMPDEST DUP7 DUP4 LT ISZERO PUSH2 0xB20 JUMPI DUP5 DUP10 ADD MLOAD PUSH2 0xB1C PUSH1 0x1F DUP10 AND DUP3 PUSH2 0xA2F JUMP JUMPDEST DUP4 SSTORE POP JUMPDEST PUSH1 0x1 PUSH1 0x2 DUP9 MUL ADD DUP9 SSTORE POP POP POP JUMPDEST POP POP POP POP POP POP JUMP INVALID LOG2 PUSH5 0x6970667358 0x22 SLT KECCAK256 DUP12 OR 0x2A PUSH29 0xBDE0CD222877406CAEE2C19B07AE03CD48851B359D18880247B10CBE64 PUSH20 0x6F6C634300081A00330000000000000000000000 "
				},
				"gasEstimates": {
					"creation": {
						"codeDepositCost": "584600",
						"executionCost": "24882",
						"totalCost": "609482"
					},
					"external": {
						"cirty(uint256)": "infinite",
						"issue(uint256,string,string,string,string)": "infinite"
					}
				},
				"methodIdentifiers": {
					"cirty(uint256)": "c6895e20",
					"issue(uint256,string,string,string,string)": "d1e7be26"
				}
			},
			"storageLayout": {
				"storage": [
					{
						"astId": 12,
						"contract": "Cirti.sol:Cirti",
						"label": "admin",
						"offset": 0,
						"slot": "0",
						"type": "t_address"
					},
					{
						"astId": 26,
						"contract": "Cirti.sol:Cirti",
						"label": "cirty",
						"offset": 0,
						"slot": "1",
						"type": "t_mapping(t_uint256,t_struct(cirtificate)10_storage)"
					}
				],
				"types": {
					"t_address": {
						"encoding": "inplace",
						"label": "address",
						"numberOfBytes": "20"
					},
					"t_mapping(t_uint256,t_struct(cirtificate)10_storage)": {
						"encoding": "mapping",
						"key": "t_uint256",
						"label": "mapping(uint256 => struct Cirti.cirtificate)",
						"numberOfBytes": "32",
						"value": "t_struct(cirtificate)10_storage"
					},
					"t_string_storage": {
						"encoding": "bytes",
						"label": "string",
						"numberOfBytes": "32"
					},
					"t_struct(cirtificate)10_storage": {
						"encoding": "inplace",
						"label": "struct Cirti.cirtificate",
						"members": [
							{
								"astId": 3,
								"contract": "Cirti.sol:Cirti",
								"label": "name",
								"offset": 0,
								"slot": "0",
								"type": "t_string_storage"
							},
							{
								"astId": 5,
								"contract": "Cirti.sol:Cirti",
								"label": "course",
								"offset": 0,
								"slot": "1",
								"type": "t_string_storage"
							},
							{
								"astId": 7,
								"contract": "Cirti.sol:Cirti",
								"label": "grade",
								"offset": 0,
								"slot": "2",
								"type": "t_string_storage"
							},
							{
								"astId": 9,
								"contract": "Cirti.sol:Cirti",
								"label": "date",
								"offset": 0,
								"slot": "3",
								"type": "t_string_storage"
							}
						],
						"numberOfBytes": "128"
					},
					"t_uint256": {
						"encoding": "inplace",
						"label": "uint256",
						"numberOfBytes": "32"
					}
				}
			},
			"userdoc": {
				"kind": "user",
				"methods": {},
				"version": 1
			}
		}
	}
}