{
	"contracts/mybook.sol": {
		"MyBook": {
			"abi": [
				{
					"inputs": [],
					"name": "getBookDetails",
					"outputs": [
						{
							"internalType": "string",
							"name": "",
							"type": "string"
						},
						{
							"internalType": "uint16",
							"name": "",
							"type": "uint16"
						}
					],
					"stateMutability": "view",
					"type": "function"
				},
				{
					"inputs": [],
					"name": "price",
					"outputs": [
						{
							"internalType": "uint16",
							"name": "",
							"type": "uint16"
						}
					],
					"stateMutability": "view",
					"type": "function"
				},
				{
					"inputs": [
						{
							"internalType": "string",
							"name": "_title",
							"type": "string"
						},
						{
							"internalType": "uint16",
							"name": "_price",
							"type": "uint16"
						}
					],
					"name": "setBookDetails",
					"outputs": [],
					"stateMutability": "nonpayable",
					"type": "function"
				},
				{
					"inputs": [],
					"name": "title",
					"outputs": [
						{
							"internalType": "string",
							"name": "",
							"type": "string"
						}
					],
					"stateMutability": "view",
					"type": "function"
				}
			],
			"devdoc": {
				"kind": "dev",
				"methods": {},
				"version": 1
			},
			"evm": {
				"assembly": "    /* \"contracts/mybook.sol\":56:360  contract MyBook{... */\n  mstore(0x40, 0x80)\n  callvalue\n  dup1\n  iszero\n  tag_1\n  jumpi\n  revert(0x00, 0x00)\ntag_1:\n  pop\n  dataSize(sub_0)\n  dup1\n  dataOffset(sub_0)\n  0x00\n  codecopy\n  0x00\n  return\nstop\n\nsub_0: assembly {\n        /* \"contracts/mybook.sol\":56:360  contract MyBook{... */\n      mstore(0x40, 0x80)\n      callvalue\n      dup1\n      iszero\n      tag_1\n      jumpi\n      revert(0x00, 0x00)\n    tag_1:\n      pop\n      jumpi(tag_2, lt(calldatasize, 0x04))\n      shr(0xe0, calldataload(0x00))\n      dup1\n      0x4a79d50c\n      eq\n      tag_3\n      jumpi\n      dup1\n      0x64b13176\n      eq\n      tag_4\n      jumpi\n      dup1\n      0xa035b1fe\n      eq\n      tag_5\n      jumpi\n      dup1\n      0xde761c66\n      eq\n      tag_6\n      jumpi\n    tag_2:\n      revert(0x00, 0x00)\n        /* \"contracts/mybook.sol\":77:97  string public  title */\n    tag_3:\n      tag_7\n      tag_8\n      jump\t// in\n    tag_7:\n      mload(0x40)\n      tag_9\n      swap2\n      swap1\n      tag_10\n      jump\t// in\n    tag_9:\n      mload(0x40)\n      dup1\n      swap2\n      sub\n      swap1\n      return\n        /* \"contracts/mybook.sol\":238:358  function setBookDetails(string memory _title,uint16 _price)public{... */\n    tag_4:\n      tag_11\n      0x04\n      dup1\n      calldatasize\n      sub\n      dup2\n      add\n      swap1\n      tag_12\n      swap2\n      swap1\n      tag_13\n      jump\t// in\n    tag_12:\n      tag_14\n      jump\t// in\n    tag_11:\n      stop\n        /* \"contracts/mybook.sol\":103:123  uint16 public  price */\n    tag_5:\n      tag_15\n      tag_16\n      jump\t// in\n    tag_15:\n      mload(0x40)\n      tag_17\n      swap2\n      swap1\n      tag_18\n      jump\t// in\n    tag_17:\n      mload(0x40)\n      dup1\n      swap2\n      sub\n      swap1\n      return\n        /* \"contracts/mybook.sol\":129:233  function getBookDetails() public view returns(string memory,uint16){... */\n    tag_6:\n      tag_19\n      tag_20\n      jump\t// in\n    tag_19:\n      mload(0x40)\n      tag_21\n      swap3\n      swap2\n      swap1\n      tag_22\n      jump\t// in\n    tag_21:\n      mload(0x40)\n      dup1\n      swap2\n      sub\n      swap1\n      return\n        /* \"contracts/mybook.sol\":77:97  string public  title */\n    tag_8:\n      0x00\n      dup1\n      sload\n      tag_23\n      swap1\n      tag_24\n      jump\t// in\n    tag_23:\n      dup1\n      0x1f\n      add\n      0x20\n      dup1\n      swap2\n      div\n      mul\n      0x20\n      add\n      mload(0x40)\n      swap1\n      dup2\n      add\n      0x40\n      mstore\n      dup1\n      swap3\n      swap2\n      swap1\n      dup2\n      dup2\n      mstore\n      0x20\n      add\n      dup3\n      dup1\n      sload\n      tag_25\n      swap1\n      tag_24\n      jump\t// in\n    tag_25:\n      dup1\n      iszero\n      tag_26\n      jumpi\n      dup1\n      0x1f\n      lt\n      tag_27\n      jumpi\n      0x0100\n      dup1\n      dup4\n      sload\n      div\n      mul\n      dup4\n      mstore\n      swap2\n      0x20\n      add\n      swap2\n      jump(tag_26)\n    tag_27:\n      dup3\n      add\n      swap2\n      swap1\n      0x00\n      mstore\n      keccak256(0x00, 0x20)\n      swap1\n    tag_28:\n      dup2\n      sload\n      dup2\n      mstore\n      swap1\n      0x01\n      add\n      swap1\n      0x20\n      add\n      dup1\n      dup4\n      gt\n      tag_28\n      jumpi\n      dup3\n      swap1\n      sub\n      0x1f\n      and\n      dup3\n      add\n      swap2\n    tag_26:\n      pop\n      pop\n      pop\n      pop\n      pop\n      dup2\n      jump\t// out\n        /* \"contracts/mybook.sol\":238:358  function setBookDetails(string memory _title,uint16 _price)public{... */\n    tag_14:\n        /* \"contracts/mybook.sol\":321:327  _title */\n      dup2\n        /* \"contracts/mybook.sol\":313:318  title */\n      0x00\n        /* \"contracts/mybook.sol\":313:327  title = _title */\n      swap1\n      dup2\n      tag_30\n      swap2\n      swap1\n      tag_31\n      jump\t// in\n    tag_30:\n      pop\n        /* \"contracts/mybook.sol\":345:351  _price */\n      dup1\n        /* \"contracts/mybook.sol\":337:342  price */\n      0x01\n      0x00\n        /* \"contracts/mybook.sol\":337:351  price = _price */\n      0x0100\n      exp\n      dup2\n      sload\n      dup2\n      0xffff\n      mul\n      not\n      and\n      swap1\n      dup4\n      0xffff\n      and\n      mul\n      or\n      swap1\n      sstore\n      pop\n        /* \"contracts/mybook.sol\":238:358  function setBookDetails(string memory _title,uint16 _price)public{... */\n      pop\n      pop\n      jump\t// out\n        /* \"contracts/mybook.sol\":103:123  uint16 public  price */\n    tag_16:\n      0x01\n      0x00\n      swap1\n      sload\n      swap1\n      0x0100\n      exp\n      swap1\n      div\n      0xffff\n      and\n      dup2\n      jump\t// out\n        /* \"contracts/mybook.sol\":129:233  function getBookDetails() public view returns(string memory,uint16){... */\n    tag_20:\n        /* \"contracts/mybook.sol\":175:188  string memory */\n      0x60\n        /* \"contracts/mybook.sol\":189:195  uint16 */\n      0x00\n        /* \"contracts/mybook.sol\":214:219  title */\n      0x00\n        /* \"contracts/mybook.sol\":220:225  price */\n      0x01\n      0x00\n      swap1\n      sload\n      swap1\n      0x0100\n      exp\n      swap1\n      div\n      0xffff\n      and\n        /* \"contracts/mybook.sol\":206:226  return (title,price) */\n      dup2\n      dup1\n      sload\n      tag_33\n      swap1\n      tag_24\n      jump\t// in\n    tag_33:\n      dup1\n      0x1f\n      add\n      0x20\n      dup1\n      swap2\n      div\n      mul\n      0x20\n      add\n      mload(0x40)\n      swap1\n      dup2\n      add\n      0x40\n      mstore\n      dup1\n      swap3\n      swap2\n      swap1\n      dup2\n      dup2\n      mstore\n      0x20\n      add\n      dup3\n      dup1\n      sload\n      tag_34\n      swap1\n      tag_24\n      jump\t// in\n    tag_34:\n      dup1\n      iszero\n      tag_35\n      jumpi\n      dup1\n      0x1f\n      lt\n      tag_36\n      jumpi\n      0x0100\n      dup1\n      dup4\n      sload\n      div\n      mul\n      dup4\n      mstore\n      swap2\n      0x20\n      add\n      swap2\n      jump(tag_35)\n    tag_36:\n      dup3\n      add\n      swap2\n      swap1\n      0x00\n      mstore\n      keccak256(0x00, 0x20)\n      swap1\n    tag_37:\n      dup2\n      sload\n      dup2\n      mstore\n      swap1\n      0x01\n      add\n      swap1\n      0x20\n      add\n      dup1\n      dup4\n      gt\n      tag_37\n      jumpi\n      dup3\n      swap1\n      sub\n      0x1f\n      and\n      dup3\n      add\n      swap2\n    tag_35:\n      pop\n      pop\n      pop\n      pop\n      pop\n      swap2\n      pop\n      swap2\n      pop\n      swap2\n      pop\n        /* \"contracts/mybook.sol\":129:233  function getBookDetails() public view returns(string memory,uint16){... */\n      swap1\n      swap2\n      jump\t// out\n        /* \"#utility.yul\":7:106   */\n    tag_38:\n        /* \"#utility.yul\":59:65   */\n      0x00\n        /* \"#utility.yul\":93:98   */\n      dup2\n        /* \"#utility.yul\":87:99   */\n      mload\n        /* \"#utility.yul\":77:99   */\n      swap1\n      pop\n        /* \"#utility.yul\":7:106   */\n      swap2\n      swap1\n      pop\n      jump\t// out\n        /* \"#utility.yul\":112:281   */\n    tag_39:\n        /* \"#utility.yul\":196:207   */\n      0x00\n        /* \"#utility.yul\":230:236   */\n      dup3\n        /* \"#utility.yul\":225:228   */\n      dup3\n        /* \"#utility.yul\":218:237   */\n      mstore\n        /* \"#utility.yul\":270:274   */\n      0x20\n        /* \"#utility.yul\":265:268   */\n      dup3\n        /* \"#utility.yul\":261:275   */\n      add\n        /* \"#utility.yul\":246:275   */\n      swap1\n      pop\n        /* \"#utility.yul\":112:281   */\n      swap3\n      swap2\n      pop\n      pop\n      jump\t// out\n        /* \"#utility.yul\":287:426   */\n    tag_40:\n        /* \"#utility.yul\":376:382   */\n      dup3\n        /* \"#utility.yul\":371:374   */\n      dup2\n        /* \"#utility.yul\":366:369   */\n      dup4\n        /* \"#utility.yul\":360:383   */\n      mcopy\n        /* \"#utility.yul\":417:418   */\n      0x00\n        /* \"#utility.yul\":408:414   */\n      dup4\n        /* \"#utility.yul\":403:406   */\n      dup4\n        /* \"#utility.yul\":399:415   */\n      add\n        /* \"#utility.yul\":392:419   */\n      mstore\n        /* \"#utility.yul\":287:426   */\n      pop\n      pop\n      pop\n      jump\t// out\n        /* \"#utility.yul\":432:534   */\n    tag_41:\n        /* \"#utility.yul\":473:479   */\n      0x00\n        /* \"#utility.yul\":524:526   */\n      0x1f\n        /* \"#utility.yul\":520:527   */\n      not\n        /* \"#utility.yul\":515:517   */\n      0x1f\n        /* \"#utility.yul\":508:513   */\n      dup4\n        /* \"#utility.yul\":504:518   */\n      add\n        /* \"#utility.yul\":500:528   */\n      and\n        /* \"#utility.yul\":490:528   */\n      swap1\n      pop\n        /* \"#utility.yul\":432:534   */\n      swap2\n      swap1\n      pop\n      jump\t// out\n        /* \"#utility.yul\":540:917   */\n    tag_42:\n        /* \"#utility.yul\":628:631   */\n      0x00\n        /* \"#utility.yul\":656:695   */\n      tag_82\n        /* \"#utility.yul\":689:694   */\n      dup3\n        /* \"#utility.yul\":656:695   */\n      tag_38\n      jump\t// in\n    tag_82:\n        /* \"#utility.yul\":711:782   */\n      tag_83\n        /* \"#utility.yul\":775:781   */\n      dup2\n        /* \"#utility.yul\":770:773   */\n      dup6\n        /* \"#utility.yul\":711:782   */\n      tag_39\n      jump\t// in\n    tag_83:\n        /* \"#utility.yul\":704:782   */\n      swap4\n      pop\n        /* \"#utility.yul\":791:856   */\n      tag_84\n        /* \"#utility.yul\":849:855   */\n      dup2\n        /* \"#utility.yul\":844:847   */\n      dup6\n        /* \"#utility.yul\":837:841   */\n      0x20\n        /* \"#utility.yul\":830:835   */\n      dup7\n        /* \"#utility.yul\":826:842   */\n      add\n        /* \"#utility.yul\":791:856   */\n      tag_40\n      jump\t// in\n    tag_84:\n        /* \"#utility.yul\":881:910   */\n      tag_85\n        /* \"#utility.yul\":903:909   */\n      dup2\n        /* \"#utility.yul\":881:910   */\n      tag_41\n      jump\t// in\n    tag_85:\n        /* \"#utility.yul\":876:879   */\n      dup5\n        /* \"#utility.yul\":872:911   */\n      add\n        /* \"#utility.yul\":865:911   */\n      swap2\n      pop\n        /* \"#utility.yul\":632:917   */\n      pop\n        /* \"#utility.yul\":540:917   */\n      swap3\n      swap2\n      pop\n      pop\n      jump\t// out\n        /* \"#utility.yul\":923:1236   */\n    tag_10:\n        /* \"#utility.yul\":1036:1040   */\n      0x00\n        /* \"#utility.yul\":1074:1076   */\n      0x20\n        /* \"#utility.yul\":1063:1072   */\n      dup3\n        /* \"#utility.yul\":1059:1077   */\n      add\n        /* \"#utility.yul\":1051:1077   */\n      swap1\n      pop\n        /* \"#utility.yul\":1123:1132   */\n      dup2\n        /* \"#utility.yul\":1117:1121   */\n      dup2\n        /* \"#utility.yul\":1113:1133   */\n      sub\n        /* \"#utility.yul\":1109:1110   */\n      0x00\n        /* \"#utility.yul\":1098:1107   */\n      dup4\n        /* \"#utility.yul\":1094:1111   */\n      add\n        /* \"#utility.yul\":1087:1134   */\n      mstore\n        /* \"#utility.yul\":1151:1229   */\n      tag_87\n        /* \"#utility.yul\":1224:1228   */\n      dup2\n        /* \"#utility.yul\":1215:1221   */\n      dup5\n        /* \"#utility.yul\":1151:1229   */\n      tag_42\n      jump\t// in\n    tag_87:\n        /* \"#utility.yul\":1143:1229   */\n      swap1\n      pop\n        /* \"#utility.yul\":923:1236   */\n      swap3\n      swap2\n      pop\n      pop\n      jump\t// out\n        /* \"#utility.yul\":1242:1317   */\n    tag_43:\n        /* \"#utility.yul\":1275:1281   */\n      0x00\n        /* \"#utility.yul\":1308:1310   */\n      0x40\n        /* \"#utility.yul\":1302:1311   */\n      mload\n        /* \"#utility.yul\":1292:1311   */\n      swap1\n      pop\n        /* \"#utility.yul\":1242:1317   */\n      swap1\n      jump\t// out\n        /* \"#utility.yul\":1323:1440   */\n    tag_44:\n        /* \"#utility.yul\":1432:1433   */\n      0x00\n        /* \"#utility.yul\":1429:1430   */\n      0x00\n        /* \"#utility.yul\":1422:1434   */\n      revert\n        /* \"#utility.yul\":1446:1563   */\n    tag_45:\n        /* \"#utility.yul\":1555:1556   */\n      0x00\n        /* \"#utility.yul\":1552:1553   */\n      0x00\n        /* \"#utility.yul\":1545:1557   */\n      revert\n        /* \"#utility.yul\":1569:1686   */\n    tag_46:\n        /* \"#utility.yul\":1678:1679   */\n      0x00\n        /* \"#utility.yul\":1675:1676   */\n      0x00\n        /* \"#utility.yul\":1668:1680   */\n      revert\n        /* \"#utility.yul\":1692:1809   */\n    tag_47:\n        /* \"#utility.yul\":1801:1802   */\n      0x00\n        /* \"#utility.yul\":1798:1799   */\n      0x00\n        /* \"#utility.yul\":1791:1803   */\n      revert\n        /* \"#utility.yul\":1815:1995   */\n    tag_48:\n        /* \"#utility.yul\":1863:1940   */\n      0x4e487b7100000000000000000000000000000000000000000000000000000000\n        /* \"#utility.yul\":1860:1861   */\n      0x00\n        /* \"#utility.yul\":1853:1941   */\n      mstore\n        /* \"#utility.yul\":1960:1964   */\n      0x41\n        /* \"#utility.yul\":1957:1958   */\n      0x04\n        /* \"#utility.yul\":1950:1965   */\n      mstore\n        /* \"#utility.yul\":1984:1988   */\n      0x24\n        /* \"#utility.yul\":1981:1982   */\n      0x00\n        /* \"#utility.yul\":1974:1989   */\n      revert\n        /* \"#utility.yul\":2001:2282   */\n    tag_49:\n        /* \"#utility.yul\":2084:2111   */\n      tag_95\n        /* \"#utility.yul\":2106:2110   */\n      dup3\n        /* \"#utility.yul\":2084:2111   */\n      tag_41\n      jump\t// in\n    tag_95:\n        /* \"#utility.yul\":2076:2082   */\n      dup2\n        /* \"#utility.yul\":2072:2112   */\n      add\n        /* \"#utility.yul\":2214:2220   */\n      dup2\n        /* \"#utility.yul\":2202:2212   */\n      dup2\n        /* \"#utility.yul\":2199:2221   */\n      lt\n        /* \"#utility.yul\":2178:2196   */\n      0xffffffffffffffff\n        /* \"#utility.yul\":2166:2176   */\n      dup3\n        /* \"#utility.yul\":2163:2197   */\n      gt\n        /* \"#utility.yul\":2160:2222   */\n      or\n        /* \"#utility.yul\":2157:2245   */\n      iszero\n      tag_96\n      jumpi\n        /* \"#utility.yul\":2225:2243   */\n      tag_97\n      tag_48\n      jump\t// in\n    tag_97:\n        /* \"#utility.yul\":2157:2245   */\n    tag_96:\n        /* \"#utility.yul\":2265:2275   */\n      dup1\n        /* \"#utility.yul\":2261:2263   */\n      0x40\n        /* \"#utility.yul\":2254:2276   */\n      mstore\n        /* \"#utility.yul\":2044:2282   */\n      pop\n        /* \"#utility.yul\":2001:2282   */\n      pop\n      pop\n      jump\t// out\n        /* \"#utility.yul\":2288:2417   */\n    tag_50:\n        /* \"#utility.yul\":2322:2328   */\n      0x00\n        /* \"#utility.yul\":2349:2369   */\n      tag_99\n      tag_43\n      jump\t// in\n    tag_99:\n        /* \"#utility.yul\":2339:2369   */\n      swap1\n      pop\n        /* \"#utility.yul\":2378:2411   */\n      tag_100\n        /* \"#utility.yul\":2406:2410   */\n      dup3\n        /* \"#utility.yul\":2398:2404   */\n      dup3\n        /* \"#utility.yul\":2378:2411   */\n      tag_49\n      jump\t// in\n    tag_100:\n        /* \"#utility.yul\":2288:2417   */\n      swap2\n      swap1\n      pop\n      jump\t// out\n        /* \"#utility.yul\":2423:2731   */\n    tag_51:\n        /* \"#utility.yul\":2485:2489   */\n      0x00\n        /* \"#utility.yul\":2575:2593   */\n      0xffffffffffffffff\n        /* \"#utility.yul\":2567:2573   */\n      dup3\n        /* \"#utility.yul\":2564:2594   */\n      gt\n        /* \"#utility.yul\":2561:2617   */\n      iszero\n      tag_102\n      jumpi\n        /* \"#utility.yul\":2597:2615   */\n      tag_103\n      tag_48\n      jump\t// in\n    tag_103:\n        /* \"#utility.yul\":2561:2617   */\n    tag_102:\n        /* \"#utility.yul\":2635:2664   */\n      tag_104\n        /* \"#utility.yul\":2657:2663   */\n      dup3\n        /* \"#utility.yul\":2635:2664   */\n      tag_41\n      jump\t// in\n    tag_104:\n        /* \"#utility.yul\":2627:2664   */\n      swap1\n      pop\n        /* \"#utility.yul\":2719:2723   */\n      0x20\n        /* \"#utility.yul\":2713:2717   */\n      dup2\n        /* \"#utility.yul\":2709:2724   */\n      add\n        /* \"#utility.yul\":2701:2724   */\n      swap1\n      pop\n        /* \"#utility.yul\":2423:2731   */\n      swap2\n      swap1\n      pop\n      jump\t// out\n        /* \"#utility.yul\":2737:2885   */\n    tag_52:\n        /* \"#utility.yul\":2835:2841   */\n      dup3\n        /* \"#utility.yul\":2830:2833   */\n      dup2\n        /* \"#utility.yul\":2825:2828   */\n      dup4\n        /* \"#utility.yul\":2812:2842   */\n      calldatacopy\n        /* \"#utility.yul\":2876:2877   */\n      0x00\n        /* \"#utility.yul\":2867:2873   */\n      dup4\n        /* \"#utility.yul\":2862:2865   */\n      dup4\n        /* \"#utility.yul\":2858:2874   */\n      add\n        /* \"#utility.yul\":2851:2878   */\n      mstore\n        /* \"#utility.yul\":2737:2885   */\n      pop\n      pop\n      pop\n      jump\t// out\n        /* \"#utility.yul\":2891:3316   */\n    tag_53:\n        /* \"#utility.yul\":2969:2974   */\n      0x00\n        /* \"#utility.yul\":2994:3060   */\n      tag_107\n        /* \"#utility.yul\":3010:3059   */\n      tag_108\n        /* \"#utility.yul\":3052:3058   */\n      dup5\n        /* \"#utility.yul\":3010:3059   */\n      tag_51\n      jump\t// in\n    tag_108:\n        /* \"#utility.yul\":2994:3060   */\n      tag_50\n      jump\t// in\n    tag_107:\n        /* \"#utility.yul\":2985:3060   */\n      swap1\n      pop\n        /* \"#utility.yul\":3083:3089   */\n      dup3\n        /* \"#utility.yul\":3076:3081   */\n      dup2\n        /* \"#utility.yul\":3069:3090   */\n      mstore\n        /* \"#utility.yul\":3121:3125   */\n      0x20\n        /* \"#utility.yul\":3114:3119   */\n      dup2\n        /* \"#utility.yul\":3110:3126   */\n      add\n        /* \"#utility.yul\":3159:3162   */\n      dup5\n        /* \"#utility.yul\":3150:3156   */\n      dup5\n        /* \"#utility.yul\":3145:3148   */\n      dup5\n        /* \"#utility.yul\":3141:3157   */\n      add\n        /* \"#utility.yul\":3138:3163   */\n      gt\n        /* \"#utility.yul\":3135:3247   */\n      iszero\n      tag_109\n      jumpi\n        /* \"#utility.yul\":3166:3245   */\n      tag_110\n      tag_47\n      jump\t// in\n    tag_110:\n        /* \"#utility.yul\":3135:3247   */\n    tag_109:\n        /* \"#utility.yul\":3256:3310   */\n      tag_111\n        /* \"#utility.yul\":3303:3309   */\n      dup5\n        /* \"#utility.yul\":3298:3301   */\n      dup3\n        /* \"#utility.yul\":3293:3296   */\n      dup6\n        /* \"#utility.yul\":3256:3310   */\n      tag_52\n      jump\t// in\n    tag_111:\n        /* \"#utility.yul\":2975:3316   */\n      pop\n        /* \"#utility.yul\":2891:3316   */\n      swap4\n      swap3\n      pop\n      pop\n      pop\n      jump\t// out\n        /* \"#utility.yul\":3336:3676   */\n    tag_54:\n        /* \"#utility.yul\":3392:3397   */\n      0x00\n        /* \"#utility.yul\":3441:3444   */\n      dup3\n        /* \"#utility.yul\":3434:3438   */\n      0x1f\n        /* \"#utility.yul\":3426:3432   */\n      dup4\n        /* \"#utility.yul\":3422:3439   */\n      add\n        /* \"#utility.yul\":3418:3445   */\n      slt\n        /* \"#utility.yul\":3408:3530   */\n      tag_113\n      jumpi\n        /* \"#utility.yul\":3449:3528   */\n      tag_114\n      tag_46\n      jump\t// in\n    tag_114:\n        /* \"#utility.yul\":3408:3530   */\n    tag_113:\n        /* \"#utility.yul\":3566:3572   */\n      dup2\n        /* \"#utility.yul\":3553:3573   */\n      calldataload\n        /* \"#utility.yul\":3591:3670   */\n      tag_115\n        /* \"#utility.yul\":3666:3669   */\n      dup5\n        /* \"#utility.yul\":3658:3664   */\n      dup3\n        /* \"#utility.yul\":3651:3655   */\n      0x20\n        /* \"#utility.yul\":3643:3649   */\n      dup7\n        /* \"#utility.yul\":3639:3656   */\n      add\n        /* \"#utility.yul\":3591:3670   */\n      tag_53\n      jump\t// in\n    tag_115:\n        /* \"#utility.yul\":3582:3670   */\n      swap2\n      pop\n        /* \"#utility.yul\":3398:3676   */\n      pop\n        /* \"#utility.yul\":3336:3676   */\n      swap3\n      swap2\n      pop\n      pop\n      jump\t// out\n        /* \"#utility.yul\":3682:3771   */\n    tag_55:\n        /* \"#utility.yul\":3718:3725   */\n      0x00\n        /* \"#utility.yul\":3758:3764   */\n      0xffff\n        /* \"#utility.yul\":3751:3756   */\n      dup3\n        /* \"#utility.yul\":3747:3765   */\n      and\n        /* \"#utility.yul\":3736:3765   */\n      swap1\n      pop\n        /* \"#utility.yul\":3682:3771   */\n      swap2\n      swap1\n      pop\n      jump\t// out\n        /* \"#utility.yul\":3777:3897   */\n    tag_56:\n        /* \"#utility.yul\":3849:3872   */\n      tag_118\n        /* \"#utility.yul\":3866:3871   */\n      dup2\n        /* \"#utility.yul\":3849:3872   */\n      tag_55\n      jump\t// in\n    tag_118:\n        /* \"#utility.yul\":3842:3847   */\n      dup2\n        /* \"#utility.yul\":3839:3873   */\n      eq\n        /* \"#utility.yul\":3829:3891   */\n      tag_119\n      jumpi\n        /* \"#utility.yul\":3887:3888   */\n      0x00\n        /* \"#utility.yul\":3884:3885   */\n      0x00\n        /* \"#utility.yul\":3877:3889   */\n      revert\n        /* \"#utility.yul\":3829:3891   */\n    tag_119:\n        /* \"#utility.yul\":3777:3897   */\n      pop\n      jump\t// out\n        /* \"#utility.yul\":3903:4040   */\n    tag_57:\n        /* \"#utility.yul\":3948:3953   */\n      0x00\n        /* \"#utility.yul\":3986:3992   */\n      dup2\n        /* \"#utility.yul\":3973:3993   */\n      calldataload\n        /* \"#utility.yul\":3964:3993   */\n      swap1\n      pop\n        /* \"#utility.yul\":4002:4034   */\n      tag_121\n        /* \"#utility.yul\":4028:4033   */\n      dup2\n        /* \"#utility.yul\":4002:4034   */\n      tag_56\n      jump\t// in\n    tag_121:\n        /* \"#utility.yul\":3903:4040   */\n      swap3\n      swap2\n      pop\n      pop\n      jump\t// out\n        /* \"#utility.yul\":4046:4698   */\n    tag_13:\n        /* \"#utility.yul\":4123:4129   */\n      0x00\n        /* \"#utility.yul\":4131:4137   */\n      0x00\n        /* \"#utility.yul\":4180:4182   */\n      0x40\n        /* \"#utility.yul\":4168:4177   */\n      dup4\n        /* \"#utility.yul\":4159:4166   */\n      dup6\n        /* \"#utility.yul\":4155:4178   */\n      sub\n        /* \"#utility.yul\":4151:4183   */\n      slt\n        /* \"#utility.yul\":4148:4267   */\n      iszero\n      tag_123\n      jumpi\n        /* \"#utility.yul\":4186:4265   */\n      tag_124\n      tag_44\n      jump\t// in\n    tag_124:\n        /* \"#utility.yul\":4148:4267   */\n    tag_123:\n        /* \"#utility.yul\":4334:4335   */\n      0x00\n        /* \"#utility.yul\":4323:4332   */\n      dup4\n        /* \"#utility.yul\":4319:4336   */\n      add\n        /* \"#utility.yul\":4306:4337   */\n      calldataload\n        /* \"#utility.yul\":4364:4382   */\n      0xffffffffffffffff\n        /* \"#utility.yul\":4356:4362   */\n      dup2\n        /* \"#utility.yul\":4353:4383   */\n      gt\n        /* \"#utility.yul\":4350:4467   */\n      iszero\n      tag_125\n      jumpi\n        /* \"#utility.yul\":4386:4465   */\n      tag_126\n      tag_45\n      jump\t// in\n    tag_126:\n        /* \"#utility.yul\":4350:4467   */\n    tag_125:\n        /* \"#utility.yul\":4491:4554   */\n      tag_127\n        /* \"#utility.yul\":4546:4553   */\n      dup6\n        /* \"#utility.yul\":4537:4543   */\n      dup3\n        /* \"#utility.yul\":4526:4535   */\n      dup7\n        /* \"#utility.yul\":4522:4544   */\n      add\n        /* \"#utility.yul\":4491:4554   */\n      tag_54\n      jump\t// in\n    tag_127:\n        /* \"#utility.yul\":4481:4554   */\n      swap3\n      pop\n        /* \"#utility.yul\":4277:4564   */\n      pop\n        /* \"#utility.yul\":4603:4605   */\n      0x20\n        /* \"#utility.yul\":4629:4681   */\n      tag_128\n        /* \"#utility.yul\":4673:4680   */\n      dup6\n        /* \"#utility.yul\":4664:4670   */\n      dup3\n        /* \"#utility.yul\":4653:4662   */\n      dup7\n        /* \"#utility.yul\":4649:4671   */\n      add\n        /* \"#utility.yul\":4629:4681   */\n      tag_57\n      jump\t// in\n    tag_128:\n        /* \"#utility.yul\":4619:4681   */\n      swap2\n      pop\n        /* \"#utility.yul\":4574:4691   */\n      pop\n        /* \"#utility.yul\":4046:4698   */\n      swap3\n      pop\n      swap3\n      swap1\n      pop\n      jump\t// out\n        /* \"#utility.yul\":4704:4819   */\n    tag_58:\n        /* \"#utility.yul\":4789:4812   */\n      tag_130\n        /* \"#utility.yul\":4806:4811   */\n      dup2\n        /* \"#utility.yul\":4789:4812   */\n      tag_55\n      jump\t// in\n    tag_130:\n        /* \"#utility.yul\":4784:4787   */\n      dup3\n        /* \"#utility.yul\":4777:4813   */\n      mstore\n        /* \"#utility.yul\":4704:4819   */\n      pop\n      pop\n      jump\t// out\n        /* \"#utility.yul\":4825:5043   */\n    tag_18:\n        /* \"#utility.yul\":4916:4920   */\n      0x00\n        /* \"#utility.yul\":4954:4956   */\n      0x20\n        /* \"#utility.yul\":4943:4952   */\n      dup3\n        /* \"#utility.yul\":4939:4957   */\n      add\n        /* \"#utility.yul\":4931:4957   */\n      swap1\n      pop\n        /* \"#utility.yul\":4967:5036   */\n      tag_132\n        /* \"#utility.yul\":5033:5034   */\n      0x00\n        /* \"#utility.yul\":5022:5031   */\n      dup4\n        /* \"#utility.yul\":5018:5035   */\n      add\n        /* \"#utility.yul\":5009:5015   */\n      dup5\n        /* \"#utility.yul\":4967:5036   */\n      tag_58\n      jump\t// in\n    tag_132:\n        /* \"#utility.yul\":4825:5043   */\n      swap3\n      swap2\n      pop\n      pop\n      jump\t// out\n        /* \"#utility.yul\":5049:5468   */\n    tag_22:\n        /* \"#utility.yul\":5188:5192   */\n      0x00\n        /* \"#utility.yul\":5226:5228   */\n      0x40\n        /* \"#utility.yul\":5215:5224   */\n      dup3\n        /* \"#utility.yul\":5211:5229   */\n      add\n        /* \"#utility.yul\":5203:5229   */\n      swap1\n      pop\n        /* \"#utility.yul\":5275:5284   */\n      dup2\n        /* \"#utility.yul\":5269:5273   */\n      dup2\n        /* \"#utility.yul\":5265:5285   */\n      sub\n        /* \"#utility.yul\":5261:5262   */\n      0x00\n        /* \"#utility.yul\":5250:5259   */\n      dup4\n        /* \"#utility.yul\":5246:5263   */\n      add\n        /* \"#utility.yul\":5239:5286   */\n      mstore\n        /* \"#utility.yul\":5303:5381   */\n      tag_134\n        /* \"#utility.yul\":5376:5380   */\n      dup2\n        /* \"#utility.yul\":5367:5373   */\n      dup6\n        /* \"#utility.yul\":5303:5381   */\n      tag_42\n      jump\t// in\n    tag_134:\n        /* \"#utility.yul\":5295:5381   */\n      swap1\n      pop\n        /* \"#utility.yul\":5391:5461   */\n      tag_135\n        /* \"#utility.yul\":5457:5459   */\n      0x20\n        /* \"#utility.yul\":5446:5455   */\n      dup4\n        /* \"#utility.yul\":5442:5460   */\n      add\n        /* \"#utility.yul\":5433:5439   */\n      dup5\n        /* \"#utility.yul\":5391:5461   */\n      tag_58\n      jump\t// in\n    tag_135:\n        /* \"#utility.yul\":5049:5468   */\n      swap4\n      swap3\n      pop\n      pop\n      pop\n      jump\t// out\n        /* \"#utility.yul\":5474:5654   */\n    tag_59:\n        /* \"#utility.yul\":5522:5599   */\n      0x4e487b7100000000000000000000000000000000000000000000000000000000\n        /* \"#utility.yul\":5519:5520   */\n      0x00\n        /* \"#utility.yul\":5512:5600   */\n      mstore\n        /* \"#utility.yul\":5619:5623   */\n      0x22\n        /* \"#utility.yul\":5616:5617   */\n      0x04\n        /* \"#utility.yul\":5609:5624   */\n      mstore\n        /* \"#utility.yul\":5643:5647   */\n      0x24\n        /* \"#utility.yul\":5640:5641   */\n      0x00\n        /* \"#utility.yul\":5633:5648   */\n      revert\n        /* \"#utility.yul\":5660:5980   */\n    tag_24:\n        /* \"#utility.yul\":5704:5710   */\n      0x00\n        /* \"#utility.yul\":5741:5742   */\n      0x02\n        /* \"#utility.yul\":5735:5739   */\n      dup3\n        /* \"#utility.yul\":5731:5743   */\n      div\n        /* \"#utility.yul\":5721:5743   */\n      swap1\n      pop\n        /* \"#utility.yul\":5788:5789   */\n      0x01\n        /* \"#utility.yul\":5782:5786   */\n      dup3\n        /* \"#utility.yul\":5778:5790   */\n      and\n        /* \"#utility.yul\":5809:5827   */\n      dup1\n        /* \"#utility.yul\":5799:5880   */\n      tag_138\n      jumpi\n        /* \"#utility.yul\":5865:5869   */\n      0x7f\n        /* \"#utility.yul\":5857:5863   */\n      dup3\n        /* \"#utility.yul\":5853:5870   */\n      and\n        /* \"#utility.yul\":5843:5870   */\n      swap2\n      pop\n        /* \"#utility.yul\":5799:5880   */\n    tag_138:\n        /* \"#utility.yul\":5927:5929   */\n      0x20\n        /* \"#utility.yul\":5919:5925   */\n      dup3\n        /* \"#utility.yul\":5916:5930   */\n      lt\n        /* \"#utility.yul\":5896:5914   */\n      dup2\n        /* \"#utility.yul\":5893:5931   */\n      sub\n        /* \"#utility.yul\":5890:5974   */\n      tag_139\n      jumpi\n        /* \"#utility.yul\":5946:5964   */\n      tag_140\n      tag_59\n      jump\t// in\n    tag_140:\n        /* \"#utility.yul\":5890:5974   */\n    tag_139:\n        /* \"#utility.yul\":5711:5980   */\n      pop\n        /* \"#utility.yul\":5660:5980   */\n      swap2\n      swap1\n      pop\n      jump\t// out\n        /* \"#utility.yul\":5986:6127   */\n    tag_60:\n        /* \"#utility.yul\":6035:6039   */\n      0x00\n        /* \"#utility.yul\":6058:6061   */\n      dup2\n        /* \"#utility.yul\":6050:6061   */\n      swap1\n      pop\n        /* \"#utility.yul\":6081:6084   */\n      dup2\n        /* \"#utility.yul\":6078:6079   */\n      0x00\n        /* \"#utility.yul\":6071:6085   */\n      mstore\n        /* \"#utility.yul\":6115:6119   */\n      0x20\n        /* \"#utility.yul\":6112:6113   */\n      0x00\n        /* \"#utility.yul\":6102:6120   */\n      keccak256\n        /* \"#utility.yul\":6094:6120   */\n      swap1\n      pop\n        /* \"#utility.yul\":5986:6127   */\n      swap2\n      swap1\n      pop\n      jump\t// out\n        /* \"#utility.yul\":6133:6226   */\n    tag_61:\n        /* \"#utility.yul\":6170:6176   */\n      0x00\n        /* \"#utility.yul\":6217:6219   */\n      0x20\n        /* \"#utility.yul\":6212:6214   */\n      0x1f\n        /* \"#utility.yul\":6205:6210   */\n      dup4\n        /* \"#utility.yul\":6201:6215   */\n      add\n        /* \"#utility.yul\":6197:6220   */\n      div\n        /* \"#utility.yul\":6187:6220   */\n      swap1\n      pop\n        /* \"#utility.yul\":6133:6226   */\n      swap2\n      swap1\n      pop\n      jump\t// out\n        /* \"#utility.yul\":6232:6339   */\n    tag_62:\n        /* \"#utility.yul\":6276:6284   */\n      0x00\n        /* \"#utility.yul\":6326:6331   */\n      dup3\n        /* \"#utility.yul\":6320:6324   */\n      dup3\n        /* \"#utility.yul\":6316:6332   */\n      shl\n        /* \"#utility.yul\":6295:6332   */\n      swap1\n      pop\n        /* \"#utility.yul\":6232:6339   */\n      swap3\n      swap2\n      pop\n      pop\n      jump\t// out\n        /* \"#utility.yul\":6345:6738   */\n    tag_63:\n        /* \"#utility.yul\":6414:6420   */\n      0x00\n        /* \"#utility.yul\":6464:6465   */\n      0x08\n        /* \"#utility.yul\":6452:6462   */\n      dup4\n        /* \"#utility.yul\":6448:6466   */\n      mul\n        /* \"#utility.yul\":6487:6584   */\n      tag_145\n        /* \"#utility.yul\":6517:6583   */\n      0xffffffffffffffffffffffffffffffffffffffffffffffffffffffffffffffff\n        /* \"#utility.yul\":6506:6515   */\n      dup3\n        /* \"#utility.yul\":6487:6584   */\n      tag_62\n      jump\t// in\n    tag_145:\n        /* \"#utility.yul\":6605:6644   */\n      tag_146\n        /* \"#utility.yul\":6635:6643   */\n      dup7\n        /* \"#utility.yul\":6624:6633   */\n      dup4\n        /* \"#utility.yul\":6605:6644   */\n      tag_62\n      jump\t// in\n    tag_146:\n        /* \"#utility.yul\":6593:6644   */\n      swap6\n      pop\n        /* \"#utility.yul\":6677:6681   */\n      dup1\n        /* \"#utility.yul\":6673:6682   */\n      not\n        /* \"#utility.yul\":6666:6671   */\n      dup5\n        /* \"#utility.yul\":6662:6683   */\n      and\n        /* \"#utility.yul\":6653:6683   */\n      swap4\n      pop\n        /* \"#utility.yul\":6726:6730   */\n      dup1\n        /* \"#utility.yul\":6716:6724   */\n      dup7\n        /* \"#utility.yul\":6712:6731   */\n      and\n        /* \"#utility.yul\":6705:6710   */\n      dup5\n        /* \"#utility.yul\":6702:6732   */\n      or\n        /* \"#utility.yul\":6692:6732   */\n      swap3\n      pop\n        /* \"#utility.yul\":6421:6738   */\n      pop\n      pop\n        /* \"#utility.yul\":6345:6738   */\n      swap4\n      swap3\n      pop\n      pop\n      pop\n      jump\t// out\n        /* \"#utility.yul\":6744:6821   */\n    tag_64:\n        /* \"#utility.yul\":6781:6788   */\n      0x00\n        /* \"#utility.yul\":6810:6815   */\n      dup2\n        /* \"#utility.yul\":6799:6815   */\n      swap1\n      pop\n        /* \"#utility.yul\":6744:6821   */\n      swap2\n      swap1\n      pop\n      jump\t// out\n        /* \"#utility.yul\":6827:6887   */\n    tag_65:\n        /* \"#utility.yul\":6855:6858   */\n      0x00\n        /* \"#utility.yul\":6876:6881   */\n      dup2\n        /* \"#utility.yul\":6869:6881   */\n      swap1\n      pop\n        /* \"#utility.yul\":6827:6887   */\n      swap2\n      swap1\n      pop\n      jump\t// out\n        /* \"#utility.yul\":6893:7035   */\n    tag_66:\n        /* \"#utility.yul\":6943:6952   */\n      0x00\n        /* \"#utility.yul\":6976:7029   */\n      tag_150\n        /* \"#utility.yul\":6994:7028   */\n      tag_151\n        /* \"#utility.yul\":7003:7027   */\n      tag_152\n        /* \"#utility.yul\":7021:7026   */\n      dup5\n        /* \"#utility.yul\":7003:7027   */\n      tag_64\n      jump\t// in\n    tag_152:\n        /* \"#utility.yul\":6994:7028   */\n      tag_65\n      jump\t// in\n    tag_151:\n        /* \"#utility.yul\":6976:7029   */\n      tag_64\n      jump\t// in\n    tag_150:\n        /* \"#utility.yul\":6963:7029   */\n      swap1\n      pop\n        /* \"#utility.yul\":6893:7035   */\n      swap2\n      swap1\n      pop\n      jump\t// out\n        /* \"#utility.yul\":7041:7116   */\n    tag_67:\n        /* \"#utility.yul\":7084:7087   */\n      0x00\n        /* \"#utility.yul\":7105:7110   */\n      dup2\n        /* \"#utility.yul\":7098:7110   */\n      swap1\n      pop\n        /* \"#utility.yul\":7041:7116   */\n      swap2\n      swap1\n      pop\n      jump\t// out\n        /* \"#utility.yul\":7122:7391   */\n    tag_68:\n        /* \"#utility.yul\":7232:7271   */\n      tag_155\n        /* \"#utility.yul\":7263:7270   */\n      dup4\n        /* \"#utility.yul\":7232:7271   */\n      tag_66\n      jump\t// in\n    tag_155:\n        /* \"#utility.yul\":7293:7384   */\n      tag_156\n        /* \"#utility.yul\":7342:7383   */\n      tag_157\n        /* \"#utility.yul\":7366:7382   */\n      dup3\n        /* \"#utility.yul\":7342:7383   */\n      tag_67\n      jump\t// in\n    tag_157:\n        /* \"#utility.yul\":7334:7340   */\n      dup5\n        /* \"#utility.yul\":7327:7331   */\n      dup5\n        /* \"#utility.yul\":7321:7332   */\n      sload\n        /* \"#utility.yul\":7293:7384   */\n      tag_63\n      jump\t// in\n    tag_156:\n        /* \"#utility.yul\":7287:7291   */\n      dup3\n        /* \"#utility.yul\":7280:7385   */\n      sstore\n        /* \"#utility.yul\":7198:7391   */\n      pop\n        /* \"#utility.yul\":7122:7391   */\n      pop\n      pop\n      pop\n      jump\t// out\n        /* \"#utility.yul\":7397:7470   */\n    tag_69:\n        /* \"#utility.yul\":7442:7445   */\n      0x00\n        /* \"#utility.yul\":7463:7464   */\n      0x00\n        /* \"#utility.yul\":7456:7464   */\n      swap1\n      pop\n        /* \"#utility.yul\":7397:7470   */\n      swap1\n      jump\t// out\n        /* \"#utility.yul\":7476:7665   */\n    tag_70:\n        /* \"#utility.yul\":7553:7585   */\n      tag_160\n      tag_69\n      jump\t// in\n    tag_160:\n        /* \"#utility.yul\":7594:7659   */\n      tag_161\n        /* \"#utility.yul\":7652:7658   */\n      dup2\n        /* \"#utility.yul\":7644:7650   */\n      dup5\n        /* \"#utility.yul\":7638:7642   */\n      dup5\n        /* \"#utility.yul\":7594:7659   */\n      tag_68\n      jump\t// in\n    tag_161:\n        /* \"#utility.yul\":7529:7665   */\n      pop\n        /* \"#utility.yul\":7476:7665   */\n      pop\n      pop\n      jump\t// out\n        /* \"#utility.yul\":7671:7857   */\n    tag_71:\n        /* \"#utility.yul\":7731:7851   */\n    tag_163:\n        /* \"#utility.yul\":7748:7751   */\n      dup2\n        /* \"#utility.yul\":7741:7746   */\n      dup2\n        /* \"#utility.yul\":7738:7752   */\n      lt\n        /* \"#utility.yul\":7731:7851   */\n      iszero\n      tag_165\n      jumpi\n        /* \"#utility.yul\":7802:7841   */\n      tag_166\n        /* \"#utility.yul\":7839:7840   */\n      0x00\n        /* \"#utility.yul\":7832:7837   */\n      dup3\n        /* \"#utility.yul\":7802:7841   */\n      tag_70\n      jump\t// in\n    tag_166:\n        /* \"#utility.yul\":7775:7776   */\n      0x01\n        /* \"#utility.yul\":7768:7773   */\n      dup2\n        /* \"#utility.yul\":7764:7777   */\n      add\n        /* \"#utility.yul\":7755:7777   */\n      swap1\n      pop\n        /* \"#utility.yul\":7731:7851   */\n      jump(tag_163)\n    tag_165:\n        /* \"#utility.yul\":7671:7857   */\n      pop\n      pop\n      jump\t// out\n        /* \"#utility.yul\":7863:8406   */\n    tag_72:\n        /* \"#utility.yul\":7964:7966   */\n      0x1f\n        /* \"#utility.yul\":7959:7962   */\n      dup3\n        /* \"#utility.yul\":7956:7967   */\n      gt\n        /* \"#utility.yul\":7953:8399   */\n      iszero\n      tag_168\n      jumpi\n        /* \"#utility.yul\":7998:8036   */\n      tag_169\n        /* \"#utility.yul\":8030:8035   */\n      dup2\n        /* \"#utility.yul\":7998:8036   */\n      tag_60\n      jump\t// in\n    tag_169:\n        /* \"#utility.yul\":8082:8111   */\n      tag_170\n        /* \"#utility.yul\":8100:8110   */\n      dup5\n        /* \"#utility.yul\":8082:8111   */\n      tag_61\n      jump\t// in\n    tag_170:\n        /* \"#utility.yul\":8072:8080   */\n      dup2\n        /* \"#utility.yul\":8068:8112   */\n      add\n        /* \"#utility.yul\":8265:8267   */\n      0x20\n        /* \"#utility.yul\":8253:8263   */\n      dup6\n        /* \"#utility.yul\":8250:8268   */\n      lt\n        /* \"#utility.yul\":8247:8296   */\n      iszero\n      tag_171\n      jumpi\n        /* \"#utility.yul\":8286:8294   */\n      dup2\n        /* \"#utility.yul\":8271:8294   */\n      swap1\n      pop\n        /* \"#utility.yul\":8247:8296   */\n    tag_171:\n        /* \"#utility.yul\":8309:8389   */\n      tag_172\n        /* \"#utility.yul\":8365:8387   */\n      tag_173\n        /* \"#utility.yul\":8383:8386   */\n      dup6\n        /* \"#utility.yul\":8365:8387   */\n      tag_61\n      jump\t// in\n    tag_173:\n        /* \"#utility.yul\":8355:8363   */\n      dup4\n        /* \"#utility.yul\":8351:8388   */\n      add\n        /* \"#utility.yul\":8338:8349   */\n      dup3\n        /* \"#utility.yul\":8309:8389   */\n      tag_71\n      jump\t// in\n    tag_172:\n        /* \"#utility.yul\":7968:8399   */\n      pop\n      pop\n        /* \"#utility.yul\":7953:8399   */\n    tag_168:\n        /* \"#utility.yul\":7863:8406   */\n      pop\n      pop\n      pop\n      jump\t// out\n        /* \"#utility.yul\":8412:8529   */\n    tag_73:\n        /* \"#utility.yul\":8466:8474   */\n      0x00\n        /* \"#utility.yul\":8516:8521   */\n      dup3\n        /* \"#utility.yul\":8510:8514   */\n      dup3\n        /* \"#utility.yul\":8506:8522   */\n      shr\n        /* \"#utility.yul\":8485:8522   */\n      swap1\n      pop\n        /* \"#utility.yul\":8412:8529   */\n      swap3\n      swap2\n      pop\n      pop\n      jump\t// out\n        /* \"#utility.yul\":8535:8704   */\n    tag_74:\n        /* \"#utility.yul\":8579:8585   */\n      0x00\n        /* \"#utility.yul\":8612:8663   */\n      tag_176\n        /* \"#utility.yul\":8660:8661   */\n      0x00\n        /* \"#utility.yul\":8656:8662   */\n      not\n        /* \"#utility.yul\":8648:8653   */\n      dup5\n        /* \"#utility.yul\":8645:8646   */\n      0x08\n        /* \"#utility.yul\":8641:8654   */\n      mul\n        /* \"#utility.yul\":8612:8663   */\n      tag_73\n      jump\t// in\n    tag_176:\n        /* \"#utility.yul\":8608:8664   */\n      not\n        /* \"#utility.yul\":8693:8697   */\n      dup1\n        /* \"#utility.yul\":8687:8691   */\n      dup4\n        /* \"#utility.yul\":8683:8698   */\n      and\n        /* \"#utility.yul\":8673:8698   */\n      swap2\n      pop\n        /* \"#utility.yul\":8586:8704   */\n      pop\n        /* \"#utility.yul\":8535:8704   */\n      swap3\n      swap2\n      pop\n      pop\n      jump\t// out\n        /* \"#utility.yul\":8709:9004   */\n    tag_75:\n        /* \"#utility.yul\":8785:8789   */\n      0x00\n        /* \"#utility.yul\":8931:8960   */\n      tag_178\n        /* \"#utility.yul\":8956:8959   */\n      dup4\n        /* \"#utility.yul\":8950:8954   */\n      dup4\n        /* \"#utility.yul\":8931:8960   */\n      tag_74\n      jump\t// in\n    tag_178:\n        /* \"#utility.yul\":8923:8960   */\n      swap2\n      pop\n        /* \"#utility.yul\":8993:8996   */\n      dup3\n        /* \"#utility.yul\":8990:8991   */\n      0x02\n        /* \"#utility.yul\":8986:8997   */\n      mul\n        /* \"#utility.yul\":8980:8984   */\n      dup3\n        /* \"#utility.yul\":8977:8998   */\n      or\n        /* \"#utility.yul\":8969:8998   */\n      swap1\n      pop\n        /* \"#utility.yul\":8709:9004   */\n      swap3\n      swap2\n      pop\n      pop\n      jump\t// out\n        /* \"#utility.yul\":9009:10404   */\n    tag_31:\n        /* \"#utility.yul\":9126:9163   */\n      tag_180\n        /* \"#utility.yul\":9159:9162   */\n      dup3\n        /* \"#utility.yul\":9126:9163   */\n      tag_38\n      jump\t// in\n    tag_180:\n        /* \"#utility.yul\":9228:9246   */\n      0xffffffffffffffff\n        /* \"#utility.yul\":9220:9226   */\n      dup2\n        /* \"#utility.yul\":9217:9247   */\n      gt\n        /* \"#utility.yul\":9214:9270   */\n      iszero\n      tag_181\n      jumpi\n        /* \"#utility.yul\":9250:9268   */\n      tag_182\n      tag_48\n      jump\t// in\n    tag_182:\n        /* \"#utility.yul\":9214:9270   */\n    tag_181:\n        /* \"#utility.yul\":9294:9332   */\n      tag_183\n        /* \"#utility.yul\":9326:9330   */\n      dup3\n        /* \"#utility.yul\":9320:9331   */\n      sload\n        /* \"#utility.yul\":9294:9332   */\n      tag_24\n      jump\t// in\n    tag_183:\n        /* \"#utility.yul\":9379:9446   */\n      tag_184\n        /* \"#utility.yul\":9439:9445   */\n      dup3\n        /* \"#utility.yul\":9431:9437   */\n      dup3\n        /* \"#utility.yul\":9425:9429   */\n      dup6\n        /* \"#utility.yul\":9379:9446   */\n      tag_72\n      jump\t// in\n    tag_184:\n        /* \"#utility.yul\":9473:9474   */\n      0x00\n        /* \"#utility.yul\":9497:9501   */\n      0x20\n        /* \"#utility.yul\":9484:9501   */\n      swap1\n      pop\n        /* \"#utility.yul\":9529:9531   */\n      0x1f\n        /* \"#utility.yul\":9521:9527   */\n      dup4\n        /* \"#utility.yul\":9518:9532   */\n      gt\n        /* \"#utility.yul\":9546:9547   */\n      0x01\n        /* \"#utility.yul\":9541:10159   */\n      dup2\n      eq\n      tag_186\n      jumpi\n        /* \"#utility.yul\":10203:10204   */\n      0x00\n        /* \"#utility.yul\":10220:10226   */\n      dup5\n        /* \"#utility.yul\":10217:10294   */\n      iszero\n      tag_187\n      jumpi\n        /* \"#utility.yul\":10269:10278   */\n      dup3\n        /* \"#utility.yul\":10264:10267   */\n      dup8\n        /* \"#utility.yul\":10260:10279   */\n      add\n        /* \"#utility.yul\":10254:10280   */\n      mload\n        /* \"#utility.yul\":10245:10280   */\n      swap1\n      pop\n        /* \"#utility.yul\":10217:10294   */\n    tag_187:\n        /* \"#utility.yul\":10320:10387   */\n      tag_188\n        /* \"#utility.yul\":10380:10386   */\n      dup6\n        /* \"#utility.yul\":10373:10378   */\n      dup3\n        /* \"#utility.yul\":10320:10387   */\n      tag_75\n      jump\t// in\n    tag_188:\n        /* \"#utility.yul\":10314:10318   */\n      dup7\n        /* \"#utility.yul\":10307:10388   */\n      sstore\n        /* \"#utility.yul\":10176:10398   */\n      pop\n        /* \"#utility.yul\":9511:10398   */\n      jump(tag_185)\n        /* \"#utility.yul\":9541:10159   */\n    tag_186:\n        /* \"#utility.yul\":9593:9597   */\n      0x1f\n        /* \"#utility.yul\":9589:9598   */\n      not\n        /* \"#utility.yul\":9581:9587   */\n      dup5\n        /* \"#utility.yul\":9577:9599   */\n      and\n        /* \"#utility.yul\":9627:9664   */\n      tag_189\n        /* \"#utility.yul\":9659:9663   */\n      dup7\n        /* \"#utility.yul\":9627:9664   */\n      tag_60\n      jump\t// in\n    tag_189:\n        /* \"#utility.yul\":9686:9687   */\n      0x00\n        /* \"#utility.yul\":9700:9908   */\n    tag_190:\n        /* \"#utility.yul\":9714:9721   */\n      dup3\n        /* \"#utility.yul\":9711:9712   */\n      dup2\n        /* \"#utility.yul\":9708:9722   */\n      lt\n        /* \"#utility.yul\":9700:9908   */\n      iszero\n      tag_192\n      jumpi\n        /* \"#utility.yul\":9793:9802   */\n      dup5\n        /* \"#utility.yul\":9788:9791   */\n      dup10\n        /* \"#utility.yul\":9784:9803   */\n      add\n        /* \"#utility.yul\":9778:9804   */\n      mload\n        /* \"#utility.yul\":9770:9776   */\n      dup3\n        /* \"#utility.yul\":9763:9805   */\n      sstore\n        /* \"#utility.yul\":9844:9845   */\n      0x01\n        /* \"#utility.yul\":9836:9842   */\n      dup3\n        /* \"#utility.yul\":9832:9846   */\n      add\n        /* \"#utility.yul\":9822:9846   */\n      swap2\n      pop\n        /* \"#utility.yul\":9891:9893   */\n      0x20\n        /* \"#utility.yul\":9880:9889   */\n      dup6\n        /* \"#utility.yul\":9876:9894   */\n      add\n        /* \"#utility.yul\":9863:9894   */\n      swap5\n      pop\n        /* \"#utility.yul\":9737:9741   */\n      0x20\n        /* \"#utility.yul\":9734:9735   */\n      dup2\n        /* \"#utility.yul\":9730:9742   */\n      add\n        /* \"#utility.yul\":9725:9742   */\n      swap1\n      pop\n        /* \"#utility.yul\":9700:9908   */\n      jump(tag_190)\n    tag_192:\n        /* \"#utility.yul\":9936:9942   */\n      dup7\n        /* \"#utility.yul\":9927:9934   */\n      dup4\n        /* \"#utility.yul\":9924:9943   */\n      lt\n        /* \"#utility.yul\":9921:10100   */\n      iszero\n      tag_193\n      jumpi\n        /* \"#utility.yul\":9994:10003   */\n      dup5\n        /* \"#utility.yul\":9989:9992   */\n      dup10\n        /* \"#utility.yul\":9985:10004   */\n      add\n        /* \"#utility.yul\":9979:10005   */\n      mload\n        /* \"#utility.yul\":10037:10085   */\n      tag_194\n        /* \"#utility.yul\":10079:10083   */\n      0x1f\n        /* \"#utility.yul\":10071:10077   */\n      dup10\n        /* \"#utility.yul\":10067:10084   */\n      and\n        /* \"#utility.yul\":10056:10065   */\n      dup3\n        /* \"#utility.yul\":10037:10085   */\n      tag_74\n      jump\t// in\n    tag_194:\n        /* \"#utility.yul\":10029:10035   */\n      dup4\n        /* \"#utility.yul\":10022:10086   */\n      sstore\n        /* \"#utility.yul\":9944:10100   */\n      pop\n        /* \"#utility.yul\":9921:10100   */\n    tag_193:\n        /* \"#utility.yul\":10146:10147   */\n      0x01\n        /* \"#utility.yul\":10142:10143   */\n      0x02\n        /* \"#utility.yul\":10134:10140   */\n      dup9\n        /* \"#utility.yul\":10130:10144   */\n      mul\n        /* \"#utility.yul\":10126:10148   */\n      add\n        /* \"#utility.yul\":10120:10124   */\n      dup9\n        /* \"#utility.yul\":10113:10149   */\n      sstore\n        /* \"#utility.yul\":9548:10159   */\n      pop\n      pop\n      pop\n        /* \"#utility.yul\":9511:10398   */\n    tag_185:\n      pop\n        /* \"#utility.yul\":9101:10404   */\n      pop\n      pop\n      pop\n        /* \"#utility.yul\":9009:10404   */\n      pop\n      pop\n      jump\t// out\n\n    auxdata: 0xa2646970667358221220849d2f8a58021bcc5f3d48fe60abc3cbd0fb69c06666293dd8ce4a0bc99d6bb564736f6c634300081c0033\n}\n",
				"bytecode": {
					"linkReferences": {},
					"object": "6080604052348015600e575f5ffd5b506107f78061001c5f395ff3fe608060405234801561000f575f5ffd5b506004361061004a575f3560e01c80634a79d50c1461004e57806364b131761461006c578063a035b1fe14610088578063de761c66146100a6575b5f5ffd5b6100566100c5565b60405161006391906102a8565b60405180910390f35b6100866004803603810190610081919061043c565b610150565b005b61009061017f565b60405161009d91906104a5565b60405180910390f35b6100ae610192565b6040516100bc9291906104be565b60405180910390f35b5f80546100d190610519565b80601f01602080910402602001604051908101604052809291908181526020018280546100fd90610519565b80156101485780601f1061011f57610100808354040283529160200191610148565b820191905f5260205f20905b81548152906001019060200180831161012b57829003601f168201915b505050505081565b815f908161015e91906106f2565b508060015f6101000a81548161ffff021916908361ffff1602179055505050565b60015f9054906101000a900461ffff1681565b60605f5f60015f9054906101000a900461ffff168180546101b290610519565b80601f01602080910402602001604051908101604052809291908181526020018280546101de90610519565b80156102295780601f1061020057610100808354040283529160200191610229565b820191905f5260205f20905b81548152906001019060200180831161020c57829003601f168201915b50505050509150915091509091565b5f81519050919050565b5f82825260208201905092915050565b8281835e5f83830152505050565b5f601f19601f8301169050919050565b5f61027a82610238565b6102848185610242565b9350610294818560208601610252565b61029d81610260565b840191505092915050565b5f6020820190508181035f8301526102c08184610270565b905092915050565b5f604051905090565b5f5ffd5b5f5ffd5b5f5ffd5b5f5ffd5b7f4e487b71000000000000000000000000000000000000000000000000000000005f52604160045260245ffd5b61031782610260565b810181811067ffffffffffffffff82111715610336576103356102e1565b5b80604052505050565b5f6103486102c8565b9050610354828261030e565b919050565b5f67ffffffffffffffff821115610373576103726102e1565b5b61037c82610260565b9050602081019050919050565b828183375f83830152505050565b5f6103a96103a484610359565b61033f565b9050828152602081018484840111156103c5576103c46102dd565b5b6103d0848285610389565b509392505050565b5f82601f8301126103ec576103eb6102d9565b5b81356103fc848260208601610397565b91505092915050565b5f61ffff82169050919050565b61041b81610405565b8114610425575f5ffd5b50565b5f8135905061043681610412565b92915050565b5f5f60408385031215610452576104516102d1565b5b5f83013567ffffffffffffffff81111561046f5761046e6102d5565b5b61047b858286016103d8565b925050602061048c85828601610428565b9150509250929050565b61049f81610405565b82525050565b5f6020820190506104b85f830184610496565b92915050565b5f6040820190508181035f8301526104d68185610270565b90506104e56020830184610496565b9392505050565b7f4e487b71000000000000000000000000000000000000000000000000000000005f52602260045260245ffd5b5f600282049050600182168061053057607f821691505b602082108103610543576105426104ec565b5b50919050565b5f819050815f5260205f209050919050565b5f6020601f8301049050919050565b5f82821b905092915050565b5f600883026105a57fffffffffffffffffffffffffffffffffffffffffffffffffffffffffffffffff8261056a565b6105af868361056a565b95508019841693508086168417925050509392505050565b5f819050919050565b5f819050919050565b5f6105f36105ee6105e9846105c7565b6105d0565b6105c7565b9050919050565b5f819050919050565b61060c836105d9565b610620610618826105fa565b848454610576565b825550505050565b5f5f905090565b610637610628565b610642818484610603565b505050565b5b818110156106655761065a5f8261062f565b600181019050610648565b5050565b601f8211156106aa5761067b81610549565b6106848461055b565b81016020851015610693578190505b6106a761069f8561055b565b830182610647565b50505b505050565b5f82821c905092915050565b5f6106ca5f19846008026106af565b1980831691505092915050565b5f6106e283836106bb565b9150826002028217905092915050565b6106fb82610238565b67ffffffffffffffff811115610714576107136102e1565b5b61071e8254610519565b610729828285610669565b5f60209050601f83116001811461075a575f8415610748578287015190505b61075285826106d7565b8655506107b9565b601f19841661076886610549565b5f5b8281101561078f5784890151825560018201915060208501945060208101905061076a565b868310156107ac57848901516107a8601f8916826106bb565b8355505b6001600288020188555050505b50505050505056fea2646970667358221220849d2f8a58021bcc5f3d48fe60abc3cbd0fb69c06666293dd8ce4a0bc99d6bb564736f6c634300081c0033",
					"opcodes": "PUSH1 0x80 PUSH1 0x40 MSTORE CALLVALUE DUP1 ISZERO PUSH1 0xE JUMPI PUSH0 PUSH0 REVERT JUMPDEST POP PUSH2 0x7F7 DUP1 PUSH2 0x1C PUSH0 CODECOPY PUSH0 RETURN INVALID PUSH1 0x80 PUSH1 0x40 MSTORE CALLVALUE DUP1 ISZERO PUSH2 0xF JUMPI PUSH0 PUSH0 REVERT JUMPDEST POP PUSH1 0x4 CALLDATASIZE LT PUSH2 0x4A JUMPI PUSH0 CALLDATALOAD PUSH1 0xE0 SHR DUP1 PUSH4 0x4A79D50C EQ PUSH2 0x4E JUMPI DUP1 PUSH4 0x64B13176 EQ PUSH2 0x6C JUMPI DUP1 PUSH4 0xA035B1FE EQ PUSH2 0x88 JUMPI DUP1 PUSH4 0xDE761C66 EQ PUSH2 0xA6 JUMPI JUMPDEST PUSH0 PUSH0 REVERT JUMPDEST PUSH2 0x56 PUSH2 0xC5 JUMP JUMPDEST PUSH1 0x40 MLOAD PUSH2 0x63 SWAP2 SWAP1 PUSH2 0x2A8 JUMP JUMPDEST PUSH1 0x40 MLOAD DUP1 SWAP2 SUB SWAP1 RETURN JUMPDEST PUSH2 0x86 PUSH1 0x4 DUP1 CALLDATASIZE SUB DUP2 ADD SWAP1 PUSH2 0x81 SWAP2 SWAP1 PUSH2 0x43C JUMP JUMPDEST PUSH2 0x150 JUMP JUMPDEST STOP JUMPDEST PUSH2 0x90 PUSH2 0x17F JUMP JUMPDEST PUSH1 0x40 MLOAD PUSH2 0x9D SWAP2 SWAP1 PUSH2 0x4A5 JUMP JUMPDEST PUSH1 0x40 MLOAD DUP1 SWAP2 SUB SWAP1 RETURN JUMPDEST PUSH2 0xAE PUSH2 0x192 JUMP JUMPDEST PUSH1 0x40 MLOAD PUSH2 0xBC SWAP3 SWAP2 SWAP1 PUSH2 0x4BE JUMP JUMPDEST PUSH1 0x40 MLOAD DUP1 SWAP2 SUB SWAP1 RETURN JUMPDEST PUSH0 DUP1 SLOAD PUSH2 0xD1 SWAP1 PUSH2 0x519 JUMP JUMPDEST DUP1 PUSH1 0x1F ADD PUSH1 0x20 DUP1 SWAP2 DIV MUL PUSH1 0x20 ADD PUSH1 0x40 MLOAD SWAP1 DUP2 ADD PUSH1 0x40 MSTORE DUP1 SWAP3 SWAP2 SWAP1 DUP2 DUP2 MSTORE PUSH1 0x20 ADD DUP3 DUP1 SLOAD PUSH2 0xFD SWAP1 PUSH2 0x519 JUMP JUMPDEST DUP1 ISZERO PUSH2 0x148 JUMPI DUP1 PUSH1 0x1F LT PUSH2 0x11F JUMPI PUSH2 0x100 DUP1 DUP4 SLOAD DIV MUL DUP4 MSTORE SWAP2 PUSH1 0x20 ADD SWAP2 PUSH2 0x148 JUMP JUMPDEST DUP3 ADD SWAP2 SWAP1 PUSH0 MSTORE PUSH1 0x20 PUSH0 KECCAK256 SWAP1 JUMPDEST DUP2 SLOAD DUP2 MSTORE SWAP1 PUSH1 0x1 ADD SWAP1 PUSH1 0x20 ADD DUP1 DUP4 GT PUSH2 0x12B JUMPI DUP3 SWAP1 SUB PUSH1 0x1F AND DUP3 ADD SWAP2 JUMPDEST POP POP POP POP POP DUP2 JUMP JUMPDEST DUP2 PUSH0 SWAP1 DUP2 PUSH2 0x15E SWAP2 SWAP1 PUSH2 0x6F2 JUMP JUMPDEST POP DUP1 PUSH1 0x1 PUSH0 PUSH2 0x100 EXP DUP2 SLOAD DUP2 PUSH2 0xFFFF MUL NOT AND SWAP1 DUP4 PUSH2 0xFFFF AND MUL OR SWAP1 SSTORE POP POP POP JUMP JUMPDEST PUSH1 0x1 PUSH0 SWAP1 SLOAD SWAP1 PUSH2 0x100 EXP SWAP1 DIV PUSH2 0xFFFF AND DUP2 JUMP JUMPDEST PUSH1 0x60 PUSH0 PUSH0 PUSH1 0x1 PUSH0 SWAP1 SLOAD SWAP1 PUSH2 0x100 EXP SWAP1 DIV PUSH2 0xFFFF AND DUP2 DUP1 SLOAD PUSH2 0x1B2 SWAP1 PUSH2 0x519 JUMP JUMPDEST DUP1 PUSH1 0x1F ADD PUSH1 0x20 DUP1 SWAP2 DIV MUL PUSH1 0x20 ADD PUSH1 0x40 MLOAD SWAP1 DUP2 ADD PUSH1 0x40 MSTORE DUP1 SWAP3 SWAP2 SWAP1 DUP2 DUP2 MSTORE PUSH1 0x20 ADD DUP3 DUP1 SLOAD PUSH2 0x1DE SWAP1 PUSH2 0x519 JUMP JUMPDEST DUP1 ISZERO PUSH2 0x229 JUMPI DUP1 PUSH1 0x1F LT PUSH2 0x200 JUMPI PUSH2 0x100 DUP1 DUP4 SLOAD DIV MUL DUP4 MSTORE SWAP2 PUSH1 0x20 ADD SWAP2 PUSH2 0x229 JUMP JUMPDEST DUP3 ADD SWAP2 SWAP1 PUSH0 MSTORE PUSH1 0x20 PUSH0 KECCAK256 SWAP1 JUMPDEST DUP2 SLOAD DUP2 MSTORE SWAP1 PUSH1 0x1 ADD SWAP1 PUSH1 0x20 ADD DUP1 DUP4 GT PUSH2 0x20C JUMPI DUP3 SWAP1 SUB PUSH1 0x1F AND DUP3 ADD SWAP2 JUMPDEST POP POP POP POP POP SWAP2 POP SWAP2 POP SWAP2 POP SWAP1 SWAP2 JUMP JUMPDEST PUSH0 DUP2 MLOAD SWAP1 POP SWAP2 SWAP1 POP JUMP JUMPDEST PUSH0 DUP3 DUP3 MSTORE PUSH1 0x20 DUP3 ADD SWAP1 POP SWAP3 SWAP2 POP POP JUMP JUMPDEST DUP3 DUP2 DUP4 MCOPY PUSH0 DUP4 DUP4 ADD MSTORE POP POP POP JUMP JUMPDEST PUSH0 PUSH1 0x1F NOT PUSH1 0x1F DUP4 ADD AND SWAP1 POP SWAP2 SWAP1 POP JUMP JUMPDEST PUSH0 PUSH2 0x27A DUP3 PUSH2 0x238 JUMP JUMPDEST PUSH2 0x284 DUP2 DUP6 PUSH2 0x242 JUMP JUMPDEST SWAP4 POP PUSH2 0x294 DUP2 DUP6 PUSH1 0x20 DUP7 ADD PUSH2 0x252 JUMP JUMPDEST PUSH2 0x29D DUP2 PUSH2 0x260 JUMP JUMPDEST DUP5 ADD SWAP2 POP POP SWAP3 SWAP2 POP POP JUMP JUMPDEST PUSH0 PUSH1 0x20 DUP3 ADD SWAP1 POP DUP2 DUP2 SUB PUSH0 DUP4 ADD MSTORE PUSH2 0x2C0 DUP2 DUP5 PUSH2 0x270 JUMP JUMPDEST SWAP1 POP SWAP3 SWAP2 POP POP JUMP JUMPDEST PUSH0 PUSH1 0x40 MLOAD SWAP1 POP SWAP1 JUMP JUMPDEST PUSH0 PUSH0 REVERT JUMPDEST PUSH0 PUSH0 REVERT JUMPDEST PUSH0 PUSH0 REVERT JUMPDEST PUSH0 PUSH0 REVERT JUMPDEST PUSH32 0x4E487B7100000000000000000000000000000000000000000000000000000000 PUSH0 MSTORE PUSH1 0x41 PUSH1 0x4 MSTORE PUSH1 0x24 PUSH0 REVERT JUMPDEST PUSH2 0x317 DUP3 PUSH2 0x260 JUMP JUMPDEST DUP2 ADD DUP2 DUP2 LT PUSH8 0xFFFFFFFFFFFFFFFF DUP3 GT OR ISZERO PUSH2 0x336 JUMPI PUSH2 0x335 PUSH2 0x2E1 JUMP JUMPDEST JUMPDEST DUP1 PUSH1 0x40 MSTORE POP POP POP JUMP JUMPDEST PUSH0 PUSH2 0x348 PUSH2 0x2C8 JUMP JUMPDEST SWAP1 POP PUSH2 0x354 DUP3 DUP3 PUSH2 0x30E JUMP JUMPDEST SWAP2 SWAP1 POP JUMP JUMPDEST PUSH0 PUSH8 0xFFFFFFFFFFFFFFFF DUP3 GT ISZERO PUSH2 0x373 JUMPI PUSH2 0x372 PUSH2 0x2E1 JUMP JUMPDEST JUMPDEST PUSH2 0x37C DUP3 PUSH2 0x260 JUMP JUMPDEST SWAP1 POP PUSH1 0x20 DUP2 ADD SWAP1 POP SWAP2 SWAP1 POP JUMP JUMPDEST DUP3 DUP2 DUP4 CALLDATACOPY PUSH0 DUP4 DUP4 ADD MSTORE POP POP POP JUMP JUMPDEST PUSH0 PUSH2 0x3A9 PUSH2 0x3A4 DUP5 PUSH2 0x359 JUMP JUMPDEST PUSH2 0x33F JUMP JUMPDEST SWAP1 POP DUP3 DUP2 MSTORE PUSH1 0x20 DUP2 ADD DUP5 DUP5 DUP5 ADD GT ISZERO PUSH2 0x3C5 JUMPI PUSH2 0x3C4 PUSH2 0x2DD JUMP JUMPDEST JUMPDEST PUSH2 0x3D0 DUP5 DUP3 DUP6 PUSH2 0x389 JUMP JUMPDEST POP SWAP4 SWAP3 POP POP POP JUMP JUMPDEST PUSH0 DUP3 PUSH1 0x1F DUP4 ADD SLT PUSH2 0x3EC JUMPI PUSH2 0x3EB PUSH2 0x2D9 JUMP JUMPDEST JUMPDEST DUP2 CALLDATALOAD PUSH2 0x3FC DUP5 DUP3 PUSH1 0x20 DUP7 ADD PUSH2 0x397 JUMP JUMPDEST SWAP2 POP POP SWAP3 SWAP2 POP POP JUMP JUMPDEST PUSH0 PUSH2 0xFFFF DUP3 AND SWAP1 POP SWAP2 SWAP1 POP JUMP JUMPDEST PUSH2 0x41B DUP2 PUSH2 0x405 JUMP JUMPDEST DUP2 EQ PUSH2 0x425 JUMPI PUSH0 PUSH0 REVERT JUMPDEST POP JUMP JUMPDEST PUSH0 DUP2 CALLDATALOAD SWAP1 POP PUSH2 0x436 DUP2 PUSH2 0x412 JUMP JUMPDEST SWAP3 SWAP2 POP POP JUMP JUMPDEST PUSH0 PUSH0 PUSH1 0x40 DUP4 DUP6 SUB SLT ISZERO PUSH2 0x452 JUMPI PUSH2 0x451 PUSH2 0x2D1 JUMP JUMPDEST JUMPDEST PUSH0 DUP4 ADD CALLDATALOAD PUSH8 0xFFFFFFFFFFFFFFFF DUP2 GT ISZERO PUSH2 0x46F JUMPI PUSH2 0x46E PUSH2 0x2D5 JUMP JUMPDEST JUMPDEST PUSH2 0x47B DUP6 DUP3 DUP7 ADD PUSH2 0x3D8 JUMP JUMPDEST SWAP3 POP POP PUSH1 0x20 PUSH2 0x48C DUP6 DUP3 DUP7 ADD PUSH2 0x428 JUMP JUMPDEST SWAP2 POP POP SWAP3 POP SWAP3 SWAP1 POP JUMP JUMPDEST PUSH2 0x49F DUP2 PUSH2 0x405 JUMP JUMPDEST DUP3 MSTORE POP POP JUMP JUMPDEST PUSH0 PUSH1 0x20 DUP3 ADD SWAP1 POP PUSH2 0x4B8 PUSH0 DUP4 ADD DUP5 PUSH2 0x496 JUMP JUMPDEST SWAP3 SWAP2 POP POP JUMP JUMPDEST PUSH0 PUSH1 0x40 DUP3 ADD SWAP1 POP DUP2 DUP2 SUB PUSH0 DUP4 ADD MSTORE PUSH2 0x4D6 DUP2 DUP6 PUSH2 0x270 JUMP JUMPDEST SWAP1 POP PUSH2 0x4E5 PUSH1 0x20 DUP4 ADD DUP5 PUSH2 0x496 JUMP JUMPDEST SWAP4 SWAP3 POP POP POP JUMP JUMPDEST PUSH32 0x4E487B7100000000000000000000000000000000000000000000000000000000 PUSH0 MSTORE PUSH1 0x22 PUSH1 0x4 MSTORE PUSH1 0x24 PUSH0 REVERT JUMPDEST PUSH0 PUSH1 0x2 DUP3 DIV SWAP1 POP PUSH1 0x1 DUP3 AND DUP1 PUSH2 0x530 JUMPI PUSH1 0x7F DUP3 AND SWAP2 POP JUMPDEST PUSH1 0x20 DUP3 LT DUP2 SUB PUSH2 0x543 JUMPI PUSH2 0x542 PUSH2 0x4EC JUMP JUMPDEST JUMPDEST POP SWAP2 SWAP1 POP JUMP JUMPDEST PUSH0 DUP2 SWAP1 POP DUP2 PUSH0 MSTORE PUSH1 0x20 PUSH0 KECCAK256 SWAP1 POP SWAP2 SWAP1 POP JUMP JUMPDEST PUSH0 PUSH1 0x20 PUSH1 0x1F DUP4 ADD DIV SWAP1 POP SWAP2 SWAP1 POP JUMP JUMPDEST PUSH0 DUP3 DUP3 SHL SWAP1 POP SWAP3 SWAP2 POP POP JUMP JUMPDEST PUSH0 PUSH1 0x8 DUP4 MUL PUSH2 0x5A5 PUSH32 0xFFFFFFFFFFFFFFFFFFFFFFFFFFFFFFFFFFFFFFFFFFFFFFFFFFFFFFFFFFFFFFFF DUP3 PUSH2 0x56A JUMP JUMPDEST PUSH2 0x5AF DUP7 DUP4 PUSH2 0x56A JUMP JUMPDEST SWAP6 POP DUP1 NOT DUP5 AND SWAP4 POP DUP1 DUP7 AND DUP5 OR SWAP3 POP POP POP SWAP4 SWAP3 POP POP POP JUMP JUMPDEST PUSH0 DUP2 SWAP1 POP SWAP2 SWAP1 POP JUMP JUMPDEST PUSH0 DUP2 SWAP1 POP SWAP2 SWAP1 POP JUMP JUMPDEST PUSH0 PUSH2 0x5F3 PUSH2 0x5EE PUSH2 0x5E9 DUP5 PUSH2 0x5C7 JUMP JUMPDEST PUSH2 0x5D0 JUMP JUMPDEST PUSH2 0x5C7 JUMP JUMPDEST SWAP1 POP SWAP2 SWAP1 POP JUMP JUMPDEST PUSH0 DUP2 SWAP1 POP SWAP2 SWAP1 POP JUMP JUMPDEST PUSH2 0x60C DUP4 PUSH2 0x5D9 JUMP JUMPDEST PUSH2 0x620 PUSH2 0x618 DUP3 PUSH2 0x5FA JUMP JUMPDEST DUP5 DUP5 SLOAD PUSH2 0x576 JUMP JUMPDEST DUP3 SSTORE POP POP POP POP JUMP JUMPDEST PUSH0 PUSH0 SWAP1 POP SWAP1 JUMP JUMPDEST PUSH2 0x637 PUSH2 0x628 JUMP JUMPDEST PUSH2 0x642 DUP2 DUP5 DUP5 PUSH2 0x603 JUMP JUMPDEST POP POP POP JUMP JUMPDEST JUMPDEST DUP2 DUP2 LT ISZERO PUSH2 0x665 JUMPI PUSH2 0x65A PUSH0 DUP3 PUSH2 0x62F JUMP JUMPDEST PUSH1 0x1 DUP2 ADD SWAP1 POP PUSH2 0x648 JUMP JUMPDEST POP POP JUMP JUMPDEST PUSH1 0x1F DUP3 GT ISZERO PUSH2 0x6AA JUMPI PUSH2 0x67B DUP2 PUSH2 0x549 JUMP JUMPDEST PUSH2 0x684 DUP5 PUSH2 0x55B JUMP JUMPDEST DUP2 ADD PUSH1 0x20 DUP6 LT ISZERO PUSH2 0x693 JUMPI DUP2 SWAP1 POP JUMPDEST PUSH2 0x6A7 PUSH2 0x69F DUP6 PUSH2 0x55B JUMP JUMPDEST DUP4 ADD DUP3 PUSH2 0x647 JUMP JUMPDEST POP POP JUMPDEST POP POP POP JUMP JUMPDEST PUSH0 DUP3 DUP3 SHR SWAP1 POP SWAP3 SWAP2 POP POP JUMP JUMPDEST PUSH0 PUSH2 0x6CA PUSH0 NOT DUP5 PUSH1 0x8 MUL PUSH2 0x6AF JUMP JUMPDEST NOT DUP1 DUP4 AND SWAP2 POP POP SWAP3 SWAP2 POP POP JUMP JUMPDEST PUSH0 PUSH2 0x6E2 DUP4 DUP4 PUSH2 0x6BB JUMP JUMPDEST SWAP2 POP DUP3 PUSH1 0x2 MUL DUP3 OR SWAP1 POP SWAP3 SWAP2 POP POP JUMP JUMPDEST PUSH2 0x6FB DUP3 PUSH2 0x238 JUMP JUMPDEST PUSH8 0xFFFFFFFFFFFFFFFF DUP2 GT ISZERO PUSH2 0x714 JUMPI PUSH2 0x713 PUSH2 0x2E1 JUMP JUMPDEST JUMPDEST PUSH2 0x71E DUP3 SLOAD PUSH2 0x519 JUMP JUMPDEST PUSH2 0x729 DUP3 DUP3 DUP6 PUSH2 0x669 JUMP JUMPDEST PUSH0 PUSH1 0x20 SWAP1 POP PUSH1 0x1F DUP4 GT PUSH1 0x1 DUP2 EQ PUSH2 0x75A JUMPI PUSH0 DUP5 ISZERO PUSH2 0x748 JUMPI DUP3 DUP8 ADD MLOAD SWAP1 POP JUMPDEST PUSH2 0x752 DUP6 DUP3 PUSH2 0x6D7 JUMP JUMPDEST DUP7 SSTORE POP PUSH2 0x7B9 JUMP JUMPDEST PUSH1 0x1F NOT DUP5 AND PUSH2 0x768 DUP7 PUSH2 0x549 JUMP JUMPDEST PUSH0 JUMPDEST DUP3 DUP2 LT ISZERO PUSH2 0x78F JUMPI DUP5 DUP10 ADD MLOAD DUP3 SSTORE PUSH1 0x1 DUP3 ADD SWAP2 POP PUSH1 0x20 DUP6 ADD SWAP5 POP PUSH1 0x20 DUP2 ADD SWAP1 POP PUSH2 0x76A JUMP JUMPDEST DUP7 DUP4 LT ISZERO PUSH2 0x7AC JUMPI DUP5 DUP10 ADD MLOAD PUSH2 0x7A8 PUSH1 0x1F DUP10 AND DUP3 PUSH2 0x6BB JUMP JUMPDEST DUP4 SSTORE POP JUMPDEST PUSH1 0x1 PUSH1 0x2 DUP9 MUL ADD DUP9 SSTORE POP POP POP JUMPDEST POP POP POP POP POP POP JUMP INVALID LOG2 PUSH5 0x6970667358 0x22 SLT KECCAK256 DUP5 SWAP14 0x2F DUP11 PC MUL SHL 0xCC PUSH0 RETURNDATASIZE BASEFEE INVALID PUSH1 0xAB 0xC3 0xCB 0xD0 0xFB PUSH10 0xC06666293DD8CE4A0BC9 SWAP14 PUSH12 0xB564736F6C634300081C0033 "
				},
				"gasEstimates": {
					"creation": {
						"codeDepositCost": "407800",
						"executionCost": "441",
						"totalCost": "408241"
					},
					"external": {
						"getBookDetails()": "infinite",
						"price()": "2488",
						"setBookDetails(string,uint16)": "infinite",
						"title()": "infinite"
					}
				},
				"methodIdentifiers": {
					"getBookDetails()": "de761c66",
					"price()": "a035b1fe",
					"setBookDetails(string,uint16)": "64b13176",
					"title()": "4a79d50c"
				}
			},
			"storageLayout": {
				"storage": [
					{
						"astId": 3,
						"contract": "contracts/mybook.sol:MyBook",
						"label": "title",
						"offset": 0,
						"slot": "0",
						"type": "t_string_storage"
					},
					{
						"astId": 5,
						"contract": "contracts/mybook.sol:MyBook",
						"label": "price",
						"offset": 0,
						"slot": "1",
						"type": "t_uint16"
					}
				],
				"types": {
					"t_string_storage": {
						"encoding": "bytes",
						"label": "string",
						"numberOfBytes": "32"
					},
					"t_uint16": {
						"encoding": "inplace",
						"label": "uint16",
						"numberOfBytes": "2"
					}
				}
			},
			"userdoc": {
				"kind": "user",
				"methods": {},
				"version": 1
			}
		}
	}
}