{
	"data": {
		"bytecode": {
			"linkReferences": {},
			"object": "6080604052348015600e575f80fd5b506102b98061001c5f395ff3fe608060405234801561000f575f80fd5b506004361061003f575f3560e01c8063c754665114610043578063d2ea30e214610061578063f32697161461007d575b5f80fd5b61004b61009b565b604051610058919061017f565b60405180910390f35b61007b600480360381019061007691906101d3565b610112565b005b610085610154565b604051610092919061020d565b60405180910390f35b5f8060045f8054906101000a900461ffff166100b79190610253565b61ffff1614801561010d57505f60645f8054906101000a900461ffff166100de9190610253565b61ffff1614158061010c57505f6101905f8054906101000a900461ffff166101069190610253565b61ffff16145b5b905090565b6103e88161ffff161015801561012e575061270f8161ffff1611155b610136575f80fd5b805f806101000a81548161ffff021916908361ffff16021790555050565b5f8054906101000a900461ffff1681565b5f8115159050919050565b61017981610165565b82525050565b5f6020820190506101925f830184610170565b92915050565b5f80fd5b5f61ffff82169050919050565b6101b28161019c565b81146101bc575f80fd5b50565b5f813590506101cd816101a9565b92915050565b5f602082840312156101e8576101e7610198565b5b5f6101f5848285016101bf565b91505092915050565b6102078161019c565b82525050565b5f6020820190506102205f8301846101fe565b92915050565b7f4e487b71000000000000000000000000000000000000000000000000000000005f52601260045260245ffd5b5f61025d8261019c565b91506102688361019c565b92508261027857610277610226565b5b82820690509291505056fea264697066735822122055bcacbc65c45742c41be848b39828699775c6444515228439399a501c9e14f764736f6c634300081a0033",
			"opcodes": "PUSH1 0x80 PUSH1 0x40 MSTORE CALLVALUE DUP1 ISZERO PUSH1 0xE JUMPI PUSH0 DUP1 REVERT JUMPDEST POP PUSH2 0x2B9 DUP1 PUSH2 0x1C PUSH0 CODECOPY PUSH0 RETURN INVALID PUSH1 0x80 PUSH1 0x40 MSTORE CALLVALUE DUP1 ISZERO PUSH2 0xF JUMPI PUSH0 DUP1 REVERT JUMPDEST POP PUSH1 0x4 CALLDATASIZE LT PUSH2 0x3F JUMPI PUSH0 CALLDATALOAD PUSH1 0xE0 SHR DUP1 PUSH4 0xC7546651 EQ PUSH2 0x43 JUMPI DUP1 PUSH4 0xD2EA30E2 EQ PUSH2 0x61 JUMPI DUP1 PUSH4 0xF3269716 EQ PUSH2 0x7D JUMPI JUMPDEST PUSH0 DUP1 REVERT JUMPDEST PUSH2 0x4B PUSH2 0x9B JUMP JUMPDEST PUSH1 0x40 MLOAD PUSH2 0x58 SWAP2 SWAP1 PUSH2 0x17F JUMP JUMPDEST PUSH1 0x40 MLOAD DUP1 SWAP2 SUB SWAP1 RETURN JUMPDEST PUSH2 0x7B PUSH1 0x4 DUP1 CALLDATASIZE SUB DUP2 ADD SWAP1 PUSH2 0x76 SWAP2 SWAP1 PUSH2 0x1D3 JUMP JUMPDEST PUSH2 0x112 JUMP JUMPDEST STOP JUMPDEST PUSH2 0x85 PUSH2 0x154 JUMP JUMPDEST PUSH1 0x40 MLOAD PUSH2 0x92 SWAP2 SWAP1 PUSH2 0x20D JUMP JUMPDEST PUSH1 0x40 MLOAD DUP1 SWAP2 SUB SWAP1 RETURN JUMPDEST PUSH0 DUP1 PUSH1 0x4 PUSH0 DUP1 SLOAD SWAP1 PUSH2 0x100 EXP SWAP1 DIV PUSH2 0xFFFF AND PUSH2 0xB7 SWAP2 SWAP1 PUSH2 0x253 JUMP JUMPDEST PUSH2 0xFFFF AND EQ DUP1 ISZERO PUSH2 0x10D JUMPI POP PUSH0 PUSH1 0x64 PUSH0 DUP1 SLOAD SWAP1 PUSH2 0x100 EXP SWAP1 DIV PUSH2 0xFFFF AND PUSH2 0xDE SWAP2 SWAP1 PUSH2 0x253 JUMP JUMPDEST PUSH2 0xFFFF AND EQ ISZERO DUP1 PUSH2 0x10C JUMPI POP PUSH0 PUSH2 0x190 PUSH0 DUP1 SLOAD SWAP1 PUSH2 0x100 EXP SWAP1 DIV PUSH2 0xFFFF AND PUSH2 0x106 SWAP2 SWAP1 PUSH2 0x253 JUMP JUMPDEST PUSH2 0xFFFF AND EQ JUMPDEST JUMPDEST SWAP1 POP SWAP1 JUMP JUMPDEST PUSH2 0x3E8 DUP2 PUSH2 0xFFFF AND LT ISZERO DUP1 ISZERO PUSH2 0x12E JUMPI POP PUSH2 0x270F DUP2 PUSH2 0xFFFF AND GT ISZERO JUMPDEST PUSH2 0x136 JUMPI PUSH0 DUP1 REVERT JUMPDEST DUP1 PUSH0 DUP1 PUSH2 0x100 EXP DUP2 SLOAD DUP2 PUSH2 0xFFFF MUL NOT AND SWAP1 DUP4 PUSH2 0xFFFF AND MUL OR SWAP1 SSTORE POP POP JUMP JUMPDEST PUSH0 DUP1 SLOAD SWAP1 PUSH2 0x100 EXP SWAP1 DIV PUSH2 0xFFFF AND DUP2 JUMP JUMPDEST PUSH0 DUP2 ISZERO ISZERO SWAP1 POP SWAP2 SWAP1 POP JUMP JUMPDEST PUSH2 0x179 DUP2 PUSH2 0x165 JUMP JUMPDEST DUP3 MSTORE POP POP JUMP JUMPDEST PUSH0 PUSH1 0x20 DUP3 ADD SWAP1 POP PUSH2 0x192 PUSH0 DUP4 ADD DUP5 PUSH2 0x170 JUMP JUMPDEST SWAP3 SWAP2 POP POP JUMP JUMPDEST PUSH0 DUP1 REVERT JUMPDEST PUSH0 PUSH2 0xFFFF DUP3 AND SWAP1 POP SWAP2 SWAP1 POP JUMP JUMPDEST PUSH2 0x1B2 DUP2 PUSH2 0x19C JUMP JUMPDEST DUP2 EQ PUSH2 0x1BC JUMPI PUSH0 DUP1 REVERT JUMPDEST POP JUMP JUMPDEST PUSH0 DUP2 CALLDATALOAD SWAP1 POP PUSH2 0x1CD DUP2 PUSH2 0x1A9 JUMP JUMPDEST SWAP3 SWAP2 POP POP JUMP JUMPDEST PUSH0 PUSH1 0x20 DUP3 DUP5 SUB SLT ISZERO PUSH2 0x1E8 JUMPI PUSH2 0x1E7 PUSH2 0x198 JUMP JUMPDEST JUMPDEST PUSH0 PUSH2 0x1F5 DUP5 DUP3 DUP6 ADD PUSH2 0x1BF JUMP JUMPDEST SWAP2 POP POP SWAP3 SWAP2 POP POP JUMP JUMPDEST PUSH2 0x207 DUP2 PUSH2 0x19C JUMP JUMPDEST DUP3 MSTORE POP POP JUMP JUMPDEST PUSH0 PUSH1 0x20 DUP3 ADD SWAP1 POP PUSH2 0x220 PUSH0 DUP4 ADD DUP5 PUSH2 0x1FE JUMP JUMPDEST SWAP3 SWAP2 POP POP JUMP JUMPDEST PUSH32 0x4E487B7100000000000000000000000000000000000000000000000000000000 PUSH0 MSTORE PUSH1 0x12 PUSH1 0x4 MSTORE PUSH1 0x24 PUSH0 REVERT JUMPDEST PUSH0 PUSH2 0x25D DUP3 PUSH2 0x19C JUMP JUMPDEST SWAP2 POP PUSH2 0x268 DUP4 PUSH2 0x19C JUMP JUMPDEST SWAP3 POP DUP3 PUSH2 0x278 JUMPI PUSH2 0x277 PUSH2 0x226 JUMP JUMPDEST JUMPDEST DUP3 DUP3 MOD SWAP1 POP SWAP3 SWAP2 POP POP JUMP INVALID LOG2 PUSH5 0x6970667358 0x22 SLT KECCAK256 SSTORE 0xBC 0xAC 0xBC PUSH6 0xC45742C41BE8 BASEFEE 0xB3 SWAP9 0x28 PUSH10 0x9775C644451522843939 SWAP11 POP SHR SWAP15 EQ 0xF7 PUSH5 0x736F6C6343 STOP ADDMOD BYTE STOP CALLER "
		},
		"gasEstimates": {
			"creation": {
				"codeDepositCost": "139400",
				"executionCost": "181",
				"totalCost": "139581"
			},
			"external": {
				"checkLeapYr()": "infinite",
				"setYear(uint16)": "24745",
				"year()": "2485"
			}
		},
		"methodIdentifiers": {
			"checkLeapYr()": "c7546651",
			"setYear(uint16)": "d2ea30e2",
			"year()": "f3269716"
		}
	},
	"abi": [
		{
			"inputs": [],
			"name": "checkLeapYr",
			"outputs": [
				{
					"internalType": "bool",
					"name": "",
					"type": "bool"
				}
			],
			"stateMutability": "view",
			"type": "function"
		},
		{
			"inputs": [
				{
					"internalType": "uint16",
					"name": "_year",
					"type": "uint16"
				}
			],
			"name": "setYear",
			"outputs": [],
			"stateMutability": "nonpayable",
			"type": "function"
		},
		{
			"inputs": [],
			"name": "year",
			"outputs": [
				{
					"internalType": "uint16",
					"name": "",
					"type": "uint16"
				}
			],
			"stateMutability": "view",
			"type": "function"
		}
	]
}